{
	"MerkleProof.sol": {
		"TestMerkleProof": {
			"abi": [
				{
					"inputs": [],
					"stateMutability": "nonpayable",
					"type": "constructor"
				},
				{
					"inputs": [
						{
							"internalType": "string[]",
							"name": "trangactions",
							"type": "string[]"
						}
					],
					"name": "generateMerkleTree",
					"outputs": [],
					"stateMutability": "nonpayable",
					"type": "function"
				},
				{
					"inputs": [],
					"name": "getRoot",
					"outputs": [
						{
							"internalType": "bytes32",
							"name": "",
							"type": "bytes32"
						}
					],
					"stateMutability": "view",
					"type": "function"
				},
				{
					"inputs": [
						{
							"internalType": "uint256",
							"name": "",
							"type": "uint256"
						}
					],
					"name": "hashes",
					"outputs": [
						{
							"internalType": "bytes32",
							"name": "",
							"type": "bytes32"
						}
					],
					"stateMutability": "view",
					"type": "function"
				},
				{
					"inputs": [
						{
							"internalType": "uint256",
							"name": "",
							"type": "uint256"
						}
					],
					"name": "transactions",
					"outputs": [
						{
							"internalType": "string",
							"name": "",
							"type": "string"
						}
					],
					"stateMutability": "view",
					"type": "function"
				},
				{
					"inputs": [
						{
							"internalType": "bytes32[]",
							"name": "proof",
							"type": "bytes32[]"
						},
						{
							"internalType": "bytes32",
							"name": "root",
							"type": "bytes32"
						},
						{
							"internalType": "bytes32",
							"name": "leaf",
							"type": "bytes32"
						},
						{
							"internalType": "uint256",
							"name": "index",
							"type": "uint256"
						}
					],
					"name": "verify",
					"outputs": [
						{
							"internalType": "bool",
							"name": "",
							"type": "bool"
						}
					],
					"stateMutability": "pure",
					"type": "function"
				}
			],
			"devdoc": {
				"kind": "dev",
				"methods": {},
				"version": 1
			},
			"evm": {
				"assembly": "    /* \"MerkleProof.sol\":1545:1910  contract TestMerkleProof is MerkleProof{... */\n  mstore(0x40, 0x80)\n    /* \"MerkleProof.sol\":1632:1905  constructor() {... */\n  callvalue\n  dup1\n  iszero\n  tag_1\n  jumpi\n  revert(0x00, 0x00)\ntag_1:\n  pop\n    /* \"MerkleProof.sol\":1657:1669  transactions */\n  0x01\n    /* \"MerkleProof.sol\":1657:1690  transactions.push(\"alice -> bob\") */\n  dup1\n  0x01\n  dup2\n  sload\n  add\n  dup1\n  dup3\n  sstore\n  dup1\n  swap2\n  pop\n  pop\n  0x01\n  swap1\n  sub\n  swap1\n  0x00\n  mstore\n  keccak256(0x00, 0x20)\n  add\n  0x00\n  mload(0x40)\n  dup1\n  0x40\n  add\n  0x40\n  mstore\n  dup1\n  0x0c\n  dup2\n  mstore\n  0x20\n  add\n  0x616c696365202d3e20626f620000000000000000000000000000000000000000\n  dup2\n  mstore\n  pop\n  swap1\n  swap2\n  swap1\n  swap2\n  pop\n  swap1\n  dup2\n  tag_5\n  swap2\n  swap1\n  tag_6\n  jump\t// in\ntag_5:\n  pop\n    /* \"MerkleProof.sol\":1701:1713  transactions */\n  0x01\n    /* \"MerkleProof.sol\":1701:1733  transactions.push(\"bob -> dave\") */\n  dup1\n  0x01\n  dup2\n  sload\n  add\n  dup1\n  dup3\n  sstore\n  dup1\n  swap2\n  pop\n  pop\n  0x01\n  swap1\n  sub\n  swap1\n  0x00\n  mstore\n  keccak256(0x00, 0x20)\n  add\n  0x00\n  mload(0x40)\n  dup1\n  0x40\n  add\n  0x40\n  mstore\n  dup1\n  0x0b\n  dup2\n  mstore\n  0x20\n  add\n  0x626f62202d3e2064617665000000000000000000000000000000000000000000\n  dup2\n  mstore\n  pop\n  swap1\n  swap2\n  swap1\n  swap2\n  pop\n  swap1\n  dup2\n  tag_8\n  swap2\n  swap1\n  tag_6\n  jump\t// in\ntag_8:\n  pop\n    /* \"MerkleProof.sol\":1744:1756  transactions */\n  0x01\n    /* \"MerkleProof.sol\":1744:1779  transactions.push(\"carol -> alice\") */\n  dup1\n  0x01\n  dup2\n  sload\n  add\n  dup1\n  dup3\n  sstore\n  dup1\n  swap2\n  pop\n  pop\n  0x01\n  swap1\n  sub\n  swap1\n  0x00\n  mstore\n  keccak256(0x00, 0x20)\n  add\n  0x00\n  mload(0x40)\n  dup1\n  0x40\n  add\n  0x40\n  mstore\n  dup1\n  0x0e\n  dup2\n  mstore\n  0x20\n  add\n  0x6361726f6c202d3e20616c696365000000000000000000000000000000000000\n  dup2\n  mstore\n  pop\n  swap1\n  swap2\n  swap1\n  swap2\n  pop\n  swap1\n  dup2\n  tag_10\n  swap2\n  swap1\n  tag_6\n  jump\t// in\ntag_10:\n  pop\n    /* \"MerkleProof.sol\":1790:1802  transactions */\n  0x01\n    /* \"MerkleProof.sol\":1790:1822  transactions.push(\"dave -> bob\") */\n  dup1\n  0x01\n  dup2\n  sload\n  add\n  dup1\n  dup3\n  sstore\n  dup1\n  swap2\n  pop\n  pop\n  0x01\n  swap1\n  sub\n  swap1\n  0x00\n  mstore\n  keccak256(0x00, 0x20)\n  add\n  0x00\n  mload(0x40)\n  dup1\n  0x40\n  add\n  0x40\n  mstore\n  dup1\n  0x0b\n  dup2\n  mstore\n  0x20\n  add\n  0x64617665202d3e20626f62000000000000000000000000000000000000000000\n  dup2\n  mstore\n  pop\n  swap1\n  swap2\n  swap1\n  swap2\n  pop\n  swap1\n  dup2\n  tag_12\n  swap2\n  swap1\n  tag_6\n  jump\t// in\ntag_12:\n  pop\n    /* \"MerkleProof.sol\":1865:1897  generateMerkleTree(transactions) */\n  tag_13\n    /* \"MerkleProof.sol\":1884:1896  transactions */\n  0x01\n    /* \"MerkleProof.sol\":1865:1897  generateMerkleTree(transactions) */\n  dup1\n  sload\n  dup1\n  0x20\n  mul\n  0x20\n  add\n  mload(0x40)\n  swap1\n  dup2\n  add\n  0x40\n  mstore\n  dup1\n  swap3\n  swap2\n  swap1\n  dup2\n  dup2\n  mstore\n  0x20\n  add\n  0x00\n  swap1\ntag_14:\n  dup3\n  dup3\n  lt\n  iszero\n  tag_15\n  jumpi\n  dup4\n  dup3\n  swap1\n  0x00\n  mstore\n  keccak256(0x00, 0x20)\n  add\n  dup1\n  sload\n  tag_17\n  swap1\n  tag_18\n  jump\t// in\ntag_17:\n  dup1\n  0x1f\n  add\n  0x20\n  dup1\n  swap2\n  div\n  mul\n  0x20\n  add\n  mload(0x40)\n  swap1\n  dup2\n  add\n  0x40\n  mstore\n  dup1\n  swap3\n  swap2\n  swap1\n  dup2\n  dup2\n  mstore\n  0x20\n  add\n  dup3\n  dup1\n  sload\n  tag_19\n  swap1\n  tag_18\n  jump\t// in\ntag_19:\n  dup1\n  iszero\n  tag_20\n  jumpi\n  dup1\n  0x1f\n  lt\n  tag_21\n  jumpi\n  0x0100\n  dup1\n  dup4\n  sload\n  div\n  mul\n  dup4\n  mstore\n  swap2\n  0x20\n  add\n  swap2\n  jump(tag_20)\ntag_21:\n  dup3\n  add\n  swap2\n  swap1\n  0x00\n  mstore\n  keccak256(0x00, 0x20)\n  swap1\ntag_22:\n  dup2\n  sload\n  dup2\n  mstore\n  swap1\n  0x01\n  add\n  swap1\n  0x20\n  add\n  dup1\n  dup4\n  gt\n  tag_22\n  jumpi\n  dup3\n  swap1\n  sub\n  0x1f\n  and\n  dup3\n  add\n  swap2\ntag_20:\n  pop\n  pop\n  pop\n  pop\n  pop\n  dup2\n  mstore\n  0x20\n  add\n  swap1\n  0x01\n  add\n  swap1\n  jump(tag_14)\ntag_15:\n  pop\n  pop\n  pop\n  pop\n    /* \"MerkleProof.sol\":1865:1883  generateMerkleTree */\n  shl(0x20, tag_23)\n    /* \"MerkleProof.sol\":1865:1897  generateMerkleTree(transactions) */\n  0x20\n  shr\n  jump\t// in\ntag_13:\n    /* \"MerkleProof.sol\":1545:1910  contract TestMerkleProof is MerkleProof{... */\n  jump(tag_24)\n    /* \"MerkleProof.sol\":173:740  function generateMerkleTree(string[] memory trangactions) public {... */\ntag_23:\n    /* \"MerkleProof.sol\":254:260  uint i */\n  0x00\n    /* \"MerkleProof.sol\":263:264  0 */\n  0x00\n    /* \"MerkleProof.sol\":254:264  uint i = 0 */\n  swap1\n  pop\n    /* \"MerkleProof.sol\":249:379  for (uint i = 0; i < trangactions.length; i++){... */\ntag_26:\n    /* \"MerkleProof.sol\":270:282  trangactions */\n  dup2\n    /* \"MerkleProof.sol\":270:289  trangactions.length */\n  mload\n    /* \"MerkleProof.sol\":266:267  i */\n  dup2\n    /* \"MerkleProof.sol\":266:289  i < trangactions.length */\n  lt\n    /* \"MerkleProof.sol\":249:379  for (uint i = 0; i < trangactions.length; i++){... */\n  iszero\n  tag_27\n  jumpi\n    /* \"MerkleProof.sol\":310:316  hashes */\n  0x00\n    /* \"MerkleProof.sol\":349:361  trangactions */\n  dup3\n    /* \"MerkleProof.sol\":362:363  i */\n  dup3\n    /* \"MerkleProof.sol\":349:364  trangactions[i] */\n  dup2\n  mload\n  dup2\n  lt\n  tag_29\n  jumpi\n  tag_30\n  tag_31\n  jump\t// in\ntag_30:\ntag_29:\n  0x20\n  mul\n  0x20\n  add\n  add\n  mload\n    /* \"MerkleProof.sol\":332:365  abi.encodePacked(trangactions[i]) */\n  add(0x20, mload(0x40))\n  tag_32\n  swap2\n  swap1\n  tag_33\n  jump\t// in\ntag_32:\n  mload(0x40)\n  0x20\n  dup2\n  dup4\n  sub\n  sub\n  dup2\n  mstore\n  swap1\n  0x40\n  mstore\n    /* \"MerkleProof.sol\":322:366  keccak256(abi.encodePacked(trangactions[i])) */\n  dup1\n  mload\n  swap1\n  0x20\n  add\n  keccak256\n    /* \"MerkleProof.sol\":310:367  hashes.push(keccak256(abi.encodePacked(trangactions[i]))) */\n  swap1\n  dup1\n  0x01\n  dup2\n  sload\n  add\n  dup1\n  dup3\n  sstore\n  dup1\n  swap2\n  pop\n  pop\n  0x01\n  swap1\n  sub\n  swap1\n  0x00\n  mstore\n  keccak256(0x00, 0x20)\n  add\n  0x00\n  swap1\n  swap2\n  swap1\n  swap2\n  swap1\n  swap2\n  pop\n  sstore\n    /* \"MerkleProof.sol\":291:294  i++ */\n  dup1\n  dup1\n  0x01\n  add\n  swap2\n  pop\n  pop\n    /* \"MerkleProof.sol\":249:379  for (uint i = 0; i < trangactions.length; i++){... */\n  jump(tag_26)\ntag_27:\n  pop\n    /* \"MerkleProof.sol\":387:396  uint256 n */\n  0x00\n    /* \"MerkleProof.sol\":399:411  trangactions */\n  dup2\n    /* \"MerkleProof.sol\":399:418  trangactions.length */\n  mload\n    /* \"MerkleProof.sol\":387:418  uint256 n = trangactions.length */\n  swap1\n  pop\n    /* \"MerkleProof.sol\":425:436  uint offset */\n  0x00\n    /* \"MerkleProof.sol\":439:440  0 */\n  0x00\n    /* \"MerkleProof.sol\":425:440  uint offset = 0 */\n  swap1\n  pop\n    /* \"MerkleProof.sol\":449:696  while (n > 0) {... */\ntag_35:\n    /* \"MerkleProof.sol\":460:461  0 */\n  0x00\n    /* \"MerkleProof.sol\":456:457  n */\n  dup3\n    /* \"MerkleProof.sol\":456:461  n > 0 */\n  gt\n    /* \"MerkleProof.sol\":449:696  while (n > 0) {... */\n  iszero\n  tag_36\n  jumpi\n    /* \"MerkleProof.sol\":478:484  uint i */\n  0x00\n    /* \"MerkleProof.sol\":487:488  0 */\n  0x00\n    /* \"MerkleProof.sol\":478:488  uint i = 0 */\n  swap1\n  pop\n    /* \"MerkleProof.sol\":474:689  for(uint i = 0; i < n - 1; i += 2){... */\ntag_37:\n    /* \"MerkleProof.sol\":498:499  1 */\n  0x01\n    /* \"MerkleProof.sol\":494:495  n */\n  dup4\n    /* \"MerkleProof.sol\":494:499  n - 1 */\n  tag_40\n  swap2\n  swap1\n  tag_41\n  jump\t// in\ntag_40:\n    /* \"MerkleProof.sol\":490:491  i */\n  dup2\n    /* \"MerkleProof.sol\":490:499  i < n - 1 */\n  lt\n    /* \"MerkleProof.sol\":474:689  for(uint i = 0; i < n - 1; i += 2){... */\n  iszero\n  tag_38\n  jumpi\n    /* \"MerkleProof.sol\":523:529  hashes */\n  0x00\n    /* \"MerkleProof.sol\":602:608  hashes */\n  0x00\n    /* \"MerkleProof.sol\":616:617  i */\n  dup3\n    /* \"MerkleProof.sol\":609:615  offset */\n  dup5\n    /* \"MerkleProof.sol\":609:617  offset+i */\n  tag_42\n  swap2\n  swap1\n  tag_43\n  jump\t// in\ntag_42:\n    /* \"MerkleProof.sol\":602:618  hashes[offset+i] */\n  dup2\n  sload\n  dup2\n  lt\n  tag_44\n  jumpi\n  tag_45\n  tag_31\n  jump\t// in\ntag_45:\ntag_44:\n  swap1\n  0x00\n  mstore\n  keccak256(0x00, 0x20)\n  add\n  sload\n    /* \"MerkleProof.sol\":620:626  hashes */\n  0x00\n    /* \"MerkleProof.sol\":640:641  1 */\n  0x01\n    /* \"MerkleProof.sol\":636:637  i */\n  dup5\n    /* \"MerkleProof.sol\":627:633  offset */\n  dup7\n    /* \"MerkleProof.sol\":627:637  offset + i */\n  tag_47\n  swap2\n  swap1\n  tag_43\n  jump\t// in\ntag_47:\n    /* \"MerkleProof.sol\":627:641  offset + i + 1 */\n  tag_48\n  swap2\n  swap1\n  tag_43\n  jump\t// in\ntag_48:\n    /* \"MerkleProof.sol\":620:642  hashes[offset + i + 1] */\n  dup2\n  sload\n  dup2\n  lt\n  tag_49\n  jumpi\n  tag_50\n  tag_31\n  jump\t// in\ntag_50:\ntag_49:\n  swap1\n  0x00\n  mstore\n  keccak256(0x00, 0x20)\n  add\n  sload\n    /* \"MerkleProof.sol\":585:643  abi.encodePacked(hashes[offset+i], hashes[offset + i + 1]) */\n  add(0x20, mload(0x40))\n  tag_52\n  swap3\n  swap2\n  swap1\n  tag_53\n  jump\t// in\ntag_52:\n  mload(0x40)\n  0x20\n  dup2\n  dup4\n  sub\n  sub\n  dup2\n  mstore\n  swap1\n  0x40\n  mstore\n    /* \"MerkleProof.sol\":553:662  keccak256(... */\n  dup1\n  mload\n  swap1\n  0x20\n  add\n  keccak256\n    /* \"MerkleProof.sol\":523:677  hashes.push(... */\n  swap1\n  dup1\n  0x01\n  dup2\n  sload\n  add\n  dup1\n  dup3\n  sstore\n  dup1\n  swap2\n  pop\n  pop\n  0x01\n  swap1\n  sub\n  swap1\n  0x00\n  mstore\n  keccak256(0x00, 0x20)\n  add\n  0x00\n  swap1\n  swap2\n  swap1\n  swap2\n  swap1\n  swap2\n  pop\n  sstore\n    /* \"MerkleProof.sol\":506:507  2 */\n  0x02\n    /* \"MerkleProof.sol\":501:507  i += 2 */\n  dup2\n  tag_55\n  swap2\n  swap1\n  tag_43\n  jump\t// in\ntag_55:\n  swap1\n  pop\n    /* \"MerkleProof.sol\":474:689  for(uint i = 0; i < n - 1; i += 2){... */\n  jump(tag_37)\ntag_38:\n  pop\n    /* \"MerkleProof.sol\":449:696  while (n > 0) {... */\n  jump(tag_35)\ntag_36:\n    /* \"MerkleProof.sol\":714:715  n */\n  dup2\n    /* \"MerkleProof.sol\":704:715  offset += n */\n  dup2\n  tag_56\n  swap2\n  swap1\n  tag_43\n  jump\t// in\ntag_56:\n  swap1\n  pop\n    /* \"MerkleProof.sol\":729:730  2 */\n  0x02\n    /* \"MerkleProof.sol\":724:730  n /= 2 */\n  dup3\n  tag_57\n  swap2\n  swap1\n  tag_58\n  jump\t// in\ntag_57:\n  swap2\n  pop\n    /* \"MerkleProof.sol\":238:740  {... */\n  pop\n  pop\n    /* \"MerkleProof.sol\":173:740  function generateMerkleTree(string[] memory trangactions) public {... */\n  pop\n  jump\t// out\n    /* \"#utility.yul\":7:106   */\ntag_59:\n    /* \"#utility.yul\":59:65   */\n  0x00\n    /* \"#utility.yul\":93:98   */\n  dup2\n    /* \"#utility.yul\":87:99   */\n  mload\n    /* \"#utility.yul\":77:99   */\n  swap1\n  pop\n    /* \"#utility.yul\":7:106   */\n  swap2\n  swap1\n  pop\n  jump\t// out\n    /* \"#utility.yul\":112:292   */\ntag_60:\n    /* \"#utility.yul\":160:237   */\n  0x4e487b7100000000000000000000000000000000000000000000000000000000\n    /* \"#utility.yul\":157:158   */\n  0x00\n    /* \"#utility.yul\":150:238   */\n  mstore\n    /* \"#utility.yul\":257:261   */\n  0x41\n    /* \"#utility.yul\":254:255   */\n  0x04\n    /* \"#utility.yul\":247:262   */\n  mstore\n    /* \"#utility.yul\":281:285   */\n  0x24\n    /* \"#utility.yul\":278:279   */\n  0x00\n    /* \"#utility.yul\":271:286   */\n  revert\n    /* \"#utility.yul\":298:478   */\ntag_61:\n    /* \"#utility.yul\":346:423   */\n  0x4e487b7100000000000000000000000000000000000000000000000000000000\n    /* \"#utility.yul\":343:344   */\n  0x00\n    /* \"#utility.yul\":336:424   */\n  mstore\n    /* \"#utility.yul\":443:447   */\n  0x22\n    /* \"#utility.yul\":440:441   */\n  0x04\n    /* \"#utility.yul\":433:448   */\n  mstore\n    /* \"#utility.yul\":467:471   */\n  0x24\n    /* \"#utility.yul\":464:465   */\n  0x00\n    /* \"#utility.yul\":457:472   */\n  revert\n    /* \"#utility.yul\":484:804   */\ntag_18:\n    /* \"#utility.yul\":528:534   */\n  0x00\n    /* \"#utility.yul\":565:566   */\n  0x02\n    /* \"#utility.yul\":559:563   */\n  dup3\n    /* \"#utility.yul\":555:567   */\n  div\n    /* \"#utility.yul\":545:567   */\n  swap1\n  pop\n    /* \"#utility.yul\":612:613   */\n  0x01\n    /* \"#utility.yul\":606:610   */\n  dup3\n    /* \"#utility.yul\":602:614   */\n  and\n    /* \"#utility.yul\":633:651   */\n  dup1\n    /* \"#utility.yul\":623:704   */\n  tag_91\n  jumpi\n    /* \"#utility.yul\":689:693   */\n  0x7f\n    /* \"#utility.yul\":681:687   */\n  dup3\n    /* \"#utility.yul\":677:694   */\n  and\n    /* \"#utility.yul\":667:694   */\n  swap2\n  pop\n    /* \"#utility.yul\":623:704   */\ntag_91:\n    /* \"#utility.yul\":751:753   */\n  0x20\n    /* \"#utility.yul\":743:749   */\n  dup3\n    /* \"#utility.yul\":740:754   */\n  lt\n    /* \"#utility.yul\":720:738   */\n  dup2\n    /* \"#utility.yul\":717:755   */\n  sub\n    /* \"#utility.yul\":714:798   */\n  tag_92\n  jumpi\n    /* \"#utility.yul\":770:788   */\n  tag_93\n  tag_61\n  jump\t// in\ntag_93:\n    /* \"#utility.yul\":714:798   */\ntag_92:\n    /* \"#utility.yul\":535:804   */\n  pop\n    /* \"#utility.yul\":484:804   */\n  swap2\n  swap1\n  pop\n  jump\t// out\n    /* \"#utility.yul\":810:951   */\ntag_62:\n    /* \"#utility.yul\":859:863   */\n  0x00\n    /* \"#utility.yul\":882:885   */\n  dup2\n    /* \"#utility.yul\":874:885   */\n  swap1\n  pop\n    /* \"#utility.yul\":905:908   */\n  dup2\n    /* \"#utility.yul\":902:903   */\n  0x00\n    /* \"#utility.yul\":895:909   */\n  mstore\n    /* \"#utility.yul\":939:943   */\n  0x20\n    /* \"#utility.yul\":936:937   */\n  0x00\n    /* \"#utility.yul\":926:944   */\n  keccak256\n    /* \"#utility.yul\":918:944   */\n  swap1\n  pop\n    /* \"#utility.yul\":810:951   */\n  swap2\n  swap1\n  pop\n  jump\t// out\n    /* \"#utility.yul\":957:1050   */\ntag_63:\n    /* \"#utility.yul\":994:1000   */\n  0x00\n    /* \"#utility.yul\":1041:1043   */\n  0x20\n    /* \"#utility.yul\":1036:1038   */\n  0x1f\n    /* \"#utility.yul\":1029:1034   */\n  dup4\n    /* \"#utility.yul\":1025:1039   */\n  add\n    /* \"#utility.yul\":1021:1044   */\n  div\n    /* \"#utility.yul\":1011:1044   */\n  swap1\n  pop\n    /* \"#utility.yul\":957:1050   */\n  swap2\n  swap1\n  pop\n  jump\t// out\n    /* \"#utility.yul\":1056:1163   */\ntag_64:\n    /* \"#utility.yul\":1100:1108   */\n  0x00\n    /* \"#utility.yul\":1150:1155   */\n  dup3\n    /* \"#utility.yul\":1144:1148   */\n  dup3\n    /* \"#utility.yul\":1140:1156   */\n  shl\n    /* \"#utility.yul\":1119:1156   */\n  swap1\n  pop\n    /* \"#utility.yul\":1056:1163   */\n  swap3\n  swap2\n  pop\n  pop\n  jump\t// out\n    /* \"#utility.yul\":1169:1562   */\ntag_65:\n    /* \"#utility.yul\":1238:1244   */\n  0x00\n    /* \"#utility.yul\":1288:1289   */\n  0x08\n    /* \"#utility.yul\":1276:1286   */\n  dup4\n    /* \"#utility.yul\":1272:1290   */\n  mul\n    /* \"#utility.yul\":1311:1408   */\n  tag_98\n    /* \"#utility.yul\":1341:1407   */\n  0xffffffffffffffffffffffffffffffffffffffffffffffffffffffffffffffff\n    /* \"#utility.yul\":1330:1339   */\n  dup3\n    /* \"#utility.yul\":1311:1408   */\n  tag_64\n  jump\t// in\ntag_98:\n    /* \"#utility.yul\":1429:1468   */\n  tag_99\n    /* \"#utility.yul\":1459:1467   */\n  dup7\n    /* \"#utility.yul\":1448:1457   */\n  dup4\n    /* \"#utility.yul\":1429:1468   */\n  tag_64\n  jump\t// in\ntag_99:\n    /* \"#utility.yul\":1417:1468   */\n  swap6\n  pop\n    /* \"#utility.yul\":1501:1505   */\n  dup1\n    /* \"#utility.yul\":1497:1506   */\n  not\n    /* \"#utility.yul\":1490:1495   */\n  dup5\n    /* \"#utility.yul\":1486:1507   */\n  and\n    /* \"#utility.yul\":1477:1507   */\n  swap4\n  pop\n    /* \"#utility.yul\":1550:1554   */\n  dup1\n    /* \"#utility.yul\":1540:1548   */\n  dup7\n    /* \"#utility.yul\":1536:1555   */\n  and\n    /* \"#utility.yul\":1529:1534   */\n  dup5\n    /* \"#utility.yul\":1526:1556   */\n  or\n    /* \"#utility.yul\":1516:1556   */\n  swap3\n  pop\n    /* \"#utility.yul\":1245:1562   */\n  pop\n  pop\n    /* \"#utility.yul\":1169:1562   */\n  swap4\n  swap3\n  pop\n  pop\n  pop\n  jump\t// out\n    /* \"#utility.yul\":1568:1645   */\ntag_66:\n    /* \"#utility.yul\":1605:1612   */\n  0x00\n    /* \"#utility.yul\":1634:1639   */\n  dup2\n    /* \"#utility.yul\":1623:1639   */\n  swap1\n  pop\n    /* \"#utility.yul\":1568:1645   */\n  swap2\n  swap1\n  pop\n  jump\t// out\n    /* \"#utility.yul\":1651:1711   */\ntag_67:\n    /* \"#utility.yul\":1679:1682   */\n  0x00\n    /* \"#utility.yul\":1700:1705   */\n  dup2\n    /* \"#utility.yul\":1693:1705   */\n  swap1\n  pop\n    /* \"#utility.yul\":1651:1711   */\n  swap2\n  swap1\n  pop\n  jump\t// out\n    /* \"#utility.yul\":1717:1859   */\ntag_68:\n    /* \"#utility.yul\":1767:1776   */\n  0x00\n    /* \"#utility.yul\":1800:1853   */\n  tag_103\n    /* \"#utility.yul\":1818:1852   */\n  tag_104\n    /* \"#utility.yul\":1827:1851   */\n  tag_105\n    /* \"#utility.yul\":1845:1850   */\n  dup5\n    /* \"#utility.yul\":1827:1851   */\n  tag_66\n  jump\t// in\ntag_105:\n    /* \"#utility.yul\":1818:1852   */\n  tag_67\n  jump\t// in\ntag_104:\n    /* \"#utility.yul\":1800:1853   */\n  tag_66\n  jump\t// in\ntag_103:\n    /* \"#utility.yul\":1787:1853   */\n  swap1\n  pop\n    /* \"#utility.yul\":1717:1859   */\n  swap2\n  swap1\n  pop\n  jump\t// out\n    /* \"#utility.yul\":1865:1940   */\ntag_69:\n    /* \"#utility.yul\":1908:1911   */\n  0x00\n    /* \"#utility.yul\":1929:1934   */\n  dup2\n    /* \"#utility.yul\":1922:1934   */\n  swap1\n  pop\n    /* \"#utility.yul\":1865:1940   */\n  swap2\n  swap1\n  pop\n  jump\t// out\n    /* \"#utility.yul\":1946:2215   */\ntag_70:\n    /* \"#utility.yul\":2056:2095   */\n  tag_108\n    /* \"#utility.yul\":2087:2094   */\n  dup4\n    /* \"#utility.yul\":2056:2095   */\n  tag_68\n  jump\t// in\ntag_108:\n    /* \"#utility.yul\":2117:2208   */\n  tag_109\n    /* \"#utility.yul\":2166:2207   */\n  tag_110\n    /* \"#utility.yul\":2190:2206   */\n  dup3\n    /* \"#utility.yul\":2166:2207   */\n  tag_69\n  jump\t// in\ntag_110:\n    /* \"#utility.yul\":2158:2164   */\n  dup5\n    /* \"#utility.yul\":2151:2155   */\n  dup5\n    /* \"#utility.yul\":2145:2156   */\n  sload\n    /* \"#utility.yul\":2117:2208   */\n  tag_65\n  jump\t// in\ntag_109:\n    /* \"#utility.yul\":2111:2115   */\n  dup3\n    /* \"#utility.yul\":2104:2209   */\n  sstore\n    /* \"#utility.yul\":2022:2215   */\n  pop\n    /* \"#utility.yul\":1946:2215   */\n  pop\n  pop\n  pop\n  jump\t// out\n    /* \"#utility.yul\":2221:2294   */\ntag_71:\n    /* \"#utility.yul\":2266:2269   */\n  0x00\n    /* \"#utility.yul\":2287:2288   */\n  0x00\n    /* \"#utility.yul\":2280:2288   */\n  swap1\n  pop\n    /* \"#utility.yul\":2221:2294   */\n  swap1\n  jump\t// out\n    /* \"#utility.yul\":2300:2489   */\ntag_72:\n    /* \"#utility.yul\":2377:2409   */\n  tag_113\n  tag_71\n  jump\t// in\ntag_113:\n    /* \"#utility.yul\":2418:2483   */\n  tag_114\n    /* \"#utility.yul\":2476:2482   */\n  dup2\n    /* \"#utility.yul\":2468:2474   */\n  dup5\n    /* \"#utility.yul\":2462:2466   */\n  dup5\n    /* \"#utility.yul\":2418:2483   */\n  tag_70\n  jump\t// in\ntag_114:\n    /* \"#utility.yul\":2353:2489   */\n  pop\n    /* \"#utility.yul\":2300:2489   */\n  pop\n  pop\n  jump\t// out\n    /* \"#utility.yul\":2495:2681   */\ntag_73:\n    /* \"#utility.yul\":2555:2675   */\ntag_116:\n    /* \"#utility.yul\":2572:2575   */\n  dup2\n    /* \"#utility.yul\":2565:2570   */\n  dup2\n    /* \"#utility.yul\":2562:2576   */\n  lt\n    /* \"#utility.yul\":2555:2675   */\n  iszero\n  tag_118\n  jumpi\n    /* \"#utility.yul\":2626:2665   */\n  tag_119\n    /* \"#utility.yul\":2663:2664   */\n  0x00\n    /* \"#utility.yul\":2656:2661   */\n  dup3\n    /* \"#utility.yul\":2626:2665   */\n  tag_72\n  jump\t// in\ntag_119:\n    /* \"#utility.yul\":2599:2600   */\n  0x01\n    /* \"#utility.yul\":2592:2597   */\n  dup2\n    /* \"#utility.yul\":2588:2601   */\n  add\n    /* \"#utility.yul\":2579:2601   */\n  swap1\n  pop\n    /* \"#utility.yul\":2555:2675   */\n  jump(tag_116)\ntag_118:\n    /* \"#utility.yul\":2495:2681   */\n  pop\n  pop\n  jump\t// out\n    /* \"#utility.yul\":2687:3230   */\ntag_74:\n    /* \"#utility.yul\":2788:2790   */\n  0x1f\n    /* \"#utility.yul\":2783:2786   */\n  dup3\n    /* \"#utility.yul\":2780:2791   */\n  gt\n    /* \"#utility.yul\":2777:3223   */\n  iszero\n  tag_121\n  jumpi\n    /* \"#utility.yul\":2822:2860   */\n  tag_122\n    /* \"#utility.yul\":2854:2859   */\n  dup2\n    /* \"#utility.yul\":2822:2860   */\n  tag_62\n  jump\t// in\ntag_122:\n    /* \"#utility.yul\":2906:2935   */\n  tag_123\n    /* \"#utility.yul\":2924:2934   */\n  dup5\n    /* \"#utility.yul\":2906:2935   */\n  tag_63\n  jump\t// in\ntag_123:\n    /* \"#utility.yul\":2896:2904   */\n  dup2\n    /* \"#utility.yul\":2892:2936   */\n  add\n    /* \"#utility.yul\":3089:3091   */\n  0x20\n    /* \"#utility.yul\":3077:3087   */\n  dup6\n    /* \"#utility.yul\":3074:3092   */\n  lt\n    /* \"#utility.yul\":3071:3120   */\n  iszero\n  tag_124\n  jumpi\n    /* \"#utility.yul\":3110:3118   */\n  dup2\n    /* \"#utility.yul\":3095:3118   */\n  swap1\n  pop\n    /* \"#utility.yul\":3071:3120   */\ntag_124:\n    /* \"#utility.yul\":3133:3213   */\n  tag_125\n    /* \"#utility.yul\":3189:3211   */\n  tag_126\n    /* \"#utility.yul\":3207:3210   */\n  dup6\n    /* \"#utility.yul\":3189:3211   */\n  tag_63\n  jump\t// in\ntag_126:\n    /* \"#utility.yul\":3179:3187   */\n  dup4\n    /* \"#utility.yul\":3175:3212   */\n  add\n    /* \"#utility.yul\":3162:3173   */\n  dup3\n    /* \"#utility.yul\":3133:3213   */\n  tag_73\n  jump\t// in\ntag_125:\n    /* \"#utility.yul\":2792:3223   */\n  pop\n  pop\n    /* \"#utility.yul\":2777:3223   */\ntag_121:\n    /* \"#utility.yul\":2687:3230   */\n  pop\n  pop\n  pop\n  jump\t// out\n    /* \"#utility.yul\":3236:3353   */\ntag_75:\n    /* \"#utility.yul\":3290:3298   */\n  0x00\n    /* \"#utility.yul\":3340:3345   */\n  dup3\n    /* \"#utility.yul\":3334:3338   */\n  dup3\n    /* \"#utility.yul\":3330:3346   */\n  shr\n    /* \"#utility.yul\":3309:3346   */\n  swap1\n  pop\n    /* \"#utility.yul\":3236:3353   */\n  swap3\n  swap2\n  pop\n  pop\n  jump\t// out\n    /* \"#utility.yul\":3359:3528   */\ntag_76:\n    /* \"#utility.yul\":3403:3409   */\n  0x00\n    /* \"#utility.yul\":3436:3487   */\n  tag_129\n    /* \"#utility.yul\":3484:3485   */\n  0x00\n    /* \"#utility.yul\":3480:3486   */\n  not\n    /* \"#utility.yul\":3472:3477   */\n  dup5\n    /* \"#utility.yul\":3469:3470   */\n  0x08\n    /* \"#utility.yul\":3465:3478   */\n  mul\n    /* \"#utility.yul\":3436:3487   */\n  tag_75\n  jump\t// in\ntag_129:\n    /* \"#utility.yul\":3432:3488   */\n  not\n    /* \"#utility.yul\":3517:3521   */\n  dup1\n    /* \"#utility.yul\":3511:3515   */\n  dup4\n    /* \"#utility.yul\":3507:3522   */\n  and\n    /* \"#utility.yul\":3497:3522   */\n  swap2\n  pop\n    /* \"#utility.yul\":3410:3528   */\n  pop\n    /* \"#utility.yul\":3359:3528   */\n  swap3\n  swap2\n  pop\n  pop\n  jump\t// out\n    /* \"#utility.yul\":3533:3828   */\ntag_77:\n    /* \"#utility.yul\":3609:3613   */\n  0x00\n    /* \"#utility.yul\":3755:3784   */\n  tag_131\n    /* \"#utility.yul\":3780:3783   */\n  dup4\n    /* \"#utility.yul\":3774:3778   */\n  dup4\n    /* \"#utility.yul\":3755:3784   */\n  tag_76\n  jump\t// in\ntag_131:\n    /* \"#utility.yul\":3747:3784   */\n  swap2\n  pop\n    /* \"#utility.yul\":3817:3820   */\n  dup3\n    /* \"#utility.yul\":3814:3815   */\n  0x02\n    /* \"#utility.yul\":3810:3821   */\n  mul\n    /* \"#utility.yul\":3804:3808   */\n  dup3\n    /* \"#utility.yul\":3801:3822   */\n  or\n    /* \"#utility.yul\":3793:3822   */\n  swap1\n  pop\n    /* \"#utility.yul\":3533:3828   */\n  swap3\n  swap2\n  pop\n  pop\n  jump\t// out\n    /* \"#utility.yul\":3833:5228   */\ntag_6:\n    /* \"#utility.yul\":3950:3987   */\n  tag_133\n    /* \"#utility.yul\":3983:3986   */\n  dup3\n    /* \"#utility.yul\":3950:3987   */\n  tag_59\n  jump\t// in\ntag_133:\n    /* \"#utility.yul\":4052:4070   */\n  0xffffffffffffffff\n    /* \"#utility.yul\":4044:4050   */\n  dup2\n    /* \"#utility.yul\":4041:4071   */\n  gt\n    /* \"#utility.yul\":4038:4094   */\n  iszero\n  tag_134\n  jumpi\n    /* \"#utility.yul\":4074:4092   */\n  tag_135\n  tag_60\n  jump\t// in\ntag_135:\n    /* \"#utility.yul\":4038:4094   */\ntag_134:\n    /* \"#utility.yul\":4118:4156   */\n  tag_136\n    /* \"#utility.yul\":4150:4154   */\n  dup3\n    /* \"#utility.yul\":4144:4155   */\n  sload\n    /* \"#utility.yul\":4118:4156   */\n  tag_18\n  jump\t// in\ntag_136:\n    /* \"#utility.yul\":4203:4270   */\n  tag_137\n    /* \"#utility.yul\":4263:4269   */\n  dup3\n    /* \"#utility.yul\":4255:4261   */\n  dup3\n    /* \"#utility.yul\":4249:4253   */\n  dup6\n    /* \"#utility.yul\":4203:4270   */\n  tag_74\n  jump\t// in\ntag_137:\n    /* \"#utility.yul\":4297:4298   */\n  0x00\n    /* \"#utility.yul\":4321:4325   */\n  0x20\n    /* \"#utility.yul\":4308:4325   */\n  swap1\n  pop\n    /* \"#utility.yul\":4353:4355   */\n  0x1f\n    /* \"#utility.yul\":4345:4351   */\n  dup4\n    /* \"#utility.yul\":4342:4356   */\n  gt\n    /* \"#utility.yul\":4370:4371   */\n  0x01\n    /* \"#utility.yul\":4365:4983   */\n  dup2\n  eq\n  tag_139\n  jumpi\n    /* \"#utility.yul\":5027:5028   */\n  0x00\n    /* \"#utility.yul\":5044:5050   */\n  dup5\n    /* \"#utility.yul\":5041:5118   */\n  iszero\n  tag_140\n  jumpi\n    /* \"#utility.yul\":5093:5102   */\n  dup3\n    /* \"#utility.yul\":5088:5091   */\n  dup8\n    /* \"#utility.yul\":5084:5103   */\n  add\n    /* \"#utility.yul\":5078:5104   */\n  mload\n    /* \"#utility.yul\":5069:5104   */\n  swap1\n  pop\n    /* \"#utility.yul\":5041:5118   */\ntag_140:\n    /* \"#utility.yul\":5144:5211   */\n  tag_141\n    /* \"#utility.yul\":5204:5210   */\n  dup6\n    /* \"#utility.yul\":5197:5202   */\n  dup3\n    /* \"#utility.yul\":5144:5211   */\n  tag_77\n  jump\t// in\ntag_141:\n    /* \"#utility.yul\":5138:5142   */\n  dup7\n    /* \"#utility.yul\":5131:5212   */\n  sstore\n    /* \"#utility.yul\":5000:5222   */\n  pop\n    /* \"#utility.yul\":4335:5222   */\n  jump(tag_138)\n    /* \"#utility.yul\":4365:4983   */\ntag_139:\n    /* \"#utility.yul\":4417:4421   */\n  0x1f\n    /* \"#utility.yul\":4413:4422   */\n  not\n    /* \"#utility.yul\":4405:4411   */\n  dup5\n    /* \"#utility.yul\":4401:4423   */\n  and\n    /* \"#utility.yul\":4451:4488   */\n  tag_142\n    /* \"#utility.yul\":4483:4487   */\n  dup7\n    /* \"#utility.yul\":4451:4488   */\n  tag_62\n  jump\t// in\ntag_142:\n    /* \"#utility.yul\":4510:4511   */\n  0x00\n    /* \"#utility.yul\":4524:4732   */\ntag_143:\n    /* \"#utility.yul\":4538:4545   */\n  dup3\n    /* \"#utility.yul\":4535:4536   */\n  dup2\n    /* \"#utility.yul\":4532:4546   */\n  lt\n    /* \"#utility.yul\":4524:4732   */\n  iszero\n  tag_145\n  jumpi\n    /* \"#utility.yul\":4617:4626   */\n  dup5\n    /* \"#utility.yul\":4612:4615   */\n  dup10\n    /* \"#utility.yul\":4608:4627   */\n  add\n    /* \"#utility.yul\":4602:4628   */\n  mload\n    /* \"#utility.yul\":4594:4600   */\n  dup3\n    /* \"#utility.yul\":4587:4629   */\n  sstore\n    /* \"#utility.yul\":4668:4669   */\n  0x01\n    /* \"#utility.yul\":4660:4666   */\n  dup3\n    /* \"#utility.yul\":4656:4670   */\n  add\n    /* \"#utility.yul\":4646:4670   */\n  swap2\n  pop\n    /* \"#utility.yul\":4715:4717   */\n  0x20\n    /* \"#utility.yul\":4704:4713   */\n  dup6\n    /* \"#utility.yul\":4700:4718   */\n  add\n    /* \"#utility.yul\":4687:4718   */\n  swap5\n  pop\n    /* \"#utility.yul\":4561:4565   */\n  0x20\n    /* \"#utility.yul\":4558:4559   */\n  dup2\n    /* \"#utility.yul\":4554:4566   */\n  add\n    /* \"#utility.yul\":4549:4566   */\n  swap1\n  pop\n    /* \"#utility.yul\":4524:4732   */\n  jump(tag_143)\ntag_145:\n    /* \"#utility.yul\":4760:4766   */\n  dup7\n    /* \"#utility.yul\":4751:4758   */\n  dup4\n    /* \"#utility.yul\":4748:4767   */\n  lt\n    /* \"#utility.yul\":4745:4924   */\n  iszero\n  tag_146\n  jumpi\n    /* \"#utility.yul\":4818:4827   */\n  dup5\n    /* \"#utility.yul\":4813:4816   */\n  dup10\n    /* \"#utility.yul\":4809:4828   */\n  add\n    /* \"#utility.yul\":4803:4829   */\n  mload\n    /* \"#utility.yul\":4861:4909   */\n  tag_147\n    /* \"#utility.yul\":4903:4907   */\n  0x1f\n    /* \"#utility.yul\":4895:4901   */\n  dup10\n    /* \"#utility.yul\":4891:4908   */\n  and\n    /* \"#utility.yul\":4880:4889   */\n  dup3\n    /* \"#utility.yul\":4861:4909   */\n  tag_76\n  jump\t// in\ntag_147:\n    /* \"#utility.yul\":4853:4859   */\n  dup4\n    /* \"#utility.yul\":4846:4910   */\n  sstore\n    /* \"#utility.yul\":4768:4924   */\n  pop\n    /* \"#utility.yul\":4745:4924   */\ntag_146:\n    /* \"#utility.yul\":4970:4971   */\n  0x01\n    /* \"#utility.yul\":4966:4967   */\n  0x02\n    /* \"#utility.yul\":4958:4964   */\n  dup9\n    /* \"#utility.yul\":4954:4968   */\n  mul\n    /* \"#utility.yul\":4950:4972   */\n  add\n    /* \"#utility.yul\":4944:4948   */\n  dup9\n    /* \"#utility.yul\":4937:4973   */\n  sstore\n    /* \"#utility.yul\":4372:4983   */\n  pop\n  pop\n  pop\n    /* \"#utility.yul\":4335:5222   */\ntag_138:\n  pop\n    /* \"#utility.yul\":3925:5228   */\n  pop\n  pop\n  pop\n    /* \"#utility.yul\":3833:5228   */\n  pop\n  pop\n  jump\t// out\n    /* \"#utility.yul\":5234:5414   */\ntag_31:\n    /* \"#utility.yul\":5282:5359   */\n  0x4e487b7100000000000000000000000000000000000000000000000000000000\n    /* \"#utility.yul\":5279:5280   */\n  0x00\n    /* \"#utility.yul\":5272:5360   */\n  mstore\n    /* \"#utility.yul\":5379:5383   */\n  0x32\n    /* \"#utility.yul\":5376:5377   */\n  0x04\n    /* \"#utility.yul\":5369:5384   */\n  mstore\n    /* \"#utility.yul\":5403:5407   */\n  0x24\n    /* \"#utility.yul\":5400:5401   */\n  0x00\n    /* \"#utility.yul\":5393:5408   */\n  revert\n    /* \"#utility.yul\":5420:5568   */\ntag_78:\n    /* \"#utility.yul\":5522:5533   */\n  0x00\n    /* \"#utility.yul\":5559:5562   */\n  dup2\n    /* \"#utility.yul\":5544:5562   */\n  swap1\n  pop\n    /* \"#utility.yul\":5420:5568   */\n  swap3\n  swap2\n  pop\n  pop\n  jump\t// out\n    /* \"#utility.yul\":5574:5713   */\ntag_79:\n    /* \"#utility.yul\":5663:5669   */\n  dup3\n    /* \"#utility.yul\":5658:5661   */\n  dup2\n    /* \"#utility.yul\":5653:5656   */\n  dup4\n    /* \"#utility.yul\":5647:5670   */\n  mcopy\n    /* \"#utility.yul\":5704:5705   */\n  0x00\n    /* \"#utility.yul\":5695:5701   */\n  dup4\n    /* \"#utility.yul\":5690:5693   */\n  dup4\n    /* \"#utility.yul\":5686:5702   */\n  add\n    /* \"#utility.yul\":5679:5706   */\n  mstore\n    /* \"#utility.yul\":5574:5713   */\n  pop\n  pop\n  pop\n  jump\t// out\n    /* \"#utility.yul\":5719:6109   */\ntag_80:\n    /* \"#utility.yul\":5825:5828   */\n  0x00\n    /* \"#utility.yul\":5853:5892   */\n  tag_152\n    /* \"#utility.yul\":5886:5891   */\n  dup3\n    /* \"#utility.yul\":5853:5892   */\n  tag_59\n  jump\t// in\ntag_152:\n    /* \"#utility.yul\":5908:5997   */\n  tag_153\n    /* \"#utility.yul\":5990:5996   */\n  dup2\n    /* \"#utility.yul\":5985:5988   */\n  dup6\n    /* \"#utility.yul\":5908:5997   */\n  tag_78\n  jump\t// in\ntag_153:\n    /* \"#utility.yul\":5901:5997   */\n  swap4\n  pop\n    /* \"#utility.yul\":6006:6071   */\n  tag_154\n    /* \"#utility.yul\":6064:6070   */\n  dup2\n    /* \"#utility.yul\":6059:6062   */\n  dup6\n    /* \"#utility.yul\":6052:6056   */\n  0x20\n    /* \"#utility.yul\":6045:6050   */\n  dup7\n    /* \"#utility.yul\":6041:6057   */\n  add\n    /* \"#utility.yul\":6006:6071   */\n  tag_79\n  jump\t// in\ntag_154:\n    /* \"#utility.yul\":6096:6102   */\n  dup1\n    /* \"#utility.yul\":6091:6094   */\n  dup5\n    /* \"#utility.yul\":6087:6103   */\n  add\n    /* \"#utility.yul\":6080:6103   */\n  swap2\n  pop\n    /* \"#utility.yul\":5829:6109   */\n  pop\n    /* \"#utility.yul\":5719:6109   */\n  swap3\n  swap2\n  pop\n  pop\n  jump\t// out\n    /* \"#utility.yul\":6115:6390   */\ntag_33:\n    /* \"#utility.yul\":6247:6250   */\n  0x00\n    /* \"#utility.yul\":6269:6364   */\n  tag_156\n    /* \"#utility.yul\":6360:6363   */\n  dup3\n    /* \"#utility.yul\":6351:6357   */\n  dup5\n    /* \"#utility.yul\":6269:6364   */\n  tag_80\n  jump\t// in\ntag_156:\n    /* \"#utility.yul\":6262:6364   */\n  swap2\n  pop\n    /* \"#utility.yul\":6381:6384   */\n  dup2\n    /* \"#utility.yul\":6374:6384   */\n  swap1\n  pop\n    /* \"#utility.yul\":6115:6390   */\n  swap3\n  swap2\n  pop\n  pop\n  jump\t// out\n    /* \"#utility.yul\":6396:6576   */\ntag_81:\n    /* \"#utility.yul\":6444:6521   */\n  0x4e487b7100000000000000000000000000000000000000000000000000000000\n    /* \"#utility.yul\":6441:6442   */\n  0x00\n    /* \"#utility.yul\":6434:6522   */\n  mstore\n    /* \"#utility.yul\":6541:6545   */\n  0x11\n    /* \"#utility.yul\":6538:6539   */\n  0x04\n    /* \"#utility.yul\":6531:6546   */\n  mstore\n    /* \"#utility.yul\":6565:6569   */\n  0x24\n    /* \"#utility.yul\":6562:6563   */\n  0x00\n    /* \"#utility.yul\":6555:6570   */\n  revert\n    /* \"#utility.yul\":6582:6776   */\ntag_41:\n    /* \"#utility.yul\":6622:6626   */\n  0x00\n    /* \"#utility.yul\":6642:6662   */\n  tag_159\n    /* \"#utility.yul\":6660:6661   */\n  dup3\n    /* \"#utility.yul\":6642:6662   */\n  tag_66\n  jump\t// in\ntag_159:\n    /* \"#utility.yul\":6637:6662   */\n  swap2\n  pop\n    /* \"#utility.yul\":6676:6696   */\n  tag_160\n    /* \"#utility.yul\":6694:6695   */\n  dup4\n    /* \"#utility.yul\":6676:6696   */\n  tag_66\n  jump\t// in\ntag_160:\n    /* \"#utility.yul\":6671:6696   */\n  swap3\n  pop\n    /* \"#utility.yul\":6720:6721   */\n  dup3\n    /* \"#utility.yul\":6717:6718   */\n  dup3\n    /* \"#utility.yul\":6713:6722   */\n  sub\n    /* \"#utility.yul\":6705:6722   */\n  swap1\n  pop\n    /* \"#utility.yul\":6744:6745   */\n  dup2\n    /* \"#utility.yul\":6738:6742   */\n  dup2\n    /* \"#utility.yul\":6735:6746   */\n  gt\n    /* \"#utility.yul\":6732:6769   */\n  iszero\n  tag_161\n  jumpi\n    /* \"#utility.yul\":6749:6767   */\n  tag_162\n  tag_81\n  jump\t// in\ntag_162:\n    /* \"#utility.yul\":6732:6769   */\ntag_161:\n    /* \"#utility.yul\":6582:6776   */\n  swap3\n  swap2\n  pop\n  pop\n  jump\t// out\n    /* \"#utility.yul\":6782:6973   */\ntag_43:\n    /* \"#utility.yul\":6822:6825   */\n  0x00\n    /* \"#utility.yul\":6841:6861   */\n  tag_164\n    /* \"#utility.yul\":6859:6860   */\n  dup3\n    /* \"#utility.yul\":6841:6861   */\n  tag_66\n  jump\t// in\ntag_164:\n    /* \"#utility.yul\":6836:6861   */\n  swap2\n  pop\n    /* \"#utility.yul\":6875:6895   */\n  tag_165\n    /* \"#utility.yul\":6893:6894   */\n  dup4\n    /* \"#utility.yul\":6875:6895   */\n  tag_66\n  jump\t// in\ntag_165:\n    /* \"#utility.yul\":6870:6895   */\n  swap3\n  pop\n    /* \"#utility.yul\":6918:6919   */\n  dup3\n    /* \"#utility.yul\":6915:6916   */\n  dup3\n    /* \"#utility.yul\":6911:6920   */\n  add\n    /* \"#utility.yul\":6904:6920   */\n  swap1\n  pop\n    /* \"#utility.yul\":6939:6942   */\n  dup1\n    /* \"#utility.yul\":6936:6937   */\n  dup3\n    /* \"#utility.yul\":6933:6943   */\n  gt\n    /* \"#utility.yul\":6930:6966   */\n  iszero\n  tag_166\n  jumpi\n    /* \"#utility.yul\":6946:6964   */\n  tag_167\n  tag_81\n  jump\t// in\ntag_167:\n    /* \"#utility.yul\":6930:6966   */\ntag_166:\n    /* \"#utility.yul\":6782:6973   */\n  swap3\n  swap2\n  pop\n  pop\n  jump\t// out\n    /* \"#utility.yul\":6979:7056   */\ntag_82:\n    /* \"#utility.yul\":7016:7023   */\n  0x00\n    /* \"#utility.yul\":7045:7050   */\n  dup2\n    /* \"#utility.yul\":7034:7050   */\n  swap1\n  pop\n    /* \"#utility.yul\":6979:7056   */\n  swap2\n  swap1\n  pop\n  jump\t// out\n    /* \"#utility.yul\":7062:7141   */\ntag_83:\n    /* \"#utility.yul\":7101:7108   */\n  0x00\n    /* \"#utility.yul\":7130:7135   */\n  dup2\n    /* \"#utility.yul\":7119:7135   */\n  swap1\n  pop\n    /* \"#utility.yul\":7062:7141   */\n  swap2\n  swap1\n  pop\n  jump\t// out\n    /* \"#utility.yul\":7147:7304   */\ntag_84:\n    /* \"#utility.yul\":7252:7297   */\n  tag_171\n    /* \"#utility.yul\":7272:7296   */\n  tag_172\n    /* \"#utility.yul\":7290:7295   */\n  dup3\n    /* \"#utility.yul\":7272:7296   */\n  tag_82\n  jump\t// in\ntag_172:\n    /* \"#utility.yul\":7252:7297   */\n  tag_83\n  jump\t// in\ntag_171:\n    /* \"#utility.yul\":7247:7250   */\n  dup3\n    /* \"#utility.yul\":7240:7298   */\n  mstore\n    /* \"#utility.yul\":7147:7304   */\n  pop\n  pop\n  jump\t// out\n    /* \"#utility.yul\":7310:7707   */\ntag_53:\n    /* \"#utility.yul\":7450:7453   */\n  0x00\n    /* \"#utility.yul\":7465:7540   */\n  tag_174\n    /* \"#utility.yul\":7536:7539   */\n  dup3\n    /* \"#utility.yul\":7527:7533   */\n  dup6\n    /* \"#utility.yul\":7465:7540   */\n  tag_84\n  jump\t// in\ntag_174:\n    /* \"#utility.yul\":7565:7567   */\n  0x20\n    /* \"#utility.yul\":7560:7563   */\n  dup3\n    /* \"#utility.yul\":7556:7568   */\n  add\n    /* \"#utility.yul\":7549:7568   */\n  swap2\n  pop\n    /* \"#utility.yul\":7578:7653   */\n  tag_175\n    /* \"#utility.yul\":7649:7652   */\n  dup3\n    /* \"#utility.yul\":7640:7646   */\n  dup5\n    /* \"#utility.yul\":7578:7653   */\n  tag_84\n  jump\t// in\ntag_175:\n    /* \"#utility.yul\":7678:7680   */\n  0x20\n    /* \"#utility.yul\":7673:7676   */\n  dup3\n    /* \"#utility.yul\":7669:7681   */\n  add\n    /* \"#utility.yul\":7662:7681   */\n  swap2\n  pop\n    /* \"#utility.yul\":7698:7701   */\n  dup2\n    /* \"#utility.yul\":7691:7701   */\n  swap1\n  pop\n    /* \"#utility.yul\":7310:7707   */\n  swap4\n  swap3\n  pop\n  pop\n  pop\n  jump\t// out\n    /* \"#utility.yul\":7713:7893   */\ntag_85:\n    /* \"#utility.yul\":7761:7838   */\n  0x4e487b7100000000000000000000000000000000000000000000000000000000\n    /* \"#utility.yul\":7758:7759   */\n  0x00\n    /* \"#utility.yul\":7751:7839   */\n  mstore\n    /* \"#utility.yul\":7858:7862   */\n  0x12\n    /* \"#utility.yul\":7855:7856   */\n  0x04\n    /* \"#utility.yul\":7848:7863   */\n  mstore\n    /* \"#utility.yul\":7882:7886   */\n  0x24\n    /* \"#utility.yul\":7879:7880   */\n  0x00\n    /* \"#utility.yul\":7872:7887   */\n  revert\n    /* \"#utility.yul\":7899:8084   */\ntag_58:\n    /* \"#utility.yul\":7939:7940   */\n  0x00\n    /* \"#utility.yul\":7956:7976   */\n  tag_178\n    /* \"#utility.yul\":7974:7975   */\n  dup3\n    /* \"#utility.yul\":7956:7976   */\n  tag_66\n  jump\t// in\ntag_178:\n    /* \"#utility.yul\":7951:7976   */\n  swap2\n  pop\n    /* \"#utility.yul\":7990:8010   */\n  tag_179\n    /* \"#utility.yul\":8008:8009   */\n  dup4\n    /* \"#utility.yul\":7990:8010   */\n  tag_66\n  jump\t// in\ntag_179:\n    /* \"#utility.yul\":7985:8010   */\n  swap3\n  pop\n    /* \"#utility.yul\":8029:8030   */\n  dup3\n    /* \"#utility.yul\":8019:8054   */\n  tag_180\n  jumpi\n    /* \"#utility.yul\":8034:8052   */\n  tag_181\n  tag_85\n  jump\t// in\ntag_181:\n    /* \"#utility.yul\":8019:8054   */\ntag_180:\n    /* \"#utility.yul\":8076:8077   */\n  dup3\n    /* \"#utility.yul\":8073:8074   */\n  dup3\n    /* \"#utility.yul\":8069:8078   */\n  div\n    /* \"#utility.yul\":8064:8078   */\n  swap1\n  pop\n    /* \"#utility.yul\":7899:8084   */\n  swap3\n  swap2\n  pop\n  pop\n  jump\t// out\n    /* \"MerkleProof.sol\":1545:1910  contract TestMerkleProof is MerkleProof{... */\ntag_24:\n  dataSize(sub_0)\n  dup1\n  dataOffset(sub_0)\n  0x00\n  codecopy\n  0x00\n  return\nstop\n\nsub_0: assembly {\n        /* \"MerkleProof.sol\":1545:1910  contract TestMerkleProof is MerkleProof{... */\n      mstore(0x40, 0x80)\n      callvalue\n      dup1\n      iszero\n      tag_1\n      jumpi\n      revert(0x00, 0x00)\n    tag_1:\n      pop\n      jumpi(tag_2, lt(calldatasize, 0x04))\n      shr(0xe0, calldataload(0x00))\n      dup1\n      0x21fb335c\n      eq\n      tag_3\n      jumpi\n      dup1\n      0x501895ae\n      eq\n      tag_4\n      jumpi\n      dup1\n      0x5ca1e165\n      eq\n      tag_5\n      jumpi\n      dup1\n      0x9ace38c2\n      eq\n      tag_6\n      jumpi\n      dup1\n      0xf609fdc3\n      eq\n      tag_7\n      jumpi\n    tag_2:\n      revert(0x00, 0x00)\n        /* \"MerkleProof.sol\":778:1362  function verify(... */\n    tag_3:\n      tag_8\n      0x04\n      dup1\n      calldatasize\n      sub\n      dup2\n      add\n      swap1\n      tag_9\n      swap2\n      swap1\n      tag_10\n      jump\t// in\n    tag_9:\n      tag_11\n      jump\t// in\n    tag_8:\n      mload(0x40)\n      tag_12\n      swap2\n      swap1\n      tag_13\n      jump\t// in\n    tag_12:\n      mload(0x40)\n      dup1\n      swap2\n      sub\n      swap1\n      return\n        /* \"MerkleProof.sol\":114:137  bytes32[] public hashes */\n    tag_4:\n      tag_14\n      0x04\n      dup1\n      calldatasize\n      sub\n      dup2\n      add\n      swap1\n      tag_15\n      swap2\n      swap1\n      tag_16\n      jump\t// in\n    tag_15:\n      tag_17\n      jump\t// in\n    tag_14:\n      mload(0x40)\n      tag_18\n      swap2\n      swap1\n      tag_19\n      jump\t// in\n    tag_18:\n      mload(0x40)\n      dup1\n      swap2\n      sub\n      swap1\n      return\n        /* \"MerkleProof.sol\":1405:1505  function getRoot() public view returns (bytes32) {... */\n    tag_5:\n      tag_20\n      tag_21\n      jump\t// in\n    tag_20:\n      mload(0x40)\n      tag_22\n      swap2\n      swap1\n      tag_19\n      jump\t// in\n    tag_22:\n      mload(0x40)\n      dup1\n      swap2\n      sub\n      swap1\n      return\n        /* \"MerkleProof.sol\":1591:1619  string[] public transactions */\n    tag_6:\n      tag_23\n      0x04\n      dup1\n      calldatasize\n      sub\n      dup2\n      add\n      swap1\n      tag_24\n      swap2\n      swap1\n      tag_16\n      jump\t// in\n    tag_24:\n      tag_25\n      jump\t// in\n    tag_23:\n      mload(0x40)\n      tag_26\n      swap2\n      swap1\n      tag_27\n      jump\t// in\n    tag_26:\n      mload(0x40)\n      dup1\n      swap2\n      sub\n      swap1\n      return\n        /* \"MerkleProof.sol\":173:740  function generateMerkleTree(string[] memory trangactions) public {... */\n    tag_7:\n      tag_28\n      0x04\n      dup1\n      calldatasize\n      sub\n      dup2\n      add\n      swap1\n      tag_29\n      swap2\n      swap1\n      tag_30\n      jump\t// in\n    tag_29:\n      tag_31\n      jump\t// in\n    tag_28:\n      stop\n        /* \"MerkleProof.sol\":778:1362  function verify(... */\n    tag_11:\n        /* \"MerkleProof.sol\":921:925  bool */\n      0x00\n        /* \"MerkleProof.sol\":937:949  bytes32 hash */\n      0x00\n        /* \"MerkleProof.sol\":952:956  leaf */\n      dup4\n        /* \"MerkleProof.sol\":937:956  bytes32 hash = leaf */\n      swap1\n      pop\n        /* \"MerkleProof.sol\":973:979  uint i */\n      0x00\n        /* \"MerkleProof.sol\":982:983  0 */\n      0x00\n        /* \"MerkleProof.sol\":973:983  uint i = 0 */\n      swap1\n      pop\n        /* \"MerkleProof.sol\":969:1323  for(uint i = 0; i < proof.length; i++){... */\n    tag_33:\n        /* \"MerkleProof.sol\":989:994  proof */\n      dup7\n        /* \"MerkleProof.sol\":989:1001  proof.length */\n      mload\n        /* \"MerkleProof.sol\":985:986  i */\n      dup2\n        /* \"MerkleProof.sol\":985:1001  i < proof.length */\n      lt\n        /* \"MerkleProof.sol\":969:1323  for(uint i = 0; i < proof.length; i++){... */\n      iszero\n      tag_34\n      jumpi\n        /* \"MerkleProof.sol\":1022:1042  bytes32 proofElement */\n      0x00\n        /* \"MerkleProof.sol\":1045:1050  proof */\n      dup8\n        /* \"MerkleProof.sol\":1051:1052  i */\n      dup3\n        /* \"MerkleProof.sol\":1045:1053  proof[i] */\n      dup2\n      mload\n      dup2\n      lt\n      tag_36\n      jumpi\n      tag_37\n      tag_38\n      jump\t// in\n    tag_37:\n    tag_36:\n      0x20\n      mul\n      0x20\n      add\n      add\n      mload\n        /* \"MerkleProof.sol\":1022:1053  bytes32 proofElement = proof[i] */\n      swap1\n      pop\n        /* \"MerkleProof.sol\":1086:1087  0 */\n      0x00\n        /* \"MerkleProof.sol\":1081:1082  2 */\n      0x02\n        /* \"MerkleProof.sol\":1073:1078  index */\n      dup7\n        /* \"MerkleProof.sol\":1073:1082  index % 2 */\n      tag_39\n      swap2\n      swap1\n      tag_40\n      jump\t// in\n    tag_39:\n        /* \"MerkleProof.sol\":1073:1087  index % 2 == 0 */\n      sub\n        /* \"MerkleProof.sol\":1070:1273  if(index % 2 == 0) {... */\n      tag_41\n      jumpi\n        /* \"MerkleProof.sol\":1142:1146  hash */\n      dup3\n        /* \"MerkleProof.sol\":1148:1160  proofElement */\n      dup2\n        /* \"MerkleProof.sol\":1125:1161  abi.encodePacked(hash, proofElement) */\n      add(0x20, mload(0x40))\n      tag_42\n      swap3\n      swap2\n      swap1\n      tag_43\n      jump\t// in\n    tag_42:\n      mload(0x40)\n      0x20\n      dup2\n      dup4\n      sub\n      sub\n      dup2\n      mstore\n      swap1\n      0x40\n      mstore\n        /* \"MerkleProof.sol\":1115:1162  keccak256(abi.encodePacked(hash, proofElement)) */\n      dup1\n      mload\n      swap1\n      0x20\n      add\n      keccak256\n        /* \"MerkleProof.sol\":1108:1162  hash = keccak256(abi.encodePacked(hash, proofElement)) */\n      swap3\n      pop\n        /* \"MerkleProof.sol\":1070:1273  if(index % 2 == 0) {... */\n      jump(tag_44)\n    tag_41:\n        /* \"MerkleProof.sol\":1237:1249  proofElement */\n      dup1\n        /* \"MerkleProof.sol\":1251:1255  hash */\n      dup4\n        /* \"MerkleProof.sol\":1220:1256  abi.encodePacked(proofElement, hash) */\n      add(0x20, mload(0x40))\n      tag_45\n      swap3\n      swap2\n      swap1\n      tag_43\n      jump\t// in\n    tag_45:\n      mload(0x40)\n      0x20\n      dup2\n      dup4\n      sub\n      sub\n      dup2\n      mstore\n      swap1\n      0x40\n      mstore\n        /* \"MerkleProof.sol\":1210:1257  keccak256(abi.encodePacked(proofElement, hash)) */\n      dup1\n      mload\n      swap1\n      0x20\n      add\n      keccak256\n        /* \"MerkleProof.sol\":1203:1257  hash = keccak256(abi.encodePacked(proofElement, hash)) */\n      swap3\n      pop\n        /* \"MerkleProof.sol\":1070:1273  if(index % 2 == 0) {... */\n    tag_44:\n        /* \"MerkleProof.sol\":1310:1311  2 */\n      0x02\n        /* \"MerkleProof.sol\":1301:1311  index /= 2 */\n      dup6\n      tag_46\n      swap2\n      swap1\n      tag_47\n      jump\t// in\n    tag_46:\n      swap5\n      pop\n        /* \"MerkleProof.sol\":1007:1323  {... */\n      pop\n        /* \"MerkleProof.sol\":1003:1006  i++ */\n      dup1\n      dup1\n      0x01\n      add\n      swap2\n      pop\n      pop\n        /* \"MerkleProof.sol\":969:1323  for(uint i = 0; i < proof.length; i++){... */\n      jump(tag_33)\n    tag_34:\n      pop\n        /* \"MerkleProof.sol\":1350:1354  root */\n      dup5\n        /* \"MerkleProof.sol\":1342:1346  hash */\n      dup2\n        /* \"MerkleProof.sol\":1342:1354  hash == root */\n      eq\n        /* \"MerkleProof.sol\":1335:1354  return hash == root */\n      swap2\n      pop\n      pop\n        /* \"MerkleProof.sol\":778:1362  function verify(... */\n      swap5\n      swap4\n      pop\n      pop\n      pop\n      pop\n      jump\t// out\n        /* \"MerkleProof.sol\":114:137  bytes32[] public hashes */\n    tag_17:\n      0x00\n      dup2\n      dup2\n      sload\n      dup2\n      lt\n      tag_48\n      jumpi\n      0x00\n      dup1\n      revert\n    tag_48:\n      swap1\n      0x00\n      mstore\n      keccak256(0x00, 0x20)\n      add\n      0x00\n      swap2\n      pop\n      swap1\n      pop\n      sload\n      dup2\n      jump\t// out\n        /* \"MerkleProof.sol\":1405:1505  function getRoot() public view returns (bytes32) {... */\n    tag_21:\n        /* \"MerkleProof.sol\":1445:1452  bytes32 */\n      0x00\n        /* \"MerkleProof.sol\":1472:1478  hashes */\n      0x00\n        /* \"MerkleProof.sol\":1495:1496  1 */\n      0x01\n        /* \"MerkleProof.sol\":1479:1485  hashes */\n      0x00\n        /* \"MerkleProof.sol\":1479:1492  hashes.length */\n      dup1\n      sload\n      swap1\n      pop\n        /* \"MerkleProof.sol\":1479:1496  hashes.length - 1 */\n      tag_51\n      swap2\n      swap1\n      tag_52\n      jump\t// in\n    tag_51:\n        /* \"MerkleProof.sol\":1472:1497  hashes[hashes.length - 1] */\n      dup2\n      sload\n      dup2\n      lt\n      tag_53\n      jumpi\n      tag_54\n      tag_38\n      jump\t// in\n    tag_54:\n    tag_53:\n      swap1\n      0x00\n      mstore\n      keccak256(0x00, 0x20)\n      add\n      sload\n        /* \"MerkleProof.sol\":1465:1497  return hashes[hashes.length - 1] */\n      swap1\n      pop\n        /* \"MerkleProof.sol\":1405:1505  function getRoot() public view returns (bytes32) {... */\n      swap1\n      jump\t// out\n        /* \"MerkleProof.sol\":1591:1619  string[] public transactions */\n    tag_25:\n      0x01\n      dup2\n      dup2\n      sload\n      dup2\n      lt\n      tag_56\n      jumpi\n      0x00\n      dup1\n      revert\n    tag_56:\n      swap1\n      0x00\n      mstore\n      keccak256(0x00, 0x20)\n      add\n      0x00\n      swap2\n      pop\n      swap1\n      pop\n      dup1\n      sload\n      tag_58\n      swap1\n      tag_59\n      jump\t// in\n    tag_58:\n      dup1\n      0x1f\n      add\n      0x20\n      dup1\n      swap2\n      div\n      mul\n      0x20\n      add\n      mload(0x40)\n      swap1\n      dup2\n      add\n      0x40\n      mstore\n      dup1\n      swap3\n      swap2\n      swap1\n      dup2\n      dup2\n      mstore\n      0x20\n      add\n      dup3\n      dup1\n      sload\n      tag_60\n      swap1\n      tag_59\n      jump\t// in\n    tag_60:\n      dup1\n      iszero\n      tag_61\n      jumpi\n      dup1\n      0x1f\n      lt\n      tag_62\n      jumpi\n      0x0100\n      dup1\n      dup4\n      sload\n      div\n      mul\n      dup4\n      mstore\n      swap2\n      0x20\n      add\n      swap2\n      jump(tag_61)\n    tag_62:\n      dup3\n      add\n      swap2\n      swap1\n      0x00\n      mstore\n      keccak256(0x00, 0x20)\n      swap1\n    tag_63:\n      dup2\n      sload\n      dup2\n      mstore\n      swap1\n      0x01\n      add\n      swap1\n      0x20\n      add\n      dup1\n      dup4\n      gt\n      tag_63\n      jumpi\n      dup3\n      swap1\n      sub\n      0x1f\n      and\n      dup3\n      add\n      swap2\n    tag_61:\n      pop\n      pop\n      pop\n      pop\n      pop\n      dup2\n      jump\t// out\n        /* \"MerkleProof.sol\":173:740  function generateMerkleTree(string[] memory trangactions) public {... */\n    tag_31:\n        /* \"MerkleProof.sol\":254:260  uint i */\n      0x00\n        /* \"MerkleProof.sol\":263:264  0 */\n      0x00\n        /* \"MerkleProof.sol\":254:264  uint i = 0 */\n      swap1\n      pop\n        /* \"MerkleProof.sol\":249:379  for (uint i = 0; i < trangactions.length; i++){... */\n    tag_65:\n        /* \"MerkleProof.sol\":270:282  trangactions */\n      dup2\n        /* \"MerkleProof.sol\":270:289  trangactions.length */\n      mload\n        /* \"MerkleProof.sol\":266:267  i */\n      dup2\n        /* \"MerkleProof.sol\":266:289  i < trangactions.length */\n      lt\n        /* \"MerkleProof.sol\":249:379  for (uint i = 0; i < trangactions.length; i++){... */\n      iszero\n      tag_66\n      jumpi\n        /* \"MerkleProof.sol\":310:316  hashes */\n      0x00\n        /* \"MerkleProof.sol\":349:361  trangactions */\n      dup3\n        /* \"MerkleProof.sol\":362:363  i */\n      dup3\n        /* \"MerkleProof.sol\":349:364  trangactions[i] */\n      dup2\n      mload\n      dup2\n      lt\n      tag_68\n      jumpi\n      tag_69\n      tag_38\n      jump\t// in\n    tag_69:\n    tag_68:\n      0x20\n      mul\n      0x20\n      add\n      add\n      mload\n        /* \"MerkleProof.sol\":332:365  abi.encodePacked(trangactions[i]) */\n      add(0x20, mload(0x40))\n      tag_70\n      swap2\n      swap1\n      tag_71\n      jump\t// in\n    tag_70:\n      mload(0x40)\n      0x20\n      dup2\n      dup4\n      sub\n      sub\n      dup2\n      mstore\n      swap1\n      0x40\n      mstore\n        /* \"MerkleProof.sol\":322:366  keccak256(abi.encodePacked(trangactions[i])) */\n      dup1\n      mload\n      swap1\n      0x20\n      add\n      keccak256\n        /* \"MerkleProof.sol\":310:367  hashes.push(keccak256(abi.encodePacked(trangactions[i]))) */\n      swap1\n      dup1\n      0x01\n      dup2\n      sload\n      add\n      dup1\n      dup3\n      sstore\n      dup1\n      swap2\n      pop\n      pop\n      0x01\n      swap1\n      sub\n      swap1\n      0x00\n      mstore\n      keccak256(0x00, 0x20)\n      add\n      0x00\n      swap1\n      swap2\n      swap1\n      swap2\n      swap1\n      swap2\n      pop\n      sstore\n        /* \"MerkleProof.sol\":291:294  i++ */\n      dup1\n      dup1\n      0x01\n      add\n      swap2\n      pop\n      pop\n        /* \"MerkleProof.sol\":249:379  for (uint i = 0; i < trangactions.length; i++){... */\n      jump(tag_65)\n    tag_66:\n      pop\n        /* \"MerkleProof.sol\":387:396  uint256 n */\n      0x00\n        /* \"MerkleProof.sol\":399:411  trangactions */\n      dup2\n        /* \"MerkleProof.sol\":399:418  trangactions.length */\n      mload\n        /* \"MerkleProof.sol\":387:418  uint256 n = trangactions.length */\n      swap1\n      pop\n        /* \"MerkleProof.sol\":425:436  uint offset */\n      0x00\n        /* \"MerkleProof.sol\":439:440  0 */\n      0x00\n        /* \"MerkleProof.sol\":425:440  uint offset = 0 */\n      swap1\n      pop\n        /* \"MerkleProof.sol\":449:696  while (n > 0) {... */\n    tag_73:\n        /* \"MerkleProof.sol\":460:461  0 */\n      0x00\n        /* \"MerkleProof.sol\":456:457  n */\n      dup3\n        /* \"MerkleProof.sol\":456:461  n > 0 */\n      gt\n        /* \"MerkleProof.sol\":449:696  while (n > 0) {... */\n      iszero\n      tag_74\n      jumpi\n        /* \"MerkleProof.sol\":478:484  uint i */\n      0x00\n        /* \"MerkleProof.sol\":487:488  0 */\n      0x00\n        /* \"MerkleProof.sol\":478:488  uint i = 0 */\n      swap1\n      pop\n        /* \"MerkleProof.sol\":474:689  for(uint i = 0; i < n - 1; i += 2){... */\n    tag_75:\n        /* \"MerkleProof.sol\":498:499  1 */\n      0x01\n        /* \"MerkleProof.sol\":494:495  n */\n      dup4\n        /* \"MerkleProof.sol\":494:499  n - 1 */\n      tag_78\n      swap2\n      swap1\n      tag_52\n      jump\t// in\n    tag_78:\n        /* \"MerkleProof.sol\":490:491  i */\n      dup2\n        /* \"MerkleProof.sol\":490:499  i < n - 1 */\n      lt\n        /* \"MerkleProof.sol\":474:689  for(uint i = 0; i < n - 1; i += 2){... */\n      iszero\n      tag_76\n      jumpi\n        /* \"MerkleProof.sol\":523:529  hashes */\n      0x00\n        /* \"MerkleProof.sol\":602:608  hashes */\n      0x00\n        /* \"MerkleProof.sol\":616:617  i */\n      dup3\n        /* \"MerkleProof.sol\":609:615  offset */\n      dup5\n        /* \"MerkleProof.sol\":609:617  offset+i */\n      tag_79\n      swap2\n      swap1\n      tag_80\n      jump\t// in\n    tag_79:\n        /* \"MerkleProof.sol\":602:618  hashes[offset+i] */\n      dup2\n      sload\n      dup2\n      lt\n      tag_81\n      jumpi\n      tag_82\n      tag_38\n      jump\t// in\n    tag_82:\n    tag_81:\n      swap1\n      0x00\n      mstore\n      keccak256(0x00, 0x20)\n      add\n      sload\n        /* \"MerkleProof.sol\":620:626  hashes */\n      0x00\n        /* \"MerkleProof.sol\":640:641  1 */\n      0x01\n        /* \"MerkleProof.sol\":636:637  i */\n      dup5\n        /* \"MerkleProof.sol\":627:633  offset */\n      dup7\n        /* \"MerkleProof.sol\":627:637  offset + i */\n      tag_84\n      swap2\n      swap1\n      tag_80\n      jump\t// in\n    tag_84:\n        /* \"MerkleProof.sol\":627:641  offset + i + 1 */\n      tag_85\n      swap2\n      swap1\n      tag_80\n      jump\t// in\n    tag_85:\n        /* \"MerkleProof.sol\":620:642  hashes[offset + i + 1] */\n      dup2\n      sload\n      dup2\n      lt\n      tag_86\n      jumpi\n      tag_87\n      tag_38\n      jump\t// in\n    tag_87:\n    tag_86:\n      swap1\n      0x00\n      mstore\n      keccak256(0x00, 0x20)\n      add\n      sload\n        /* \"MerkleProof.sol\":585:643  abi.encodePacked(hashes[offset+i], hashes[offset + i + 1]) */\n      add(0x20, mload(0x40))\n      tag_89\n      swap3\n      swap2\n      swap1\n      tag_43\n      jump\t// in\n    tag_89:\n      mload(0x40)\n      0x20\n      dup2\n      dup4\n      sub\n      sub\n      dup2\n      mstore\n      swap1\n      0x40\n      mstore\n        /* \"MerkleProof.sol\":553:662  keccak256(... */\n      dup1\n      mload\n      swap1\n      0x20\n      add\n      keccak256\n        /* \"MerkleProof.sol\":523:677  hashes.push(... */\n      swap1\n      dup1\n      0x01\n      dup2\n      sload\n      add\n      dup1\n      dup3\n      sstore\n      dup1\n      swap2\n      pop\n      pop\n      0x01\n      swap1\n      sub\n      swap1\n      0x00\n      mstore\n      keccak256(0x00, 0x20)\n      add\n      0x00\n      swap1\n      swap2\n      swap1\n      swap2\n      swap1\n      swap2\n      pop\n      sstore\n        /* \"MerkleProof.sol\":506:507  2 */\n      0x02\n        /* \"MerkleProof.sol\":501:507  i += 2 */\n      dup2\n      tag_91\n      swap2\n      swap1\n      tag_80\n      jump\t// in\n    tag_91:\n      swap1\n      pop\n        /* \"MerkleProof.sol\":474:689  for(uint i = 0; i < n - 1; i += 2){... */\n      jump(tag_75)\n    tag_76:\n      pop\n        /* \"MerkleProof.sol\":449:696  while (n > 0) {... */\n      jump(tag_73)\n    tag_74:\n        /* \"MerkleProof.sol\":714:715  n */\n      dup2\n        /* \"MerkleProof.sol\":704:715  offset += n */\n      dup2\n      tag_92\n      swap2\n      swap1\n      tag_80\n      jump\t// in\n    tag_92:\n      swap1\n      pop\n        /* \"MerkleProof.sol\":729:730  2 */\n      0x02\n        /* \"MerkleProof.sol\":724:730  n /= 2 */\n      dup3\n      tag_93\n      swap2\n      swap1\n      tag_47\n      jump\t// in\n    tag_93:\n      swap2\n      pop\n        /* \"MerkleProof.sol\":238:740  {... */\n      pop\n      pop\n        /* \"MerkleProof.sol\":173:740  function generateMerkleTree(string[] memory trangactions) public {... */\n      pop\n      jump\t// out\n        /* \"#utility.yul\":7:82   */\n    tag_94:\n        /* \"#utility.yul\":40:46   */\n      0x00\n        /* \"#utility.yul\":73:75   */\n      0x40\n        /* \"#utility.yul\":67:76   */\n      mload\n        /* \"#utility.yul\":57:76   */\n      swap1\n      pop\n        /* \"#utility.yul\":7:82   */\n      swap1\n      jump\t// out\n        /* \"#utility.yul\":88:205   */\n    tag_95:\n        /* \"#utility.yul\":197:198   */\n      0x00\n        /* \"#utility.yul\":194:195   */\n      0x00\n        /* \"#utility.yul\":187:199   */\n      revert\n        /* \"#utility.yul\":211:328   */\n    tag_96:\n        /* \"#utility.yul\":320:321   */\n      0x00\n        /* \"#utility.yul\":317:318   */\n      0x00\n        /* \"#utility.yul\":310:322   */\n      revert\n        /* \"#utility.yul\":334:451   */\n    tag_97:\n        /* \"#utility.yul\":443:444   */\n      0x00\n        /* \"#utility.yul\":440:441   */\n      0x00\n        /* \"#utility.yul\":433:445   */\n      revert\n        /* \"#utility.yul\":457:559   */\n    tag_98:\n        /* \"#utility.yul\":498:504   */\n      0x00\n        /* \"#utility.yul\":549:551   */\n      0x1f\n        /* \"#utility.yul\":545:552   */\n      not\n        /* \"#utility.yul\":540:542   */\n      0x1f\n        /* \"#utility.yul\":533:538   */\n      dup4\n        /* \"#utility.yul\":529:543   */\n      add\n        /* \"#utility.yul\":525:553   */\n      and\n        /* \"#utility.yul\":515:553   */\n      swap1\n      pop\n        /* \"#utility.yul\":457:559   */\n      swap2\n      swap1\n      pop\n      jump\t// out\n        /* \"#utility.yul\":565:745   */\n    tag_99:\n        /* \"#utility.yul\":613:690   */\n      0x4e487b7100000000000000000000000000000000000000000000000000000000\n        /* \"#utility.yul\":610:611   */\n      0x00\n        /* \"#utility.yul\":603:691   */\n      mstore\n        /* \"#utility.yul\":710:714   */\n      0x41\n        /* \"#utility.yul\":707:708   */\n      0x04\n        /* \"#utility.yul\":700:715   */\n      mstore\n        /* \"#utility.yul\":734:738   */\n      0x24\n        /* \"#utility.yul\":731:732   */\n      0x00\n        /* \"#utility.yul\":724:739   */\n      revert\n        /* \"#utility.yul\":751:1032   */\n    tag_100:\n        /* \"#utility.yul\":834:861   */\n      tag_142\n        /* \"#utility.yul\":856:860   */\n      dup3\n        /* \"#utility.yul\":834:861   */\n      tag_98\n      jump\t// in\n    tag_142:\n        /* \"#utility.yul\":826:832   */\n      dup2\n        /* \"#utility.yul\":822:862   */\n      add\n        /* \"#utility.yul\":964:970   */\n      dup2\n        /* \"#utility.yul\":952:962   */\n      dup2\n        /* \"#utility.yul\":949:971   */\n      lt\n        /* \"#utility.yul\":928:946   */\n      0xffffffffffffffff\n        /* \"#utility.yul\":916:926   */\n      dup3\n        /* \"#utility.yul\":913:947   */\n      gt\n        /* \"#utility.yul\":910:972   */\n      or\n        /* \"#utility.yul\":907:995   */\n      iszero\n      tag_143\n      jumpi\n        /* \"#utility.yul\":975:993   */\n      tag_144\n      tag_99\n      jump\t// in\n    tag_144:\n        /* \"#utility.yul\":907:995   */\n    tag_143:\n        /* \"#utility.yul\":1015:1025   */\n      dup1\n        /* \"#utility.yul\":1011:1013   */\n      0x40\n        /* \"#utility.yul\":1004:1026   */\n      mstore\n        /* \"#utility.yul\":794:1032   */\n      pop\n        /* \"#utility.yul\":751:1032   */\n      pop\n      pop\n      jump\t// out\n        /* \"#utility.yul\":1038:1167   */\n    tag_101:\n        /* \"#utility.yul\":1072:1078   */\n      0x00\n        /* \"#utility.yul\":1099:1119   */\n      tag_146\n      tag_94\n      jump\t// in\n    tag_146:\n        /* \"#utility.yul\":1089:1119   */\n      swap1\n      pop\n        /* \"#utility.yul\":1128:1161   */\n      tag_147\n        /* \"#utility.yul\":1156:1160   */\n      dup3\n        /* \"#utility.yul\":1148:1154   */\n      dup3\n        /* \"#utility.yul\":1128:1161   */\n      tag_100\n      jump\t// in\n    tag_147:\n        /* \"#utility.yul\":1038:1167   */\n      swap2\n      swap1\n      pop\n      jump\t// out\n        /* \"#utility.yul\":1173:1484   */\n    tag_102:\n        /* \"#utility.yul\":1250:1254   */\n      0x00\n        /* \"#utility.yul\":1340:1358   */\n      0xffffffffffffffff\n        /* \"#utility.yul\":1332:1338   */\n      dup3\n        /* \"#utility.yul\":1329:1359   */\n      gt\n        /* \"#utility.yul\":1326:1382   */\n      iszero\n      tag_149\n      jumpi\n        /* \"#utility.yul\":1362:1380   */\n      tag_150\n      tag_99\n      jump\t// in\n    tag_150:\n        /* \"#utility.yul\":1326:1382   */\n    tag_149:\n        /* \"#utility.yul\":1412:1416   */\n      0x20\n        /* \"#utility.yul\":1404:1410   */\n      dup3\n        /* \"#utility.yul\":1400:1417   */\n      mul\n        /* \"#utility.yul\":1392:1417   */\n      swap1\n      pop\n        /* \"#utility.yul\":1472:1476   */\n      0x20\n        /* \"#utility.yul\":1466:1470   */\n      dup2\n        /* \"#utility.yul\":1462:1477   */\n      add\n        /* \"#utility.yul\":1454:1477   */\n      swap1\n      pop\n        /* \"#utility.yul\":1173:1484   */\n      swap2\n      swap1\n      pop\n      jump\t// out\n        /* \"#utility.yul\":1490:1607   */\n    tag_103:\n        /* \"#utility.yul\":1599:1600   */\n      0x00\n        /* \"#utility.yul\":1596:1597   */\n      0x00\n        /* \"#utility.yul\":1589:1601   */\n      revert\n        /* \"#utility.yul\":1613:1690   */\n    tag_104:\n        /* \"#utility.yul\":1650:1657   */\n      0x00\n        /* \"#utility.yul\":1679:1684   */\n      dup2\n        /* \"#utility.yul\":1668:1684   */\n      swap1\n      pop\n        /* \"#utility.yul\":1613:1690   */\n      swap2\n      swap1\n      pop\n      jump\t// out\n        /* \"#utility.yul\":1696:1818   */\n    tag_105:\n        /* \"#utility.yul\":1769:1793   */\n      tag_154\n        /* \"#utility.yul\":1787:1792   */\n      dup2\n        /* \"#utility.yul\":1769:1793   */\n      tag_104\n      jump\t// in\n    tag_154:\n        /* \"#utility.yul\":1762:1767   */\n      dup2\n        /* \"#utility.yul\":1759:1794   */\n      eq\n        /* \"#utility.yul\":1749:1812   */\n      tag_155\n      jumpi\n        /* \"#utility.yul\":1808:1809   */\n      0x00\n        /* \"#utility.yul\":1805:1806   */\n      0x00\n        /* \"#utility.yul\":1798:1810   */\n      revert\n        /* \"#utility.yul\":1749:1812   */\n    tag_155:\n        /* \"#utility.yul\":1696:1818   */\n      pop\n      jump\t// out\n        /* \"#utility.yul\":1824:1963   */\n    tag_106:\n        /* \"#utility.yul\":1870:1875   */\n      0x00\n        /* \"#utility.yul\":1908:1914   */\n      dup2\n        /* \"#utility.yul\":1895:1915   */\n      calldataload\n        /* \"#utility.yul\":1886:1915   */\n      swap1\n      pop\n        /* \"#utility.yul\":1924:1957   */\n      tag_157\n        /* \"#utility.yul\":1951:1956   */\n      dup2\n        /* \"#utility.yul\":1924:1957   */\n      tag_105\n      jump\t// in\n    tag_157:\n        /* \"#utility.yul\":1824:1963   */\n      swap3\n      swap2\n      pop\n      pop\n      jump\t// out\n        /* \"#utility.yul\":1986:2696   */\n    tag_107:\n        /* \"#utility.yul\":2082:2087   */\n      0x00\n        /* \"#utility.yul\":2107:2188   */\n      tag_159\n        /* \"#utility.yul\":2123:2187   */\n      tag_160\n        /* \"#utility.yul\":2180:2186   */\n      dup5\n        /* \"#utility.yul\":2123:2187   */\n      tag_102\n      jump\t// in\n    tag_160:\n        /* \"#utility.yul\":2107:2188   */\n      tag_101\n      jump\t// in\n    tag_159:\n        /* \"#utility.yul\":2098:2188   */\n      swap1\n      pop\n        /* \"#utility.yul\":2208:2213   */\n      dup1\n        /* \"#utility.yul\":2237:2243   */\n      dup4\n        /* \"#utility.yul\":2230:2235   */\n      dup3\n        /* \"#utility.yul\":2223:2244   */\n      mstore\n        /* \"#utility.yul\":2271:2275   */\n      0x20\n        /* \"#utility.yul\":2264:2269   */\n      dup3\n        /* \"#utility.yul\":2260:2276   */\n      add\n        /* \"#utility.yul\":2253:2276   */\n      swap1\n      pop\n        /* \"#utility.yul\":2324:2328   */\n      0x20\n        /* \"#utility.yul\":2316:2322   */\n      dup5\n        /* \"#utility.yul\":2312:2329   */\n      mul\n        /* \"#utility.yul\":2304:2310   */\n      dup4\n        /* \"#utility.yul\":2300:2330   */\n      add\n        /* \"#utility.yul\":2353:2356   */\n      dup6\n        /* \"#utility.yul\":2345:2351   */\n      dup2\n        /* \"#utility.yul\":2342:2357   */\n      gt\n        /* \"#utility.yul\":2339:2461   */\n      iszero\n      tag_161\n      jumpi\n        /* \"#utility.yul\":2372:2451   */\n      tag_162\n      tag_103\n      jump\t// in\n    tag_162:\n        /* \"#utility.yul\":2339:2461   */\n    tag_161:\n        /* \"#utility.yul\":2487:2493   */\n      dup4\n        /* \"#utility.yul\":2470:2690   */\n    tag_163:\n        /* \"#utility.yul\":2504:2510   */\n      dup2\n        /* \"#utility.yul\":2499:2502   */\n      dup2\n        /* \"#utility.yul\":2496:2511   */\n      lt\n        /* \"#utility.yul\":2470:2690   */\n      iszero\n      tag_165\n      jumpi\n        /* \"#utility.yul\":2579:2582   */\n      dup1\n        /* \"#utility.yul\":2608:2645   */\n      tag_166\n        /* \"#utility.yul\":2641:2644   */\n      dup9\n        /* \"#utility.yul\":2629:2639   */\n      dup3\n        /* \"#utility.yul\":2608:2645   */\n      tag_106\n      jump\t// in\n    tag_166:\n        /* \"#utility.yul\":2603:2606   */\n      dup5\n        /* \"#utility.yul\":2596:2646   */\n      mstore\n        /* \"#utility.yul\":2675:2679   */\n      0x20\n        /* \"#utility.yul\":2670:2673   */\n      dup5\n        /* \"#utility.yul\":2666:2680   */\n      add\n        /* \"#utility.yul\":2659:2680   */\n      swap4\n      pop\n        /* \"#utility.yul\":2546:2690   */\n      pop\n        /* \"#utility.yul\":2530:2534   */\n      0x20\n        /* \"#utility.yul\":2525:2528   */\n      dup2\n        /* \"#utility.yul\":2521:2535   */\n      add\n        /* \"#utility.yul\":2514:2535   */\n      swap1\n      pop\n        /* \"#utility.yul\":2470:2690   */\n      jump(tag_163)\n    tag_165:\n        /* \"#utility.yul\":2474:2495   */\n      pop\n        /* \"#utility.yul\":2088:2696   */\n      pop\n      pop\n        /* \"#utility.yul\":1986:2696   */\n      swap4\n      swap3\n      pop\n      pop\n      pop\n      jump\t// out\n        /* \"#utility.yul\":2719:3089   */\n    tag_108:\n        /* \"#utility.yul\":2790:2795   */\n      0x00\n        /* \"#utility.yul\":2839:2842   */\n      dup3\n        /* \"#utility.yul\":2832:2836   */\n      0x1f\n        /* \"#utility.yul\":2824:2830   */\n      dup4\n        /* \"#utility.yul\":2820:2837   */\n      add\n        /* \"#utility.yul\":2816:2843   */\n      slt\n        /* \"#utility.yul\":2806:2928   */\n      tag_168\n      jumpi\n        /* \"#utility.yul\":2847:2926   */\n      tag_169\n      tag_97\n      jump\t// in\n    tag_169:\n        /* \"#utility.yul\":2806:2928   */\n    tag_168:\n        /* \"#utility.yul\":2964:2970   */\n      dup2\n        /* \"#utility.yul\":2951:2971   */\n      calldataload\n        /* \"#utility.yul\":2989:3083   */\n      tag_170\n        /* \"#utility.yul\":3079:3082   */\n      dup5\n        /* \"#utility.yul\":3071:3077   */\n      dup3\n        /* \"#utility.yul\":3064:3068   */\n      0x20\n        /* \"#utility.yul\":3056:3062   */\n      dup7\n        /* \"#utility.yul\":3052:3069   */\n      add\n        /* \"#utility.yul\":2989:3083   */\n      tag_107\n      jump\t// in\n    tag_170:\n        /* \"#utility.yul\":2980:3083   */\n      swap2\n      pop\n        /* \"#utility.yul\":2796:3089   */\n      pop\n        /* \"#utility.yul\":2719:3089   */\n      swap3\n      swap2\n      pop\n      pop\n      jump\t// out\n        /* \"#utility.yul\":3095:3172   */\n    tag_109:\n        /* \"#utility.yul\":3132:3139   */\n      0x00\n        /* \"#utility.yul\":3161:3166   */\n      dup2\n        /* \"#utility.yul\":3150:3166   */\n      swap1\n      pop\n        /* \"#utility.yul\":3095:3172   */\n      swap2\n      swap1\n      pop\n      jump\t// out\n        /* \"#utility.yul\":3178:3300   */\n    tag_110:\n        /* \"#utility.yul\":3251:3275   */\n      tag_173\n        /* \"#utility.yul\":3269:3274   */\n      dup2\n        /* \"#utility.yul\":3251:3275   */\n      tag_109\n      jump\t// in\n    tag_173:\n        /* \"#utility.yul\":3244:3249   */\n      dup2\n        /* \"#utility.yul\":3241:3276   */\n      eq\n        /* \"#utility.yul\":3231:3294   */\n      tag_174\n      jumpi\n        /* \"#utility.yul\":3290:3291   */\n      0x00\n        /* \"#utility.yul\":3287:3288   */\n      0x00\n        /* \"#utility.yul\":3280:3292   */\n      revert\n        /* \"#utility.yul\":3231:3294   */\n    tag_174:\n        /* \"#utility.yul\":3178:3300   */\n      pop\n      jump\t// out\n        /* \"#utility.yul\":3306:3445   */\n    tag_111:\n        /* \"#utility.yul\":3352:3357   */\n      0x00\n        /* \"#utility.yul\":3390:3396   */\n      dup2\n        /* \"#utility.yul\":3377:3397   */\n      calldataload\n        /* \"#utility.yul\":3368:3397   */\n      swap1\n      pop\n        /* \"#utility.yul\":3406:3439   */\n      tag_176\n        /* \"#utility.yul\":3433:3438   */\n      dup2\n        /* \"#utility.yul\":3406:3439   */\n      tag_110\n      jump\t// in\n    tag_176:\n        /* \"#utility.yul\":3306:3445   */\n      swap3\n      swap2\n      pop\n      pop\n      jump\t// out\n        /* \"#utility.yul\":3451:4426   */\n    tag_10:\n        /* \"#utility.yul\":3562:3568   */\n      0x00\n        /* \"#utility.yul\":3570:3576   */\n      0x00\n        /* \"#utility.yul\":3578:3584   */\n      0x00\n        /* \"#utility.yul\":3586:3592   */\n      0x00\n        /* \"#utility.yul\":3635:3638   */\n      0x80\n        /* \"#utility.yul\":3623:3632   */\n      dup6\n        /* \"#utility.yul\":3614:3621   */\n      dup8\n        /* \"#utility.yul\":3610:3633   */\n      sub\n        /* \"#utility.yul\":3606:3639   */\n      slt\n        /* \"#utility.yul\":3603:3723   */\n      iszero\n      tag_178\n      jumpi\n        /* \"#utility.yul\":3642:3721   */\n      tag_179\n      tag_95\n      jump\t// in\n    tag_179:\n        /* \"#utility.yul\":3603:3723   */\n    tag_178:\n        /* \"#utility.yul\":3790:3791   */\n      0x00\n        /* \"#utility.yul\":3779:3788   */\n      dup6\n        /* \"#utility.yul\":3775:3792   */\n      add\n        /* \"#utility.yul\":3762:3793   */\n      calldataload\n        /* \"#utility.yul\":3820:3838   */\n      0xffffffffffffffff\n        /* \"#utility.yul\":3812:3818   */\n      dup2\n        /* \"#utility.yul\":3809:3839   */\n      gt\n        /* \"#utility.yul\":3806:3923   */\n      iszero\n      tag_180\n      jumpi\n        /* \"#utility.yul\":3842:3921   */\n      tag_181\n      tag_96\n      jump\t// in\n    tag_181:\n        /* \"#utility.yul\":3806:3923   */\n    tag_180:\n        /* \"#utility.yul\":3947:4025   */\n      tag_182\n        /* \"#utility.yul\":4017:4024   */\n      dup8\n        /* \"#utility.yul\":4008:4014   */\n      dup3\n        /* \"#utility.yul\":3997:4006   */\n      dup9\n        /* \"#utility.yul\":3993:4015   */\n      add\n        /* \"#utility.yul\":3947:4025   */\n      tag_108\n      jump\t// in\n    tag_182:\n        /* \"#utility.yul\":3937:4025   */\n      swap5\n      pop\n        /* \"#utility.yul\":3733:4035   */\n      pop\n        /* \"#utility.yul\":4074:4076   */\n      0x20\n        /* \"#utility.yul\":4100:4153   */\n      tag_183\n        /* \"#utility.yul\":4145:4152   */\n      dup8\n        /* \"#utility.yul\":4136:4142   */\n      dup3\n        /* \"#utility.yul\":4125:4134   */\n      dup9\n        /* \"#utility.yul\":4121:4143   */\n      add\n        /* \"#utility.yul\":4100:4153   */\n      tag_106\n      jump\t// in\n    tag_183:\n        /* \"#utility.yul\":4090:4153   */\n      swap4\n      pop\n        /* \"#utility.yul\":4045:4163   */\n      pop\n        /* \"#utility.yul\":4202:4204   */\n      0x40\n        /* \"#utility.yul\":4228:4281   */\n      tag_184\n        /* \"#utility.yul\":4273:4280   */\n      dup8\n        /* \"#utility.yul\":4264:4270   */\n      dup3\n        /* \"#utility.yul\":4253:4262   */\n      dup9\n        /* \"#utility.yul\":4249:4271   */\n      add\n        /* \"#utility.yul\":4228:4281   */\n      tag_106\n      jump\t// in\n    tag_184:\n        /* \"#utility.yul\":4218:4281   */\n      swap3\n      pop\n        /* \"#utility.yul\":4173:4291   */\n      pop\n        /* \"#utility.yul\":4330:4332   */\n      0x60\n        /* \"#utility.yul\":4356:4409   */\n      tag_185\n        /* \"#utility.yul\":4401:4408   */\n      dup8\n        /* \"#utility.yul\":4392:4398   */\n      dup3\n        /* \"#utility.yul\":4381:4390   */\n      dup9\n        /* \"#utility.yul\":4377:4399   */\n      add\n        /* \"#utility.yul\":4356:4409   */\n      tag_111\n      jump\t// in\n    tag_185:\n        /* \"#utility.yul\":4346:4409   */\n      swap2\n      pop\n        /* \"#utility.yul\":4301:4419   */\n      pop\n        /* \"#utility.yul\":3451:4426   */\n      swap3\n      swap6\n      swap2\n      swap5\n      pop\n      swap3\n      pop\n      jump\t// out\n        /* \"#utility.yul\":4432:4522   */\n    tag_112:\n        /* \"#utility.yul\":4466:4473   */\n      0x00\n        /* \"#utility.yul\":4509:4514   */\n      dup2\n        /* \"#utility.yul\":4502:4515   */\n      iszero\n        /* \"#utility.yul\":4495:4516   */\n      iszero\n        /* \"#utility.yul\":4484:4516   */\n      swap1\n      pop\n        /* \"#utility.yul\":4432:4522   */\n      swap2\n      swap1\n      pop\n      jump\t// out\n        /* \"#utility.yul\":4528:4637   */\n    tag_113:\n        /* \"#utility.yul\":4609:4630   */\n      tag_188\n        /* \"#utility.yul\":4624:4629   */\n      dup2\n        /* \"#utility.yul\":4609:4630   */\n      tag_112\n      jump\t// in\n    tag_188:\n        /* \"#utility.yul\":4604:4607   */\n      dup3\n        /* \"#utility.yul\":4597:4631   */\n      mstore\n        /* \"#utility.yul\":4528:4637   */\n      pop\n      pop\n      jump\t// out\n        /* \"#utility.yul\":4643:4853   */\n    tag_13:\n        /* \"#utility.yul\":4730:4734   */\n      0x00\n        /* \"#utility.yul\":4768:4770   */\n      0x20\n        /* \"#utility.yul\":4757:4766   */\n      dup3\n        /* \"#utility.yul\":4753:4771   */\n      add\n        /* \"#utility.yul\":4745:4771   */\n      swap1\n      pop\n        /* \"#utility.yul\":4781:4846   */\n      tag_190\n        /* \"#utility.yul\":4843:4844   */\n      0x00\n        /* \"#utility.yul\":4832:4841   */\n      dup4\n        /* \"#utility.yul\":4828:4845   */\n      add\n        /* \"#utility.yul\":4819:4825   */\n      dup5\n        /* \"#utility.yul\":4781:4846   */\n      tag_113\n      jump\t// in\n    tag_190:\n        /* \"#utility.yul\":4643:4853   */\n      swap3\n      swap2\n      pop\n      pop\n      jump\t// out\n        /* \"#utility.yul\":4859:5188   */\n    tag_16:\n        /* \"#utility.yul\":4918:4924   */\n      0x00\n        /* \"#utility.yul\":4967:4969   */\n      0x20\n        /* \"#utility.yul\":4955:4964   */\n      dup3\n        /* \"#utility.yul\":4946:4953   */\n      dup5\n        /* \"#utility.yul\":4942:4965   */\n      sub\n        /* \"#utility.yul\":4938:4970   */\n      slt\n        /* \"#utility.yul\":4935:5054   */\n      iszero\n      tag_192\n      jumpi\n        /* \"#utility.yul\":4973:5052   */\n      tag_193\n      tag_95\n      jump\t// in\n    tag_193:\n        /* \"#utility.yul\":4935:5054   */\n    tag_192:\n        /* \"#utility.yul\":5093:5094   */\n      0x00\n        /* \"#utility.yul\":5118:5171   */\n      tag_194\n        /* \"#utility.yul\":5163:5170   */\n      dup5\n        /* \"#utility.yul\":5154:5160   */\n      dup3\n        /* \"#utility.yul\":5143:5152   */\n      dup6\n        /* \"#utility.yul\":5139:5161   */\n      add\n        /* \"#utility.yul\":5118:5171   */\n      tag_111\n      jump\t// in\n    tag_194:\n        /* \"#utility.yul\":5108:5171   */\n      swap2\n      pop\n        /* \"#utility.yul\":5064:5181   */\n      pop\n        /* \"#utility.yul\":4859:5188   */\n      swap3\n      swap2\n      pop\n      pop\n      jump\t// out\n        /* \"#utility.yul\":5194:5312   */\n    tag_114:\n        /* \"#utility.yul\":5281:5305   */\n      tag_196\n        /* \"#utility.yul\":5299:5304   */\n      dup2\n        /* \"#utility.yul\":5281:5305   */\n      tag_104\n      jump\t// in\n    tag_196:\n        /* \"#utility.yul\":5276:5279   */\n      dup3\n        /* \"#utility.yul\":5269:5306   */\n      mstore\n        /* \"#utility.yul\":5194:5312   */\n      pop\n      pop\n      jump\t// out\n        /* \"#utility.yul\":5318:5540   */\n    tag_19:\n        /* \"#utility.yul\":5411:5415   */\n      0x00\n        /* \"#utility.yul\":5449:5451   */\n      0x20\n        /* \"#utility.yul\":5438:5447   */\n      dup3\n        /* \"#utility.yul\":5434:5452   */\n      add\n        /* \"#utility.yul\":5426:5452   */\n      swap1\n      pop\n        /* \"#utility.yul\":5462:5533   */\n      tag_198\n        /* \"#utility.yul\":5530:5531   */\n      0x00\n        /* \"#utility.yul\":5519:5528   */\n      dup4\n        /* \"#utility.yul\":5515:5532   */\n      add\n        /* \"#utility.yul\":5506:5512   */\n      dup5\n        /* \"#utility.yul\":5462:5533   */\n      tag_114\n      jump\t// in\n    tag_198:\n        /* \"#utility.yul\":5318:5540   */\n      swap3\n      swap2\n      pop\n      pop\n      jump\t// out\n        /* \"#utility.yul\":5546:5645   */\n    tag_115:\n        /* \"#utility.yul\":5598:5604   */\n      0x00\n        /* \"#utility.yul\":5632:5637   */\n      dup2\n        /* \"#utility.yul\":5626:5638   */\n      mload\n        /* \"#utility.yul\":5616:5638   */\n      swap1\n      pop\n        /* \"#utility.yul\":5546:5645   */\n      swap2\n      swap1\n      pop\n      jump\t// out\n        /* \"#utility.yul\":5651:5820   */\n    tag_116:\n        /* \"#utility.yul\":5735:5746   */\n      0x00\n        /* \"#utility.yul\":5769:5775   */\n      dup3\n        /* \"#utility.yul\":5764:5767   */\n      dup3\n        /* \"#utility.yul\":5757:5776   */\n      mstore\n        /* \"#utility.yul\":5809:5813   */\n      0x20\n        /* \"#utility.yul\":5804:5807   */\n      dup3\n        /* \"#utility.yul\":5800:5814   */\n      add\n        /* \"#utility.yul\":5785:5814   */\n      swap1\n      pop\n        /* \"#utility.yul\":5651:5820   */\n      swap3\n      swap2\n      pop\n      pop\n      jump\t// out\n        /* \"#utility.yul\":5826:5965   */\n    tag_117:\n        /* \"#utility.yul\":5915:5921   */\n      dup3\n        /* \"#utility.yul\":5910:5913   */\n      dup2\n        /* \"#utility.yul\":5905:5908   */\n      dup4\n        /* \"#utility.yul\":5899:5922   */\n      mcopy\n        /* \"#utility.yul\":5956:5957   */\n      0x00\n        /* \"#utility.yul\":5947:5953   */\n      dup4\n        /* \"#utility.yul\":5942:5945   */\n      dup4\n        /* \"#utility.yul\":5938:5954   */\n      add\n        /* \"#utility.yul\":5931:5958   */\n      mstore\n        /* \"#utility.yul\":5826:5965   */\n      pop\n      pop\n      pop\n      jump\t// out\n        /* \"#utility.yul\":5971:6348   */\n    tag_118:\n        /* \"#utility.yul\":6059:6062   */\n      0x00\n        /* \"#utility.yul\":6087:6126   */\n      tag_203\n        /* \"#utility.yul\":6120:6125   */\n      dup3\n        /* \"#utility.yul\":6087:6126   */\n      tag_115\n      jump\t// in\n    tag_203:\n        /* \"#utility.yul\":6142:6213   */\n      tag_204\n        /* \"#utility.yul\":6206:6212   */\n      dup2\n        /* \"#utility.yul\":6201:6204   */\n      dup6\n        /* \"#utility.yul\":6142:6213   */\n      tag_116\n      jump\t// in\n    tag_204:\n        /* \"#utility.yul\":6135:6213   */\n      swap4\n      pop\n        /* \"#utility.yul\":6222:6287   */\n      tag_205\n        /* \"#utility.yul\":6280:6286   */\n      dup2\n        /* \"#utility.yul\":6275:6278   */\n      dup6\n        /* \"#utility.yul\":6268:6272   */\n      0x20\n        /* \"#utility.yul\":6261:6266   */\n      dup7\n        /* \"#utility.yul\":6257:6273   */\n      add\n        /* \"#utility.yul\":6222:6287   */\n      tag_117\n      jump\t// in\n    tag_205:\n        /* \"#utility.yul\":6312:6341   */\n      tag_206\n        /* \"#utility.yul\":6334:6340   */\n      dup2\n        /* \"#utility.yul\":6312:6341   */\n      tag_98\n      jump\t// in\n    tag_206:\n        /* \"#utility.yul\":6307:6310   */\n      dup5\n        /* \"#utility.yul\":6303:6342   */\n      add\n        /* \"#utility.yul\":6296:6342   */\n      swap2\n      pop\n        /* \"#utility.yul\":6063:6348   */\n      pop\n        /* \"#utility.yul\":5971:6348   */\n      swap3\n      swap2\n      pop\n      pop\n      jump\t// out\n        /* \"#utility.yul\":6354:6667   */\n    tag_27:\n        /* \"#utility.yul\":6467:6471   */\n      0x00\n        /* \"#utility.yul\":6505:6507   */\n      0x20\n        /* \"#utility.yul\":6494:6503   */\n      dup3\n        /* \"#utility.yul\":6490:6508   */\n      add\n        /* \"#utility.yul\":6482:6508   */\n      swap1\n      pop\n        /* \"#utility.yul\":6554:6563   */\n      dup2\n        /* \"#utility.yul\":6548:6552   */\n      dup2\n        /* \"#utility.yul\":6544:6564   */\n      sub\n        /* \"#utility.yul\":6540:6541   */\n      0x00\n        /* \"#utility.yul\":6529:6538   */\n      dup4\n        /* \"#utility.yul\":6525:6542   */\n      add\n        /* \"#utility.yul\":6518:6565   */\n      mstore\n        /* \"#utility.yul\":6582:6660   */\n      tag_208\n        /* \"#utility.yul\":6655:6659   */\n      dup2\n        /* \"#utility.yul\":6646:6652   */\n      dup5\n        /* \"#utility.yul\":6582:6660   */\n      tag_118\n      jump\t// in\n    tag_208:\n        /* \"#utility.yul\":6574:6660   */\n      swap1\n      pop\n        /* \"#utility.yul\":6354:6667   */\n      swap3\n      swap2\n      pop\n      pop\n      jump\t// out\n        /* \"#utility.yul\":6673:6994   */\n    tag_119:\n        /* \"#utility.yul\":6760:6764   */\n      0x00\n        /* \"#utility.yul\":6850:6868   */\n      0xffffffffffffffff\n        /* \"#utility.yul\":6842:6848   */\n      dup3\n        /* \"#utility.yul\":6839:6869   */\n      gt\n        /* \"#utility.yul\":6836:6892   */\n      iszero\n      tag_210\n      jumpi\n        /* \"#utility.yul\":6872:6890   */\n      tag_211\n      tag_99\n      jump\t// in\n    tag_211:\n        /* \"#utility.yul\":6836:6892   */\n    tag_210:\n        /* \"#utility.yul\":6922:6926   */\n      0x20\n        /* \"#utility.yul\":6914:6920   */\n      dup3\n        /* \"#utility.yul\":6910:6927   */\n      mul\n        /* \"#utility.yul\":6902:6927   */\n      swap1\n      pop\n        /* \"#utility.yul\":6982:6986   */\n      0x20\n        /* \"#utility.yul\":6976:6980   */\n      dup2\n        /* \"#utility.yul\":6972:6987   */\n      add\n        /* \"#utility.yul\":6964:6987   */\n      swap1\n      pop\n        /* \"#utility.yul\":6673:6994   */\n      swap2\n      swap1\n      pop\n      jump\t// out\n        /* \"#utility.yul\":7000:7117   */\n    tag_120:\n        /* \"#utility.yul\":7109:7110   */\n      0x00\n        /* \"#utility.yul\":7106:7107   */\n      0x00\n        /* \"#utility.yul\":7099:7111   */\n      revert\n        /* \"#utility.yul\":7123:7431   */\n    tag_121:\n        /* \"#utility.yul\":7185:7189   */\n      0x00\n        /* \"#utility.yul\":7275:7293   */\n      0xffffffffffffffff\n        /* \"#utility.yul\":7267:7273   */\n      dup3\n        /* \"#utility.yul\":7264:7294   */\n      gt\n        /* \"#utility.yul\":7261:7317   */\n      iszero\n      tag_214\n      jumpi\n        /* \"#utility.yul\":7297:7315   */\n      tag_215\n      tag_99\n      jump\t// in\n    tag_215:\n        /* \"#utility.yul\":7261:7317   */\n    tag_214:\n        /* \"#utility.yul\":7335:7364   */\n      tag_216\n        /* \"#utility.yul\":7357:7363   */\n      dup3\n        /* \"#utility.yul\":7335:7364   */\n      tag_98\n      jump\t// in\n    tag_216:\n        /* \"#utility.yul\":7327:7364   */\n      swap1\n      pop\n        /* \"#utility.yul\":7419:7423   */\n      0x20\n        /* \"#utility.yul\":7413:7417   */\n      dup2\n        /* \"#utility.yul\":7409:7424   */\n      add\n        /* \"#utility.yul\":7401:7424   */\n      swap1\n      pop\n        /* \"#utility.yul\":7123:7431   */\n      swap2\n      swap1\n      pop\n      jump\t// out\n        /* \"#utility.yul\":7437:7585   */\n    tag_122:\n        /* \"#utility.yul\":7535:7541   */\n      dup3\n        /* \"#utility.yul\":7530:7533   */\n      dup2\n        /* \"#utility.yul\":7525:7528   */\n      dup4\n        /* \"#utility.yul\":7512:7542   */\n      calldatacopy\n        /* \"#utility.yul\":7576:7577   */\n      0x00\n        /* \"#utility.yul\":7567:7573   */\n      dup4\n        /* \"#utility.yul\":7562:7565   */\n      dup4\n        /* \"#utility.yul\":7558:7574   */\n      add\n        /* \"#utility.yul\":7551:7578   */\n      mstore\n        /* \"#utility.yul\":7437:7585   */\n      pop\n      pop\n      pop\n      jump\t// out\n        /* \"#utility.yul\":7591:8016   */\n    tag_123:\n        /* \"#utility.yul\":7669:7674   */\n      0x00\n        /* \"#utility.yul\":7694:7760   */\n      tag_219\n        /* \"#utility.yul\":7710:7759   */\n      tag_220\n        /* \"#utility.yul\":7752:7758   */\n      dup5\n        /* \"#utility.yul\":7710:7759   */\n      tag_121\n      jump\t// in\n    tag_220:\n        /* \"#utility.yul\":7694:7760   */\n      tag_101\n      jump\t// in\n    tag_219:\n        /* \"#utility.yul\":7685:7760   */\n      swap1\n      pop\n        /* \"#utility.yul\":7783:7789   */\n      dup3\n        /* \"#utility.yul\":7776:7781   */\n      dup2\n        /* \"#utility.yul\":7769:7790   */\n      mstore\n        /* \"#utility.yul\":7821:7825   */\n      0x20\n        /* \"#utility.yul\":7814:7819   */\n      dup2\n        /* \"#utility.yul\":7810:7826   */\n      add\n        /* \"#utility.yul\":7859:7862   */\n      dup5\n        /* \"#utility.yul\":7850:7856   */\n      dup5\n        /* \"#utility.yul\":7845:7848   */\n      dup5\n        /* \"#utility.yul\":7841:7857   */\n      add\n        /* \"#utility.yul\":7838:7863   */\n      gt\n        /* \"#utility.yul\":7835:7947   */\n      iszero\n      tag_221\n      jumpi\n        /* \"#utility.yul\":7866:7945   */\n      tag_222\n      tag_120\n      jump\t// in\n    tag_222:\n        /* \"#utility.yul\":7835:7947   */\n    tag_221:\n        /* \"#utility.yul\":7956:8010   */\n      tag_223\n        /* \"#utility.yul\":8003:8009   */\n      dup5\n        /* \"#utility.yul\":7998:8001   */\n      dup3\n        /* \"#utility.yul\":7993:7996   */\n      dup6\n        /* \"#utility.yul\":7956:8010   */\n      tag_122\n      jump\t// in\n    tag_223:\n        /* \"#utility.yul\":7675:8016   */\n      pop\n        /* \"#utility.yul\":7591:8016   */\n      swap4\n      swap3\n      pop\n      pop\n      pop\n      jump\t// out\n        /* \"#utility.yul\":8036:8376   */\n    tag_124:\n        /* \"#utility.yul\":8092:8097   */\n      0x00\n        /* \"#utility.yul\":8141:8144   */\n      dup3\n        /* \"#utility.yul\":8134:8138   */\n      0x1f\n        /* \"#utility.yul\":8126:8132   */\n      dup4\n        /* \"#utility.yul\":8122:8139   */\n      add\n        /* \"#utility.yul\":8118:8145   */\n      slt\n        /* \"#utility.yul\":8108:8230   */\n      tag_225\n      jumpi\n        /* \"#utility.yul\":8149:8228   */\n      tag_226\n      tag_97\n      jump\t// in\n    tag_226:\n        /* \"#utility.yul\":8108:8230   */\n    tag_225:\n        /* \"#utility.yul\":8266:8272   */\n      dup2\n        /* \"#utility.yul\":8253:8273   */\n      calldataload\n        /* \"#utility.yul\":8291:8370   */\n      tag_227\n        /* \"#utility.yul\":8366:8369   */\n      dup5\n        /* \"#utility.yul\":8358:8364   */\n      dup3\n        /* \"#utility.yul\":8351:8355   */\n      0x20\n        /* \"#utility.yul\":8343:8349   */\n      dup7\n        /* \"#utility.yul\":8339:8356   */\n      add\n        /* \"#utility.yul\":8291:8370   */\n      tag_123\n      jump\t// in\n    tag_227:\n        /* \"#utility.yul\":8282:8370   */\n      swap2\n      pop\n        /* \"#utility.yul\":8098:8376   */\n      pop\n        /* \"#utility.yul\":8036:8376   */\n      swap3\n      swap2\n      pop\n      pop\n      jump\t// out\n        /* \"#utility.yul\":8398:9343   */\n    tag_125:\n        /* \"#utility.yul\":8504:8509   */\n      0x00\n        /* \"#utility.yul\":8529:8620   */\n      tag_229\n        /* \"#utility.yul\":8545:8619   */\n      tag_230\n        /* \"#utility.yul\":8612:8618   */\n      dup5\n        /* \"#utility.yul\":8545:8619   */\n      tag_119\n      jump\t// in\n    tag_230:\n        /* \"#utility.yul\":8529:8620   */\n      tag_101\n      jump\t// in\n    tag_229:\n        /* \"#utility.yul\":8520:8620   */\n      swap1\n      pop\n        /* \"#utility.yul\":8640:8645   */\n      dup1\n        /* \"#utility.yul\":8669:8675   */\n      dup4\n        /* \"#utility.yul\":8662:8667   */\n      dup3\n        /* \"#utility.yul\":8655:8676   */\n      mstore\n        /* \"#utility.yul\":8703:8707   */\n      0x20\n        /* \"#utility.yul\":8696:8701   */\n      dup3\n        /* \"#utility.yul\":8692:8708   */\n      add\n        /* \"#utility.yul\":8685:8708   */\n      swap1\n      pop\n        /* \"#utility.yul\":8756:8760   */\n      0x20\n        /* \"#utility.yul\":8748:8754   */\n      dup5\n        /* \"#utility.yul\":8744:8761   */\n      mul\n        /* \"#utility.yul\":8736:8742   */\n      dup4\n        /* \"#utility.yul\":8732:8762   */\n      add\n        /* \"#utility.yul\":8785:8788   */\n      dup6\n        /* \"#utility.yul\":8777:8783   */\n      dup2\n        /* \"#utility.yul\":8774:8789   */\n      gt\n        /* \"#utility.yul\":8771:8893   */\n      iszero\n      tag_231\n      jumpi\n        /* \"#utility.yul\":8804:8883   */\n      tag_232\n      tag_103\n      jump\t// in\n    tag_232:\n        /* \"#utility.yul\":8771:8893   */\n    tag_231:\n        /* \"#utility.yul\":8919:8925   */\n      dup4\n        /* \"#utility.yul\":8902:9337   */\n    tag_233:\n        /* \"#utility.yul\":8936:8942   */\n      dup2\n        /* \"#utility.yul\":8931:8934   */\n      dup2\n        /* \"#utility.yul\":8928:8943   */\n      lt\n        /* \"#utility.yul\":8902:9337   */\n      iszero\n      tag_235\n      jumpi\n        /* \"#utility.yul\":9025:9028   */\n      dup1\n        /* \"#utility.yul\":9012:9029   */\n      calldataload\n        /* \"#utility.yul\":9061:9079   */\n      0xffffffffffffffff\n        /* \"#utility.yul\":9048:9059   */\n      dup2\n        /* \"#utility.yul\":9045:9080   */\n      gt\n        /* \"#utility.yul\":9042:9164   */\n      iszero\n      tag_236\n      jumpi\n        /* \"#utility.yul\":9083:9162   */\n      tag_237\n      tag_97\n      jump\t// in\n    tag_237:\n        /* \"#utility.yul\":9042:9164   */\n    tag_236:\n        /* \"#utility.yul\":9207:9218   */\n      dup1\n        /* \"#utility.yul\":9199:9205   */\n      dup7\n        /* \"#utility.yul\":9195:9219   */\n      add\n        /* \"#utility.yul\":9245:9292   */\n      tag_238\n        /* \"#utility.yul\":9288:9291   */\n      dup10\n        /* \"#utility.yul\":9276:9286   */\n      dup3\n        /* \"#utility.yul\":9245:9292   */\n      tag_124\n      jump\t// in\n    tag_238:\n        /* \"#utility.yul\":9240:9243   */\n      dup6\n        /* \"#utility.yul\":9233:9293   */\n      mstore\n        /* \"#utility.yul\":9322:9326   */\n      0x20\n        /* \"#utility.yul\":9317:9320   */\n      dup6\n        /* \"#utility.yul\":9313:9327   */\n      add\n        /* \"#utility.yul\":9306:9327   */\n      swap5\n      pop\n        /* \"#utility.yul\":8978:9337   */\n      pop\n      pop\n        /* \"#utility.yul\":8962:8966   */\n      0x20\n        /* \"#utility.yul\":8957:8960   */\n      dup2\n        /* \"#utility.yul\":8953:8967   */\n      add\n        /* \"#utility.yul\":8946:8967   */\n      swap1\n      pop\n        /* \"#utility.yul\":8902:9337   */\n      jump(tag_233)\n    tag_235:\n        /* \"#utility.yul\":8906:8927   */\n      pop\n        /* \"#utility.yul\":8510:9343   */\n      pop\n      pop\n        /* \"#utility.yul\":8398:9343   */\n      swap4\n      swap3\n      pop\n      pop\n      pop\n      jump\t// out\n        /* \"#utility.yul\":9365:9755   */\n    tag_126:\n        /* \"#utility.yul\":9446:9451   */\n      0x00\n        /* \"#utility.yul\":9495:9498   */\n      dup3\n        /* \"#utility.yul\":9488:9492   */\n      0x1f\n        /* \"#utility.yul\":9480:9486   */\n      dup4\n        /* \"#utility.yul\":9476:9493   */\n      add\n        /* \"#utility.yul\":9472:9499   */\n      slt\n        /* \"#utility.yul\":9462:9584   */\n      tag_240\n      jumpi\n        /* \"#utility.yul\":9503:9582   */\n      tag_241\n      tag_97\n      jump\t// in\n    tag_241:\n        /* \"#utility.yul\":9462:9584   */\n    tag_240:\n        /* \"#utility.yul\":9620:9626   */\n      dup2\n        /* \"#utility.yul\":9607:9627   */\n      calldataload\n        /* \"#utility.yul\":9645:9749   */\n      tag_242\n        /* \"#utility.yul\":9745:9748   */\n      dup5\n        /* \"#utility.yul\":9737:9743   */\n      dup3\n        /* \"#utility.yul\":9730:9734   */\n      0x20\n        /* \"#utility.yul\":9722:9728   */\n      dup7\n        /* \"#utility.yul\":9718:9735   */\n      add\n        /* \"#utility.yul\":9645:9749   */\n      tag_125\n      jump\t// in\n    tag_242:\n        /* \"#utility.yul\":9636:9749   */\n      swap2\n      pop\n        /* \"#utility.yul\":9452:9755   */\n      pop\n        /* \"#utility.yul\":9365:9755   */\n      swap3\n      swap2\n      pop\n      pop\n      jump\t// out\n        /* \"#utility.yul\":9761:10320   */\n    tag_30:\n        /* \"#utility.yul\":9855:9861   */\n      0x00\n        /* \"#utility.yul\":9904:9906   */\n      0x20\n        /* \"#utility.yul\":9892:9901   */\n      dup3\n        /* \"#utility.yul\":9883:9890   */\n      dup5\n        /* \"#utility.yul\":9879:9902   */\n      sub\n        /* \"#utility.yul\":9875:9907   */\n      slt\n        /* \"#utility.yul\":9872:9991   */\n      iszero\n      tag_244\n      jumpi\n        /* \"#utility.yul\":9910:9989   */\n      tag_245\n      tag_95\n      jump\t// in\n    tag_245:\n        /* \"#utility.yul\":9872:9991   */\n    tag_244:\n        /* \"#utility.yul\":10058:10059   */\n      0x00\n        /* \"#utility.yul\":10047:10056   */\n      dup3\n        /* \"#utility.yul\":10043:10060   */\n      add\n        /* \"#utility.yul\":10030:10061   */\n      calldataload\n        /* \"#utility.yul\":10088:10106   */\n      0xffffffffffffffff\n        /* \"#utility.yul\":10080:10086   */\n      dup2\n        /* \"#utility.yul\":10077:10107   */\n      gt\n        /* \"#utility.yul\":10074:10191   */\n      iszero\n      tag_246\n      jumpi\n        /* \"#utility.yul\":10110:10189   */\n      tag_247\n      tag_96\n      jump\t// in\n    tag_247:\n        /* \"#utility.yul\":10074:10191   */\n    tag_246:\n        /* \"#utility.yul\":10215:10303   */\n      tag_248\n        /* \"#utility.yul\":10295:10302   */\n      dup5\n        /* \"#utility.yul\":10286:10292   */\n      dup3\n        /* \"#utility.yul\":10275:10284   */\n      dup6\n        /* \"#utility.yul\":10271:10293   */\n      add\n        /* \"#utility.yul\":10215:10303   */\n      tag_126\n      jump\t// in\n    tag_248:\n        /* \"#utility.yul\":10205:10303   */\n      swap2\n      pop\n        /* \"#utility.yul\":10001:10313   */\n      pop\n        /* \"#utility.yul\":9761:10320   */\n      swap3\n      swap2\n      pop\n      pop\n      jump\t// out\n        /* \"#utility.yul\":10326:10506   */\n    tag_38:\n        /* \"#utility.yul\":10374:10451   */\n      0x4e487b7100000000000000000000000000000000000000000000000000000000\n        /* \"#utility.yul\":10371:10372   */\n      0x00\n        /* \"#utility.yul\":10364:10452   */\n      mstore\n        /* \"#utility.yul\":10471:10475   */\n      0x32\n        /* \"#utility.yul\":10468:10469   */\n      0x04\n        /* \"#utility.yul\":10461:10476   */\n      mstore\n        /* \"#utility.yul\":10495:10499   */\n      0x24\n        /* \"#utility.yul\":10492:10493   */\n      0x00\n        /* \"#utility.yul\":10485:10500   */\n      revert\n        /* \"#utility.yul\":10512:10692   */\n    tag_127:\n        /* \"#utility.yul\":10560:10637   */\n      0x4e487b7100000000000000000000000000000000000000000000000000000000\n        /* \"#utility.yul\":10557:10558   */\n      0x00\n        /* \"#utility.yul\":10550:10638   */\n      mstore\n        /* \"#utility.yul\":10657:10661   */\n      0x12\n        /* \"#utility.yul\":10654:10655   */\n      0x04\n        /* \"#utility.yul\":10647:10662   */\n      mstore\n        /* \"#utility.yul\":10681:10685   */\n      0x24\n        /* \"#utility.yul\":10678:10679   */\n      0x00\n        /* \"#utility.yul\":10671:10686   */\n      revert\n        /* \"#utility.yul\":10698:10874   */\n    tag_40:\n        /* \"#utility.yul\":10730:10731   */\n      0x00\n        /* \"#utility.yul\":10747:10767   */\n      tag_252\n        /* \"#utility.yul\":10765:10766   */\n      dup3\n        /* \"#utility.yul\":10747:10767   */\n      tag_109\n      jump\t// in\n    tag_252:\n        /* \"#utility.yul\":10742:10767   */\n      swap2\n      pop\n        /* \"#utility.yul\":10781:10801   */\n      tag_253\n        /* \"#utility.yul\":10799:10800   */\n      dup4\n        /* \"#utility.yul\":10781:10801   */\n      tag_109\n      jump\t// in\n    tag_253:\n        /* \"#utility.yul\":10776:10801   */\n      swap3\n      pop\n        /* \"#utility.yul\":10820:10821   */\n      dup3\n        /* \"#utility.yul\":10810:10845   */\n      tag_254\n      jumpi\n        /* \"#utility.yul\":10825:10843   */\n      tag_255\n      tag_127\n      jump\t// in\n    tag_255:\n        /* \"#utility.yul\":10810:10845   */\n    tag_254:\n        /* \"#utility.yul\":10866:10867   */\n      dup3\n        /* \"#utility.yul\":10863:10864   */\n      dup3\n        /* \"#utility.yul\":10859:10868   */\n      mod\n        /* \"#utility.yul\":10854:10868   */\n      swap1\n      pop\n        /* \"#utility.yul\":10698:10874   */\n      swap3\n      swap2\n      pop\n      pop\n      jump\t// out\n        /* \"#utility.yul\":10880:10959   */\n    tag_128:\n        /* \"#utility.yul\":10919:10926   */\n      0x00\n        /* \"#utility.yul\":10948:10953   */\n      dup2\n        /* \"#utility.yul\":10937:10953   */\n      swap1\n      pop\n        /* \"#utility.yul\":10880:10959   */\n      swap2\n      swap1\n      pop\n      jump\t// out\n        /* \"#utility.yul\":10965:11122   */\n    tag_129:\n        /* \"#utility.yul\":11070:11115   */\n      tag_258\n        /* \"#utility.yul\":11090:11114   */\n      tag_259\n        /* \"#utility.yul\":11108:11113   */\n      dup3\n        /* \"#utility.yul\":11090:11114   */\n      tag_104\n      jump\t// in\n    tag_259:\n        /* \"#utility.yul\":11070:11115   */\n      tag_128\n      jump\t// in\n    tag_258:\n        /* \"#utility.yul\":11065:11068   */\n      dup3\n        /* \"#utility.yul\":11058:11116   */\n      mstore\n        /* \"#utility.yul\":10965:11122   */\n      pop\n      pop\n      jump\t// out\n        /* \"#utility.yul\":11128:11525   */\n    tag_43:\n        /* \"#utility.yul\":11268:11271   */\n      0x00\n        /* \"#utility.yul\":11283:11358   */\n      tag_261\n        /* \"#utility.yul\":11354:11357   */\n      dup3\n        /* \"#utility.yul\":11345:11351   */\n      dup6\n        /* \"#utility.yul\":11283:11358   */\n      tag_129\n      jump\t// in\n    tag_261:\n        /* \"#utility.yul\":11383:11385   */\n      0x20\n        /* \"#utility.yul\":11378:11381   */\n      dup3\n        /* \"#utility.yul\":11374:11386   */\n      add\n        /* \"#utility.yul\":11367:11386   */\n      swap2\n      pop\n        /* \"#utility.yul\":11396:11471   */\n      tag_262\n        /* \"#utility.yul\":11467:11470   */\n      dup3\n        /* \"#utility.yul\":11458:11464   */\n      dup5\n        /* \"#utility.yul\":11396:11471   */\n      tag_129\n      jump\t// in\n    tag_262:\n        /* \"#utility.yul\":11496:11498   */\n      0x20\n        /* \"#utility.yul\":11491:11494   */\n      dup3\n        /* \"#utility.yul\":11487:11499   */\n      add\n        /* \"#utility.yul\":11480:11499   */\n      swap2\n      pop\n        /* \"#utility.yul\":11516:11519   */\n      dup2\n        /* \"#utility.yul\":11509:11519   */\n      swap1\n      pop\n        /* \"#utility.yul\":11128:11525   */\n      swap4\n      swap3\n      pop\n      pop\n      pop\n      jump\t// out\n        /* \"#utility.yul\":11531:11711   */\n    tag_130:\n        /* \"#utility.yul\":11579:11656   */\n      0x4e487b7100000000000000000000000000000000000000000000000000000000\n        /* \"#utility.yul\":11576:11577   */\n      0x00\n        /* \"#utility.yul\":11569:11657   */\n      mstore\n        /* \"#utility.yul\":11676:11680   */\n      0x11\n        /* \"#utility.yul\":11673:11674   */\n      0x04\n        /* \"#utility.yul\":11666:11681   */\n      mstore\n        /* \"#utility.yul\":11700:11704   */\n      0x24\n        /* \"#utility.yul\":11697:11698   */\n      0x00\n        /* \"#utility.yul\":11690:11705   */\n      revert\n        /* \"#utility.yul\":11717:11902   */\n    tag_47:\n        /* \"#utility.yul\":11757:11758   */\n      0x00\n        /* \"#utility.yul\":11774:11794   */\n      tag_265\n        /* \"#utility.yul\":11792:11793   */\n      dup3\n        /* \"#utility.yul\":11774:11794   */\n      tag_109\n      jump\t// in\n    tag_265:\n        /* \"#utility.yul\":11769:11794   */\n      swap2\n      pop\n        /* \"#utility.yul\":11808:11828   */\n      tag_266\n        /* \"#utility.yul\":11826:11827   */\n      dup4\n        /* \"#utility.yul\":11808:11828   */\n      tag_109\n      jump\t// in\n    tag_266:\n        /* \"#utility.yul\":11803:11828   */\n      swap3\n      pop\n        /* \"#utility.yul\":11847:11848   */\n      dup3\n        /* \"#utility.yul\":11837:11872   */\n      tag_267\n      jumpi\n        /* \"#utility.yul\":11852:11870   */\n      tag_268\n      tag_127\n      jump\t// in\n    tag_268:\n        /* \"#utility.yul\":11837:11872   */\n    tag_267:\n        /* \"#utility.yul\":11894:11895   */\n      dup3\n        /* \"#utility.yul\":11891:11892   */\n      dup3\n        /* \"#utility.yul\":11887:11896   */\n      div\n        /* \"#utility.yul\":11882:11896   */\n      swap1\n      pop\n        /* \"#utility.yul\":11717:11902   */\n      swap3\n      swap2\n      pop\n      pop\n      jump\t// out\n        /* \"#utility.yul\":11908:12102   */\n    tag_52:\n        /* \"#utility.yul\":11948:11952   */\n      0x00\n        /* \"#utility.yul\":11968:11988   */\n      tag_270\n        /* \"#utility.yul\":11986:11987   */\n      dup3\n        /* \"#utility.yul\":11968:11988   */\n      tag_109\n      jump\t// in\n    tag_270:\n        /* \"#utility.yul\":11963:11988   */\n      swap2\n      pop\n        /* \"#utility.yul\":12002:12022   */\n      tag_271\n        /* \"#utility.yul\":12020:12021   */\n      dup4\n        /* \"#utility.yul\":12002:12022   */\n      tag_109\n      jump\t// in\n    tag_271:\n        /* \"#utility.yul\":11997:12022   */\n      swap3\n      pop\n        /* \"#utility.yul\":12046:12047   */\n      dup3\n        /* \"#utility.yul\":12043:12044   */\n      dup3\n        /* \"#utility.yul\":12039:12048   */\n      sub\n        /* \"#utility.yul\":12031:12048   */\n      swap1\n      pop\n        /* \"#utility.yul\":12070:12071   */\n      dup2\n        /* \"#utility.yul\":12064:12068   */\n      dup2\n        /* \"#utility.yul\":12061:12072   */\n      gt\n        /* \"#utility.yul\":12058:12095   */\n      iszero\n      tag_272\n      jumpi\n        /* \"#utility.yul\":12075:12093   */\n      tag_273\n      tag_130\n      jump\t// in\n    tag_273:\n        /* \"#utility.yul\":12058:12095   */\n    tag_272:\n        /* \"#utility.yul\":11908:12102   */\n      swap3\n      swap2\n      pop\n      pop\n      jump\t// out\n        /* \"#utility.yul\":12108:12288   */\n    tag_131:\n        /* \"#utility.yul\":12156:12233   */\n      0x4e487b7100000000000000000000000000000000000000000000000000000000\n        /* \"#utility.yul\":12153:12154   */\n      0x00\n        /* \"#utility.yul\":12146:12234   */\n      mstore\n        /* \"#utility.yul\":12253:12257   */\n      0x22\n        /* \"#utility.yul\":12250:12251   */\n      0x04\n        /* \"#utility.yul\":12243:12258   */\n      mstore\n        /* \"#utility.yul\":12277:12281   */\n      0x24\n        /* \"#utility.yul\":12274:12275   */\n      0x00\n        /* \"#utility.yul\":12267:12282   */\n      revert\n        /* \"#utility.yul\":12294:12614   */\n    tag_59:\n        /* \"#utility.yul\":12338:12344   */\n      0x00\n        /* \"#utility.yul\":12375:12376   */\n      0x02\n        /* \"#utility.yul\":12369:12373   */\n      dup3\n        /* \"#utility.yul\":12365:12377   */\n      div\n        /* \"#utility.yul\":12355:12377   */\n      swap1\n      pop\n        /* \"#utility.yul\":12422:12423   */\n      0x01\n        /* \"#utility.yul\":12416:12420   */\n      dup3\n        /* \"#utility.yul\":12412:12424   */\n      and\n        /* \"#utility.yul\":12443:12461   */\n      dup1\n        /* \"#utility.yul\":12433:12514   */\n      tag_276\n      jumpi\n        /* \"#utility.yul\":12499:12503   */\n      0x7f\n        /* \"#utility.yul\":12491:12497   */\n      dup3\n        /* \"#utility.yul\":12487:12504   */\n      and\n        /* \"#utility.yul\":12477:12504   */\n      swap2\n      pop\n        /* \"#utility.yul\":12433:12514   */\n    tag_276:\n        /* \"#utility.yul\":12561:12563   */\n      0x20\n        /* \"#utility.yul\":12553:12559   */\n      dup3\n        /* \"#utility.yul\":12550:12564   */\n      lt\n        /* \"#utility.yul\":12530:12548   */\n      dup2\n        /* \"#utility.yul\":12527:12565   */\n      sub\n        /* \"#utility.yul\":12524:12608   */\n      tag_277\n      jumpi\n        /* \"#utility.yul\":12580:12598   */\n      tag_278\n      tag_131\n      jump\t// in\n    tag_278:\n        /* \"#utility.yul\":12524:12608   */\n    tag_277:\n        /* \"#utility.yul\":12345:12614   */\n      pop\n        /* \"#utility.yul\":12294:12614   */\n      swap2\n      swap1\n      pop\n      jump\t// out\n        /* \"#utility.yul\":12620:12768   */\n    tag_132:\n        /* \"#utility.yul\":12722:12733   */\n      0x00\n        /* \"#utility.yul\":12759:12762   */\n      dup2\n        /* \"#utility.yul\":12744:12762   */\n      swap1\n      pop\n        /* \"#utility.yul\":12620:12768   */\n      swap3\n      swap2\n      pop\n      pop\n      jump\t// out\n        /* \"#utility.yul\":12774:13164   */\n    tag_133:\n        /* \"#utility.yul\":12880:12883   */\n      0x00\n        /* \"#utility.yul\":12908:12947   */\n      tag_281\n        /* \"#utility.yul\":12941:12946   */\n      dup3\n        /* \"#utility.yul\":12908:12947   */\n      tag_115\n      jump\t// in\n    tag_281:\n        /* \"#utility.yul\":12963:13052   */\n      tag_282\n        /* \"#utility.yul\":13045:13051   */\n      dup2\n        /* \"#utility.yul\":13040:13043   */\n      dup6\n        /* \"#utility.yul\":12963:13052   */\n      tag_132\n      jump\t// in\n    tag_282:\n        /* \"#utility.yul\":12956:13052   */\n      swap4\n      pop\n        /* \"#utility.yul\":13061:13126   */\n      tag_283\n        /* \"#utility.yul\":13119:13125   */\n      dup2\n        /* \"#utility.yul\":13114:13117   */\n      dup6\n        /* \"#utility.yul\":13107:13111   */\n      0x20\n        /* \"#utility.yul\":13100:13105   */\n      dup7\n        /* \"#utility.yul\":13096:13112   */\n      add\n        /* \"#utility.yul\":13061:13126   */\n      tag_117\n      jump\t// in\n    tag_283:\n        /* \"#utility.yul\":13151:13157   */\n      dup1\n        /* \"#utility.yul\":13146:13149   */\n      dup5\n        /* \"#utility.yul\":13142:13158   */\n      add\n        /* \"#utility.yul\":13135:13158   */\n      swap2\n      pop\n        /* \"#utility.yul\":12884:13164   */\n      pop\n        /* \"#utility.yul\":12774:13164   */\n      swap3\n      swap2\n      pop\n      pop\n      jump\t// out\n        /* \"#utility.yul\":13170:13445   */\n    tag_71:\n        /* \"#utility.yul\":13302:13305   */\n      0x00\n        /* \"#utility.yul\":13324:13419   */\n      tag_285\n        /* \"#utility.yul\":13415:13418   */\n      dup3\n        /* \"#utility.yul\":13406:13412   */\n      dup5\n        /* \"#utility.yul\":13324:13419   */\n      tag_133\n      jump\t// in\n    tag_285:\n        /* \"#utility.yul\":13317:13419   */\n      swap2\n      pop\n        /* \"#utility.yul\":13436:13439   */\n      dup2\n        /* \"#utility.yul\":13429:13439   */\n      swap1\n      pop\n        /* \"#utility.yul\":13170:13445   */\n      swap3\n      swap2\n      pop\n      pop\n      jump\t// out\n        /* \"#utility.yul\":13451:13642   */\n    tag_80:\n        /* \"#utility.yul\":13491:13494   */\n      0x00\n        /* \"#utility.yul\":13510:13530   */\n      tag_287\n        /* \"#utility.yul\":13528:13529   */\n      dup3\n        /* \"#utility.yul\":13510:13530   */\n      tag_109\n      jump\t// in\n    tag_287:\n        /* \"#utility.yul\":13505:13530   */\n      swap2\n      pop\n        /* \"#utility.yul\":13544:13564   */\n      tag_288\n        /* \"#utility.yul\":13562:13563   */\n      dup4\n        /* \"#utility.yul\":13544:13564   */\n      tag_109\n      jump\t// in\n    tag_288:\n        /* \"#utility.yul\":13539:13564   */\n      swap3\n      pop\n        /* \"#utility.yul\":13587:13588   */\n      dup3\n        /* \"#utility.yul\":13584:13585   */\n      dup3\n        /* \"#utility.yul\":13580:13589   */\n      add\n        /* \"#utility.yul\":13573:13589   */\n      swap1\n      pop\n        /* \"#utility.yul\":13608:13611   */\n      dup1\n        /* \"#utility.yul\":13605:13606   */\n      dup3\n        /* \"#utility.yul\":13602:13612   */\n      gt\n        /* \"#utility.yul\":13599:13635   */\n      iszero\n      tag_289\n      jumpi\n        /* \"#utility.yul\":13615:13633   */\n      tag_290\n      tag_130\n      jump\t// in\n    tag_290:\n        /* \"#utility.yul\":13599:13635   */\n    tag_289:\n        /* \"#utility.yul\":13451:13642   */\n      swap3\n      swap2\n      pop\n      pop\n      jump\t// out\n\n    auxdata: 0xa2646970667358221220de45bc4e91bd993938c4fd84a9b2773bcd8663713e13db7a5ee51a2e1b7cbd4064736f6c634300081c0033\n}\n",
				"bytecode": {
					"linkReferences": {},
					"object": "608060405234801561000f575f5ffd5b5060018060018154018082558091505060019003905f5260205f20015f6040518060400160405280600c81526020017f616c696365202d3e20626f62000000000000000000000000000000000000000081525090919091509081610073919061064a565b5060018060018154018082558091505060019003905f5260205f20015f6040518060400160405280600b81526020017f626f62202d3e2064617665000000000000000000000000000000000000000000815250909190915090816100d7919061064a565b5060018060018154018082558091505060019003905f5260205f20015f6040518060400160405280600e81526020017f6361726f6c202d3e20616c6963650000000000000000000000000000000000008152509091909150908161013b919061064a565b5060018060018154018082558091505060019003905f5260205f20015f6040518060400160405280600b81526020017f64617665202d3e20626f620000000000000000000000000000000000000000008152509091909150908161019f919061064a565b5061027b6001805480602002602001604051908101604052809291908181526020015f905b8282101561026c578382905f5260205f200180546101e190610471565b80601f016020809104026020016040519081016040528092919081815260200182805461020d90610471565b80156102585780601f1061022f57610100808354040283529160200191610258565b820191905f5260205f20905b81548152906001019060200180831161023b57829003601f168201915b5050505050815260200190600101906101c4565b5050505061028060201b60201c565b6108e8565b5f5f90505b8151811015610300575f8282815181106102a2576102a1610719565b5b60200260200101516040516020016102ba919061078e565b60405160208183030381529060405280519060200120908060018154018082558091505060019003905f5260205f20015f90919091909150558080600101915050610285565b505f815190505f5f90505b5f8211156103eb575f5f90505b60018361032591906107d1565b8110156103e5575f5f828461033a9190610804565b8154811061034b5761034a610719565b5b905f5260205f2001545f600184866103639190610804565b61036d9190610804565b8154811061037e5761037d610719565b5b905f5260205f200154604051602001610398929190610860565b60405160208183030381529060405280519060200120908060018154018082558091505060019003905f5260205f20015f90919091909150556002816103de9190610804565b9050610318565b5061030b565b81816103f79190610804565b905060028261040691906108b8565b9150505050565b5f81519050919050565b7f4e487b71000000000000000000000000000000000000000000000000000000005f52604160045260245ffd5b7f4e487b71000000000000000000000000000000000000000000000000000000005f52602260045260245ffd5b5f600282049050600182168061048857607f821691505b60208210810361049b5761049a610444565b5b50919050565b5f819050815f5260205f209050919050565b5f6020601f8301049050919050565b5f82821b905092915050565b5f600883026104fd7fffffffffffffffffffffffffffffffffffffffffffffffffffffffffffffffff826104c2565b61050786836104c2565b95508019841693508086168417925050509392505050565b5f819050919050565b5f819050919050565b5f61054b6105466105418461051f565b610528565b61051f565b9050919050565b5f819050919050565b61056483610531565b61057861057082610552565b8484546104ce565b825550505050565b5f5f905090565b61058f610580565b61059a81848461055b565b505050565b5b818110156105bd576105b25f82610587565b6001810190506105a0565b5050565b601f821115610602576105d3816104a1565b6105dc846104b3565b810160208510156105eb578190505b6105ff6105f7856104b3565b83018261059f565b50505b505050565b5f82821c905092915050565b5f6106225f1984600802610607565b1980831691505092915050565b5f61063a8383610613565b9150826002028217905092915050565b6106538261040d565b67ffffffffffffffff81111561066c5761066b610417565b5b6106768254610471565b6106818282856105c1565b5f60209050601f8311600181146106b2575f84156106a0578287015190505b6106aa858261062f565b865550610711565b601f1984166106c0866104a1565b5f5b828110156106e7578489015182556001820191506020850194506020810190506106c2565b868310156107045784890151610700601f891682610613565b8355505b6001600288020188555050505b505050505050565b7f4e487b71000000000000000000000000000000000000000000000000000000005f52603260045260245ffd5b5f81905092915050565b8281835e5f83830152505050565b5f6107688261040d565b6107728185610746565b9350610782818560208601610750565b80840191505092915050565b5f610799828461075e565b915081905092915050565b7f4e487b71000000000000000000000000000000000000000000000000000000005f52601160045260245ffd5b5f6107db8261051f565b91506107e68361051f565b92508282039050818111156107fe576107fd6107a4565b5b92915050565b5f61080e8261051f565b91506108198361051f565b9250828201905080821115610831576108306107a4565b5b92915050565b5f819050919050565b5f819050919050565b61085a61085582610837565b610840565b82525050565b5f61086b8285610849565b60208201915061087b8284610849565b6020820191508190509392505050565b7f4e487b71000000000000000000000000000000000000000000000000000000005f52601260045260245ffd5b5f6108c28261051f565b91506108cd8361051f565b9250826108dd576108dc61088b565b5b828204905092915050565b610c10806108f55f395ff3fe608060405234801561000f575f5ffd5b5060043610610055575f3560e01c806321fb335c14610059578063501895ae146100895780635ca1e165146100b95780639ace38c2146100d7578063f609fdc314610107575b5f5ffd5b610073600480360381019061006e919061063a565b610123565b60405161008091906106d4565b60405180910390f35b6100a3600480360381019061009e91906106ed565b6101ef565b6040516100b09190610727565b60405180910390f35b6100c161020e565b6040516100ce9190610727565b60405180910390f35b6100f160048036038101906100ec91906106ed565b610240565b6040516100fe91906107a0565b60405180910390f35b610121600480360381019061011c919061094e565b6102e6565b005b5f5f8390505f5f90505b86518110156101e0575f87828151811061014a57610149610995565b5b602002602001015190505f60028661016291906109ef565b0361019757828160405160200161017a929190610a3f565b6040516020818303038152906040528051906020012092506101c3565b80836040516020016101aa929190610a3f565b6040516020818303038152906040528051906020012092505b6002856101d09190610a97565b945050808060010191505061012d565b50848114915050949350505050565b5f81815481106101fd575f80fd5b905f5260205f20015f915090505481565b5f5f60015f805490506102219190610ac7565b8154811061023257610231610995565b5b905f5260205f200154905090565b6001818154811061024f575f80fd5b905f5260205f20015f91509050805461026790610b27565b80601f016020809104026020016040519081016040528092919081815260200182805461029390610b27565b80156102de5780601f106102b5576101008083540402835291602001916102de565b820191905f5260205f20905b8154815290600101906020018083116102c157829003601f168201915b505050505081565b5f5f90505b8151811015610366575f82828151811061030857610307610995565b5b60200260200101516040516020016103209190610b91565b60405160208183030381529060405280519060200120908060018154018082558091505060019003905f5260205f20015f909190919091505580806001019150506102eb565b505f815190505f5f90505b5f821115610451575f5f90505b60018361038b9190610ac7565b81101561044b575f5f82846103a09190610ba7565b815481106103b1576103b0610995565b5b905f5260205f2001545f600184866103c99190610ba7565b6103d39190610ba7565b815481106103e4576103e3610995565b5b905f5260205f2001546040516020016103fe929190610a3f565b60405160208183030381529060405280519060200120908060018154018082558091505060019003905f5260205f20015f90919091909150556002816104449190610ba7565b905061037e565b50610371565b818161045d9190610ba7565b905060028261046c9190610a97565b9150505050565b5f604051905090565b5f5ffd5b5f5ffd5b5f5ffd5b5f601f19601f8301169050919050565b7f4e487b71000000000000000000000000000000000000000000000000000000005f52604160045260245ffd5b6104ce82610488565b810181811067ffffffffffffffff821117156104ed576104ec610498565b5b80604052505050565b5f6104ff610473565b905061050b82826104c5565b919050565b5f67ffffffffffffffff82111561052a57610529610498565b5b602082029050602081019050919050565b5f5ffd5b5f819050919050565b6105518161053f565b811461055b575f5ffd5b50565b5f8135905061056c81610548565b92915050565b5f61058461057f84610510565b6104f6565b905080838252602082019050602084028301858111156105a7576105a661053b565b5b835b818110156105d057806105bc888261055e565b8452602084019350506020810190506105a9565b5050509392505050565b5f82601f8301126105ee576105ed610484565b5b81356105fe848260208601610572565b91505092915050565b5f819050919050565b61061981610607565b8114610623575f5ffd5b50565b5f8135905061063481610610565b92915050565b5f5f5f5f608085870312156106525761065161047c565b5b5f85013567ffffffffffffffff81111561066f5761066e610480565b5b61067b878288016105da565b945050602061068c8782880161055e565b935050604061069d8782880161055e565b92505060606106ae87828801610626565b91505092959194509250565b5f8115159050919050565b6106ce816106ba565b82525050565b5f6020820190506106e75f8301846106c5565b92915050565b5f602082840312156107025761070161047c565b5b5f61070f84828501610626565b91505092915050565b6107218161053f565b82525050565b5f60208201905061073a5f830184610718565b92915050565b5f81519050919050565b5f82825260208201905092915050565b8281835e5f83830152505050565b5f61077282610740565b61077c818561074a565b935061078c81856020860161075a565b61079581610488565b840191505092915050565b5f6020820190508181035f8301526107b88184610768565b905092915050565b5f67ffffffffffffffff8211156107da576107d9610498565b5b602082029050602081019050919050565b5f5ffd5b5f67ffffffffffffffff82111561080957610808610498565b5b61081282610488565b9050602081019050919050565b828183375f83830152505050565b5f61083f61083a846107ef565b6104f6565b90508281526020810184848401111561085b5761085a6107eb565b5b61086684828561081f565b509392505050565b5f82601f83011261088257610881610484565b5b813561089284826020860161082d565b91505092915050565b5f6108ad6108a8846107c0565b6104f6565b905080838252602082019050602084028301858111156108d0576108cf61053b565b5b835b8181101561091757803567ffffffffffffffff8111156108f5576108f4610484565b5b808601610902898261086e565b855260208501945050506020810190506108d2565b5050509392505050565b5f82601f83011261093557610934610484565b5b813561094584826020860161089b565b91505092915050565b5f602082840312156109635761096261047c565b5b5f82013567ffffffffffffffff8111156109805761097f610480565b5b61098c84828501610921565b91505092915050565b7f4e487b71000000000000000000000000000000000000000000000000000000005f52603260045260245ffd5b7f4e487b71000000000000000000000000000000000000000000000000000000005f52601260045260245ffd5b5f6109f982610607565b9150610a0483610607565b925082610a1457610a136109c2565b5b828206905092915050565b5f819050919050565b610a39610a348261053f565b610a1f565b82525050565b5f610a4a8285610a28565b602082019150610a5a8284610a28565b6020820191508190509392505050565b7f4e487b71000000000000000000000000000000000000000000000000000000005f52601160045260245ffd5b5f610aa182610607565b9150610aac83610607565b925082610abc57610abb6109c2565b5b828204905092915050565b5f610ad182610607565b9150610adc83610607565b9250828203905081811115610af457610af3610a6a565b5b92915050565b7f4e487b71000000000000000000000000000000000000000000000000000000005f52602260045260245ffd5b5f6002820490506001821680610b3e57607f821691505b602082108103610b5157610b50610afa565b5b50919050565b5f81905092915050565b5f610b6b82610740565b610b758185610b57565b9350610b8581856020860161075a565b80840191505092915050565b5f610b9c8284610b61565b915081905092915050565b5f610bb182610607565b9150610bbc83610607565b9250828201905080821115610bd457610bd3610a6a565b5b9291505056fea2646970667358221220de45bc4e91bd993938c4fd84a9b2773bcd8663713e13db7a5ee51a2e1b7cbd4064736f6c634300081c0033",
					"opcodes": "PUSH1 0x80 PUSH1 0x40 MSTORE CALLVALUE DUP1 ISZERO PUSH2 0xF JUMPI PUSH0 PUSH0 REVERT JUMPDEST POP PUSH1 0x1 DUP1 PUSH1 0x1 DUP2 SLOAD ADD DUP1 DUP3 SSTORE DUP1 SWAP2 POP POP PUSH1 0x1 SWAP1 SUB SWAP1 PUSH0 MSTORE PUSH1 0x20 PUSH0 KECCAK256 ADD PUSH0 PUSH1 0x40 MLOAD DUP1 PUSH1 0x40 ADD PUSH1 0x40 MSTORE DUP1 PUSH1 0xC DUP2 MSTORE PUSH1 0x20 ADD PUSH32 0x616C696365202D3E20626F620000000000000000000000000000000000000000 DUP2 MSTORE POP SWAP1 SWAP2 SWAP1 SWAP2 POP SWAP1 DUP2 PUSH2 0x73 SWAP2 SWAP1 PUSH2 0x64A JUMP JUMPDEST POP PUSH1 0x1 DUP1 PUSH1 0x1 DUP2 SLOAD ADD DUP1 DUP3 SSTORE DUP1 SWAP2 POP POP PUSH1 0x1 SWAP1 SUB SWAP1 PUSH0 MSTORE PUSH1 0x20 PUSH0 KECCAK256 ADD PUSH0 PUSH1 0x40 MLOAD DUP1 PUSH1 0x40 ADD PUSH1 0x40 MSTORE DUP1 PUSH1 0xB DUP2 MSTORE PUSH1 0x20 ADD PUSH32 0x626F62202D3E2064617665000000000000000000000000000000000000000000 DUP2 MSTORE POP SWAP1 SWAP2 SWAP1 SWAP2 POP SWAP1 DUP2 PUSH2 0xD7 SWAP2 SWAP1 PUSH2 0x64A JUMP JUMPDEST POP PUSH1 0x1 DUP1 PUSH1 0x1 DUP2 SLOAD ADD DUP1 DUP3 SSTORE DUP1 SWAP2 POP POP PUSH1 0x1 SWAP1 SUB SWAP1 PUSH0 MSTORE PUSH1 0x20 PUSH0 KECCAK256 ADD PUSH0 PUSH1 0x40 MLOAD DUP1 PUSH1 0x40 ADD PUSH1 0x40 MSTORE DUP1 PUSH1 0xE DUP2 MSTORE PUSH1 0x20 ADD PUSH32 0x6361726F6C202D3E20616C696365000000000000000000000000000000000000 DUP2 MSTORE POP SWAP1 SWAP2 SWAP1 SWAP2 POP SWAP1 DUP2 PUSH2 0x13B SWAP2 SWAP1 PUSH2 0x64A JUMP JUMPDEST POP PUSH1 0x1 DUP1 PUSH1 0x1 DUP2 SLOAD ADD DUP1 DUP3 SSTORE DUP1 SWAP2 POP POP PUSH1 0x1 SWAP1 SUB SWAP1 PUSH0 MSTORE PUSH1 0x20 PUSH0 KECCAK256 ADD PUSH0 PUSH1 0x40 MLOAD DUP1 PUSH1 0x40 ADD PUSH1 0x40 MSTORE DUP1 PUSH1 0xB DUP2 MSTORE PUSH1 0x20 ADD PUSH32 0x64617665202D3E20626F62000000000000000000000000000000000000000000 DUP2 MSTORE POP SWAP1 SWAP2 SWAP1 SWAP2 POP SWAP1 DUP2 PUSH2 0x19F SWAP2 SWAP1 PUSH2 0x64A JUMP JUMPDEST POP PUSH2 0x27B PUSH1 0x1 DUP1 SLOAD DUP1 PUSH1 0x20 MUL PUSH1 0x20 ADD PUSH1 0x40 MLOAD SWAP1 DUP2 ADD PUSH1 0x40 MSTORE DUP1 SWAP3 SWAP2 SWAP1 DUP2 DUP2 MSTORE PUSH1 0x20 ADD PUSH0 SWAP1 JUMPDEST DUP3 DUP3 LT ISZERO PUSH2 0x26C JUMPI DUP4 DUP3 SWAP1 PUSH0 MSTORE PUSH1 0x20 PUSH0 KECCAK256 ADD DUP1 SLOAD PUSH2 0x1E1 SWAP1 PUSH2 0x471 JUMP JUMPDEST DUP1 PUSH1 0x1F ADD PUSH1 0x20 DUP1 SWAP2 DIV MUL PUSH1 0x20 ADD PUSH1 0x40 MLOAD SWAP1 DUP2 ADD PUSH1 0x40 MSTORE DUP1 SWAP3 SWAP2 SWAP1 DUP2 DUP2 MSTORE PUSH1 0x20 ADD DUP3 DUP1 SLOAD PUSH2 0x20D SWAP1 PUSH2 0x471 JUMP JUMPDEST DUP1 ISZERO PUSH2 0x258 JUMPI DUP1 PUSH1 0x1F LT PUSH2 0x22F JUMPI PUSH2 0x100 DUP1 DUP4 SLOAD DIV MUL DUP4 MSTORE SWAP2 PUSH1 0x20 ADD SWAP2 PUSH2 0x258 JUMP JUMPDEST DUP3 ADD SWAP2 SWAP1 PUSH0 MSTORE PUSH1 0x20 PUSH0 KECCAK256 SWAP1 JUMPDEST DUP2 SLOAD DUP2 MSTORE SWAP1 PUSH1 0x1 ADD SWAP1 PUSH1 0x20 ADD DUP1 DUP4 GT PUSH2 0x23B JUMPI DUP3 SWAP1 SUB PUSH1 0x1F AND DUP3 ADD SWAP2 JUMPDEST POP POP POP POP POP DUP2 MSTORE PUSH1 0x20 ADD SWAP1 PUSH1 0x1 ADD SWAP1 PUSH2 0x1C4 JUMP JUMPDEST POP POP POP POP PUSH2 0x280 PUSH1 0x20 SHL PUSH1 0x20 SHR JUMP JUMPDEST PUSH2 0x8E8 JUMP JUMPDEST PUSH0 PUSH0 SWAP1 POP JUMPDEST DUP2 MLOAD DUP2 LT ISZERO PUSH2 0x300 JUMPI PUSH0 DUP3 DUP3 DUP2 MLOAD DUP2 LT PUSH2 0x2A2 JUMPI PUSH2 0x2A1 PUSH2 0x719 JUMP JUMPDEST JUMPDEST PUSH1 0x20 MUL PUSH1 0x20 ADD ADD MLOAD PUSH1 0x40 MLOAD PUSH1 0x20 ADD PUSH2 0x2BA SWAP2 SWAP1 PUSH2 0x78E JUMP JUMPDEST PUSH1 0x40 MLOAD PUSH1 0x20 DUP2 DUP4 SUB SUB DUP2 MSTORE SWAP1 PUSH1 0x40 MSTORE DUP1 MLOAD SWAP1 PUSH1 0x20 ADD KECCAK256 SWAP1 DUP1 PUSH1 0x1 DUP2 SLOAD ADD DUP1 DUP3 SSTORE DUP1 SWAP2 POP POP PUSH1 0x1 SWAP1 SUB SWAP1 PUSH0 MSTORE PUSH1 0x20 PUSH0 KECCAK256 ADD PUSH0 SWAP1 SWAP2 SWAP1 SWAP2 SWAP1 SWAP2 POP SSTORE DUP1 DUP1 PUSH1 0x1 ADD SWAP2 POP POP PUSH2 0x285 JUMP JUMPDEST POP PUSH0 DUP2 MLOAD SWAP1 POP PUSH0 PUSH0 SWAP1 POP JUMPDEST PUSH0 DUP3 GT ISZERO PUSH2 0x3EB JUMPI PUSH0 PUSH0 SWAP1 POP JUMPDEST PUSH1 0x1 DUP4 PUSH2 0x325 SWAP2 SWAP1 PUSH2 0x7D1 JUMP JUMPDEST DUP2 LT ISZERO PUSH2 0x3E5 JUMPI PUSH0 PUSH0 DUP3 DUP5 PUSH2 0x33A SWAP2 SWAP1 PUSH2 0x804 JUMP JUMPDEST DUP2 SLOAD DUP2 LT PUSH2 0x34B JUMPI PUSH2 0x34A PUSH2 0x719 JUMP JUMPDEST JUMPDEST SWAP1 PUSH0 MSTORE PUSH1 0x20 PUSH0 KECCAK256 ADD SLOAD PUSH0 PUSH1 0x1 DUP5 DUP7 PUSH2 0x363 SWAP2 SWAP1 PUSH2 0x804 JUMP JUMPDEST PUSH2 0x36D SWAP2 SWAP1 PUSH2 0x804 JUMP JUMPDEST DUP2 SLOAD DUP2 LT PUSH2 0x37E JUMPI PUSH2 0x37D PUSH2 0x719 JUMP JUMPDEST JUMPDEST SWAP1 PUSH0 MSTORE PUSH1 0x20 PUSH0 KECCAK256 ADD SLOAD PUSH1 0x40 MLOAD PUSH1 0x20 ADD PUSH2 0x398 SWAP3 SWAP2 SWAP1 PUSH2 0x860 JUMP JUMPDEST PUSH1 0x40 MLOAD PUSH1 0x20 DUP2 DUP4 SUB SUB DUP2 MSTORE SWAP1 PUSH1 0x40 MSTORE DUP1 MLOAD SWAP1 PUSH1 0x20 ADD KECCAK256 SWAP1 DUP1 PUSH1 0x1 DUP2 SLOAD ADD DUP1 DUP3 SSTORE DUP1 SWAP2 POP POP PUSH1 0x1 SWAP1 SUB SWAP1 PUSH0 MSTORE PUSH1 0x20 PUSH0 KECCAK256 ADD PUSH0 SWAP1 SWAP2 SWAP1 SWAP2 SWAP1 SWAP2 POP SSTORE PUSH1 0x2 DUP2 PUSH2 0x3DE SWAP2 SWAP1 PUSH2 0x804 JUMP JUMPDEST SWAP1 POP PUSH2 0x318 JUMP JUMPDEST POP PUSH2 0x30B JUMP JUMPDEST DUP2 DUP2 PUSH2 0x3F7 SWAP2 SWAP1 PUSH2 0x804 JUMP JUMPDEST SWAP1 POP PUSH1 0x2 DUP3 PUSH2 0x406 SWAP2 SWAP1 PUSH2 0x8B8 JUMP JUMPDEST SWAP2 POP POP POP POP JUMP JUMPDEST PUSH0 DUP2 MLOAD SWAP1 POP SWAP2 SWAP1 POP JUMP JUMPDEST PUSH32 0x4E487B7100000000000000000000000000000000000000000000000000000000 PUSH0 MSTORE PUSH1 0x41 PUSH1 0x4 MSTORE PUSH1 0x24 PUSH0 REVERT JUMPDEST PUSH32 0x4E487B7100000000000000000000000000000000000000000000000000000000 PUSH0 MSTORE PUSH1 0x22 PUSH1 0x4 MSTORE PUSH1 0x24 PUSH0 REVERT JUMPDEST PUSH0 PUSH1 0x2 DUP3 DIV SWAP1 POP PUSH1 0x1 DUP3 AND DUP1 PUSH2 0x488 JUMPI PUSH1 0x7F DUP3 AND SWAP2 POP JUMPDEST PUSH1 0x20 DUP3 LT DUP2 SUB PUSH2 0x49B JUMPI PUSH2 0x49A PUSH2 0x444 JUMP JUMPDEST JUMPDEST POP SWAP2 SWAP1 POP JUMP JUMPDEST PUSH0 DUP2 SWAP1 POP DUP2 PUSH0 MSTORE PUSH1 0x20 PUSH0 KECCAK256 SWAP1 POP SWAP2 SWAP1 POP JUMP JUMPDEST PUSH0 PUSH1 0x20 PUSH1 0x1F DUP4 ADD DIV SWAP1 POP SWAP2 SWAP1 POP JUMP JUMPDEST PUSH0 DUP3 DUP3 SHL SWAP1 POP SWAP3 SWAP2 POP POP JUMP JUMPDEST PUSH0 PUSH1 0x8 DUP4 MUL PUSH2 0x4FD PUSH32 0xFFFFFFFFFFFFFFFFFFFFFFFFFFFFFFFFFFFFFFFFFFFFFFFFFFFFFFFFFFFFFFFF DUP3 PUSH2 0x4C2 JUMP JUMPDEST PUSH2 0x507 DUP7 DUP4 PUSH2 0x4C2 JUMP JUMPDEST SWAP6 POP DUP1 NOT DUP5 AND SWAP4 POP DUP1 DUP7 AND DUP5 OR SWAP3 POP POP POP SWAP4 SWAP3 POP POP POP JUMP JUMPDEST PUSH0 DUP2 SWAP1 POP SWAP2 SWAP1 POP JUMP JUMPDEST PUSH0 DUP2 SWAP1 POP SWAP2 SWAP1 POP JUMP JUMPDEST PUSH0 PUSH2 0x54B PUSH2 0x546 PUSH2 0x541 DUP5 PUSH2 0x51F JUMP JUMPDEST PUSH2 0x528 JUMP JUMPDEST PUSH2 0x51F JUMP JUMPDEST SWAP1 POP SWAP2 SWAP1 POP JUMP JUMPDEST PUSH0 DUP2 SWAP1 POP SWAP2 SWAP1 POP JUMP JUMPDEST PUSH2 0x564 DUP4 PUSH2 0x531 JUMP JUMPDEST PUSH2 0x578 PUSH2 0x570 DUP3 PUSH2 0x552 JUMP JUMPDEST DUP5 DUP5 SLOAD PUSH2 0x4CE JUMP JUMPDEST DUP3 SSTORE POP POP POP POP JUMP JUMPDEST PUSH0 PUSH0 SWAP1 POP SWAP1 JUMP JUMPDEST PUSH2 0x58F PUSH2 0x580 JUMP JUMPDEST PUSH2 0x59A DUP2 DUP5 DUP5 PUSH2 0x55B JUMP JUMPDEST POP POP POP JUMP JUMPDEST JUMPDEST DUP2 DUP2 LT ISZERO PUSH2 0x5BD JUMPI PUSH2 0x5B2 PUSH0 DUP3 PUSH2 0x587 JUMP JUMPDEST PUSH1 0x1 DUP2 ADD SWAP1 POP PUSH2 0x5A0 JUMP JUMPDEST POP POP JUMP JUMPDEST PUSH1 0x1F DUP3 GT ISZERO PUSH2 0x602 JUMPI PUSH2 0x5D3 DUP2 PUSH2 0x4A1 JUMP JUMPDEST PUSH2 0x5DC DUP5 PUSH2 0x4B3 JUMP JUMPDEST DUP2 ADD PUSH1 0x20 DUP6 LT ISZERO PUSH2 0x5EB JUMPI DUP2 SWAP1 POP JUMPDEST PUSH2 0x5FF PUSH2 0x5F7 DUP6 PUSH2 0x4B3 JUMP JUMPDEST DUP4 ADD DUP3 PUSH2 0x59F JUMP JUMPDEST POP POP JUMPDEST POP POP POP JUMP JUMPDEST PUSH0 DUP3 DUP3 SHR SWAP1 POP SWAP3 SWAP2 POP POP JUMP JUMPDEST PUSH0 PUSH2 0x622 PUSH0 NOT DUP5 PUSH1 0x8 MUL PUSH2 0x607 JUMP JUMPDEST NOT DUP1 DUP4 AND SWAP2 POP POP SWAP3 SWAP2 POP POP JUMP JUMPDEST PUSH0 PUSH2 0x63A DUP4 DUP4 PUSH2 0x613 JUMP JUMPDEST SWAP2 POP DUP3 PUSH1 0x2 MUL DUP3 OR SWAP1 POP SWAP3 SWAP2 POP POP JUMP JUMPDEST PUSH2 0x653 DUP3 PUSH2 0x40D JUMP JUMPDEST PUSH8 0xFFFFFFFFFFFFFFFF DUP2 GT ISZERO PUSH2 0x66C JUMPI PUSH2 0x66B PUSH2 0x417 JUMP JUMPDEST JUMPDEST PUSH2 0x676 DUP3 SLOAD PUSH2 0x471 JUMP JUMPDEST PUSH2 0x681 DUP3 DUP3 DUP6 PUSH2 0x5C1 JUMP JUMPDEST PUSH0 PUSH1 0x20 SWAP1 POP PUSH1 0x1F DUP4 GT PUSH1 0x1 DUP2 EQ PUSH2 0x6B2 JUMPI PUSH0 DUP5 ISZERO PUSH2 0x6A0 JUMPI DUP3 DUP8 ADD MLOAD SWAP1 POP JUMPDEST PUSH2 0x6AA DUP6 DUP3 PUSH2 0x62F JUMP JUMPDEST DUP7 SSTORE POP PUSH2 0x711 JUMP JUMPDEST PUSH1 0x1F NOT DUP5 AND PUSH2 0x6C0 DUP7 PUSH2 0x4A1 JUMP JUMPDEST PUSH0 JUMPDEST DUP3 DUP2 LT ISZERO PUSH2 0x6E7 JUMPI DUP5 DUP10 ADD MLOAD DUP3 SSTORE PUSH1 0x1 DUP3 ADD SWAP2 POP PUSH1 0x20 DUP6 ADD SWAP5 POP PUSH1 0x20 DUP2 ADD SWAP1 POP PUSH2 0x6C2 JUMP JUMPDEST DUP7 DUP4 LT ISZERO PUSH2 0x704 JUMPI DUP5 DUP10 ADD MLOAD PUSH2 0x700 PUSH1 0x1F DUP10 AND DUP3 PUSH2 0x613 JUMP JUMPDEST DUP4 SSTORE POP JUMPDEST PUSH1 0x1 PUSH1 0x2 DUP9 MUL ADD DUP9 SSTORE POP POP POP JUMPDEST POP POP POP POP POP POP JUMP JUMPDEST PUSH32 0x4E487B7100000000000000000000000000000000000000000000000000000000 PUSH0 MSTORE PUSH1 0x32 PUSH1 0x4 MSTORE PUSH1 0x24 PUSH0 REVERT JUMPDEST PUSH0 DUP2 SWAP1 POP SWAP3 SWAP2 POP POP JUMP JUMPDEST DUP3 DUP2 DUP4 MCOPY PUSH0 DUP4 DUP4 ADD MSTORE POP POP POP JUMP JUMPDEST PUSH0 PUSH2 0x768 DUP3 PUSH2 0x40D JUMP JUMPDEST PUSH2 0x772 DUP2 DUP6 PUSH2 0x746 JUMP JUMPDEST SWAP4 POP PUSH2 0x782 DUP2 DUP6 PUSH1 0x20 DUP7 ADD PUSH2 0x750 JUMP JUMPDEST DUP1 DUP5 ADD SWAP2 POP POP SWAP3 SWAP2 POP POP JUMP JUMPDEST PUSH0 PUSH2 0x799 DUP3 DUP5 PUSH2 0x75E JUMP JUMPDEST SWAP2 POP DUP2 SWAP1 POP SWAP3 SWAP2 POP POP JUMP JUMPDEST PUSH32 0x4E487B7100000000000000000000000000000000000000000000000000000000 PUSH0 MSTORE PUSH1 0x11 PUSH1 0x4 MSTORE PUSH1 0x24 PUSH0 REVERT JUMPDEST PUSH0 PUSH2 0x7DB DUP3 PUSH2 0x51F JUMP JUMPDEST SWAP2 POP PUSH2 0x7E6 DUP4 PUSH2 0x51F JUMP JUMPDEST SWAP3 POP DUP3 DUP3 SUB SWAP1 POP DUP2 DUP2 GT ISZERO PUSH2 0x7FE JUMPI PUSH2 0x7FD PUSH2 0x7A4 JUMP JUMPDEST JUMPDEST SWAP3 SWAP2 POP POP JUMP JUMPDEST PUSH0 PUSH2 0x80E DUP3 PUSH2 0x51F JUMP JUMPDEST SWAP2 POP PUSH2 0x819 DUP4 PUSH2 0x51F JUMP JUMPDEST SWAP3 POP DUP3 DUP3 ADD SWAP1 POP DUP1 DUP3 GT ISZERO PUSH2 0x831 JUMPI PUSH2 0x830 PUSH2 0x7A4 JUMP JUMPDEST JUMPDEST SWAP3 SWAP2 POP POP JUMP JUMPDEST PUSH0 DUP2 SWAP1 POP SWAP2 SWAP1 POP JUMP JUMPDEST PUSH0 DUP2 SWAP1 POP SWAP2 SWAP1 POP JUMP JUMPDEST PUSH2 0x85A PUSH2 0x855 DUP3 PUSH2 0x837 JUMP JUMPDEST PUSH2 0x840 JUMP JUMPDEST DUP3 MSTORE POP POP JUMP JUMPDEST PUSH0 PUSH2 0x86B DUP3 DUP6 PUSH2 0x849 JUMP JUMPDEST PUSH1 0x20 DUP3 ADD SWAP2 POP PUSH2 0x87B DUP3 DUP5 PUSH2 0x849 JUMP JUMPDEST PUSH1 0x20 DUP3 ADD SWAP2 POP DUP2 SWAP1 POP SWAP4 SWAP3 POP POP POP JUMP JUMPDEST PUSH32 0x4E487B7100000000000000000000000000000000000000000000000000000000 PUSH0 MSTORE PUSH1 0x12 PUSH1 0x4 MSTORE PUSH1 0x24 PUSH0 REVERT JUMPDEST PUSH0 PUSH2 0x8C2 DUP3 PUSH2 0x51F JUMP JUMPDEST SWAP2 POP PUSH2 0x8CD DUP4 PUSH2 0x51F JUMP JUMPDEST SWAP3 POP DUP3 PUSH2 0x8DD JUMPI PUSH2 0x8DC PUSH2 0x88B JUMP JUMPDEST JUMPDEST DUP3 DUP3 DIV SWAP1 POP SWAP3 SWAP2 POP POP JUMP JUMPDEST PUSH2 0xC10 DUP1 PUSH2 0x8F5 PUSH0 CODECOPY PUSH0 RETURN INVALID PUSH1 0x80 PUSH1 0x40 MSTORE CALLVALUE DUP1 ISZERO PUSH2 0xF JUMPI PUSH0 PUSH0 REVERT JUMPDEST POP PUSH1 0x4 CALLDATASIZE LT PUSH2 0x55 JUMPI PUSH0 CALLDATALOAD PUSH1 0xE0 SHR DUP1 PUSH4 0x21FB335C EQ PUSH2 0x59 JUMPI DUP1 PUSH4 0x501895AE EQ PUSH2 0x89 JUMPI DUP1 PUSH4 0x5CA1E165 EQ PUSH2 0xB9 JUMPI DUP1 PUSH4 0x9ACE38C2 EQ PUSH2 0xD7 JUMPI DUP1 PUSH4 0xF609FDC3 EQ PUSH2 0x107 JUMPI JUMPDEST PUSH0 PUSH0 REVERT JUMPDEST PUSH2 0x73 PUSH1 0x4 DUP1 CALLDATASIZE SUB DUP2 ADD SWAP1 PUSH2 0x6E SWAP2 SWAP1 PUSH2 0x63A JUMP JUMPDEST PUSH2 0x123 JUMP JUMPDEST PUSH1 0x40 MLOAD PUSH2 0x80 SWAP2 SWAP1 PUSH2 0x6D4 JUMP JUMPDEST PUSH1 0x40 MLOAD DUP1 SWAP2 SUB SWAP1 RETURN JUMPDEST PUSH2 0xA3 PUSH1 0x4 DUP1 CALLDATASIZE SUB DUP2 ADD SWAP1 PUSH2 0x9E SWAP2 SWAP1 PUSH2 0x6ED JUMP JUMPDEST PUSH2 0x1EF JUMP JUMPDEST PUSH1 0x40 MLOAD PUSH2 0xB0 SWAP2 SWAP1 PUSH2 0x727 JUMP JUMPDEST PUSH1 0x40 MLOAD DUP1 SWAP2 SUB SWAP1 RETURN JUMPDEST PUSH2 0xC1 PUSH2 0x20E JUMP JUMPDEST PUSH1 0x40 MLOAD PUSH2 0xCE SWAP2 SWAP1 PUSH2 0x727 JUMP JUMPDEST PUSH1 0x40 MLOAD DUP1 SWAP2 SUB SWAP1 RETURN JUMPDEST PUSH2 0xF1 PUSH1 0x4 DUP1 CALLDATASIZE SUB DUP2 ADD SWAP1 PUSH2 0xEC SWAP2 SWAP1 PUSH2 0x6ED JUMP JUMPDEST PUSH2 0x240 JUMP JUMPDEST PUSH1 0x40 MLOAD PUSH2 0xFE SWAP2 SWAP1 PUSH2 0x7A0 JUMP JUMPDEST PUSH1 0x40 MLOAD DUP1 SWAP2 SUB SWAP1 RETURN JUMPDEST PUSH2 0x121 PUSH1 0x4 DUP1 CALLDATASIZE SUB DUP2 ADD SWAP1 PUSH2 0x11C SWAP2 SWAP1 PUSH2 0x94E JUMP JUMPDEST PUSH2 0x2E6 JUMP JUMPDEST STOP JUMPDEST PUSH0 PUSH0 DUP4 SWAP1 POP PUSH0 PUSH0 SWAP1 POP JUMPDEST DUP7 MLOAD DUP2 LT ISZERO PUSH2 0x1E0 JUMPI PUSH0 DUP8 DUP3 DUP2 MLOAD DUP2 LT PUSH2 0x14A JUMPI PUSH2 0x149 PUSH2 0x995 JUMP JUMPDEST JUMPDEST PUSH1 0x20 MUL PUSH1 0x20 ADD ADD MLOAD SWAP1 POP PUSH0 PUSH1 0x2 DUP7 PUSH2 0x162 SWAP2 SWAP1 PUSH2 0x9EF JUMP JUMPDEST SUB PUSH2 0x197 JUMPI DUP3 DUP2 PUSH1 0x40 MLOAD PUSH1 0x20 ADD PUSH2 0x17A SWAP3 SWAP2 SWAP1 PUSH2 0xA3F JUMP JUMPDEST PUSH1 0x40 MLOAD PUSH1 0x20 DUP2 DUP4 SUB SUB DUP2 MSTORE SWAP1 PUSH1 0x40 MSTORE DUP1 MLOAD SWAP1 PUSH1 0x20 ADD KECCAK256 SWAP3 POP PUSH2 0x1C3 JUMP JUMPDEST DUP1 DUP4 PUSH1 0x40 MLOAD PUSH1 0x20 ADD PUSH2 0x1AA SWAP3 SWAP2 SWAP1 PUSH2 0xA3F JUMP JUMPDEST PUSH1 0x40 MLOAD PUSH1 0x20 DUP2 DUP4 SUB SUB DUP2 MSTORE SWAP1 PUSH1 0x40 MSTORE DUP1 MLOAD SWAP1 PUSH1 0x20 ADD KECCAK256 SWAP3 POP JUMPDEST PUSH1 0x2 DUP6 PUSH2 0x1D0 SWAP2 SWAP1 PUSH2 0xA97 JUMP JUMPDEST SWAP5 POP POP DUP1 DUP1 PUSH1 0x1 ADD SWAP2 POP POP PUSH2 0x12D JUMP JUMPDEST POP DUP5 DUP2 EQ SWAP2 POP POP SWAP5 SWAP4 POP POP POP POP JUMP JUMPDEST PUSH0 DUP2 DUP2 SLOAD DUP2 LT PUSH2 0x1FD JUMPI PUSH0 DUP1 REVERT JUMPDEST SWAP1 PUSH0 MSTORE PUSH1 0x20 PUSH0 KECCAK256 ADD PUSH0 SWAP2 POP SWAP1 POP SLOAD DUP2 JUMP JUMPDEST PUSH0 PUSH0 PUSH1 0x1 PUSH0 DUP1 SLOAD SWAP1 POP PUSH2 0x221 SWAP2 SWAP1 PUSH2 0xAC7 JUMP JUMPDEST DUP2 SLOAD DUP2 LT PUSH2 0x232 JUMPI PUSH2 0x231 PUSH2 0x995 JUMP JUMPDEST JUMPDEST SWAP1 PUSH0 MSTORE PUSH1 0x20 PUSH0 KECCAK256 ADD SLOAD SWAP1 POP SWAP1 JUMP JUMPDEST PUSH1 0x1 DUP2 DUP2 SLOAD DUP2 LT PUSH2 0x24F JUMPI PUSH0 DUP1 REVERT JUMPDEST SWAP1 PUSH0 MSTORE PUSH1 0x20 PUSH0 KECCAK256 ADD PUSH0 SWAP2 POP SWAP1 POP DUP1 SLOAD PUSH2 0x267 SWAP1 PUSH2 0xB27 JUMP JUMPDEST DUP1 PUSH1 0x1F ADD PUSH1 0x20 DUP1 SWAP2 DIV MUL PUSH1 0x20 ADD PUSH1 0x40 MLOAD SWAP1 DUP2 ADD PUSH1 0x40 MSTORE DUP1 SWAP3 SWAP2 SWAP1 DUP2 DUP2 MSTORE PUSH1 0x20 ADD DUP3 DUP1 SLOAD PUSH2 0x293 SWAP1 PUSH2 0xB27 JUMP JUMPDEST DUP1 ISZERO PUSH2 0x2DE JUMPI DUP1 PUSH1 0x1F LT PUSH2 0x2B5 JUMPI PUSH2 0x100 DUP1 DUP4 SLOAD DIV MUL DUP4 MSTORE SWAP2 PUSH1 0x20 ADD SWAP2 PUSH2 0x2DE JUMP JUMPDEST DUP3 ADD SWAP2 SWAP1 PUSH0 MSTORE PUSH1 0x20 PUSH0 KECCAK256 SWAP1 JUMPDEST DUP2 SLOAD DUP2 MSTORE SWAP1 PUSH1 0x1 ADD SWAP1 PUSH1 0x20 ADD DUP1 DUP4 GT PUSH2 0x2C1 JUMPI DUP3 SWAP1 SUB PUSH1 0x1F AND DUP3 ADD SWAP2 JUMPDEST POP POP POP POP POP DUP2 JUMP JUMPDEST PUSH0 PUSH0 SWAP1 POP JUMPDEST DUP2 MLOAD DUP2 LT ISZERO PUSH2 0x366 JUMPI PUSH0 DUP3 DUP3 DUP2 MLOAD DUP2 LT PUSH2 0x308 JUMPI PUSH2 0x307 PUSH2 0x995 JUMP JUMPDEST JUMPDEST PUSH1 0x20 MUL PUSH1 0x20 ADD ADD MLOAD PUSH1 0x40 MLOAD PUSH1 0x20 ADD PUSH2 0x320 SWAP2 SWAP1 PUSH2 0xB91 JUMP JUMPDEST PUSH1 0x40 MLOAD PUSH1 0x20 DUP2 DUP4 SUB SUB DUP2 MSTORE SWAP1 PUSH1 0x40 MSTORE DUP1 MLOAD SWAP1 PUSH1 0x20 ADD KECCAK256 SWAP1 DUP1 PUSH1 0x1 DUP2 SLOAD ADD DUP1 DUP3 SSTORE DUP1 SWAP2 POP POP PUSH1 0x1 SWAP1 SUB SWAP1 PUSH0 MSTORE PUSH1 0x20 PUSH0 KECCAK256 ADD PUSH0 SWAP1 SWAP2 SWAP1 SWAP2 SWAP1 SWAP2 POP SSTORE DUP1 DUP1 PUSH1 0x1 ADD SWAP2 POP POP PUSH2 0x2EB JUMP JUMPDEST POP PUSH0 DUP2 MLOAD SWAP1 POP PUSH0 PUSH0 SWAP1 POP JUMPDEST PUSH0 DUP3 GT ISZERO PUSH2 0x451 JUMPI PUSH0 PUSH0 SWAP1 POP JUMPDEST PUSH1 0x1 DUP4 PUSH2 0x38B SWAP2 SWAP1 PUSH2 0xAC7 JUMP JUMPDEST DUP2 LT ISZERO PUSH2 0x44B JUMPI PUSH0 PUSH0 DUP3 DUP5 PUSH2 0x3A0 SWAP2 SWAP1 PUSH2 0xBA7 JUMP JUMPDEST DUP2 SLOAD DUP2 LT PUSH2 0x3B1 JUMPI PUSH2 0x3B0 PUSH2 0x995 JUMP JUMPDEST JUMPDEST SWAP1 PUSH0 MSTORE PUSH1 0x20 PUSH0 KECCAK256 ADD SLOAD PUSH0 PUSH1 0x1 DUP5 DUP7 PUSH2 0x3C9 SWAP2 SWAP1 PUSH2 0xBA7 JUMP JUMPDEST PUSH2 0x3D3 SWAP2 SWAP1 PUSH2 0xBA7 JUMP JUMPDEST DUP2 SLOAD DUP2 LT PUSH2 0x3E4 JUMPI PUSH2 0x3E3 PUSH2 0x995 JUMP JUMPDEST JUMPDEST SWAP1 PUSH0 MSTORE PUSH1 0x20 PUSH0 KECCAK256 ADD SLOAD PUSH1 0x40 MLOAD PUSH1 0x20 ADD PUSH2 0x3FE SWAP3 SWAP2 SWAP1 PUSH2 0xA3F JUMP JUMPDEST PUSH1 0x40 MLOAD PUSH1 0x20 DUP2 DUP4 SUB SUB DUP2 MSTORE SWAP1 PUSH1 0x40 MSTORE DUP1 MLOAD SWAP1 PUSH1 0x20 ADD KECCAK256 SWAP1 DUP1 PUSH1 0x1 DUP2 SLOAD ADD DUP1 DUP3 SSTORE DUP1 SWAP2 POP POP PUSH1 0x1 SWAP1 SUB SWAP1 PUSH0 MSTORE PUSH1 0x20 PUSH0 KECCAK256 ADD PUSH0 SWAP1 SWAP2 SWAP1 SWAP2 SWAP1 SWAP2 POP SSTORE PUSH1 0x2 DUP2 PUSH2 0x444 SWAP2 SWAP1 PUSH2 0xBA7 JUMP JUMPDEST SWAP1 POP PUSH2 0x37E JUMP JUMPDEST POP PUSH2 0x371 JUMP JUMPDEST DUP2 DUP2 PUSH2 0x45D SWAP2 SWAP1 PUSH2 0xBA7 JUMP JUMPDEST SWAP1 POP PUSH1 0x2 DUP3 PUSH2 0x46C SWAP2 SWAP1 PUSH2 0xA97 JUMP JUMPDEST SWAP2 POP POP POP POP JUMP JUMPDEST PUSH0 PUSH1 0x40 MLOAD SWAP1 POP SWAP1 JUMP JUMPDEST PUSH0 PUSH0 REVERT JUMPDEST PUSH0 PUSH0 REVERT JUMPDEST PUSH0 PUSH0 REVERT JUMPDEST PUSH0 PUSH1 0x1F NOT PUSH1 0x1F DUP4 ADD AND SWAP1 POP SWAP2 SWAP1 POP JUMP JUMPDEST PUSH32 0x4E487B7100000000000000000000000000000000000000000000000000000000 PUSH0 MSTORE PUSH1 0x41 PUSH1 0x4 MSTORE PUSH1 0x24 PUSH0 REVERT JUMPDEST PUSH2 0x4CE DUP3 PUSH2 0x488 JUMP JUMPDEST DUP2 ADD DUP2 DUP2 LT PUSH8 0xFFFFFFFFFFFFFFFF DUP3 GT OR ISZERO PUSH2 0x4ED JUMPI PUSH2 0x4EC PUSH2 0x498 JUMP JUMPDEST JUMPDEST DUP1 PUSH1 0x40 MSTORE POP POP POP JUMP JUMPDEST PUSH0 PUSH2 0x4FF PUSH2 0x473 JUMP JUMPDEST SWAP1 POP PUSH2 0x50B DUP3 DUP3 PUSH2 0x4C5 JUMP JUMPDEST SWAP2 SWAP1 POP JUMP JUMPDEST PUSH0 PUSH8 0xFFFFFFFFFFFFFFFF DUP3 GT ISZERO PUSH2 0x52A JUMPI PUSH2 0x529 PUSH2 0x498 JUMP JUMPDEST JUMPDEST PUSH1 0x20 DUP3 MUL SWAP1 POP PUSH1 0x20 DUP2 ADD SWAP1 POP SWAP2 SWAP1 POP JUMP JUMPDEST PUSH0 PUSH0 REVERT JUMPDEST PUSH0 DUP2 SWAP1 POP SWAP2 SWAP1 POP JUMP JUMPDEST PUSH2 0x551 DUP2 PUSH2 0x53F JUMP JUMPDEST DUP2 EQ PUSH2 0x55B JUMPI PUSH0 PUSH0 REVERT JUMPDEST POP JUMP JUMPDEST PUSH0 DUP2 CALLDATALOAD SWAP1 POP PUSH2 0x56C DUP2 PUSH2 0x548 JUMP JUMPDEST SWAP3 SWAP2 POP POP JUMP JUMPDEST PUSH0 PUSH2 0x584 PUSH2 0x57F DUP5 PUSH2 0x510 JUMP JUMPDEST PUSH2 0x4F6 JUMP JUMPDEST SWAP1 POP DUP1 DUP4 DUP3 MSTORE PUSH1 0x20 DUP3 ADD SWAP1 POP PUSH1 0x20 DUP5 MUL DUP4 ADD DUP6 DUP2 GT ISZERO PUSH2 0x5A7 JUMPI PUSH2 0x5A6 PUSH2 0x53B JUMP JUMPDEST JUMPDEST DUP4 JUMPDEST DUP2 DUP2 LT ISZERO PUSH2 0x5D0 JUMPI DUP1 PUSH2 0x5BC DUP9 DUP3 PUSH2 0x55E JUMP JUMPDEST DUP5 MSTORE PUSH1 0x20 DUP5 ADD SWAP4 POP POP PUSH1 0x20 DUP2 ADD SWAP1 POP PUSH2 0x5A9 JUMP JUMPDEST POP POP POP SWAP4 SWAP3 POP POP POP JUMP JUMPDEST PUSH0 DUP3 PUSH1 0x1F DUP4 ADD SLT PUSH2 0x5EE JUMPI PUSH2 0x5ED PUSH2 0x484 JUMP JUMPDEST JUMPDEST DUP2 CALLDATALOAD PUSH2 0x5FE DUP5 DUP3 PUSH1 0x20 DUP7 ADD PUSH2 0x572 JUMP JUMPDEST SWAP2 POP POP SWAP3 SWAP2 POP POP JUMP JUMPDEST PUSH0 DUP2 SWAP1 POP SWAP2 SWAP1 POP JUMP JUMPDEST PUSH2 0x619 DUP2 PUSH2 0x607 JUMP JUMPDEST DUP2 EQ PUSH2 0x623 JUMPI PUSH0 PUSH0 REVERT JUMPDEST POP JUMP JUMPDEST PUSH0 DUP2 CALLDATALOAD SWAP1 POP PUSH2 0x634 DUP2 PUSH2 0x610 JUMP JUMPDEST SWAP3 SWAP2 POP POP JUMP JUMPDEST PUSH0 PUSH0 PUSH0 PUSH0 PUSH1 0x80 DUP6 DUP8 SUB SLT ISZERO PUSH2 0x652 JUMPI PUSH2 0x651 PUSH2 0x47C JUMP JUMPDEST JUMPDEST PUSH0 DUP6 ADD CALLDATALOAD PUSH8 0xFFFFFFFFFFFFFFFF DUP2 GT ISZERO PUSH2 0x66F JUMPI PUSH2 0x66E PUSH2 0x480 JUMP JUMPDEST JUMPDEST PUSH2 0x67B DUP8 DUP3 DUP9 ADD PUSH2 0x5DA JUMP JUMPDEST SWAP5 POP POP PUSH1 0x20 PUSH2 0x68C DUP8 DUP3 DUP9 ADD PUSH2 0x55E JUMP JUMPDEST SWAP4 POP POP PUSH1 0x40 PUSH2 0x69D DUP8 DUP3 DUP9 ADD PUSH2 0x55E JUMP JUMPDEST SWAP3 POP POP PUSH1 0x60 PUSH2 0x6AE DUP8 DUP3 DUP9 ADD PUSH2 0x626 JUMP JUMPDEST SWAP2 POP POP SWAP3 SWAP6 SWAP2 SWAP5 POP SWAP3 POP JUMP JUMPDEST PUSH0 DUP2 ISZERO ISZERO SWAP1 POP SWAP2 SWAP1 POP JUMP JUMPDEST PUSH2 0x6CE DUP2 PUSH2 0x6BA JUMP JUMPDEST DUP3 MSTORE POP POP JUMP JUMPDEST PUSH0 PUSH1 0x20 DUP3 ADD SWAP1 POP PUSH2 0x6E7 PUSH0 DUP4 ADD DUP5 PUSH2 0x6C5 JUMP JUMPDEST SWAP3 SWAP2 POP POP JUMP JUMPDEST PUSH0 PUSH1 0x20 DUP3 DUP5 SUB SLT ISZERO PUSH2 0x702 JUMPI PUSH2 0x701 PUSH2 0x47C JUMP JUMPDEST JUMPDEST PUSH0 PUSH2 0x70F DUP5 DUP3 DUP6 ADD PUSH2 0x626 JUMP JUMPDEST SWAP2 POP POP SWAP3 SWAP2 POP POP JUMP JUMPDEST PUSH2 0x721 DUP2 PUSH2 0x53F JUMP JUMPDEST DUP3 MSTORE POP POP JUMP JUMPDEST PUSH0 PUSH1 0x20 DUP3 ADD SWAP1 POP PUSH2 0x73A PUSH0 DUP4 ADD DUP5 PUSH2 0x718 JUMP JUMPDEST SWAP3 SWAP2 POP POP JUMP JUMPDEST PUSH0 DUP2 MLOAD SWAP1 POP SWAP2 SWAP1 POP JUMP JUMPDEST PUSH0 DUP3 DUP3 MSTORE PUSH1 0x20 DUP3 ADD SWAP1 POP SWAP3 SWAP2 POP POP JUMP JUMPDEST DUP3 DUP2 DUP4 MCOPY PUSH0 DUP4 DUP4 ADD MSTORE POP POP POP JUMP JUMPDEST PUSH0 PUSH2 0x772 DUP3 PUSH2 0x740 JUMP JUMPDEST PUSH2 0x77C DUP2 DUP6 PUSH2 0x74A JUMP JUMPDEST SWAP4 POP PUSH2 0x78C DUP2 DUP6 PUSH1 0x20 DUP7 ADD PUSH2 0x75A JUMP JUMPDEST PUSH2 0x795 DUP2 PUSH2 0x488 JUMP JUMPDEST DUP5 ADD SWAP2 POP POP SWAP3 SWAP2 POP POP JUMP JUMPDEST PUSH0 PUSH1 0x20 DUP3 ADD SWAP1 POP DUP2 DUP2 SUB PUSH0 DUP4 ADD MSTORE PUSH2 0x7B8 DUP2 DUP5 PUSH2 0x768 JUMP JUMPDEST SWAP1 POP SWAP3 SWAP2 POP POP JUMP JUMPDEST PUSH0 PUSH8 0xFFFFFFFFFFFFFFFF DUP3 GT ISZERO PUSH2 0x7DA JUMPI PUSH2 0x7D9 PUSH2 0x498 JUMP JUMPDEST JUMPDEST PUSH1 0x20 DUP3 MUL SWAP1 POP PUSH1 0x20 DUP2 ADD SWAP1 POP SWAP2 SWAP1 POP JUMP JUMPDEST PUSH0 PUSH0 REVERT JUMPDEST PUSH0 PUSH8 0xFFFFFFFFFFFFFFFF DUP3 GT ISZERO PUSH2 0x809 JUMPI PUSH2 0x808 PUSH2 0x498 JUMP JUMPDEST JUMPDEST PUSH2 0x812 DUP3 PUSH2 0x488 JUMP JUMPDEST SWAP1 POP PUSH1 0x20 DUP2 ADD SWAP1 POP SWAP2 SWAP1 POP JUMP JUMPDEST DUP3 DUP2 DUP4 CALLDATACOPY PUSH0 DUP4 DUP4 ADD MSTORE POP POP POP JUMP JUMPDEST PUSH0 PUSH2 0x83F PUSH2 0x83A DUP5 PUSH2 0x7EF JUMP JUMPDEST PUSH2 0x4F6 JUMP JUMPDEST SWAP1 POP DUP3 DUP2 MSTORE PUSH1 0x20 DUP2 ADD DUP5 DUP5 DUP5 ADD GT ISZERO PUSH2 0x85B JUMPI PUSH2 0x85A PUSH2 0x7EB JUMP JUMPDEST JUMPDEST PUSH2 0x866 DUP5 DUP3 DUP6 PUSH2 0x81F JUMP JUMPDEST POP SWAP4 SWAP3 POP POP POP JUMP JUMPDEST PUSH0 DUP3 PUSH1 0x1F DUP4 ADD SLT PUSH2 0x882 JUMPI PUSH2 0x881 PUSH2 0x484 JUMP JUMPDEST JUMPDEST DUP2 CALLDATALOAD PUSH2 0x892 DUP5 DUP3 PUSH1 0x20 DUP7 ADD PUSH2 0x82D JUMP JUMPDEST SWAP2 POP POP SWAP3 SWAP2 POP POP JUMP JUMPDEST PUSH0 PUSH2 0x8AD PUSH2 0x8A8 DUP5 PUSH2 0x7C0 JUMP JUMPDEST PUSH2 0x4F6 JUMP JUMPDEST SWAP1 POP DUP1 DUP4 DUP3 MSTORE PUSH1 0x20 DUP3 ADD SWAP1 POP PUSH1 0x20 DUP5 MUL DUP4 ADD DUP6 DUP2 GT ISZERO PUSH2 0x8D0 JUMPI PUSH2 0x8CF PUSH2 0x53B JUMP JUMPDEST JUMPDEST DUP4 JUMPDEST DUP2 DUP2 LT ISZERO PUSH2 0x917 JUMPI DUP1 CALLDATALOAD PUSH8 0xFFFFFFFFFFFFFFFF DUP2 GT ISZERO PUSH2 0x8F5 JUMPI PUSH2 0x8F4 PUSH2 0x484 JUMP JUMPDEST JUMPDEST DUP1 DUP7 ADD PUSH2 0x902 DUP10 DUP3 PUSH2 0x86E JUMP JUMPDEST DUP6 MSTORE PUSH1 0x20 DUP6 ADD SWAP5 POP POP POP PUSH1 0x20 DUP2 ADD SWAP1 POP PUSH2 0x8D2 JUMP JUMPDEST POP POP POP SWAP4 SWAP3 POP POP POP JUMP JUMPDEST PUSH0 DUP3 PUSH1 0x1F DUP4 ADD SLT PUSH2 0x935 JUMPI PUSH2 0x934 PUSH2 0x484 JUMP JUMPDEST JUMPDEST DUP2 CALLDATALOAD PUSH2 0x945 DUP5 DUP3 PUSH1 0x20 DUP7 ADD PUSH2 0x89B JUMP JUMPDEST SWAP2 POP POP SWAP3 SWAP2 POP POP JUMP JUMPDEST PUSH0 PUSH1 0x20 DUP3 DUP5 SUB SLT ISZERO PUSH2 0x963 JUMPI PUSH2 0x962 PUSH2 0x47C JUMP JUMPDEST JUMPDEST PUSH0 DUP3 ADD CALLDATALOAD PUSH8 0xFFFFFFFFFFFFFFFF DUP2 GT ISZERO PUSH2 0x980 JUMPI PUSH2 0x97F PUSH2 0x480 JUMP JUMPDEST JUMPDEST PUSH2 0x98C DUP5 DUP3 DUP6 ADD PUSH2 0x921 JUMP JUMPDEST SWAP2 POP POP SWAP3 SWAP2 POP POP JUMP JUMPDEST PUSH32 0x4E487B7100000000000000000000000000000000000000000000000000000000 PUSH0 MSTORE PUSH1 0x32 PUSH1 0x4 MSTORE PUSH1 0x24 PUSH0 REVERT JUMPDEST PUSH32 0x4E487B7100000000000000000000000000000000000000000000000000000000 PUSH0 MSTORE PUSH1 0x12 PUSH1 0x4 MSTORE PUSH1 0x24 PUSH0 REVERT JUMPDEST PUSH0 PUSH2 0x9F9 DUP3 PUSH2 0x607 JUMP JUMPDEST SWAP2 POP PUSH2 0xA04 DUP4 PUSH2 0x607 JUMP JUMPDEST SWAP3 POP DUP3 PUSH2 0xA14 JUMPI PUSH2 0xA13 PUSH2 0x9C2 JUMP JUMPDEST JUMPDEST DUP3 DUP3 MOD SWAP1 POP SWAP3 SWAP2 POP POP JUMP JUMPDEST PUSH0 DUP2 SWAP1 POP SWAP2 SWAP1 POP JUMP JUMPDEST PUSH2 0xA39 PUSH2 0xA34 DUP3 PUSH2 0x53F JUMP JUMPDEST PUSH2 0xA1F JUMP JUMPDEST DUP3 MSTORE POP POP JUMP JUMPDEST PUSH0 PUSH2 0xA4A DUP3 DUP6 PUSH2 0xA28 JUMP JUMPDEST PUSH1 0x20 DUP3 ADD SWAP2 POP PUSH2 0xA5A DUP3 DUP5 PUSH2 0xA28 JUMP JUMPDEST PUSH1 0x20 DUP3 ADD SWAP2 POP DUP2 SWAP1 POP SWAP4 SWAP3 POP POP POP JUMP JUMPDEST PUSH32 0x4E487B7100000000000000000000000000000000000000000000000000000000 PUSH0 MSTORE PUSH1 0x11 PUSH1 0x4 MSTORE PUSH1 0x24 PUSH0 REVERT JUMPDEST PUSH0 PUSH2 0xAA1 DUP3 PUSH2 0x607 JUMP JUMPDEST SWAP2 POP PUSH2 0xAAC DUP4 PUSH2 0x607 JUMP JUMPDEST SWAP3 POP DUP3 PUSH2 0xABC JUMPI PUSH2 0xABB PUSH2 0x9C2 JUMP JUMPDEST JUMPDEST DUP3 DUP3 DIV SWAP1 POP SWAP3 SWAP2 POP POP JUMP JUMPDEST PUSH0 PUSH2 0xAD1 DUP3 PUSH2 0x607 JUMP JUMPDEST SWAP2 POP PUSH2 0xADC DUP4 PUSH2 0x607 JUMP JUMPDEST SWAP3 POP DUP3 DUP3 SUB SWAP1 POP DUP2 DUP2 GT ISZERO PUSH2 0xAF4 JUMPI PUSH2 0xAF3 PUSH2 0xA6A JUMP JUMPDEST JUMPDEST SWAP3 SWAP2 POP POP JUMP JUMPDEST PUSH32 0x4E487B7100000000000000000000000000000000000000000000000000000000 PUSH0 MSTORE PUSH1 0x22 PUSH1 0x4 MSTORE PUSH1 0x24 PUSH0 REVERT JUMPDEST PUSH0 PUSH1 0x2 DUP3 DIV SWAP1 POP PUSH1 0x1 DUP3 AND DUP1 PUSH2 0xB3E JUMPI PUSH1 0x7F DUP3 AND SWAP2 POP JUMPDEST PUSH1 0x20 DUP3 LT DUP2 SUB PUSH2 0xB51 JUMPI PUSH2 0xB50 PUSH2 0xAFA JUMP JUMPDEST JUMPDEST POP SWAP2 SWAP1 POP JUMP JUMPDEST PUSH0 DUP2 SWAP1 POP SWAP3 SWAP2 POP POP JUMP JUMPDEST PUSH0 PUSH2 0xB6B DUP3 PUSH2 0x740 JUMP JUMPDEST PUSH2 0xB75 DUP2 DUP6 PUSH2 0xB57 JUMP JUMPDEST SWAP4 POP PUSH2 0xB85 DUP2 DUP6 PUSH1 0x20 DUP7 ADD PUSH2 0x75A JUMP JUMPDEST DUP1 DUP5 ADD SWAP2 POP POP SWAP3 SWAP2 POP POP JUMP JUMPDEST PUSH0 PUSH2 0xB9C DUP3 DUP5 PUSH2 0xB61 JUMP JUMPDEST SWAP2 POP DUP2 SWAP1 POP SWAP3 SWAP2 POP POP JUMP JUMPDEST PUSH0 PUSH2 0xBB1 DUP3 PUSH2 0x607 JUMP JUMPDEST SWAP2 POP PUSH2 0xBBC DUP4 PUSH2 0x607 JUMP JUMPDEST SWAP3 POP DUP3 DUP3 ADD SWAP1 POP DUP1 DUP3 GT ISZERO PUSH2 0xBD4 JUMPI PUSH2 0xBD3 PUSH2 0xA6A JUMP JUMPDEST JUMPDEST SWAP3 SWAP2 POP POP JUMP INVALID LOG2 PUSH5 0x6970667358 0x22 SLT KECCAK256 0xDE GASLIMIT 0xBC 0x4E SWAP2 0xBD SWAP10 CODECOPY CODESIZE 0xC4 REVERT DUP5 0xA9 0xB2 PUSH24 0x3BCD8663713E13DB7A5EE51A2E1B7CBD4064736F6C634300 ADDMOD SHR STOP CALLER "
				},
				"gasEstimates": {
					"creation": {
						"codeDepositCost": "617600",
						"executionCost": "infinite",
						"totalCost": "infinite"
					},
					"external": {
						"generateMerkleTree(string[])": "infinite",
						"getRoot()": "infinite",
						"hashes(uint256)": "4870",
						"transactions(uint256)": "infinite",
						"verify(bytes32[],bytes32,bytes32,uint256)": "infinite"
					}
				},
				"methodIdentifiers": {
					"generateMerkleTree(string[])": "f609fdc3",
					"getRoot()": "5ca1e165",
					"hashes(uint256)": "501895ae",
					"transactions(uint256)": "9ace38c2",
					"verify(bytes32[],bytes32,bytes32,uint256)": "21fb335c"
				}
			},
			"storageLayout": {
				"storage": [
					{
						"astId": 4,
						"contract": "MerkleProof.sol:TestMerkleProof",
						"label": "hashes",
						"offset": 0,
						"slot": "0",
						"type": "t_array(t_bytes32)dyn_storage"
					},
					{
						"astId": 189,
						"contract": "MerkleProof.sol:TestMerkleProof",
						"label": "transactions",
						"offset": 0,
						"slot": "1",
						"type": "t_array(t_string_storage)dyn_storage"
					}
				],
				"types": {
					"t_array(t_bytes32)dyn_storage": {
						"base": "t_bytes32",
						"encoding": "dynamic_array",
						"label": "bytes32[]",
						"numberOfBytes": "32"
					},
					"t_array(t_string_storage)dyn_storage": {
						"base": "t_string_storage",
						"encoding": "dynamic_array",
						"label": "string[]",
						"numberOfBytes": "32"
					},
					"t_bytes32": {
						"encoding": "inplace",
						"label": "bytes32",
						"numberOfBytes": "32"
					},
					"t_string_storage": {
						"encoding": "bytes",
						"label": "string",
						"numberOfBytes": "32"
					}
				}
			},
			"userdoc": {
				"kind": "user",
				"methods": {},
				"version": 1
			}
		}
	}
}