{
	"MerkleProof.sol": {
		"MerkleProof": {
			"abi": [
				{
					"inputs": [
						{
							"internalType": "string[]",
							"name": "trangactions",
							"type": "string[]"
						}
					],
					"name": "generateMerkleTree",
					"outputs": [],
					"stateMutability": "nonpayable",
					"type": "function"
				},
				{
					"inputs": [],
					"name": "getRoot",
					"outputs": [
						{
							"internalType": "bytes32",
							"name": "",
							"type": "bytes32"
						}
					],
					"stateMutability": "view",
					"type": "function"
				},
				{
					"inputs": [
						{
							"internalType": "uint256",
							"name": "",
							"type": "uint256"
						}
					],
					"name": "hashes",
					"outputs": [
						{
							"internalType": "bytes32",
							"name": "",
							"type": "bytes32"
						}
					],
					"stateMutability": "view",
					"type": "function"
				},
				{
					"inputs": [
						{
							"internalType": "bytes32[]",
							"name": "proof",
							"type": "bytes32[]"
						},
						{
							"internalType": "bytes32",
							"name": "root",
							"type": "bytes32"
						},
						{
							"internalType": "bytes32",
							"name": "leaf",
							"type": "bytes32"
						},
						{
							"internalType": "uint256",
							"name": "index",
							"type": "uint256"
						}
					],
					"name": "verify",
					"outputs": [
						{
							"internalType": "bool",
							"name": "",
							"type": "bool"
						}
					],
					"stateMutability": "pure",
					"type": "function"
				}
			],
			"devdoc": {
				"kind": "dev",
				"methods": {},
				"version": 1
			},
			"evm": {
				"assembly": "    /* \"MerkleProof.sol\":86:1510  contract MerkleProof {... */\n  mstore(0x40, 0x80)\n  callvalue\n  dup1\n  iszero\n  tag_1\n  jumpi\n  revert(0x00, 0x00)\ntag_1:\n  pop\n  dataSize(sub_0)\n  dup1\n  dataOffset(sub_0)\n  0x00\n  codecopy\n  0x00\n  return\nstop\n\nsub_0: assembly {\n        /* \"MerkleProof.sol\":86:1510  contract MerkleProof {... */\n      mstore(0x40, 0x80)\n      callvalue\n      dup1\n      iszero\n      tag_1\n      jumpi\n      revert(0x00, 0x00)\n    tag_1:\n      pop\n      jumpi(tag_2, lt(calldatasize, 0x04))\n      shr(0xe0, calldataload(0x00))\n      dup1\n      0x21fb335c\n      eq\n      tag_3\n      jumpi\n      dup1\n      0x501895ae\n      eq\n      tag_4\n      jumpi\n      dup1\n      0x5ca1e165\n      eq\n      tag_5\n      jumpi\n      dup1\n      0xf609fdc3\n      eq\n      tag_6\n      jumpi\n    tag_2:\n      revert(0x00, 0x00)\n        /* \"MerkleProof.sol\":778:1362  function verify(... */\n    tag_3:\n      tag_7\n      0x04\n      dup1\n      calldatasize\n      sub\n      dup2\n      add\n      swap1\n      tag_8\n      swap2\n      swap1\n      tag_9\n      jump\t// in\n    tag_8:\n      tag_10\n      jump\t// in\n    tag_7:\n      mload(0x40)\n      tag_11\n      swap2\n      swap1\n      tag_12\n      jump\t// in\n    tag_11:\n      mload(0x40)\n      dup1\n      swap2\n      sub\n      swap1\n      return\n        /* \"MerkleProof.sol\":114:137  bytes32[] public hashes */\n    tag_4:\n      tag_13\n      0x04\n      dup1\n      calldatasize\n      sub\n      dup2\n      add\n      swap1\n      tag_14\n      swap2\n      swap1\n      tag_15\n      jump\t// in\n    tag_14:\n      tag_16\n      jump\t// in\n    tag_13:\n      mload(0x40)\n      tag_17\n      swap2\n      swap1\n      tag_18\n      jump\t// in\n    tag_17:\n      mload(0x40)\n      dup1\n      swap2\n      sub\n      swap1\n      return\n        /* \"MerkleProof.sol\":1405:1505  function getRoot() public view returns (bytes32) {... */\n    tag_5:\n      tag_19\n      tag_20\n      jump\t// in\n    tag_19:\n      mload(0x40)\n      tag_21\n      swap2\n      swap1\n      tag_18\n      jump\t// in\n    tag_21:\n      mload(0x40)\n      dup1\n      swap2\n      sub\n      swap1\n      return\n        /* \"MerkleProof.sol\":173:740  function generateMerkleTree(string[] memory trangactions) public {... */\n    tag_6:\n      tag_22\n      0x04\n      dup1\n      calldatasize\n      sub\n      dup2\n      add\n      swap1\n      tag_23\n      swap2\n      swap1\n      tag_24\n      jump\t// in\n    tag_23:\n      tag_25\n      jump\t// in\n    tag_22:\n      stop\n        /* \"MerkleProof.sol\":778:1362  function verify(... */\n    tag_10:\n        /* \"MerkleProof.sol\":921:925  bool */\n      0x00\n        /* \"MerkleProof.sol\":937:949  bytes32 hash */\n      0x00\n        /* \"MerkleProof.sol\":952:956  leaf */\n      dup4\n        /* \"MerkleProof.sol\":937:956  bytes32 hash = leaf */\n      swap1\n      pop\n        /* \"MerkleProof.sol\":973:979  uint i */\n      0x00\n        /* \"MerkleProof.sol\":982:983  0 */\n      0x00\n        /* \"MerkleProof.sol\":973:983  uint i = 0 */\n      swap1\n      pop\n        /* \"MerkleProof.sol\":969:1323  for(uint i = 0; i < proof.length; i++){... */\n    tag_27:\n        /* \"MerkleProof.sol\":989:994  proof */\n      dup7\n        /* \"MerkleProof.sol\":989:1001  proof.length */\n      mload\n        /* \"MerkleProof.sol\":985:986  i */\n      dup2\n        /* \"MerkleProof.sol\":985:1001  i < proof.length */\n      lt\n        /* \"MerkleProof.sol\":969:1323  for(uint i = 0; i < proof.length; i++){... */\n      iszero\n      tag_28\n      jumpi\n        /* \"MerkleProof.sol\":1022:1042  bytes32 proofElement */\n      0x00\n        /* \"MerkleProof.sol\":1045:1050  proof */\n      dup8\n        /* \"MerkleProof.sol\":1051:1052  i */\n      dup3\n        /* \"MerkleProof.sol\":1045:1053  proof[i] */\n      dup2\n      mload\n      dup2\n      lt\n      tag_30\n      jumpi\n      tag_31\n      tag_32\n      jump\t// in\n    tag_31:\n    tag_30:\n      0x20\n      mul\n      0x20\n      add\n      add\n      mload\n        /* \"MerkleProof.sol\":1022:1053  bytes32 proofElement = proof[i] */\n      swap1\n      pop\n        /* \"MerkleProof.sol\":1086:1087  0 */\n      0x00\n        /* \"MerkleProof.sol\":1081:1082  2 */\n      0x02\n        /* \"MerkleProof.sol\":1073:1078  index */\n      dup7\n        /* \"MerkleProof.sol\":1073:1082  index % 2 */\n      tag_33\n      swap2\n      swap1\n      tag_34\n      jump\t// in\n    tag_33:\n        /* \"MerkleProof.sol\":1073:1087  index % 2 == 0 */\n      sub\n        /* \"MerkleProof.sol\":1070:1273  if(index % 2 == 0) {... */\n      tag_35\n      jumpi\n        /* \"MerkleProof.sol\":1142:1146  hash */\n      dup3\n        /* \"MerkleProof.sol\":1148:1160  proofElement */\n      dup2\n        /* \"MerkleProof.sol\":1125:1161  abi.encodePacked(hash, proofElement) */\n      add(0x20, mload(0x40))\n      tag_36\n      swap3\n      swap2\n      swap1\n      tag_37\n      jump\t// in\n    tag_36:\n      mload(0x40)\n      0x20\n      dup2\n      dup4\n      sub\n      sub\n      dup2\n      mstore\n      swap1\n      0x40\n      mstore\n        /* \"MerkleProof.sol\":1115:1162  keccak256(abi.encodePacked(hash, proofElement)) */\n      dup1\n      mload\n      swap1\n      0x20\n      add\n      keccak256\n        /* \"MerkleProof.sol\":1108:1162  hash = keccak256(abi.encodePacked(hash, proofElement)) */\n      swap3\n      pop\n        /* \"MerkleProof.sol\":1070:1273  if(index % 2 == 0) {... */\n      jump(tag_38)\n    tag_35:\n        /* \"MerkleProof.sol\":1237:1249  proofElement */\n      dup1\n        /* \"MerkleProof.sol\":1251:1255  hash */\n      dup4\n        /* \"MerkleProof.sol\":1220:1256  abi.encodePacked(proofElement, hash) */\n      add(0x20, mload(0x40))\n      tag_39\n      swap3\n      swap2\n      swap1\n      tag_37\n      jump\t// in\n    tag_39:\n      mload(0x40)\n      0x20\n      dup2\n      dup4\n      sub\n      sub\n      dup2\n      mstore\n      swap1\n      0x40\n      mstore\n        /* \"MerkleProof.sol\":1210:1257  keccak256(abi.encodePacked(proofElement, hash)) */\n      dup1\n      mload\n      swap1\n      0x20\n      add\n      keccak256\n        /* \"MerkleProof.sol\":1203:1257  hash = keccak256(abi.encodePacked(proofElement, hash)) */\n      swap3\n      pop\n        /* \"MerkleProof.sol\":1070:1273  if(index % 2 == 0) {... */\n    tag_38:\n        /* \"MerkleProof.sol\":1310:1311  2 */\n      0x02\n        /* \"MerkleProof.sol\":1301:1311  index /= 2 */\n      dup6\n      tag_40\n      swap2\n      swap1\n      tag_41\n      jump\t// in\n    tag_40:\n      swap5\n      pop\n        /* \"MerkleProof.sol\":1007:1323  {... */\n      pop\n        /* \"MerkleProof.sol\":1003:1006  i++ */\n      dup1\n      dup1\n      0x01\n      add\n      swap2\n      pop\n      pop\n        /* \"MerkleProof.sol\":969:1323  for(uint i = 0; i < proof.length; i++){... */\n      jump(tag_27)\n    tag_28:\n      pop\n        /* \"MerkleProof.sol\":1350:1354  root */\n      dup5\n        /* \"MerkleProof.sol\":1342:1346  hash */\n      dup2\n        /* \"MerkleProof.sol\":1342:1354  hash == root */\n      eq\n        /* \"MerkleProof.sol\":1335:1354  return hash == root */\n      swap2\n      pop\n      pop\n        /* \"MerkleProof.sol\":778:1362  function verify(... */\n      swap5\n      swap4\n      pop\n      pop\n      pop\n      pop\n      jump\t// out\n        /* \"MerkleProof.sol\":114:137  bytes32[] public hashes */\n    tag_16:\n      0x00\n      dup2\n      dup2\n      sload\n      dup2\n      lt\n      tag_42\n      jumpi\n      0x00\n      dup1\n      revert\n    tag_42:\n      swap1\n      0x00\n      mstore\n      keccak256(0x00, 0x20)\n      add\n      0x00\n      swap2\n      pop\n      swap1\n      pop\n      sload\n      dup2\n      jump\t// out\n        /* \"MerkleProof.sol\":1405:1505  function getRoot() public view returns (bytes32) {... */\n    tag_20:\n        /* \"MerkleProof.sol\":1445:1452  bytes32 */\n      0x00\n        /* \"MerkleProof.sol\":1472:1478  hashes */\n      0x00\n        /* \"MerkleProof.sol\":1495:1496  1 */\n      0x01\n        /* \"MerkleProof.sol\":1479:1485  hashes */\n      0x00\n        /* \"MerkleProof.sol\":1479:1492  hashes.length */\n      dup1\n      sload\n      swap1\n      pop\n        /* \"MerkleProof.sol\":1479:1496  hashes.length - 1 */\n      tag_45\n      swap2\n      swap1\n      tag_46\n      jump\t// in\n    tag_45:\n        /* \"MerkleProof.sol\":1472:1497  hashes[hashes.length - 1] */\n      dup2\n      sload\n      dup2\n      lt\n      tag_47\n      jumpi\n      tag_48\n      tag_32\n      jump\t// in\n    tag_48:\n    tag_47:\n      swap1\n      0x00\n      mstore\n      keccak256(0x00, 0x20)\n      add\n      sload\n        /* \"MerkleProof.sol\":1465:1497  return hashes[hashes.length - 1] */\n      swap1\n      pop\n        /* \"MerkleProof.sol\":1405:1505  function getRoot() public view returns (bytes32) {... */\n      swap1\n      jump\t// out\n        /* \"MerkleProof.sol\":173:740  function generateMerkleTree(string[] memory trangactions) public {... */\n    tag_25:\n        /* \"MerkleProof.sol\":254:260  uint i */\n      0x00\n        /* \"MerkleProof.sol\":263:264  0 */\n      0x00\n        /* \"MerkleProof.sol\":254:264  uint i = 0 */\n      swap1\n      pop\n        /* \"MerkleProof.sol\":249:379  for (uint i = 0; i < trangactions.length; i++){... */\n    tag_51:\n        /* \"MerkleProof.sol\":270:282  trangactions */\n      dup2\n        /* \"MerkleProof.sol\":270:289  trangactions.length */\n      mload\n        /* \"MerkleProof.sol\":266:267  i */\n      dup2\n        /* \"MerkleProof.sol\":266:289  i < trangactions.length */\n      lt\n        /* \"MerkleProof.sol\":249:379  for (uint i = 0; i < trangactions.length; i++){... */\n      iszero\n      tag_52\n      jumpi\n        /* \"MerkleProof.sol\":310:316  hashes */\n      0x00\n        /* \"MerkleProof.sol\":349:361  trangactions */\n      dup3\n        /* \"MerkleProof.sol\":362:363  i */\n      dup3\n        /* \"MerkleProof.sol\":349:364  trangactions[i] */\n      dup2\n      mload\n      dup2\n      lt\n      tag_54\n      jumpi\n      tag_55\n      tag_32\n      jump\t// in\n    tag_55:\n    tag_54:\n      0x20\n      mul\n      0x20\n      add\n      add\n      mload\n        /* \"MerkleProof.sol\":332:365  abi.encodePacked(trangactions[i]) */\n      add(0x20, mload(0x40))\n      tag_56\n      swap2\n      swap1\n      tag_57\n      jump\t// in\n    tag_56:\n      mload(0x40)\n      0x20\n      dup2\n      dup4\n      sub\n      sub\n      dup2\n      mstore\n      swap1\n      0x40\n      mstore\n        /* \"MerkleProof.sol\":322:366  keccak256(abi.encodePacked(trangactions[i])) */\n      dup1\n      mload\n      swap1\n      0x20\n      add\n      keccak256\n        /* \"MerkleProof.sol\":310:367  hashes.push(keccak256(abi.encodePacked(trangactions[i]))) */\n      swap1\n      dup1\n      0x01\n      dup2\n      sload\n      add\n      dup1\n      dup3\n      sstore\n      dup1\n      swap2\n      pop\n      pop\n      0x01\n      swap1\n      sub\n      swap1\n      0x00\n      mstore\n      keccak256(0x00, 0x20)\n      add\n      0x00\n      swap1\n      swap2\n      swap1\n      swap2\n      swap1\n      swap2\n      pop\n      sstore\n        /* \"MerkleProof.sol\":291:294  i++ */\n      dup1\n      dup1\n      0x01\n      add\n      swap2\n      pop\n      pop\n        /* \"MerkleProof.sol\":249:379  for (uint i = 0; i < trangactions.length; i++){... */\n      jump(tag_51)\n    tag_52:\n      pop\n        /* \"MerkleProof.sol\":387:396  uint256 n */\n      0x00\n        /* \"MerkleProof.sol\":399:411  trangactions */\n      dup2\n        /* \"MerkleProof.sol\":399:418  trangactions.length */\n      mload\n        /* \"MerkleProof.sol\":387:418  uint256 n = trangactions.length */\n      swap1\n      pop\n        /* \"MerkleProof.sol\":425:436  uint offset */\n      0x00\n        /* \"MerkleProof.sol\":439:440  0 */\n      0x00\n        /* \"MerkleProof.sol\":425:440  uint offset = 0 */\n      swap1\n      pop\n        /* \"MerkleProof.sol\":449:696  while (n > 0) {... */\n    tag_59:\n        /* \"MerkleProof.sol\":460:461  0 */\n      0x00\n        /* \"MerkleProof.sol\":456:457  n */\n      dup3\n        /* \"MerkleProof.sol\":456:461  n > 0 */\n      gt\n        /* \"MerkleProof.sol\":449:696  while (n > 0) {... */\n      iszero\n      tag_60\n      jumpi\n        /* \"MerkleProof.sol\":478:484  uint i */\n      0x00\n        /* \"MerkleProof.sol\":487:488  0 */\n      0x00\n        /* \"MerkleProof.sol\":478:488  uint i = 0 */\n      swap1\n      pop\n        /* \"MerkleProof.sol\":474:689  for(uint i = 0; i < n - 1; i += 2){... */\n    tag_61:\n        /* \"MerkleProof.sol\":498:499  1 */\n      0x01\n        /* \"MerkleProof.sol\":494:495  n */\n      dup4\n        /* \"MerkleProof.sol\":494:499  n - 1 */\n      tag_64\n      swap2\n      swap1\n      tag_46\n      jump\t// in\n    tag_64:\n        /* \"MerkleProof.sol\":490:491  i */\n      dup2\n        /* \"MerkleProof.sol\":490:499  i < n - 1 */\n      lt\n        /* \"MerkleProof.sol\":474:689  for(uint i = 0; i < n - 1; i += 2){... */\n      iszero\n      tag_62\n      jumpi\n        /* \"MerkleProof.sol\":523:529  hashes */\n      0x00\n        /* \"MerkleProof.sol\":602:608  hashes */\n      0x00\n        /* \"MerkleProof.sol\":616:617  i */\n      dup3\n        /* \"MerkleProof.sol\":609:615  offset */\n      dup5\n        /* \"MerkleProof.sol\":609:617  offset+i */\n      tag_65\n      swap2\n      swap1\n      tag_66\n      jump\t// in\n    tag_65:\n        /* \"MerkleProof.sol\":602:618  hashes[offset+i] */\n      dup2\n      sload\n      dup2\n      lt\n      tag_67\n      jumpi\n      tag_68\n      tag_32\n      jump\t// in\n    tag_68:\n    tag_67:\n      swap1\n      0x00\n      mstore\n      keccak256(0x00, 0x20)\n      add\n      sload\n        /* \"MerkleProof.sol\":620:626  hashes */\n      0x00\n        /* \"MerkleProof.sol\":640:641  1 */\n      0x01\n        /* \"MerkleProof.sol\":636:637  i */\n      dup5\n        /* \"MerkleProof.sol\":627:633  offset */\n      dup7\n        /* \"MerkleProof.sol\":627:637  offset + i */\n      tag_70\n      swap2\n      swap1\n      tag_66\n      jump\t// in\n    tag_70:\n        /* \"MerkleProof.sol\":627:641  offset + i + 1 */\n      tag_71\n      swap2\n      swap1\n      tag_66\n      jump\t// in\n    tag_71:\n        /* \"MerkleProof.sol\":620:642  hashes[offset + i + 1] */\n      dup2\n      sload\n      dup2\n      lt\n      tag_72\n      jumpi\n      tag_73\n      tag_32\n      jump\t// in\n    tag_73:\n    tag_72:\n      swap1\n      0x00\n      mstore\n      keccak256(0x00, 0x20)\n      add\n      sload\n        /* \"MerkleProof.sol\":585:643  abi.encodePacked(hashes[offset+i], hashes[offset + i + 1]) */\n      add(0x20, mload(0x40))\n      tag_75\n      swap3\n      swap2\n      swap1\n      tag_37\n      jump\t// in\n    tag_75:\n      mload(0x40)\n      0x20\n      dup2\n      dup4\n      sub\n      sub\n      dup2\n      mstore\n      swap1\n      0x40\n      mstore\n        /* \"MerkleProof.sol\":553:662  keccak256(... */\n      dup1\n      mload\n      swap1\n      0x20\n      add\n      keccak256\n        /* \"MerkleProof.sol\":523:677  hashes.push(... */\n      swap1\n      dup1\n      0x01\n      dup2\n      sload\n      add\n      dup1\n      dup3\n      sstore\n      dup1\n      swap2\n      pop\n      pop\n      0x01\n      swap1\n      sub\n      swap1\n      0x00\n      mstore\n      keccak256(0x00, 0x20)\n      add\n      0x00\n      swap1\n      swap2\n      swap1\n      swap2\n      swap1\n      swap2\n      pop\n      sstore\n        /* \"MerkleProof.sol\":506:507  2 */\n      0x02\n        /* \"MerkleProof.sol\":501:507  i += 2 */\n      dup2\n      tag_77\n      swap2\n      swap1\n      tag_66\n      jump\t// in\n    tag_77:\n      swap1\n      pop\n        /* \"MerkleProof.sol\":474:689  for(uint i = 0; i < n - 1; i += 2){... */\n      jump(tag_61)\n    tag_62:\n      pop\n        /* \"MerkleProof.sol\":449:696  while (n > 0) {... */\n      jump(tag_59)\n    tag_60:\n        /* \"MerkleProof.sol\":714:715  n */\n      dup2\n        /* \"MerkleProof.sol\":704:715  offset += n */\n      dup2\n      tag_78\n      swap2\n      swap1\n      tag_66\n      jump\t// in\n    tag_78:\n      swap1\n      pop\n        /* \"MerkleProof.sol\":729:730  2 */\n      0x02\n        /* \"MerkleProof.sol\":724:730  n /= 2 */\n      dup3\n      tag_79\n      swap2\n      swap1\n      tag_41\n      jump\t// in\n    tag_79:\n      swap2\n      pop\n        /* \"MerkleProof.sol\":238:740  {... */\n      pop\n      pop\n        /* \"MerkleProof.sol\":173:740  function generateMerkleTree(string[] memory trangactions) public {... */\n      pop\n      jump\t// out\n        /* \"#utility.yul\":7:82   */\n    tag_80:\n        /* \"#utility.yul\":40:46   */\n      0x00\n        /* \"#utility.yul\":73:75   */\n      0x40\n        /* \"#utility.yul\":67:76   */\n      mload\n        /* \"#utility.yul\":57:76   */\n      swap1\n      pop\n        /* \"#utility.yul\":7:82   */\n      swap1\n      jump\t// out\n        /* \"#utility.yul\":88:205   */\n    tag_81:\n        /* \"#utility.yul\":197:198   */\n      0x00\n        /* \"#utility.yul\":194:195   */\n      0x00\n        /* \"#utility.yul\":187:199   */\n      revert\n        /* \"#utility.yul\":211:328   */\n    tag_82:\n        /* \"#utility.yul\":320:321   */\n      0x00\n        /* \"#utility.yul\":317:318   */\n      0x00\n        /* \"#utility.yul\":310:322   */\n      revert\n        /* \"#utility.yul\":334:451   */\n    tag_83:\n        /* \"#utility.yul\":443:444   */\n      0x00\n        /* \"#utility.yul\":440:441   */\n      0x00\n        /* \"#utility.yul\":433:445   */\n      revert\n        /* \"#utility.yul\":457:559   */\n    tag_84:\n        /* \"#utility.yul\":498:504   */\n      0x00\n        /* \"#utility.yul\":549:551   */\n      0x1f\n        /* \"#utility.yul\":545:552   */\n      not\n        /* \"#utility.yul\":540:542   */\n      0x1f\n        /* \"#utility.yul\":533:538   */\n      dup4\n        /* \"#utility.yul\":529:543   */\n      add\n        /* \"#utility.yul\":525:553   */\n      and\n        /* \"#utility.yul\":515:553   */\n      swap1\n      pop\n        /* \"#utility.yul\":457:559   */\n      swap2\n      swap1\n      pop\n      jump\t// out\n        /* \"#utility.yul\":565:745   */\n    tag_85:\n        /* \"#utility.yul\":613:690   */\n      0x4e487b7100000000000000000000000000000000000000000000000000000000\n        /* \"#utility.yul\":610:611   */\n      0x00\n        /* \"#utility.yul\":603:691   */\n      mstore\n        /* \"#utility.yul\":710:714   */\n      0x41\n        /* \"#utility.yul\":707:708   */\n      0x04\n        /* \"#utility.yul\":700:715   */\n      mstore\n        /* \"#utility.yul\":734:738   */\n      0x24\n        /* \"#utility.yul\":731:732   */\n      0x00\n        /* \"#utility.yul\":724:739   */\n      revert\n        /* \"#utility.yul\":751:1032   */\n    tag_86:\n        /* \"#utility.yul\":834:861   */\n      tag_125\n        /* \"#utility.yul\":856:860   */\n      dup3\n        /* \"#utility.yul\":834:861   */\n      tag_84\n      jump\t// in\n    tag_125:\n        /* \"#utility.yul\":826:832   */\n      dup2\n        /* \"#utility.yul\":822:862   */\n      add\n        /* \"#utility.yul\":964:970   */\n      dup2\n        /* \"#utility.yul\":952:962   */\n      dup2\n        /* \"#utility.yul\":949:971   */\n      lt\n        /* \"#utility.yul\":928:946   */\n      0xffffffffffffffff\n        /* \"#utility.yul\":916:926   */\n      dup3\n        /* \"#utility.yul\":913:947   */\n      gt\n        /* \"#utility.yul\":910:972   */\n      or\n        /* \"#utility.yul\":907:995   */\n      iszero\n      tag_126\n      jumpi\n        /* \"#utility.yul\":975:993   */\n      tag_127\n      tag_85\n      jump\t// in\n    tag_127:\n        /* \"#utility.yul\":907:995   */\n    tag_126:\n        /* \"#utility.yul\":1015:1025   */\n      dup1\n        /* \"#utility.yul\":1011:1013   */\n      0x40\n        /* \"#utility.yul\":1004:1026   */\n      mstore\n        /* \"#utility.yul\":794:1032   */\n      pop\n        /* \"#utility.yul\":751:1032   */\n      pop\n      pop\n      jump\t// out\n        /* \"#utility.yul\":1038:1167   */\n    tag_87:\n        /* \"#utility.yul\":1072:1078   */\n      0x00\n        /* \"#utility.yul\":1099:1119   */\n      tag_129\n      tag_80\n      jump\t// in\n    tag_129:\n        /* \"#utility.yul\":1089:1119   */\n      swap1\n      pop\n        /* \"#utility.yul\":1128:1161   */\n      tag_130\n        /* \"#utility.yul\":1156:1160   */\n      dup3\n        /* \"#utility.yul\":1148:1154   */\n      dup3\n        /* \"#utility.yul\":1128:1161   */\n      tag_86\n      jump\t// in\n    tag_130:\n        /* \"#utility.yul\":1038:1167   */\n      swap2\n      swap1\n      pop\n      jump\t// out\n        /* \"#utility.yul\":1173:1484   */\n    tag_88:\n        /* \"#utility.yul\":1250:1254   */\n      0x00\n        /* \"#utility.yul\":1340:1358   */\n      0xffffffffffffffff\n        /* \"#utility.yul\":1332:1338   */\n      dup3\n        /* \"#utility.yul\":1329:1359   */\n      gt\n        /* \"#utility.yul\":1326:1382   */\n      iszero\n      tag_132\n      jumpi\n        /* \"#utility.yul\":1362:1380   */\n      tag_133\n      tag_85\n      jump\t// in\n    tag_133:\n        /* \"#utility.yul\":1326:1382   */\n    tag_132:\n        /* \"#utility.yul\":1412:1416   */\n      0x20\n        /* \"#utility.yul\":1404:1410   */\n      dup3\n        /* \"#utility.yul\":1400:1417   */\n      mul\n        /* \"#utility.yul\":1392:1417   */\n      swap1\n      pop\n        /* \"#utility.yul\":1472:1476   */\n      0x20\n        /* \"#utility.yul\":1466:1470   */\n      dup2\n        /* \"#utility.yul\":1462:1477   */\n      add\n        /* \"#utility.yul\":1454:1477   */\n      swap1\n      pop\n        /* \"#utility.yul\":1173:1484   */\n      swap2\n      swap1\n      pop\n      jump\t// out\n        /* \"#utility.yul\":1490:1607   */\n    tag_89:\n        /* \"#utility.yul\":1599:1600   */\n      0x00\n        /* \"#utility.yul\":1596:1597   */\n      0x00\n        /* \"#utility.yul\":1589:1601   */\n      revert\n        /* \"#utility.yul\":1613:1690   */\n    tag_90:\n        /* \"#utility.yul\":1650:1657   */\n      0x00\n        /* \"#utility.yul\":1679:1684   */\n      dup2\n        /* \"#utility.yul\":1668:1684   */\n      swap1\n      pop\n        /* \"#utility.yul\":1613:1690   */\n      swap2\n      swap1\n      pop\n      jump\t// out\n        /* \"#utility.yul\":1696:1818   */\n    tag_91:\n        /* \"#utility.yul\":1769:1793   */\n      tag_137\n        /* \"#utility.yul\":1787:1792   */\n      dup2\n        /* \"#utility.yul\":1769:1793   */\n      tag_90\n      jump\t// in\n    tag_137:\n        /* \"#utility.yul\":1762:1767   */\n      dup2\n        /* \"#utility.yul\":1759:1794   */\n      eq\n        /* \"#utility.yul\":1749:1812   */\n      tag_138\n      jumpi\n        /* \"#utility.yul\":1808:1809   */\n      0x00\n        /* \"#utility.yul\":1805:1806   */\n      0x00\n        /* \"#utility.yul\":1798:1810   */\n      revert\n        /* \"#utility.yul\":1749:1812   */\n    tag_138:\n        /* \"#utility.yul\":1696:1818   */\n      pop\n      jump\t// out\n        /* \"#utility.yul\":1824:1963   */\n    tag_92:\n        /* \"#utility.yul\":1870:1875   */\n      0x00\n        /* \"#utility.yul\":1908:1914   */\n      dup2\n        /* \"#utility.yul\":1895:1915   */\n      calldataload\n        /* \"#utility.yul\":1886:1915   */\n      swap1\n      pop\n        /* \"#utility.yul\":1924:1957   */\n      tag_140\n        /* \"#utility.yul\":1951:1956   */\n      dup2\n        /* \"#utility.yul\":1924:1957   */\n      tag_91\n      jump\t// in\n    tag_140:\n        /* \"#utility.yul\":1824:1963   */\n      swap3\n      swap2\n      pop\n      pop\n      jump\t// out\n        /* \"#utility.yul\":1986:2696   */\n    tag_93:\n        /* \"#utility.yul\":2082:2087   */\n      0x00\n        /* \"#utility.yul\":2107:2188   */\n      tag_142\n        /* \"#utility.yul\":2123:2187   */\n      tag_143\n        /* \"#utility.yul\":2180:2186   */\n      dup5\n        /* \"#utility.yul\":2123:2187   */\n      tag_88\n      jump\t// in\n    tag_143:\n        /* \"#utility.yul\":2107:2188   */\n      tag_87\n      jump\t// in\n    tag_142:\n        /* \"#utility.yul\":2098:2188   */\n      swap1\n      pop\n        /* \"#utility.yul\":2208:2213   */\n      dup1\n        /* \"#utility.yul\":2237:2243   */\n      dup4\n        /* \"#utility.yul\":2230:2235   */\n      dup3\n        /* \"#utility.yul\":2223:2244   */\n      mstore\n        /* \"#utility.yul\":2271:2275   */\n      0x20\n        /* \"#utility.yul\":2264:2269   */\n      dup3\n        /* \"#utility.yul\":2260:2276   */\n      add\n        /* \"#utility.yul\":2253:2276   */\n      swap1\n      pop\n        /* \"#utility.yul\":2324:2328   */\n      0x20\n        /* \"#utility.yul\":2316:2322   */\n      dup5\n        /* \"#utility.yul\":2312:2329   */\n      mul\n        /* \"#utility.yul\":2304:2310   */\n      dup4\n        /* \"#utility.yul\":2300:2330   */\n      add\n        /* \"#utility.yul\":2353:2356   */\n      dup6\n        /* \"#utility.yul\":2345:2351   */\n      dup2\n        /* \"#utility.yul\":2342:2357   */\n      gt\n        /* \"#utility.yul\":2339:2461   */\n      iszero\n      tag_144\n      jumpi\n        /* \"#utility.yul\":2372:2451   */\n      tag_145\n      tag_89\n      jump\t// in\n    tag_145:\n        /* \"#utility.yul\":2339:2461   */\n    tag_144:\n        /* \"#utility.yul\":2487:2493   */\n      dup4\n        /* \"#utility.yul\":2470:2690   */\n    tag_146:\n        /* \"#utility.yul\":2504:2510   */\n      dup2\n        /* \"#utility.yul\":2499:2502   */\n      dup2\n        /* \"#utility.yul\":2496:2511   */\n      lt\n        /* \"#utility.yul\":2470:2690   */\n      iszero\n      tag_148\n      jumpi\n        /* \"#utility.yul\":2579:2582   */\n      dup1\n        /* \"#utility.yul\":2608:2645   */\n      tag_149\n        /* \"#utility.yul\":2641:2644   */\n      dup9\n        /* \"#utility.yul\":2629:2639   */\n      dup3\n        /* \"#utility.yul\":2608:2645   */\n      tag_92\n      jump\t// in\n    tag_149:\n        /* \"#utility.yul\":2603:2606   */\n      dup5\n        /* \"#utility.yul\":2596:2646   */\n      mstore\n        /* \"#utility.yul\":2675:2679   */\n      0x20\n        /* \"#utility.yul\":2670:2673   */\n      dup5\n        /* \"#utility.yul\":2666:2680   */\n      add\n        /* \"#utility.yul\":2659:2680   */\n      swap4\n      pop\n        /* \"#utility.yul\":2546:2690   */\n      pop\n        /* \"#utility.yul\":2530:2534   */\n      0x20\n        /* \"#utility.yul\":2525:2528   */\n      dup2\n        /* \"#utility.yul\":2521:2535   */\n      add\n        /* \"#utility.yul\":2514:2535   */\n      swap1\n      pop\n        /* \"#utility.yul\":2470:2690   */\n      jump(tag_146)\n    tag_148:\n        /* \"#utility.yul\":2474:2495   */\n      pop\n        /* \"#utility.yul\":2088:2696   */\n      pop\n      pop\n        /* \"#utility.yul\":1986:2696   */\n      swap4\n      swap3\n      pop\n      pop\n      pop\n      jump\t// out\n        /* \"#utility.yul\":2719:3089   */\n    tag_94:\n        /* \"#utility.yul\":2790:2795   */\n      0x00\n        /* \"#utility.yul\":2839:2842   */\n      dup3\n        /* \"#utility.yul\":2832:2836   */\n      0x1f\n        /* \"#utility.yul\":2824:2830   */\n      dup4\n        /* \"#utility.yul\":2820:2837   */\n      add\n        /* \"#utility.yul\":2816:2843   */\n      slt\n        /* \"#utility.yul\":2806:2928   */\n      tag_151\n      jumpi\n        /* \"#utility.yul\":2847:2926   */\n      tag_152\n      tag_83\n      jump\t// in\n    tag_152:\n        /* \"#utility.yul\":2806:2928   */\n    tag_151:\n        /* \"#utility.yul\":2964:2970   */\n      dup2\n        /* \"#utility.yul\":2951:2971   */\n      calldataload\n        /* \"#utility.yul\":2989:3083   */\n      tag_153\n        /* \"#utility.yul\":3079:3082   */\n      dup5\n        /* \"#utility.yul\":3071:3077   */\n      dup3\n        /* \"#utility.yul\":3064:3068   */\n      0x20\n        /* \"#utility.yul\":3056:3062   */\n      dup7\n        /* \"#utility.yul\":3052:3069   */\n      add\n        /* \"#utility.yul\":2989:3083   */\n      tag_93\n      jump\t// in\n    tag_153:\n        /* \"#utility.yul\":2980:3083   */\n      swap2\n      pop\n        /* \"#utility.yul\":2796:3089   */\n      pop\n        /* \"#utility.yul\":2719:3089   */\n      swap3\n      swap2\n      pop\n      pop\n      jump\t// out\n        /* \"#utility.yul\":3095:3172   */\n    tag_95:\n        /* \"#utility.yul\":3132:3139   */\n      0x00\n        /* \"#utility.yul\":3161:3166   */\n      dup2\n        /* \"#utility.yul\":3150:3166   */\n      swap1\n      pop\n        /* \"#utility.yul\":3095:3172   */\n      swap2\n      swap1\n      pop\n      jump\t// out\n        /* \"#utility.yul\":3178:3300   */\n    tag_96:\n        /* \"#utility.yul\":3251:3275   */\n      tag_156\n        /* \"#utility.yul\":3269:3274   */\n      dup2\n        /* \"#utility.yul\":3251:3275   */\n      tag_95\n      jump\t// in\n    tag_156:\n        /* \"#utility.yul\":3244:3249   */\n      dup2\n        /* \"#utility.yul\":3241:3276   */\n      eq\n        /* \"#utility.yul\":3231:3294   */\n      tag_157\n      jumpi\n        /* \"#utility.yul\":3290:3291   */\n      0x00\n        /* \"#utility.yul\":3287:3288   */\n      0x00\n        /* \"#utility.yul\":3280:3292   */\n      revert\n        /* \"#utility.yul\":3231:3294   */\n    tag_157:\n        /* \"#utility.yul\":3178:3300   */\n      pop\n      jump\t// out\n        /* \"#utility.yul\":3306:3445   */\n    tag_97:\n        /* \"#utility.yul\":3352:3357   */\n      0x00\n        /* \"#utility.yul\":3390:3396   */\n      dup2\n        /* \"#utility.yul\":3377:3397   */\n      calldataload\n        /* \"#utility.yul\":3368:3397   */\n      swap1\n      pop\n        /* \"#utility.yul\":3406:3439   */\n      tag_159\n        /* \"#utility.yul\":3433:3438   */\n      dup2\n        /* \"#utility.yul\":3406:3439   */\n      tag_96\n      jump\t// in\n    tag_159:\n        /* \"#utility.yul\":3306:3445   */\n      swap3\n      swap2\n      pop\n      pop\n      jump\t// out\n        /* \"#utility.yul\":3451:4426   */\n    tag_9:\n        /* \"#utility.yul\":3562:3568   */\n      0x00\n        /* \"#utility.yul\":3570:3576   */\n      0x00\n        /* \"#utility.yul\":3578:3584   */\n      0x00\n        /* \"#utility.yul\":3586:3592   */\n      0x00\n        /* \"#utility.yul\":3635:3638   */\n      0x80\n        /* \"#utility.yul\":3623:3632   */\n      dup6\n        /* \"#utility.yul\":3614:3621   */\n      dup8\n        /* \"#utility.yul\":3610:3633   */\n      sub\n        /* \"#utility.yul\":3606:3639   */\n      slt\n        /* \"#utility.yul\":3603:3723   */\n      iszero\n      tag_161\n      jumpi\n        /* \"#utility.yul\":3642:3721   */\n      tag_162\n      tag_81\n      jump\t// in\n    tag_162:\n        /* \"#utility.yul\":3603:3723   */\n    tag_161:\n        /* \"#utility.yul\":3790:3791   */\n      0x00\n        /* \"#utility.yul\":3779:3788   */\n      dup6\n        /* \"#utility.yul\":3775:3792   */\n      add\n        /* \"#utility.yul\":3762:3793   */\n      calldataload\n        /* \"#utility.yul\":3820:3838   */\n      0xffffffffffffffff\n        /* \"#utility.yul\":3812:3818   */\n      dup2\n        /* \"#utility.yul\":3809:3839   */\n      gt\n        /* \"#utility.yul\":3806:3923   */\n      iszero\n      tag_163\n      jumpi\n        /* \"#utility.yul\":3842:3921   */\n      tag_164\n      tag_82\n      jump\t// in\n    tag_164:\n        /* \"#utility.yul\":3806:3923   */\n    tag_163:\n        /* \"#utility.yul\":3947:4025   */\n      tag_165\n        /* \"#utility.yul\":4017:4024   */\n      dup8\n        /* \"#utility.yul\":4008:4014   */\n      dup3\n        /* \"#utility.yul\":3997:4006   */\n      dup9\n        /* \"#utility.yul\":3993:4015   */\n      add\n        /* \"#utility.yul\":3947:4025   */\n      tag_94\n      jump\t// in\n    tag_165:\n        /* \"#utility.yul\":3937:4025   */\n      swap5\n      pop\n        /* \"#utility.yul\":3733:4035   */\n      pop\n        /* \"#utility.yul\":4074:4076   */\n      0x20\n        /* \"#utility.yul\":4100:4153   */\n      tag_166\n        /* \"#utility.yul\":4145:4152   */\n      dup8\n        /* \"#utility.yul\":4136:4142   */\n      dup3\n        /* \"#utility.yul\":4125:4134   */\n      dup9\n        /* \"#utility.yul\":4121:4143   */\n      add\n        /* \"#utility.yul\":4100:4153   */\n      tag_92\n      jump\t// in\n    tag_166:\n        /* \"#utility.yul\":4090:4153   */\n      swap4\n      pop\n        /* \"#utility.yul\":4045:4163   */\n      pop\n        /* \"#utility.yul\":4202:4204   */\n      0x40\n        /* \"#utility.yul\":4228:4281   */\n      tag_167\n        /* \"#utility.yul\":4273:4280   */\n      dup8\n        /* \"#utility.yul\":4264:4270   */\n      dup3\n        /* \"#utility.yul\":4253:4262   */\n      dup9\n        /* \"#utility.yul\":4249:4271   */\n      add\n        /* \"#utility.yul\":4228:4281   */\n      tag_92\n      jump\t// in\n    tag_167:\n        /* \"#utility.yul\":4218:4281   */\n      swap3\n      pop\n        /* \"#utility.yul\":4173:4291   */\n      pop\n        /* \"#utility.yul\":4330:4332   */\n      0x60\n        /* \"#utility.yul\":4356:4409   */\n      tag_168\n        /* \"#utility.yul\":4401:4408   */\n      dup8\n        /* \"#utility.yul\":4392:4398   */\n      dup3\n        /* \"#utility.yul\":4381:4390   */\n      dup9\n        /* \"#utility.yul\":4377:4399   */\n      add\n        /* \"#utility.yul\":4356:4409   */\n      tag_97\n      jump\t// in\n    tag_168:\n        /* \"#utility.yul\":4346:4409   */\n      swap2\n      pop\n        /* \"#utility.yul\":4301:4419   */\n      pop\n        /* \"#utility.yul\":3451:4426   */\n      swap3\n      swap6\n      swap2\n      swap5\n      pop\n      swap3\n      pop\n      jump\t// out\n        /* \"#utility.yul\":4432:4522   */\n    tag_98:\n        /* \"#utility.yul\":4466:4473   */\n      0x00\n        /* \"#utility.yul\":4509:4514   */\n      dup2\n        /* \"#utility.yul\":4502:4515   */\n      iszero\n        /* \"#utility.yul\":4495:4516   */\n      iszero\n        /* \"#utility.yul\":4484:4516   */\n      swap1\n      pop\n        /* \"#utility.yul\":4432:4522   */\n      swap2\n      swap1\n      pop\n      jump\t// out\n        /* \"#utility.yul\":4528:4637   */\n    tag_99:\n        /* \"#utility.yul\":4609:4630   */\n      tag_171\n        /* \"#utility.yul\":4624:4629   */\n      dup2\n        /* \"#utility.yul\":4609:4630   */\n      tag_98\n      jump\t// in\n    tag_171:\n        /* \"#utility.yul\":4604:4607   */\n      dup3\n        /* \"#utility.yul\":4597:4631   */\n      mstore\n        /* \"#utility.yul\":4528:4637   */\n      pop\n      pop\n      jump\t// out\n        /* \"#utility.yul\":4643:4853   */\n    tag_12:\n        /* \"#utility.yul\":4730:4734   */\n      0x00\n        /* \"#utility.yul\":4768:4770   */\n      0x20\n        /* \"#utility.yul\":4757:4766   */\n      dup3\n        /* \"#utility.yul\":4753:4771   */\n      add\n        /* \"#utility.yul\":4745:4771   */\n      swap1\n      pop\n        /* \"#utility.yul\":4781:4846   */\n      tag_173\n        /* \"#utility.yul\":4843:4844   */\n      0x00\n        /* \"#utility.yul\":4832:4841   */\n      dup4\n        /* \"#utility.yul\":4828:4845   */\n      add\n        /* \"#utility.yul\":4819:4825   */\n      dup5\n        /* \"#utility.yul\":4781:4846   */\n      tag_99\n      jump\t// in\n    tag_173:\n        /* \"#utility.yul\":4643:4853   */\n      swap3\n      swap2\n      pop\n      pop\n      jump\t// out\n        /* \"#utility.yul\":4859:5188   */\n    tag_15:\n        /* \"#utility.yul\":4918:4924   */\n      0x00\n        /* \"#utility.yul\":4967:4969   */\n      0x20\n        /* \"#utility.yul\":4955:4964   */\n      dup3\n        /* \"#utility.yul\":4946:4953   */\n      dup5\n        /* \"#utility.yul\":4942:4965   */\n      sub\n        /* \"#utility.yul\":4938:4970   */\n      slt\n        /* \"#utility.yul\":4935:5054   */\n      iszero\n      tag_175\n      jumpi\n        /* \"#utility.yul\":4973:5052   */\n      tag_176\n      tag_81\n      jump\t// in\n    tag_176:\n        /* \"#utility.yul\":4935:5054   */\n    tag_175:\n        /* \"#utility.yul\":5093:5094   */\n      0x00\n        /* \"#utility.yul\":5118:5171   */\n      tag_177\n        /* \"#utility.yul\":5163:5170   */\n      dup5\n        /* \"#utility.yul\":5154:5160   */\n      dup3\n        /* \"#utility.yul\":5143:5152   */\n      dup6\n        /* \"#utility.yul\":5139:5161   */\n      add\n        /* \"#utility.yul\":5118:5171   */\n      tag_97\n      jump\t// in\n    tag_177:\n        /* \"#utility.yul\":5108:5171   */\n      swap2\n      pop\n        /* \"#utility.yul\":5064:5181   */\n      pop\n        /* \"#utility.yul\":4859:5188   */\n      swap3\n      swap2\n      pop\n      pop\n      jump\t// out\n        /* \"#utility.yul\":5194:5312   */\n    tag_100:\n        /* \"#utility.yul\":5281:5305   */\n      tag_179\n        /* \"#utility.yul\":5299:5304   */\n      dup2\n        /* \"#utility.yul\":5281:5305   */\n      tag_90\n      jump\t// in\n    tag_179:\n        /* \"#utility.yul\":5276:5279   */\n      dup3\n        /* \"#utility.yul\":5269:5306   */\n      mstore\n        /* \"#utility.yul\":5194:5312   */\n      pop\n      pop\n      jump\t// out\n        /* \"#utility.yul\":5318:5540   */\n    tag_18:\n        /* \"#utility.yul\":5411:5415   */\n      0x00\n        /* \"#utility.yul\":5449:5451   */\n      0x20\n        /* \"#utility.yul\":5438:5447   */\n      dup3\n        /* \"#utility.yul\":5434:5452   */\n      add\n        /* \"#utility.yul\":5426:5452   */\n      swap1\n      pop\n        /* \"#utility.yul\":5462:5533   */\n      tag_181\n        /* \"#utility.yul\":5530:5531   */\n      0x00\n        /* \"#utility.yul\":5519:5528   */\n      dup4\n        /* \"#utility.yul\":5515:5532   */\n      add\n        /* \"#utility.yul\":5506:5512   */\n      dup5\n        /* \"#utility.yul\":5462:5533   */\n      tag_100\n      jump\t// in\n    tag_181:\n        /* \"#utility.yul\":5318:5540   */\n      swap3\n      swap2\n      pop\n      pop\n      jump\t// out\n        /* \"#utility.yul\":5546:5867   */\n    tag_101:\n        /* \"#utility.yul\":5633:5637   */\n      0x00\n        /* \"#utility.yul\":5723:5741   */\n      0xffffffffffffffff\n        /* \"#utility.yul\":5715:5721   */\n      dup3\n        /* \"#utility.yul\":5712:5742   */\n      gt\n        /* \"#utility.yul\":5709:5765   */\n      iszero\n      tag_183\n      jumpi\n        /* \"#utility.yul\":5745:5763   */\n      tag_184\n      tag_85\n      jump\t// in\n    tag_184:\n        /* \"#utility.yul\":5709:5765   */\n    tag_183:\n        /* \"#utility.yul\":5795:5799   */\n      0x20\n        /* \"#utility.yul\":5787:5793   */\n      dup3\n        /* \"#utility.yul\":5783:5800   */\n      mul\n        /* \"#utility.yul\":5775:5800   */\n      swap1\n      pop\n        /* \"#utility.yul\":5855:5859   */\n      0x20\n        /* \"#utility.yul\":5849:5853   */\n      dup2\n        /* \"#utility.yul\":5845:5860   */\n      add\n        /* \"#utility.yul\":5837:5860   */\n      swap1\n      pop\n        /* \"#utility.yul\":5546:5867   */\n      swap2\n      swap1\n      pop\n      jump\t// out\n        /* \"#utility.yul\":5873:5990   */\n    tag_102:\n        /* \"#utility.yul\":5982:5983   */\n      0x00\n        /* \"#utility.yul\":5979:5980   */\n      0x00\n        /* \"#utility.yul\":5972:5984   */\n      revert\n        /* \"#utility.yul\":5996:6304   */\n    tag_103:\n        /* \"#utility.yul\":6058:6062   */\n      0x00\n        /* \"#utility.yul\":6148:6166   */\n      0xffffffffffffffff\n        /* \"#utility.yul\":6140:6146   */\n      dup3\n        /* \"#utility.yul\":6137:6167   */\n      gt\n        /* \"#utility.yul\":6134:6190   */\n      iszero\n      tag_187\n      jumpi\n        /* \"#utility.yul\":6170:6188   */\n      tag_188\n      tag_85\n      jump\t// in\n    tag_188:\n        /* \"#utility.yul\":6134:6190   */\n    tag_187:\n        /* \"#utility.yul\":6208:6237   */\n      tag_189\n        /* \"#utility.yul\":6230:6236   */\n      dup3\n        /* \"#utility.yul\":6208:6237   */\n      tag_84\n      jump\t// in\n    tag_189:\n        /* \"#utility.yul\":6200:6237   */\n      swap1\n      pop\n        /* \"#utility.yul\":6292:6296   */\n      0x20\n        /* \"#utility.yul\":6286:6290   */\n      dup2\n        /* \"#utility.yul\":6282:6297   */\n      add\n        /* \"#utility.yul\":6274:6297   */\n      swap1\n      pop\n        /* \"#utility.yul\":5996:6304   */\n      swap2\n      swap1\n      pop\n      jump\t// out\n        /* \"#utility.yul\":6310:6458   */\n    tag_104:\n        /* \"#utility.yul\":6408:6414   */\n      dup3\n        /* \"#utility.yul\":6403:6406   */\n      dup2\n        /* \"#utility.yul\":6398:6401   */\n      dup4\n        /* \"#utility.yul\":6385:6415   */\n      calldatacopy\n        /* \"#utility.yul\":6449:6450   */\n      0x00\n        /* \"#utility.yul\":6440:6446   */\n      dup4\n        /* \"#utility.yul\":6435:6438   */\n      dup4\n        /* \"#utility.yul\":6431:6447   */\n      add\n        /* \"#utility.yul\":6424:6451   */\n      mstore\n        /* \"#utility.yul\":6310:6458   */\n      pop\n      pop\n      pop\n      jump\t// out\n        /* \"#utility.yul\":6464:6889   */\n    tag_105:\n        /* \"#utility.yul\":6542:6547   */\n      0x00\n        /* \"#utility.yul\":6567:6633   */\n      tag_192\n        /* \"#utility.yul\":6583:6632   */\n      tag_193\n        /* \"#utility.yul\":6625:6631   */\n      dup5\n        /* \"#utility.yul\":6583:6632   */\n      tag_103\n      jump\t// in\n    tag_193:\n        /* \"#utility.yul\":6567:6633   */\n      tag_87\n      jump\t// in\n    tag_192:\n        /* \"#utility.yul\":6558:6633   */\n      swap1\n      pop\n        /* \"#utility.yul\":6656:6662   */\n      dup3\n        /* \"#utility.yul\":6649:6654   */\n      dup2\n        /* \"#utility.yul\":6642:6663   */\n      mstore\n        /* \"#utility.yul\":6694:6698   */\n      0x20\n        /* \"#utility.yul\":6687:6692   */\n      dup2\n        /* \"#utility.yul\":6683:6699   */\n      add\n        /* \"#utility.yul\":6732:6735   */\n      dup5\n        /* \"#utility.yul\":6723:6729   */\n      dup5\n        /* \"#utility.yul\":6718:6721   */\n      dup5\n        /* \"#utility.yul\":6714:6730   */\n      add\n        /* \"#utility.yul\":6711:6736   */\n      gt\n        /* \"#utility.yul\":6708:6820   */\n      iszero\n      tag_194\n      jumpi\n        /* \"#utility.yul\":6739:6818   */\n      tag_195\n      tag_102\n      jump\t// in\n    tag_195:\n        /* \"#utility.yul\":6708:6820   */\n    tag_194:\n        /* \"#utility.yul\":6829:6883   */\n      tag_196\n        /* \"#utility.yul\":6876:6882   */\n      dup5\n        /* \"#utility.yul\":6871:6874   */\n      dup3\n        /* \"#utility.yul\":6866:6869   */\n      dup6\n        /* \"#utility.yul\":6829:6883   */\n      tag_104\n      jump\t// in\n    tag_196:\n        /* \"#utility.yul\":6548:6889   */\n      pop\n        /* \"#utility.yul\":6464:6889   */\n      swap4\n      swap3\n      pop\n      pop\n      pop\n      jump\t// out\n        /* \"#utility.yul\":6909:7249   */\n    tag_106:\n        /* \"#utility.yul\":6965:6970   */\n      0x00\n        /* \"#utility.yul\":7014:7017   */\n      dup3\n        /* \"#utility.yul\":7007:7011   */\n      0x1f\n        /* \"#utility.yul\":6999:7005   */\n      dup4\n        /* \"#utility.yul\":6995:7012   */\n      add\n        /* \"#utility.yul\":6991:7018   */\n      slt\n        /* \"#utility.yul\":6981:7103   */\n      tag_198\n      jumpi\n        /* \"#utility.yul\":7022:7101   */\n      tag_199\n      tag_83\n      jump\t// in\n    tag_199:\n        /* \"#utility.yul\":6981:7103   */\n    tag_198:\n        /* \"#utility.yul\":7139:7145   */\n      dup2\n        /* \"#utility.yul\":7126:7146   */\n      calldataload\n        /* \"#utility.yul\":7164:7243   */\n      tag_200\n        /* \"#utility.yul\":7239:7242   */\n      dup5\n        /* \"#utility.yul\":7231:7237   */\n      dup3\n        /* \"#utility.yul\":7224:7228   */\n      0x20\n        /* \"#utility.yul\":7216:7222   */\n      dup7\n        /* \"#utility.yul\":7212:7229   */\n      add\n        /* \"#utility.yul\":7164:7243   */\n      tag_105\n      jump\t// in\n    tag_200:\n        /* \"#utility.yul\":7155:7243   */\n      swap2\n      pop\n        /* \"#utility.yul\":6971:7249   */\n      pop\n        /* \"#utility.yul\":6909:7249   */\n      swap3\n      swap2\n      pop\n      pop\n      jump\t// out\n        /* \"#utility.yul\":7271:8216   */\n    tag_107:\n        /* \"#utility.yul\":7377:7382   */\n      0x00\n        /* \"#utility.yul\":7402:7493   */\n      tag_202\n        /* \"#utility.yul\":7418:7492   */\n      tag_203\n        /* \"#utility.yul\":7485:7491   */\n      dup5\n        /* \"#utility.yul\":7418:7492   */\n      tag_101\n      jump\t// in\n    tag_203:\n        /* \"#utility.yul\":7402:7493   */\n      tag_87\n      jump\t// in\n    tag_202:\n        /* \"#utility.yul\":7393:7493   */\n      swap1\n      pop\n        /* \"#utility.yul\":7513:7518   */\n      dup1\n        /* \"#utility.yul\":7542:7548   */\n      dup4\n        /* \"#utility.yul\":7535:7540   */\n      dup3\n        /* \"#utility.yul\":7528:7549   */\n      mstore\n        /* \"#utility.yul\":7576:7580   */\n      0x20\n        /* \"#utility.yul\":7569:7574   */\n      dup3\n        /* \"#utility.yul\":7565:7581   */\n      add\n        /* \"#utility.yul\":7558:7581   */\n      swap1\n      pop\n        /* \"#utility.yul\":7629:7633   */\n      0x20\n        /* \"#utility.yul\":7621:7627   */\n      dup5\n        /* \"#utility.yul\":7617:7634   */\n      mul\n        /* \"#utility.yul\":7609:7615   */\n      dup4\n        /* \"#utility.yul\":7605:7635   */\n      add\n        /* \"#utility.yul\":7658:7661   */\n      dup6\n        /* \"#utility.yul\":7650:7656   */\n      dup2\n        /* \"#utility.yul\":7647:7662   */\n      gt\n        /* \"#utility.yul\":7644:7766   */\n      iszero\n      tag_204\n      jumpi\n        /* \"#utility.yul\":7677:7756   */\n      tag_205\n      tag_89\n      jump\t// in\n    tag_205:\n        /* \"#utility.yul\":7644:7766   */\n    tag_204:\n        /* \"#utility.yul\":7792:7798   */\n      dup4\n        /* \"#utility.yul\":7775:8210   */\n    tag_206:\n        /* \"#utility.yul\":7809:7815   */\n      dup2\n        /* \"#utility.yul\":7804:7807   */\n      dup2\n        /* \"#utility.yul\":7801:7816   */\n      lt\n        /* \"#utility.yul\":7775:8210   */\n      iszero\n      tag_208\n      jumpi\n        /* \"#utility.yul\":7898:7901   */\n      dup1\n        /* \"#utility.yul\":7885:7902   */\n      calldataload\n        /* \"#utility.yul\":7934:7952   */\n      0xffffffffffffffff\n        /* \"#utility.yul\":7921:7932   */\n      dup2\n        /* \"#utility.yul\":7918:7953   */\n      gt\n        /* \"#utility.yul\":7915:8037   */\n      iszero\n      tag_209\n      jumpi\n        /* \"#utility.yul\":7956:8035   */\n      tag_210\n      tag_83\n      jump\t// in\n    tag_210:\n        /* \"#utility.yul\":7915:8037   */\n    tag_209:\n        /* \"#utility.yul\":8080:8091   */\n      dup1\n        /* \"#utility.yul\":8072:8078   */\n      dup7\n        /* \"#utility.yul\":8068:8092   */\n      add\n        /* \"#utility.yul\":8118:8165   */\n      tag_211\n        /* \"#utility.yul\":8161:8164   */\n      dup10\n        /* \"#utility.yul\":8149:8159   */\n      dup3\n        /* \"#utility.yul\":8118:8165   */\n      tag_106\n      jump\t// in\n    tag_211:\n        /* \"#utility.yul\":8113:8116   */\n      dup6\n        /* \"#utility.yul\":8106:8166   */\n      mstore\n        /* \"#utility.yul\":8195:8199   */\n      0x20\n        /* \"#utility.yul\":8190:8193   */\n      dup6\n        /* \"#utility.yul\":8186:8200   */\n      add\n        /* \"#utility.yul\":8179:8200   */\n      swap5\n      pop\n        /* \"#utility.yul\":7851:8210   */\n      pop\n      pop\n        /* \"#utility.yul\":7835:7839   */\n      0x20\n        /* \"#utility.yul\":7830:7833   */\n      dup2\n        /* \"#utility.yul\":7826:7840   */\n      add\n        /* \"#utility.yul\":7819:7840   */\n      swap1\n      pop\n        /* \"#utility.yul\":7775:8210   */\n      jump(tag_206)\n    tag_208:\n        /* \"#utility.yul\":7779:7800   */\n      pop\n        /* \"#utility.yul\":7383:8216   */\n      pop\n      pop\n        /* \"#utility.yul\":7271:8216   */\n      swap4\n      swap3\n      pop\n      pop\n      pop\n      jump\t// out\n        /* \"#utility.yul\":8238:8628   */\n    tag_108:\n        /* \"#utility.yul\":8319:8324   */\n      0x00\n        /* \"#utility.yul\":8368:8371   */\n      dup3\n        /* \"#utility.yul\":8361:8365   */\n      0x1f\n        /* \"#utility.yul\":8353:8359   */\n      dup4\n        /* \"#utility.yul\":8349:8366   */\n      add\n        /* \"#utility.yul\":8345:8372   */\n      slt\n        /* \"#utility.yul\":8335:8457   */\n      tag_213\n      jumpi\n        /* \"#utility.yul\":8376:8455   */\n      tag_214\n      tag_83\n      jump\t// in\n    tag_214:\n        /* \"#utility.yul\":8335:8457   */\n    tag_213:\n        /* \"#utility.yul\":8493:8499   */\n      dup2\n        /* \"#utility.yul\":8480:8500   */\n      calldataload\n        /* \"#utility.yul\":8518:8622   */\n      tag_215\n        /* \"#utility.yul\":8618:8621   */\n      dup5\n        /* \"#utility.yul\":8610:8616   */\n      dup3\n        /* \"#utility.yul\":8603:8607   */\n      0x20\n        /* \"#utility.yul\":8595:8601   */\n      dup7\n        /* \"#utility.yul\":8591:8608   */\n      add\n        /* \"#utility.yul\":8518:8622   */\n      tag_107\n      jump\t// in\n    tag_215:\n        /* \"#utility.yul\":8509:8622   */\n      swap2\n      pop\n        /* \"#utility.yul\":8325:8628   */\n      pop\n        /* \"#utility.yul\":8238:8628   */\n      swap3\n      swap2\n      pop\n      pop\n      jump\t// out\n        /* \"#utility.yul\":8634:9193   */\n    tag_24:\n        /* \"#utility.yul\":8728:8734   */\n      0x00\n        /* \"#utility.yul\":8777:8779   */\n      0x20\n        /* \"#utility.yul\":8765:8774   */\n      dup3\n        /* \"#utility.yul\":8756:8763   */\n      dup5\n        /* \"#utility.yul\":8752:8775   */\n      sub\n        /* \"#utility.yul\":8748:8780   */\n      slt\n        /* \"#utility.yul\":8745:8864   */\n      iszero\n      tag_217\n      jumpi\n        /* \"#utility.yul\":8783:8862   */\n      tag_218\n      tag_81\n      jump\t// in\n    tag_218:\n        /* \"#utility.yul\":8745:8864   */\n    tag_217:\n        /* \"#utility.yul\":8931:8932   */\n      0x00\n        /* \"#utility.yul\":8920:8929   */\n      dup3\n        /* \"#utility.yul\":8916:8933   */\n      add\n        /* \"#utility.yul\":8903:8934   */\n      calldataload\n        /* \"#utility.yul\":8961:8979   */\n      0xffffffffffffffff\n        /* \"#utility.yul\":8953:8959   */\n      dup2\n        /* \"#utility.yul\":8950:8980   */\n      gt\n        /* \"#utility.yul\":8947:9064   */\n      iszero\n      tag_219\n      jumpi\n        /* \"#utility.yul\":8983:9062   */\n      tag_220\n      tag_82\n      jump\t// in\n    tag_220:\n        /* \"#utility.yul\":8947:9064   */\n    tag_219:\n        /* \"#utility.yul\":9088:9176   */\n      tag_221\n        /* \"#utility.yul\":9168:9175   */\n      dup5\n        /* \"#utility.yul\":9159:9165   */\n      dup3\n        /* \"#utility.yul\":9148:9157   */\n      dup6\n        /* \"#utility.yul\":9144:9166   */\n      add\n        /* \"#utility.yul\":9088:9176   */\n      tag_108\n      jump\t// in\n    tag_221:\n        /* \"#utility.yul\":9078:9176   */\n      swap2\n      pop\n        /* \"#utility.yul\":8874:9186   */\n      pop\n        /* \"#utility.yul\":8634:9193   */\n      swap3\n      swap2\n      pop\n      pop\n      jump\t// out\n        /* \"#utility.yul\":9199:9379   */\n    tag_32:\n        /* \"#utility.yul\":9247:9324   */\n      0x4e487b7100000000000000000000000000000000000000000000000000000000\n        /* \"#utility.yul\":9244:9245   */\n      0x00\n        /* \"#utility.yul\":9237:9325   */\n      mstore\n        /* \"#utility.yul\":9344:9348   */\n      0x32\n        /* \"#utility.yul\":9341:9342   */\n      0x04\n        /* \"#utility.yul\":9334:9349   */\n      mstore\n        /* \"#utility.yul\":9368:9372   */\n      0x24\n        /* \"#utility.yul\":9365:9366   */\n      0x00\n        /* \"#utility.yul\":9358:9373   */\n      revert\n        /* \"#utility.yul\":9385:9565   */\n    tag_109:\n        /* \"#utility.yul\":9433:9510   */\n      0x4e487b7100000000000000000000000000000000000000000000000000000000\n        /* \"#utility.yul\":9430:9431   */\n      0x00\n        /* \"#utility.yul\":9423:9511   */\n      mstore\n        /* \"#utility.yul\":9530:9534   */\n      0x12\n        /* \"#utility.yul\":9527:9528   */\n      0x04\n        /* \"#utility.yul\":9520:9535   */\n      mstore\n        /* \"#utility.yul\":9554:9558   */\n      0x24\n        /* \"#utility.yul\":9551:9552   */\n      0x00\n        /* \"#utility.yul\":9544:9559   */\n      revert\n        /* \"#utility.yul\":9571:9747   */\n    tag_34:\n        /* \"#utility.yul\":9603:9604   */\n      0x00\n        /* \"#utility.yul\":9620:9640   */\n      tag_225\n        /* \"#utility.yul\":9638:9639   */\n      dup3\n        /* \"#utility.yul\":9620:9640   */\n      tag_95\n      jump\t// in\n    tag_225:\n        /* \"#utility.yul\":9615:9640   */\n      swap2\n      pop\n        /* \"#utility.yul\":9654:9674   */\n      tag_226\n        /* \"#utility.yul\":9672:9673   */\n      dup4\n        /* \"#utility.yul\":9654:9674   */\n      tag_95\n      jump\t// in\n    tag_226:\n        /* \"#utility.yul\":9649:9674   */\n      swap3\n      pop\n        /* \"#utility.yul\":9693:9694   */\n      dup3\n        /* \"#utility.yul\":9683:9718   */\n      tag_227\n      jumpi\n        /* \"#utility.yul\":9698:9716   */\n      tag_228\n      tag_109\n      jump\t// in\n    tag_228:\n        /* \"#utility.yul\":9683:9718   */\n    tag_227:\n        /* \"#utility.yul\":9739:9740   */\n      dup3\n        /* \"#utility.yul\":9736:9737   */\n      dup3\n        /* \"#utility.yul\":9732:9741   */\n      mod\n        /* \"#utility.yul\":9727:9741   */\n      swap1\n      pop\n        /* \"#utility.yul\":9571:9747   */\n      swap3\n      swap2\n      pop\n      pop\n      jump\t// out\n        /* \"#utility.yul\":9753:9832   */\n    tag_110:\n        /* \"#utility.yul\":9792:9799   */\n      0x00\n        /* \"#utility.yul\":9821:9826   */\n      dup2\n        /* \"#utility.yul\":9810:9826   */\n      swap1\n      pop\n        /* \"#utility.yul\":9753:9832   */\n      swap2\n      swap1\n      pop\n      jump\t// out\n        /* \"#utility.yul\":9838:9995   */\n    tag_111:\n        /* \"#utility.yul\":9943:9988   */\n      tag_231\n        /* \"#utility.yul\":9963:9987   */\n      tag_232\n        /* \"#utility.yul\":9981:9986   */\n      dup3\n        /* \"#utility.yul\":9963:9987   */\n      tag_90\n      jump\t// in\n    tag_232:\n        /* \"#utility.yul\":9943:9988   */\n      tag_110\n      jump\t// in\n    tag_231:\n        /* \"#utility.yul\":9938:9941   */\n      dup3\n        /* \"#utility.yul\":9931:9989   */\n      mstore\n        /* \"#utility.yul\":9838:9995   */\n      pop\n      pop\n      jump\t// out\n        /* \"#utility.yul\":10001:10398   */\n    tag_37:\n        /* \"#utility.yul\":10141:10144   */\n      0x00\n        /* \"#utility.yul\":10156:10231   */\n      tag_234\n        /* \"#utility.yul\":10227:10230   */\n      dup3\n        /* \"#utility.yul\":10218:10224   */\n      dup6\n        /* \"#utility.yul\":10156:10231   */\n      tag_111\n      jump\t// in\n    tag_234:\n        /* \"#utility.yul\":10256:10258   */\n      0x20\n        /* \"#utility.yul\":10251:10254   */\n      dup3\n        /* \"#utility.yul\":10247:10259   */\n      add\n        /* \"#utility.yul\":10240:10259   */\n      swap2\n      pop\n        /* \"#utility.yul\":10269:10344   */\n      tag_235\n        /* \"#utility.yul\":10340:10343   */\n      dup3\n        /* \"#utility.yul\":10331:10337   */\n      dup5\n        /* \"#utility.yul\":10269:10344   */\n      tag_111\n      jump\t// in\n    tag_235:\n        /* \"#utility.yul\":10369:10371   */\n      0x20\n        /* \"#utility.yul\":10364:10367   */\n      dup3\n        /* \"#utility.yul\":10360:10372   */\n      add\n        /* \"#utility.yul\":10353:10372   */\n      swap2\n      pop\n        /* \"#utility.yul\":10389:10392   */\n      dup2\n        /* \"#utility.yul\":10382:10392   */\n      swap1\n      pop\n        /* \"#utility.yul\":10001:10398   */\n      swap4\n      swap3\n      pop\n      pop\n      pop\n      jump\t// out\n        /* \"#utility.yul\":10404:10584   */\n    tag_112:\n        /* \"#utility.yul\":10452:10529   */\n      0x4e487b7100000000000000000000000000000000000000000000000000000000\n        /* \"#utility.yul\":10449:10450   */\n      0x00\n        /* \"#utility.yul\":10442:10530   */\n      mstore\n        /* \"#utility.yul\":10549:10553   */\n      0x11\n        /* \"#utility.yul\":10546:10547   */\n      0x04\n        /* \"#utility.yul\":10539:10554   */\n      mstore\n        /* \"#utility.yul\":10573:10577   */\n      0x24\n        /* \"#utility.yul\":10570:10571   */\n      0x00\n        /* \"#utility.yul\":10563:10578   */\n      revert\n        /* \"#utility.yul\":10590:10775   */\n    tag_41:\n        /* \"#utility.yul\":10630:10631   */\n      0x00\n        /* \"#utility.yul\":10647:10667   */\n      tag_238\n        /* \"#utility.yul\":10665:10666   */\n      dup3\n        /* \"#utility.yul\":10647:10667   */\n      tag_95\n      jump\t// in\n    tag_238:\n        /* \"#utility.yul\":10642:10667   */\n      swap2\n      pop\n        /* \"#utility.yul\":10681:10701   */\n      tag_239\n        /* \"#utility.yul\":10699:10700   */\n      dup4\n        /* \"#utility.yul\":10681:10701   */\n      tag_95\n      jump\t// in\n    tag_239:\n        /* \"#utility.yul\":10676:10701   */\n      swap3\n      pop\n        /* \"#utility.yul\":10720:10721   */\n      dup3\n        /* \"#utility.yul\":10710:10745   */\n      tag_240\n      jumpi\n        /* \"#utility.yul\":10725:10743   */\n      tag_241\n      tag_109\n      jump\t// in\n    tag_241:\n        /* \"#utility.yul\":10710:10745   */\n    tag_240:\n        /* \"#utility.yul\":10767:10768   */\n      dup3\n        /* \"#utility.yul\":10764:10765   */\n      dup3\n        /* \"#utility.yul\":10760:10769   */\n      div\n        /* \"#utility.yul\":10755:10769   */\n      swap1\n      pop\n        /* \"#utility.yul\":10590:10775   */\n      swap3\n      swap2\n      pop\n      pop\n      jump\t// out\n        /* \"#utility.yul\":10781:10975   */\n    tag_46:\n        /* \"#utility.yul\":10821:10825   */\n      0x00\n        /* \"#utility.yul\":10841:10861   */\n      tag_243\n        /* \"#utility.yul\":10859:10860   */\n      dup3\n        /* \"#utility.yul\":10841:10861   */\n      tag_95\n      jump\t// in\n    tag_243:\n        /* \"#utility.yul\":10836:10861   */\n      swap2\n      pop\n        /* \"#utility.yul\":10875:10895   */\n      tag_244\n        /* \"#utility.yul\":10893:10894   */\n      dup4\n        /* \"#utility.yul\":10875:10895   */\n      tag_95\n      jump\t// in\n    tag_244:\n        /* \"#utility.yul\":10870:10895   */\n      swap3\n      pop\n        /* \"#utility.yul\":10919:10920   */\n      dup3\n        /* \"#utility.yul\":10916:10917   */\n      dup3\n        /* \"#utility.yul\":10912:10921   */\n      sub\n        /* \"#utility.yul\":10904:10921   */\n      swap1\n      pop\n        /* \"#utility.yul\":10943:10944   */\n      dup2\n        /* \"#utility.yul\":10937:10941   */\n      dup2\n        /* \"#utility.yul\":10934:10945   */\n      gt\n        /* \"#utility.yul\":10931:10968   */\n      iszero\n      tag_245\n      jumpi\n        /* \"#utility.yul\":10948:10966   */\n      tag_246\n      tag_112\n      jump\t// in\n    tag_246:\n        /* \"#utility.yul\":10931:10968   */\n    tag_245:\n        /* \"#utility.yul\":10781:10975   */\n      swap3\n      swap2\n      pop\n      pop\n      jump\t// out\n        /* \"#utility.yul\":10981:11080   */\n    tag_113:\n        /* \"#utility.yul\":11033:11039   */\n      0x00\n        /* \"#utility.yul\":11067:11072   */\n      dup2\n        /* \"#utility.yul\":11061:11073   */\n      mload\n        /* \"#utility.yul\":11051:11073   */\n      swap1\n      pop\n        /* \"#utility.yul\":10981:11080   */\n      swap2\n      swap1\n      pop\n      jump\t// out\n        /* \"#utility.yul\":11086:11234   */\n    tag_114:\n        /* \"#utility.yul\":11188:11199   */\n      0x00\n        /* \"#utility.yul\":11225:11228   */\n      dup2\n        /* \"#utility.yul\":11210:11228   */\n      swap1\n      pop\n        /* \"#utility.yul\":11086:11234   */\n      swap3\n      swap2\n      pop\n      pop\n      jump\t// out\n        /* \"#utility.yul\":11240:11379   */\n    tag_115:\n        /* \"#utility.yul\":11329:11335   */\n      dup3\n        /* \"#utility.yul\":11324:11327   */\n      dup2\n        /* \"#utility.yul\":11319:11322   */\n      dup4\n        /* \"#utility.yul\":11313:11336   */\n      mcopy\n        /* \"#utility.yul\":11370:11371   */\n      0x00\n        /* \"#utility.yul\":11361:11367   */\n      dup4\n        /* \"#utility.yul\":11356:11359   */\n      dup4\n        /* \"#utility.yul\":11352:11368   */\n      add\n        /* \"#utility.yul\":11345:11372   */\n      mstore\n        /* \"#utility.yul\":11240:11379   */\n      pop\n      pop\n      pop\n      jump\t// out\n        /* \"#utility.yul\":11385:11775   */\n    tag_116:\n        /* \"#utility.yul\":11491:11494   */\n      0x00\n        /* \"#utility.yul\":11519:11558   */\n      tag_251\n        /* \"#utility.yul\":11552:11557   */\n      dup3\n        /* \"#utility.yul\":11519:11558   */\n      tag_113\n      jump\t// in\n    tag_251:\n        /* \"#utility.yul\":11574:11663   */\n      tag_252\n        /* \"#utility.yul\":11656:11662   */\n      dup2\n        /* \"#utility.yul\":11651:11654   */\n      dup6\n        /* \"#utility.yul\":11574:11663   */\n      tag_114\n      jump\t// in\n    tag_252:\n        /* \"#utility.yul\":11567:11663   */\n      swap4\n      pop\n        /* \"#utility.yul\":11672:11737   */\n      tag_253\n        /* \"#utility.yul\":11730:11736   */\n      dup2\n        /* \"#utility.yul\":11725:11728   */\n      dup6\n        /* \"#utility.yul\":11718:11722   */\n      0x20\n        /* \"#utility.yul\":11711:11716   */\n      dup7\n        /* \"#utility.yul\":11707:11723   */\n      add\n        /* \"#utility.yul\":11672:11737   */\n      tag_115\n      jump\t// in\n    tag_253:\n        /* \"#utility.yul\":11762:11768   */\n      dup1\n        /* \"#utility.yul\":11757:11760   */\n      dup5\n        /* \"#utility.yul\":11753:11769   */\n      add\n        /* \"#utility.yul\":11746:11769   */\n      swap2\n      pop\n        /* \"#utility.yul\":11495:11775   */\n      pop\n        /* \"#utility.yul\":11385:11775   */\n      swap3\n      swap2\n      pop\n      pop\n      jump\t// out\n        /* \"#utility.yul\":11781:12056   */\n    tag_57:\n        /* \"#utility.yul\":11913:11916   */\n      0x00\n        /* \"#utility.yul\":11935:12030   */\n      tag_255\n        /* \"#utility.yul\":12026:12029   */\n      dup3\n        /* \"#utility.yul\":12017:12023   */\n      dup5\n        /* \"#utility.yul\":11935:12030   */\n      tag_116\n      jump\t// in\n    tag_255:\n        /* \"#utility.yul\":11928:12030   */\n      swap2\n      pop\n        /* \"#utility.yul\":12047:12050   */\n      dup2\n        /* \"#utility.yul\":12040:12050   */\n      swap1\n      pop\n        /* \"#utility.yul\":11781:12056   */\n      swap3\n      swap2\n      pop\n      pop\n      jump\t// out\n        /* \"#utility.yul\":12062:12253   */\n    tag_66:\n        /* \"#utility.yul\":12102:12105   */\n      0x00\n        /* \"#utility.yul\":12121:12141   */\n      tag_257\n        /* \"#utility.yul\":12139:12140   */\n      dup3\n        /* \"#utility.yul\":12121:12141   */\n      tag_95\n      jump\t// in\n    tag_257:\n        /* \"#utility.yul\":12116:12141   */\n      swap2\n      pop\n        /* \"#utility.yul\":12155:12175   */\n      tag_258\n        /* \"#utility.yul\":12173:12174   */\n      dup4\n        /* \"#utility.yul\":12155:12175   */\n      tag_95\n      jump\t// in\n    tag_258:\n        /* \"#utility.yul\":12150:12175   */\n      swap3\n      pop\n        /* \"#utility.yul\":12198:12199   */\n      dup3\n        /* \"#utility.yul\":12195:12196   */\n      dup3\n        /* \"#utility.yul\":12191:12200   */\n      add\n        /* \"#utility.yul\":12184:12200   */\n      swap1\n      pop\n        /* \"#utility.yul\":12219:12222   */\n      dup1\n        /* \"#utility.yul\":12216:12217   */\n      dup3\n        /* \"#utility.yul\":12213:12223   */\n      gt\n        /* \"#utility.yul\":12210:12246   */\n      iszero\n      tag_259\n      jumpi\n        /* \"#utility.yul\":12226:12244   */\n      tag_260\n      tag_112\n      jump\t// in\n    tag_260:\n        /* \"#utility.yul\":12210:12246   */\n    tag_259:\n        /* \"#utility.yul\":12062:12253   */\n      swap3\n      swap2\n      pop\n      pop\n      jump\t// out\n\n    auxdata: 0xa2646970667358221220c3a2089b8df165f11d97dd029d29767372ebc6e8dd860f253d955f0b23e3ebdd64736f6c634300081c0033\n}\n",
				"bytecode": {
					"linkReferences": {},
					"object": "6080604052348015600e575f5ffd5b50610a6a8061001c5f395ff3fe608060405234801561000f575f5ffd5b506004361061004a575f3560e01c806321fb335c1461004e578063501895ae1461007e5780635ca1e165146100ae578063f609fdc3146100cc575b5f5ffd5b61006860048036038101906100639190610559565b6100e8565b60405161007591906105f3565b60405180910390f35b6100986004803603810190610093919061060c565b6101b4565b6040516100a59190610646565b60405180910390f35b6100b66101d3565b6040516100c39190610646565b60405180910390f35b6100e660048036038101906100e191906107ed565b610205565b005b5f5f8390505f5f90505b86518110156101a5575f87828151811061010f5761010e610834565b5b602002602001015190505f600286610127919061088e565b0361015c57828160405160200161013f9291906108de565b604051602081830303815290604052805190602001209250610188565b808360405160200161016f9291906108de565b6040516020818303038152906040528051906020012092505b6002856101959190610936565b94505080806001019150506100f2565b50848114915050949350505050565b5f81815481106101c2575f80fd5b905f5260205f20015f915090505481565b5f5f60015f805490506101e69190610966565b815481106101f7576101f6610834565b5b905f5260205f200154905090565b5f5f90505b8151811015610285575f82828151811061022757610226610834565b5b602002602001015160405160200161023f91906109eb565b60405160208183030381529060405280519060200120908060018154018082558091505060019003905f5260205f20015f9091909190915055808060010191505061020a565b505f815190505f5f90505b5f821115610370575f5f90505b6001836102aa9190610966565b81101561036a575f5f82846102bf9190610a01565b815481106102d0576102cf610834565b5b905f5260205f2001545f600184866102e89190610a01565b6102f29190610a01565b8154811061030357610302610834565b5b905f5260205f20015460405160200161031d9291906108de565b60405160208183030381529060405280519060200120908060018154018082558091505060019003905f5260205f20015f90919091909150556002816103639190610a01565b905061029d565b50610290565b818161037c9190610a01565b905060028261038b9190610936565b9150505050565b5f604051905090565b5f5ffd5b5f5ffd5b5f5ffd5b5f601f19601f8301169050919050565b7f4e487b71000000000000000000000000000000000000000000000000000000005f52604160045260245ffd5b6103ed826103a7565b810181811067ffffffffffffffff8211171561040c5761040b6103b7565b5b80604052505050565b5f61041e610392565b905061042a82826103e4565b919050565b5f67ffffffffffffffff821115610449576104486103b7565b5b602082029050602081019050919050565b5f5ffd5b5f819050919050565b6104708161045e565b811461047a575f5ffd5b50565b5f8135905061048b81610467565b92915050565b5f6104a361049e8461042f565b610415565b905080838252602082019050602084028301858111156104c6576104c561045a565b5b835b818110156104ef57806104db888261047d565b8452602084019350506020810190506104c8565b5050509392505050565b5f82601f83011261050d5761050c6103a3565b5b813561051d848260208601610491565b91505092915050565b5f819050919050565b61053881610526565b8114610542575f5ffd5b50565b5f813590506105538161052f565b92915050565b5f5f5f5f608085870312156105715761057061039b565b5b5f85013567ffffffffffffffff81111561058e5761058d61039f565b5b61059a878288016104f9565b94505060206105ab8782880161047d565b93505060406105bc8782880161047d565b92505060606105cd87828801610545565b91505092959194509250565b5f8115159050919050565b6105ed816105d9565b82525050565b5f6020820190506106065f8301846105e4565b92915050565b5f602082840312156106215761062061039b565b5b5f61062e84828501610545565b91505092915050565b6106408161045e565b82525050565b5f6020820190506106595f830184610637565b92915050565b5f67ffffffffffffffff821115610679576106786103b7565b5b602082029050602081019050919050565b5f5ffd5b5f67ffffffffffffffff8211156106a8576106a76103b7565b5b6106b1826103a7565b9050602081019050919050565b828183375f83830152505050565b5f6106de6106d98461068e565b610415565b9050828152602081018484840111156106fa576106f961068a565b5b6107058482856106be565b509392505050565b5f82601f830112610721576107206103a3565b5b81356107318482602086016106cc565b91505092915050565b5f61074c6107478461065f565b610415565b9050808382526020820190506020840283018581111561076f5761076e61045a565b5b835b818110156107b657803567ffffffffffffffff811115610794576107936103a3565b5b8086016107a1898261070d565b85526020850194505050602081019050610771565b5050509392505050565b5f82601f8301126107d4576107d36103a3565b5b81356107e484826020860161073a565b91505092915050565b5f602082840312156108025761080161039b565b5b5f82013567ffffffffffffffff81111561081f5761081e61039f565b5b61082b848285016107c0565b91505092915050565b7f4e487b71000000000000000000000000000000000000000000000000000000005f52603260045260245ffd5b7f4e487b71000000000000000000000000000000000000000000000000000000005f52601260045260245ffd5b5f61089882610526565b91506108a383610526565b9250826108b3576108b2610861565b5b828206905092915050565b5f819050919050565b6108d86108d38261045e565b6108be565b82525050565b5f6108e982856108c7565b6020820191506108f982846108c7565b6020820191508190509392505050565b7f4e487b71000000000000000000000000000000000000000000000000000000005f52601160045260245ffd5b5f61094082610526565b915061094b83610526565b92508261095b5761095a610861565b5b828204905092915050565b5f61097082610526565b915061097b83610526565b925082820390508181111561099357610992610909565b5b92915050565b5f81519050919050565b5f81905092915050565b8281835e5f83830152505050565b5f6109c582610999565b6109cf81856109a3565b93506109df8185602086016109ad565b80840191505092915050565b5f6109f682846109bb565b915081905092915050565b5f610a0b82610526565b9150610a1683610526565b9250828201905080821115610a2e57610a2d610909565b5b9291505056fea2646970667358221220c3a2089b8df165f11d97dd029d29767372ebc6e8dd860f253d955f0b23e3ebdd64736f6c634300081c0033",
					"opcodes": "PUSH1 0x80 PUSH1 0x40 MSTORE CALLVALUE DUP1 ISZERO PUSH1 0xE JUMPI PUSH0 PUSH0 REVERT JUMPDEST POP PUSH2 0xA6A DUP1 PUSH2 0x1C PUSH0 CODECOPY PUSH0 RETURN INVALID PUSH1 0x80 PUSH1 0x40 MSTORE CALLVALUE DUP1 ISZERO PUSH2 0xF JUMPI PUSH0 PUSH0 REVERT JUMPDEST POP PUSH1 0x4 CALLDATASIZE LT PUSH2 0x4A JUMPI PUSH0 CALLDATALOAD PUSH1 0xE0 SHR DUP1 PUSH4 0x21FB335C EQ PUSH2 0x4E JUMPI DUP1 PUSH4 0x501895AE EQ PUSH2 0x7E JUMPI DUP1 PUSH4 0x5CA1E165 EQ PUSH2 0xAE JUMPI DUP1 PUSH4 0xF609FDC3 EQ PUSH2 0xCC JUMPI JUMPDEST PUSH0 PUSH0 REVERT JUMPDEST PUSH2 0x68 PUSH1 0x4 DUP1 CALLDATASIZE SUB DUP2 ADD SWAP1 PUSH2 0x63 SWAP2 SWAP1 PUSH2 0x559 JUMP JUMPDEST PUSH2 0xE8 JUMP JUMPDEST PUSH1 0x40 MLOAD PUSH2 0x75 SWAP2 SWAP1 PUSH2 0x5F3 JUMP JUMPDEST PUSH1 0x40 MLOAD DUP1 SWAP2 SUB SWAP1 RETURN JUMPDEST PUSH2 0x98 PUSH1 0x4 DUP1 CALLDATASIZE SUB DUP2 ADD SWAP1 PUSH2 0x93 SWAP2 SWAP1 PUSH2 0x60C JUMP JUMPDEST PUSH2 0x1B4 JUMP JUMPDEST PUSH1 0x40 MLOAD PUSH2 0xA5 SWAP2 SWAP1 PUSH2 0x646 JUMP JUMPDEST PUSH1 0x40 MLOAD DUP1 SWAP2 SUB SWAP1 RETURN JUMPDEST PUSH2 0xB6 PUSH2 0x1D3 JUMP JUMPDEST PUSH1 0x40 MLOAD PUSH2 0xC3 SWAP2 SWAP1 PUSH2 0x646 JUMP JUMPDEST PUSH1 0x40 MLOAD DUP1 SWAP2 SUB SWAP1 RETURN JUMPDEST PUSH2 0xE6 PUSH1 0x4 DUP1 CALLDATASIZE SUB DUP2 ADD SWAP1 PUSH2 0xE1 SWAP2 SWAP1 PUSH2 0x7ED JUMP JUMPDEST PUSH2 0x205 JUMP JUMPDEST STOP JUMPDEST PUSH0 PUSH0 DUP4 SWAP1 POP PUSH0 PUSH0 SWAP1 POP JUMPDEST DUP7 MLOAD DUP2 LT ISZERO PUSH2 0x1A5 JUMPI PUSH0 DUP8 DUP3 DUP2 MLOAD DUP2 LT PUSH2 0x10F JUMPI PUSH2 0x10E PUSH2 0x834 JUMP JUMPDEST JUMPDEST PUSH1 0x20 MUL PUSH1 0x20 ADD ADD MLOAD SWAP1 POP PUSH0 PUSH1 0x2 DUP7 PUSH2 0x127 SWAP2 SWAP1 PUSH2 0x88E JUMP JUMPDEST SUB PUSH2 0x15C JUMPI DUP3 DUP2 PUSH1 0x40 MLOAD PUSH1 0x20 ADD PUSH2 0x13F SWAP3 SWAP2 SWAP1 PUSH2 0x8DE JUMP JUMPDEST PUSH1 0x40 MLOAD PUSH1 0x20 DUP2 DUP4 SUB SUB DUP2 MSTORE SWAP1 PUSH1 0x40 MSTORE DUP1 MLOAD SWAP1 PUSH1 0x20 ADD KECCAK256 SWAP3 POP PUSH2 0x188 JUMP JUMPDEST DUP1 DUP4 PUSH1 0x40 MLOAD PUSH1 0x20 ADD PUSH2 0x16F SWAP3 SWAP2 SWAP1 PUSH2 0x8DE JUMP JUMPDEST PUSH1 0x40 MLOAD PUSH1 0x20 DUP2 DUP4 SUB SUB DUP2 MSTORE SWAP1 PUSH1 0x40 MSTORE DUP1 MLOAD SWAP1 PUSH1 0x20 ADD KECCAK256 SWAP3 POP JUMPDEST PUSH1 0x2 DUP6 PUSH2 0x195 SWAP2 SWAP1 PUSH2 0x936 JUMP JUMPDEST SWAP5 POP POP DUP1 DUP1 PUSH1 0x1 ADD SWAP2 POP POP PUSH2 0xF2 JUMP JUMPDEST POP DUP5 DUP2 EQ SWAP2 POP POP SWAP5 SWAP4 POP POP POP POP JUMP JUMPDEST PUSH0 DUP2 DUP2 SLOAD DUP2 LT PUSH2 0x1C2 JUMPI PUSH0 DUP1 REVERT JUMPDEST SWAP1 PUSH0 MSTORE PUSH1 0x20 PUSH0 KECCAK256 ADD PUSH0 SWAP2 POP SWAP1 POP SLOAD DUP2 JUMP JUMPDEST PUSH0 PUSH0 PUSH1 0x1 PUSH0 DUP1 SLOAD SWAP1 POP PUSH2 0x1E6 SWAP2 SWAP1 PUSH2 0x966 JUMP JUMPDEST DUP2 SLOAD DUP2 LT PUSH2 0x1F7 JUMPI PUSH2 0x1F6 PUSH2 0x834 JUMP JUMPDEST JUMPDEST SWAP1 PUSH0 MSTORE PUSH1 0x20 PUSH0 KECCAK256 ADD SLOAD SWAP1 POP SWAP1 JUMP JUMPDEST PUSH0 PUSH0 SWAP1 POP JUMPDEST DUP2 MLOAD DUP2 LT ISZERO PUSH2 0x285 JUMPI PUSH0 DUP3 DUP3 DUP2 MLOAD DUP2 LT PUSH2 0x227 JUMPI PUSH2 0x226 PUSH2 0x834 JUMP JUMPDEST JUMPDEST PUSH1 0x20 MUL PUSH1 0x20 ADD ADD MLOAD PUSH1 0x40 MLOAD PUSH1 0x20 ADD PUSH2 0x23F SWAP2 SWAP1 PUSH2 0x9EB JUMP JUMPDEST PUSH1 0x40 MLOAD PUSH1 0x20 DUP2 DUP4 SUB SUB DUP2 MSTORE SWAP1 PUSH1 0x40 MSTORE DUP1 MLOAD SWAP1 PUSH1 0x20 ADD KECCAK256 SWAP1 DUP1 PUSH1 0x1 DUP2 SLOAD ADD DUP1 DUP3 SSTORE DUP1 SWAP2 POP POP PUSH1 0x1 SWAP1 SUB SWAP1 PUSH0 MSTORE PUSH1 0x20 PUSH0 KECCAK256 ADD PUSH0 SWAP1 SWAP2 SWAP1 SWAP2 SWAP1 SWAP2 POP SSTORE DUP1 DUP1 PUSH1 0x1 ADD SWAP2 POP POP PUSH2 0x20A JUMP JUMPDEST POP PUSH0 DUP2 MLOAD SWAP1 POP PUSH0 PUSH0 SWAP1 POP JUMPDEST PUSH0 DUP3 GT ISZERO PUSH2 0x370 JUMPI PUSH0 PUSH0 SWAP1 POP JUMPDEST PUSH1 0x1 DUP4 PUSH2 0x2AA SWAP2 SWAP1 PUSH2 0x966 JUMP JUMPDEST DUP2 LT ISZERO PUSH2 0x36A JUMPI PUSH0 PUSH0 DUP3 DUP5 PUSH2 0x2BF SWAP2 SWAP1 PUSH2 0xA01 JUMP JUMPDEST DUP2 SLOAD DUP2 LT PUSH2 0x2D0 JUMPI PUSH2 0x2CF PUSH2 0x834 JUMP JUMPDEST JUMPDEST SWAP1 PUSH0 MSTORE PUSH1 0x20 PUSH0 KECCAK256 ADD SLOAD PUSH0 PUSH1 0x1 DUP5 DUP7 PUSH2 0x2E8 SWAP2 SWAP1 PUSH2 0xA01 JUMP JUMPDEST PUSH2 0x2F2 SWAP2 SWAP1 PUSH2 0xA01 JUMP JUMPDEST DUP2 SLOAD DUP2 LT PUSH2 0x303 JUMPI PUSH2 0x302 PUSH2 0x834 JUMP JUMPDEST JUMPDEST SWAP1 PUSH0 MSTORE PUSH1 0x20 PUSH0 KECCAK256 ADD SLOAD PUSH1 0x40 MLOAD PUSH1 0x20 ADD PUSH2 0x31D SWAP3 SWAP2 SWAP1 PUSH2 0x8DE JUMP JUMPDEST PUSH1 0x40 MLOAD PUSH1 0x20 DUP2 DUP4 SUB SUB DUP2 MSTORE SWAP1 PUSH1 0x40 MSTORE DUP1 MLOAD SWAP1 PUSH1 0x20 ADD KECCAK256 SWAP1 DUP1 PUSH1 0x1 DUP2 SLOAD ADD DUP1 DUP3 SSTORE DUP1 SWAP2 POP POP PUSH1 0x1 SWAP1 SUB SWAP1 PUSH0 MSTORE PUSH1 0x20 PUSH0 KECCAK256 ADD PUSH0 SWAP1 SWAP2 SWAP1 SWAP2 SWAP1 SWAP2 POP SSTORE PUSH1 0x2 DUP2 PUSH2 0x363 SWAP2 SWAP1 PUSH2 0xA01 JUMP JUMPDEST SWAP1 POP PUSH2 0x29D JUMP JUMPDEST POP PUSH2 0x290 JUMP JUMPDEST DUP2 DUP2 PUSH2 0x37C SWAP2 SWAP1 PUSH2 0xA01 JUMP JUMPDEST SWAP1 POP PUSH1 0x2 DUP3 PUSH2 0x38B SWAP2 SWAP1 PUSH2 0x936 JUMP JUMPDEST SWAP2 POP POP POP POP JUMP JUMPDEST PUSH0 PUSH1 0x40 MLOAD SWAP1 POP SWAP1 JUMP JUMPDEST PUSH0 PUSH0 REVERT JUMPDEST PUSH0 PUSH0 REVERT JUMPDEST PUSH0 PUSH0 REVERT JUMPDEST PUSH0 PUSH1 0x1F NOT PUSH1 0x1F DUP4 ADD AND SWAP1 POP SWAP2 SWAP1 POP JUMP JUMPDEST PUSH32 0x4E487B7100000000000000000000000000000000000000000000000000000000 PUSH0 MSTORE PUSH1 0x41 PUSH1 0x4 MSTORE PUSH1 0x24 PUSH0 REVERT JUMPDEST PUSH2 0x3ED DUP3 PUSH2 0x3A7 JUMP JUMPDEST DUP2 ADD DUP2 DUP2 LT PUSH8 0xFFFFFFFFFFFFFFFF DUP3 GT OR ISZERO PUSH2 0x40C JUMPI PUSH2 0x40B PUSH2 0x3B7 JUMP JUMPDEST JUMPDEST DUP1 PUSH1 0x40 MSTORE POP POP POP JUMP JUMPDEST PUSH0 PUSH2 0x41E PUSH2 0x392 JUMP JUMPDEST SWAP1 POP PUSH2 0x42A DUP3 DUP3 PUSH2 0x3E4 JUMP JUMPDEST SWAP2 SWAP1 POP JUMP JUMPDEST PUSH0 PUSH8 0xFFFFFFFFFFFFFFFF DUP3 GT ISZERO PUSH2 0x449 JUMPI PUSH2 0x448 PUSH2 0x3B7 JUMP JUMPDEST JUMPDEST PUSH1 0x20 DUP3 MUL SWAP1 POP PUSH1 0x20 DUP2 ADD SWAP1 POP SWAP2 SWAP1 POP JUMP JUMPDEST PUSH0 PUSH0 REVERT JUMPDEST PUSH0 DUP2 SWAP1 POP SWAP2 SWAP1 POP JUMP JUMPDEST PUSH2 0x470 DUP2 PUSH2 0x45E JUMP JUMPDEST DUP2 EQ PUSH2 0x47A JUMPI PUSH0 PUSH0 REVERT JUMPDEST POP JUMP JUMPDEST PUSH0 DUP2 CALLDATALOAD SWAP1 POP PUSH2 0x48B DUP2 PUSH2 0x467 JUMP JUMPDEST SWAP3 SWAP2 POP POP JUMP JUMPDEST PUSH0 PUSH2 0x4A3 PUSH2 0x49E DUP5 PUSH2 0x42F JUMP JUMPDEST PUSH2 0x415 JUMP JUMPDEST SWAP1 POP DUP1 DUP4 DUP3 MSTORE PUSH1 0x20 DUP3 ADD SWAP1 POP PUSH1 0x20 DUP5 MUL DUP4 ADD DUP6 DUP2 GT ISZERO PUSH2 0x4C6 JUMPI PUSH2 0x4C5 PUSH2 0x45A JUMP JUMPDEST JUMPDEST DUP4 JUMPDEST DUP2 DUP2 LT ISZERO PUSH2 0x4EF JUMPI DUP1 PUSH2 0x4DB DUP9 DUP3 PUSH2 0x47D JUMP JUMPDEST DUP5 MSTORE PUSH1 0x20 DUP5 ADD SWAP4 POP POP PUSH1 0x20 DUP2 ADD SWAP1 POP PUSH2 0x4C8 JUMP JUMPDEST POP POP POP SWAP4 SWAP3 POP POP POP JUMP JUMPDEST PUSH0 DUP3 PUSH1 0x1F DUP4 ADD SLT PUSH2 0x50D JUMPI PUSH2 0x50C PUSH2 0x3A3 JUMP JUMPDEST JUMPDEST DUP2 CALLDATALOAD PUSH2 0x51D DUP5 DUP3 PUSH1 0x20 DUP7 ADD PUSH2 0x491 JUMP JUMPDEST SWAP2 POP POP SWAP3 SWAP2 POP POP JUMP JUMPDEST PUSH0 DUP2 SWAP1 POP SWAP2 SWAP1 POP JUMP JUMPDEST PUSH2 0x538 DUP2 PUSH2 0x526 JUMP JUMPDEST DUP2 EQ PUSH2 0x542 JUMPI PUSH0 PUSH0 REVERT JUMPDEST POP JUMP JUMPDEST PUSH0 DUP2 CALLDATALOAD SWAP1 POP PUSH2 0x553 DUP2 PUSH2 0x52F JUMP JUMPDEST SWAP3 SWAP2 POP POP JUMP JUMPDEST PUSH0 PUSH0 PUSH0 PUSH0 PUSH1 0x80 DUP6 DUP8 SUB SLT ISZERO PUSH2 0x571 JUMPI PUSH2 0x570 PUSH2 0x39B JUMP JUMPDEST JUMPDEST PUSH0 DUP6 ADD CALLDATALOAD PUSH8 0xFFFFFFFFFFFFFFFF DUP2 GT ISZERO PUSH2 0x58E JUMPI PUSH2 0x58D PUSH2 0x39F JUMP JUMPDEST JUMPDEST PUSH2 0x59A DUP8 DUP3 DUP9 ADD PUSH2 0x4F9 JUMP JUMPDEST SWAP5 POP POP PUSH1 0x20 PUSH2 0x5AB DUP8 DUP3 DUP9 ADD PUSH2 0x47D JUMP JUMPDEST SWAP4 POP POP PUSH1 0x40 PUSH2 0x5BC DUP8 DUP3 DUP9 ADD PUSH2 0x47D JUMP JUMPDEST SWAP3 POP POP PUSH1 0x60 PUSH2 0x5CD DUP8 DUP3 DUP9 ADD PUSH2 0x545 JUMP JUMPDEST SWAP2 POP POP SWAP3 SWAP6 SWAP2 SWAP5 POP SWAP3 POP JUMP JUMPDEST PUSH0 DUP2 ISZERO ISZERO SWAP1 POP SWAP2 SWAP1 POP JUMP JUMPDEST PUSH2 0x5ED DUP2 PUSH2 0x5D9 JUMP JUMPDEST DUP3 MSTORE POP POP JUMP JUMPDEST PUSH0 PUSH1 0x20 DUP3 ADD SWAP1 POP PUSH2 0x606 PUSH0 DUP4 ADD DUP5 PUSH2 0x5E4 JUMP JUMPDEST SWAP3 SWAP2 POP POP JUMP JUMPDEST PUSH0 PUSH1 0x20 DUP3 DUP5 SUB SLT ISZERO PUSH2 0x621 JUMPI PUSH2 0x620 PUSH2 0x39B JUMP JUMPDEST JUMPDEST PUSH0 PUSH2 0x62E DUP5 DUP3 DUP6 ADD PUSH2 0x545 JUMP JUMPDEST SWAP2 POP POP SWAP3 SWAP2 POP POP JUMP JUMPDEST PUSH2 0x640 DUP2 PUSH2 0x45E JUMP JUMPDEST DUP3 MSTORE POP POP JUMP JUMPDEST PUSH0 PUSH1 0x20 DUP3 ADD SWAP1 POP PUSH2 0x659 PUSH0 DUP4 ADD DUP5 PUSH2 0x637 JUMP JUMPDEST SWAP3 SWAP2 POP POP JUMP JUMPDEST PUSH0 PUSH8 0xFFFFFFFFFFFFFFFF DUP3 GT ISZERO PUSH2 0x679 JUMPI PUSH2 0x678 PUSH2 0x3B7 JUMP JUMPDEST JUMPDEST PUSH1 0x20 DUP3 MUL SWAP1 POP PUSH1 0x20 DUP2 ADD SWAP1 POP SWAP2 SWAP1 POP JUMP JUMPDEST PUSH0 PUSH0 REVERT JUMPDEST PUSH0 PUSH8 0xFFFFFFFFFFFFFFFF DUP3 GT ISZERO PUSH2 0x6A8 JUMPI PUSH2 0x6A7 PUSH2 0x3B7 JUMP JUMPDEST JUMPDEST PUSH2 0x6B1 DUP3 PUSH2 0x3A7 JUMP JUMPDEST SWAP1 POP PUSH1 0x20 DUP2 ADD SWAP1 POP SWAP2 SWAP1 POP JUMP JUMPDEST DUP3 DUP2 DUP4 CALLDATACOPY PUSH0 DUP4 DUP4 ADD MSTORE POP POP POP JUMP JUMPDEST PUSH0 PUSH2 0x6DE PUSH2 0x6D9 DUP5 PUSH2 0x68E JUMP JUMPDEST PUSH2 0x415 JUMP JUMPDEST SWAP1 POP DUP3 DUP2 MSTORE PUSH1 0x20 DUP2 ADD DUP5 DUP5 DUP5 ADD GT ISZERO PUSH2 0x6FA JUMPI PUSH2 0x6F9 PUSH2 0x68A JUMP JUMPDEST JUMPDEST PUSH2 0x705 DUP5 DUP3 DUP6 PUSH2 0x6BE JUMP JUMPDEST POP SWAP4 SWAP3 POP POP POP JUMP JUMPDEST PUSH0 DUP3 PUSH1 0x1F DUP4 ADD SLT PUSH2 0x721 JUMPI PUSH2 0x720 PUSH2 0x3A3 JUMP JUMPDEST JUMPDEST DUP2 CALLDATALOAD PUSH2 0x731 DUP5 DUP3 PUSH1 0x20 DUP7 ADD PUSH2 0x6CC JUMP JUMPDEST SWAP2 POP POP SWAP3 SWAP2 POP POP JUMP JUMPDEST PUSH0 PUSH2 0x74C PUSH2 0x747 DUP5 PUSH2 0x65F JUMP JUMPDEST PUSH2 0x415 JUMP JUMPDEST SWAP1 POP DUP1 DUP4 DUP3 MSTORE PUSH1 0x20 DUP3 ADD SWAP1 POP PUSH1 0x20 DUP5 MUL DUP4 ADD DUP6 DUP2 GT ISZERO PUSH2 0x76F JUMPI PUSH2 0x76E PUSH2 0x45A JUMP JUMPDEST JUMPDEST DUP4 JUMPDEST DUP2 DUP2 LT ISZERO PUSH2 0x7B6 JUMPI DUP1 CALLDATALOAD PUSH8 0xFFFFFFFFFFFFFFFF DUP2 GT ISZERO PUSH2 0x794 JUMPI PUSH2 0x793 PUSH2 0x3A3 JUMP JUMPDEST JUMPDEST DUP1 DUP7 ADD PUSH2 0x7A1 DUP10 DUP3 PUSH2 0x70D JUMP JUMPDEST DUP6 MSTORE PUSH1 0x20 DUP6 ADD SWAP5 POP POP POP PUSH1 0x20 DUP2 ADD SWAP1 POP PUSH2 0x771 JUMP JUMPDEST POP POP POP SWAP4 SWAP3 POP POP POP JUMP JUMPDEST PUSH0 DUP3 PUSH1 0x1F DUP4 ADD SLT PUSH2 0x7D4 JUMPI PUSH2 0x7D3 PUSH2 0x3A3 JUMP JUMPDEST JUMPDEST DUP2 CALLDATALOAD PUSH2 0x7E4 DUP5 DUP3 PUSH1 0x20 DUP7 ADD PUSH2 0x73A JUMP JUMPDEST SWAP2 POP POP SWAP3 SWAP2 POP POP JUMP JUMPDEST PUSH0 PUSH1 0x20 DUP3 DUP5 SUB SLT ISZERO PUSH2 0x802 JUMPI PUSH2 0x801 PUSH2 0x39B JUMP JUMPDEST JUMPDEST PUSH0 DUP3 ADD CALLDATALOAD PUSH8 0xFFFFFFFFFFFFFFFF DUP2 GT ISZERO PUSH2 0x81F JUMPI PUSH2 0x81E PUSH2 0x39F JUMP JUMPDEST JUMPDEST PUSH2 0x82B DUP5 DUP3 DUP6 ADD PUSH2 0x7C0 JUMP JUMPDEST SWAP2 POP POP SWAP3 SWAP2 POP POP JUMP JUMPDEST PUSH32 0x4E487B7100000000000000000000000000000000000000000000000000000000 PUSH0 MSTORE PUSH1 0x32 PUSH1 0x4 MSTORE PUSH1 0x24 PUSH0 REVERT JUMPDEST PUSH32 0x4E487B7100000000000000000000000000000000000000000000000000000000 PUSH0 MSTORE PUSH1 0x12 PUSH1 0x4 MSTORE PUSH1 0x24 PUSH0 REVERT JUMPDEST PUSH0 PUSH2 0x898 DUP3 PUSH2 0x526 JUMP JUMPDEST SWAP2 POP PUSH2 0x8A3 DUP4 PUSH2 0x526 JUMP JUMPDEST SWAP3 POP DUP3 PUSH2 0x8B3 JUMPI PUSH2 0x8B2 PUSH2 0x861 JUMP JUMPDEST JUMPDEST DUP3 DUP3 MOD SWAP1 POP SWAP3 SWAP2 POP POP JUMP JUMPDEST PUSH0 DUP2 SWAP1 POP SWAP2 SWAP1 POP JUMP JUMPDEST PUSH2 0x8D8 PUSH2 0x8D3 DUP3 PUSH2 0x45E JUMP JUMPDEST PUSH2 0x8BE JUMP JUMPDEST DUP3 MSTORE POP POP JUMP JUMPDEST PUSH0 PUSH2 0x8E9 DUP3 DUP6 PUSH2 0x8C7 JUMP JUMPDEST PUSH1 0x20 DUP3 ADD SWAP2 POP PUSH2 0x8F9 DUP3 DUP5 PUSH2 0x8C7 JUMP JUMPDEST PUSH1 0x20 DUP3 ADD SWAP2 POP DUP2 SWAP1 POP SWAP4 SWAP3 POP POP POP JUMP JUMPDEST PUSH32 0x4E487B7100000000000000000000000000000000000000000000000000000000 PUSH0 MSTORE PUSH1 0x11 PUSH1 0x4 MSTORE PUSH1 0x24 PUSH0 REVERT JUMPDEST PUSH0 PUSH2 0x940 DUP3 PUSH2 0x526 JUMP JUMPDEST SWAP2 POP PUSH2 0x94B DUP4 PUSH2 0x526 JUMP JUMPDEST SWAP3 POP DUP3 PUSH2 0x95B JUMPI PUSH2 0x95A PUSH2 0x861 JUMP JUMPDEST JUMPDEST DUP3 DUP3 DIV SWAP1 POP SWAP3 SWAP2 POP POP JUMP JUMPDEST PUSH0 PUSH2 0x970 DUP3 PUSH2 0x526 JUMP JUMPDEST SWAP2 POP PUSH2 0x97B DUP4 PUSH2 0x526 JUMP JUMPDEST SWAP3 POP DUP3 DUP3 SUB SWAP1 POP DUP2 DUP2 GT ISZERO PUSH2 0x993 JUMPI PUSH2 0x992 PUSH2 0x909 JUMP JUMPDEST JUMPDEST SWAP3 SWAP2 POP POP JUMP JUMPDEST PUSH0 DUP2 MLOAD SWAP1 POP SWAP2 SWAP1 POP JUMP JUMPDEST PUSH0 DUP2 SWAP1 POP SWAP3 SWAP2 POP POP JUMP JUMPDEST DUP3 DUP2 DUP4 MCOPY PUSH0 DUP4 DUP4 ADD MSTORE POP POP POP JUMP JUMPDEST PUSH0 PUSH2 0x9C5 DUP3 PUSH2 0x999 JUMP JUMPDEST PUSH2 0x9CF DUP2 DUP6 PUSH2 0x9A3 JUMP JUMPDEST SWAP4 POP PUSH2 0x9DF DUP2 DUP6 PUSH1 0x20 DUP7 ADD PUSH2 0x9AD JUMP JUMPDEST DUP1 DUP5 ADD SWAP2 POP POP SWAP3 SWAP2 POP POP JUMP JUMPDEST PUSH0 PUSH2 0x9F6 DUP3 DUP5 PUSH2 0x9BB JUMP JUMPDEST SWAP2 POP DUP2 SWAP1 POP SWAP3 SWAP2 POP POP JUMP JUMPDEST PUSH0 PUSH2 0xA0B DUP3 PUSH2 0x526 JUMP JUMPDEST SWAP2 POP PUSH2 0xA16 DUP4 PUSH2 0x526 JUMP JUMPDEST SWAP3 POP DUP3 DUP3 ADD SWAP1 POP DUP1 DUP3 GT ISZERO PUSH2 0xA2E JUMPI PUSH2 0xA2D PUSH2 0x909 JUMP JUMPDEST JUMPDEST SWAP3 SWAP2 POP POP JUMP INVALID LOG2 PUSH5 0x6970667358 0x22 SLT KECCAK256 0xC3 LOG2 ADDMOD SWAP12 DUP14 CALL PUSH6 0xF11D97DD029D 0x29 PUSH23 0x7372EBC6E8DD860F253D955F0B23E3EBDD64736F6C6343 STOP ADDMOD SHR STOP CALLER "
				},
				"gasEstimates": {
					"creation": {
						"codeDepositCost": "533200",
						"executionCost": "566",
						"totalCost": "533766"
					},
					"external": {
						"generateMerkleTree(string[])": "infinite",
						"getRoot()": "infinite",
						"hashes(uint256)": "4870",
						"verify(bytes32[],bytes32,bytes32,uint256)": "infinite"
					}
				},
				"methodIdentifiers": {
					"generateMerkleTree(string[])": "f609fdc3",
					"getRoot()": "5ca1e165",
					"hashes(uint256)": "501895ae",
					"verify(bytes32[],bytes32,bytes32,uint256)": "21fb335c"
				}
			},
			"storageLayout": {
				"storage": [
					{
						"astId": 4,
						"contract": "MerkleProof.sol:MerkleProof",
						"label": "hashes",
						"offset": 0,
						"slot": "0",
						"type": "t_array(t_bytes32)dyn_storage"
					}
				],
				"types": {
					"t_array(t_bytes32)dyn_storage": {
						"base": "t_bytes32",
						"encoding": "dynamic_array",
						"label": "bytes32[]",
						"numberOfBytes": "32"
					},
					"t_bytes32": {
						"encoding": "inplace",
						"label": "bytes32",
						"numberOfBytes": "32"
					}
				}
			},
			"userdoc": {
				"kind": "user",
				"methods": {},
				"version": 1
			}
		}
	}
}