{
	"MyContract.sol": {
		"MyContract": {
			"abi": [
				{
					"inputs": [
						{
							"internalType": "int8",
							"name": "a",
							"type": "int8"
						},
						{
							"internalType": "int8",
							"name": "b",
							"type": "int8"
						}
					],
					"name": "add",
					"outputs": [
						{
							"internalType": "int256",
							"name": "",
							"type": "int256"
						}
					],
					"stateMutability": "pure",
					"type": "function"
				}
			],
			"devdoc": {
				"kind": "dev",
				"methods": {},
				"version": 1
			},
			"evm": {
				"assembly": "    /* \"MyContract.sol\":68:187  contract MyContract {\r... */\n  mstore(0x40, 0x80)\n  callvalue\n  dup1\n  iszero\n  tag_1\n  jumpi\n  0x00\n  dup1\n  revert\ntag_1:\n  pop\n  dataSize(sub_0)\n  dup1\n  dataOffset(sub_0)\n  0x00\n  codecopy\n  0x00\n  return\nstop\n\nsub_0: assembly {\n        /* \"MyContract.sol\":68:187  contract MyContract {\r... */\n      mstore(0x40, 0x80)\n      callvalue\n      dup1\n      iszero\n      tag_1\n      jumpi\n      0x00\n      dup1\n      revert\n    tag_1:\n      pop\n      jumpi(tag_2, lt(calldatasize, 0x04))\n      shr(0xe0, calldataload(0x00))\n      dup1\n      0xe2666777\n      eq\n      tag_3\n      jumpi\n    tag_2:\n      0x00\n      dup1\n      revert\n        /* \"MyContract.sol\":95:184  function add(int8 a, int8 b) public pure returns (int256) {\r... */\n    tag_3:\n      tag_4\n      0x04\n      dup1\n      calldatasize\n      sub\n      0x40\n      dup2\n      lt\n      iszero\n      tag_5\n      jumpi\n      0x00\n      dup1\n      revert\n    tag_5:\n      dup2\n      add\n      swap1\n      dup1\n      dup1\n      calldataload\n      0x00\n      signextend\n      swap1\n      0x20\n      add\n      swap1\n      swap3\n      swap2\n      swap1\n      dup1\n      calldataload\n      0x00\n      signextend\n      swap1\n      0x20\n      add\n      swap1\n      swap3\n      swap2\n      swap1\n      pop\n      pop\n      pop\n      tag_6\n      jump\t// in\n    tag_4:\n      mload(0x40)\n      dup1\n      dup3\n      dup2\n      mstore\n      0x20\n      add\n      swap2\n      pop\n      pop\n      mload(0x40)\n      dup1\n      swap2\n      sub\n      swap1\n      return\n    tag_6:\n        /* \"MyContract.sol\":145:151  int256 */\n      0x00\n        /* \"MyContract.sol\":175:176  b */\n      dup2\n        /* \"MyContract.sol\":171:172  a */\n      dup4\n        /* \"MyContract.sol\":171:176  a + b */\n      add\n        /* \"MyContract.sol\":164:176  return a + b */\n      0x00\n      signextend\n      swap1\n      pop\n        /* \"MyContract.sol\":95:184  function add(int8 a, int8 b) public pure returns (int256) {\r... */\n      swap3\n      swap2\n      pop\n      pop\n      jump\t// out\n\n    auxdata: 0xa2646970667358221220d61ef536f18a377aeef8674abaa491c8a2fd1afb1e2ed215d70f7db06582f8e464736f6c634300060c0033\n}\n",
				"bytecode": {
					"linkReferences": {},
					"object": "608060405234801561001057600080fd5b5060c28061001f6000396000f3fe6080604052348015600f57600080fd5b506004361060285760003560e01c8063e266677714602d575b600080fd5b606660048036036040811015604157600080fd5b81019080803560000b9060200190929190803560000b9060200190929190505050607c565b6040518082815260200191505060405180910390f35b600081830160000b90509291505056fea2646970667358221220d61ef536f18a377aeef8674abaa491c8a2fd1afb1e2ed215d70f7db06582f8e464736f6c634300060c0033",
					"opcodes": "PUSH1 0x80 PUSH1 0x40 MSTORE CALLVALUE DUP1 ISZERO PUSH2 0x10 JUMPI PUSH1 0x0 DUP1 REVERT JUMPDEST POP PUSH1 0xC2 DUP1 PUSH2 0x1F PUSH1 0x0 CODECOPY PUSH1 0x0 RETURN INVALID PUSH1 0x80 PUSH1 0x40 MSTORE CALLVALUE DUP1 ISZERO PUSH1 0xF JUMPI PUSH1 0x0 DUP1 REVERT JUMPDEST POP PUSH1 0x4 CALLDATASIZE LT PUSH1 0x28 JUMPI PUSH1 0x0 CALLDATALOAD PUSH1 0xE0 SHR DUP1 PUSH4 0xE2666777 EQ PUSH1 0x2D JUMPI JUMPDEST PUSH1 0x0 DUP1 REVERT JUMPDEST PUSH1 0x66 PUSH1 0x4 DUP1 CALLDATASIZE SUB PUSH1 0x40 DUP2 LT ISZERO PUSH1 0x41 JUMPI PUSH1 0x0 DUP1 REVERT JUMPDEST DUP2 ADD SWAP1 DUP1 DUP1 CALLDATALOAD PUSH1 0x0 SIGNEXTEND SWAP1 PUSH1 0x20 ADD SWAP1 SWAP3 SWAP2 SWAP1 DUP1 CALLDATALOAD PUSH1 0x0 SIGNEXTEND SWAP1 PUSH1 0x20 ADD SWAP1 SWAP3 SWAP2 SWAP1 POP POP POP PUSH1 0x7C JUMP JUMPDEST PUSH1 0x40 MLOAD DUP1 DUP3 DUP2 MSTORE PUSH1 0x20 ADD SWAP2 POP POP PUSH1 0x40 MLOAD DUP1 SWAP2 SUB SWAP1 RETURN JUMPDEST PUSH1 0x0 DUP2 DUP4 ADD PUSH1 0x0 SIGNEXTEND SWAP1 POP SWAP3 SWAP2 POP POP JUMP INVALID LOG2 PUSH5 0x6970667358 0x22 SLT KECCAK256 0xD6 0x1E CREATE2 CALLDATASIZE CALL DUP11 CALLDATACOPY PUSH27 0xEEF8674ABAA491C8A2FD1AFB1E2ED215D70F7DB06582F8E464736F PUSH13 0x634300060C0033000000000000 "
				},
				"gasEstimates": {
					"creation": {
						"codeDepositCost": "38800",
						"executionCost": "93",
						"totalCost": "38893"
					},
					"external": {
						"add(int8,int8)": "337"
					}
				},
				"methodIdentifiers": {
					"add(int8,int8)": "e2666777"
				}
			},
			"storageLayout": {
				"storage": [],
				"types": null
			},
			"userdoc": {
				"kind": "user",
				"methods": {},
				"version": 1
			}
		}
	}
}