{
	"data": {
		"bytecode": {
			"linkReferences": {},
			"object": "6080604052348015600e575f5ffd5b5061021f8061001c5f395ff3fe608060405234801561000f575f5ffd5b5060043610610034575f3560e01c80639260943314610038578063a078e2a614610056575b5f5ffd5b610040610086565b60405161004d91906100d4565b60405180910390f35b610070600480360381019061006b919061011b565b6100a7565b60405161007d91906100d4565b60405180910390f35b5f790100000000000000000000000000000000000000000000000000905090565b5f6002826100b59190610173565b9050919050565b5f819050919050565b6100ce816100bc565b82525050565b5f6020820190506100e75f8301846100c5565b92915050565b5f5ffd5b6100fa816100bc565b8114610104575f5ffd5b50565b5f81359050610115816100f1565b92915050565b5f602082840312156101305761012f6100ed565b5b5f61013d84828501610107565b91505092915050565b7f4e487b71000000000000000000000000000000000000000000000000000000005f52601160045260245ffd5b5f61017d826100bc565b9150610188836100bc565b9250828202610196816100bc565b91507f800000000000000000000000000000000000000000000000000000000000000084145f841216156101cd576101cc610146565b5b82820584148315176101e2576101e1610146565b5b509291505056fea2646970667358221220505b660084c767b9ea24855a9e37ff6b184c3839d48bce4515aa2bd4ec68839d64736f6c634300081c0033",
			"opcodes": "PUSH1 0x80 PUSH1 0x40 MSTORE CALLVALUE DUP1 ISZERO PUSH1 0xE JUMPI PUSH0 PUSH0 REVERT JUMPDEST POP PUSH2 0x21F DUP1 PUSH2 0x1C PUSH0 CODECOPY PUSH0 RETURN INVALID PUSH1 0x80 PUSH1 0x40 MSTORE CALLVALUE DUP1 ISZERO PUSH2 0xF JUMPI PUSH0 PUSH0 REVERT JUMPDEST POP PUSH1 0x4 CALLDATASIZE LT PUSH2 0x34 JUMPI PUSH0 CALLDATALOAD PUSH1 0xE0 SHR DUP1 PUSH4 0x92609433 EQ PUSH2 0x38 JUMPI DUP1 PUSH4 0xA078E2A6 EQ PUSH2 0x56 JUMPI JUMPDEST PUSH0 PUSH0 REVERT JUMPDEST PUSH2 0x40 PUSH2 0x86 JUMP JUMPDEST PUSH1 0x40 MLOAD PUSH2 0x4D SWAP2 SWAP1 PUSH2 0xD4 JUMP JUMPDEST PUSH1 0x40 MLOAD DUP1 SWAP2 SUB SWAP1 RETURN JUMPDEST PUSH2 0x70 PUSH1 0x4 DUP1 CALLDATASIZE SUB DUP2 ADD SWAP1 PUSH2 0x6B SWAP2 SWAP1 PUSH2 0x11B JUMP JUMPDEST PUSH2 0xA7 JUMP JUMPDEST PUSH1 0x40 MLOAD PUSH2 0x7D SWAP2 SWAP1 PUSH2 0xD4 JUMP JUMPDEST PUSH1 0x40 MLOAD DUP1 SWAP2 SUB SWAP1 RETURN JUMPDEST PUSH0 PUSH26 0x100000000000000000000000000000000000000000000000000 SWAP1 POP SWAP1 JUMP JUMPDEST PUSH0 PUSH1 0x2 DUP3 PUSH2 0xB5 SWAP2 SWAP1 PUSH2 0x173 JUMP JUMPDEST SWAP1 POP SWAP2 SWAP1 POP JUMP JUMPDEST PUSH0 DUP2 SWAP1 POP SWAP2 SWAP1 POP JUMP JUMPDEST PUSH2 0xCE DUP2 PUSH2 0xBC JUMP JUMPDEST DUP3 MSTORE POP POP JUMP JUMPDEST PUSH0 PUSH1 0x20 DUP3 ADD SWAP1 POP PUSH2 0xE7 PUSH0 DUP4 ADD DUP5 PUSH2 0xC5 JUMP JUMPDEST SWAP3 SWAP2 POP POP JUMP JUMPDEST PUSH0 PUSH0 REVERT JUMPDEST PUSH2 0xFA DUP2 PUSH2 0xBC JUMP JUMPDEST DUP2 EQ PUSH2 0x104 JUMPI PUSH0 PUSH0 REVERT JUMPDEST POP JUMP JUMPDEST PUSH0 DUP2 CALLDATALOAD SWAP1 POP PUSH2 0x115 DUP2 PUSH2 0xF1 JUMP JUMPDEST SWAP3 SWAP2 POP POP JUMP JUMPDEST PUSH0 PUSH1 0x20 DUP3 DUP5 SUB SLT ISZERO PUSH2 0x130 JUMPI PUSH2 0x12F PUSH2 0xED JUMP JUMPDEST JUMPDEST PUSH0 PUSH2 0x13D DUP5 DUP3 DUP6 ADD PUSH2 0x107 JUMP JUMPDEST SWAP2 POP POP SWAP3 SWAP2 POP POP JUMP JUMPDEST PUSH32 0x4E487B7100000000000000000000000000000000000000000000000000000000 PUSH0 MSTORE PUSH1 0x11 PUSH1 0x4 MSTORE PUSH1 0x24 PUSH0 REVERT JUMPDEST PUSH0 PUSH2 0x17D DUP3 PUSH2 0xBC JUMP JUMPDEST SWAP2 POP PUSH2 0x188 DUP4 PUSH2 0xBC JUMP JUMPDEST SWAP3 POP DUP3 DUP3 MUL PUSH2 0x196 DUP2 PUSH2 0xBC JUMP JUMPDEST SWAP2 POP PUSH32 0x8000000000000000000000000000000000000000000000000000000000000000 DUP5 EQ PUSH0 DUP5 SLT AND ISZERO PUSH2 0x1CD JUMPI PUSH2 0x1CC PUSH2 0x146 JUMP JUMPDEST JUMPDEST DUP3 DUP3 SDIV DUP5 EQ DUP4 ISZERO OR PUSH2 0x1E2 JUMPI PUSH2 0x1E1 PUSH2 0x146 JUMP JUMPDEST JUMPDEST POP SWAP3 SWAP2 POP POP JUMP INVALID LOG2 PUSH5 0x6970667358 0x22 SLT KECCAK256 POP JUMPDEST PUSH7 0x84C767B9EA24 DUP6 GAS SWAP15 CALLDATACOPY SELFDESTRUCT PUSH12 0x184C3839D48BCE4515AA2BD4 0xEC PUSH9 0x839D64736F6C634300 ADDMOD SHR STOP CALLER "
		},
		"gasEstimates": {
			"creation": {
				"codeDepositCost": "108600",
				"executionCost": "151",
				"totalCost": "108751"
			},
			"external": {
				"get_big_value()": "310",
				"test_overflow(int256)": "infinite"
			}
		},
		"methodIdentifiers": {
			"get_big_value()": "92609433",
			"test_overflow(int256)": "a078e2a6"
		}
	},
	"abi": [
		{
			"inputs": [],
			"name": "get_big_value",
			"outputs": [
				{
					"internalType": "int256",
					"name": "",
					"type": "int256"
				}
			],
			"stateMutability": "pure",
			"type": "function"
		},
		{
			"inputs": [
				{
					"internalType": "int256",
					"name": "a",
					"type": "int256"
				}
			],
			"name": "test_overflow",
			"outputs": [
				{
					"internalType": "int256",
					"name": "",
					"type": "int256"
				}
			],
			"stateMutability": "pure",
			"type": "function"
		}
	]
}