{
	"contract/week15/AccessGame.sol": {
		"AccessGame": {
			"abi": [
				{
					"inputs": [],
					"stateMutability": "nonpayable",
					"type": "constructor"
				},
				{
					"anonymous": false,
					"inputs": [
						{
							"indexed": false,
							"internalType": "address",
							"name": "_who",
							"type": "address"
						},
						{
							"indexed": false,
							"internalType": "uint256",
							"name": "bouns",
							"type": "uint256"
						}
					],
					"name": "SendBouns",
					"type": "event"
				},
				{
					"inputs": [
						{
							"internalType": "address",
							"name": "lucky",
							"type": "address"
						},
						{
							"internalType": "uint256",
							"name": "bouns",
							"type": "uint256"
						}
					],
					"name": "BounsSend",
					"outputs": [
						{
							"internalType": "uint256",
							"name": "",
							"type": "uint256"
						}
					],
					"stateMutability": "nonpayable",
					"type": "function"
				},
				{
					"inputs": [
						{
							"internalType": "address",
							"name": "",
							"type": "address"
						}
					],
					"name": "balances",
					"outputs": [
						{
							"internalType": "uint256",
							"name": "",
							"type": "uint256"
						}
					],
					"stateMutability": "view",
					"type": "function"
				},
				{
					"inputs": [],
					"name": "owner",
					"outputs": [
						{
							"internalType": "address",
							"name": "",
							"type": "address"
						}
					],
					"stateMutability": "view",
					"type": "function"
				}
			],
			"devdoc": {
				"kind": "dev",
				"methods": {},
				"version": 1
			},
			"evm": {
				"assembly": "    /* \"contract/week15/AccessGame.sol\":60:905  contract AccessGame {... */\n  mstore(0x40, 0x80)\n    /* \"contract/week15/AccessGame.sol\":108:109  0 */\n  0x00\n    /* \"contract/week15/AccessGame.sol\":89:109  uint totalSupply = 0 */\n  dup1\n  sstore\n    /* \"contract/week15/AccessGame.sol\":342:396  constructor() {... */\n  callvalue\n  dup1\n  iszero\n  tag_1\n  jumpi\n  0x00\n  dup1\n  revert\ntag_1:\n  pop\n    /* \"contract/week15/AccessGame.sol\":367:388  initOwner(msg.sender) */\n  tag_4\n    /* \"contract/week15/AccessGame.sol\":377:387  msg.sender */\n  caller\n    /* \"contract/week15/AccessGame.sol\":367:376  initOwner */\n  shl(0x20, tag_5)\n    /* \"contract/week15/AccessGame.sol\":367:388  initOwner(msg.sender) */\n  0x20\n  shr\n  jump\t// in\ntag_4:\n    /* \"contract/week15/AccessGame.sol\":60:905  contract AccessGame {... */\n  jump(tag_6)\n    /* \"contract/week15/AccessGame.sol\":515:592  function initOwner(address _owner) internal {... */\ntag_5:\n    /* \"contract/week15/AccessGame.sol\":578:584  _owner */\n  dup1\n    /* \"contract/week15/AccessGame.sol\":570:575  owner */\n  0x01\n  0x00\n    /* \"contract/week15/AccessGame.sol\":570:584  owner = _owner */\n  0x0100\n  exp\n  dup2\n  sload\n  dup2\n  0xffffffffffffffffffffffffffffffffffffffff\n  mul\n  not\n  and\n  swap1\n  dup4\n  0xffffffffffffffffffffffffffffffffffffffff\n  and\n  mul\n  or\n  swap1\n  sstore\n  pop\n    /* \"contract/week15/AccessGame.sol\":515:592  function initOwner(address _owner) internal {... */\n  pop\n  jump\t// out\n    /* \"contract/week15/AccessGame.sol\":60:905  contract AccessGame {... */\ntag_6:\n  dataSize(sub_0)\n  dup1\n  dataOffset(sub_0)\n  0x00\n  codecopy\n  0x00\n  return\nstop\n\nsub_0: assembly {\n        /* \"contract/week15/AccessGame.sol\":60:905  contract AccessGame {... */\n      mstore(0x40, 0x80)\n      callvalue\n      dup1\n      iszero\n      tag_1\n      jumpi\n      0x00\n      dup1\n      revert\n    tag_1:\n      pop\n      jumpi(tag_2, lt(calldatasize, 0x04))\n      shr(0xe0, calldataload(0x00))\n      dup1\n      0x27e235e3\n      eq\n      tag_3\n      jumpi\n      dup1\n      0x8da5cb5b\n      eq\n      tag_4\n      jumpi\n      dup1\n      0xfa588c8e\n      eq\n      tag_5\n      jumpi\n    tag_2:\n      0x00\n      dup1\n      revert\n        /* \"contract/week15/AccessGame.sol\":143:187  mapping (address => uint256) public balances */\n    tag_3:\n      tag_6\n      0x04\n      dup1\n      calldatasize\n      sub\n      dup2\n      add\n      swap1\n      tag_7\n      swap2\n      swap1\n      tag_8\n      jump\t// in\n    tag_7:\n      tag_9\n      jump\t// in\n    tag_6:\n      mload(0x40)\n      tag_10\n      swap2\n      swap1\n      tag_11\n      jump\t// in\n    tag_10:\n      mload(0x40)\n      dup1\n      swap2\n      sub\n      swap1\n      return\n        /* \"contract/week15/AccessGame.sol\":116:136  address public owner */\n    tag_4:\n      tag_12\n      tag_13\n      jump\t// in\n    tag_12:\n      mload(0x40)\n      tag_14\n      swap2\n      swap1\n      tag_15\n      jump\t// in\n    tag_14:\n      mload(0x40)\n      dup1\n      swap2\n      sub\n      swap1\n      return\n        /* \"contract/week15/AccessGame.sol\":600:896  function BounsSend(address lucky, uint bouns) public onlyOwner returns(uint) {... */\n    tag_5:\n      tag_16\n      0x04\n      dup1\n      calldatasize\n      sub\n      dup2\n      add\n      swap1\n      tag_17\n      swap2\n      swap1\n      tag_18\n      jump\t// in\n    tag_17:\n      tag_19\n      jump\t// in\n    tag_16:\n      mload(0x40)\n      tag_20\n      swap2\n      swap1\n      tag_11\n      jump\t// in\n    tag_20:\n      mload(0x40)\n      dup1\n      swap2\n      sub\n      swap1\n      return\n        /* \"contract/week15/AccessGame.sol\":143:187  mapping (address => uint256) public balances */\n    tag_9:\n      mstore(0x20, 0x02)\n      dup1\n      0x00\n      mstore\n      keccak256(0x00, 0x40)\n      0x00\n      swap2\n      pop\n      swap1\n      pop\n      sload\n      dup2\n      jump\t// out\n        /* \"contract/week15/AccessGame.sol\":116:136  address public owner */\n    tag_13:\n      0x01\n      0x00\n      swap1\n      sload\n      swap1\n      0x0100\n      exp\n      swap1\n      div\n      0xffffffffffffffffffffffffffffffffffffffff\n      and\n      dup2\n      jump\t// out\n        /* \"contract/week15/AccessGame.sol\":600:896  function BounsSend(address lucky, uint bouns) public onlyOwner returns(uint) {... */\n    tag_19:\n        /* \"contract/week15/AccessGame.sol\":671:675  uint */\n      0x00\n        /* \"contract/week15/AccessGame.sol\":290:295  owner */\n      0x01\n      0x00\n      swap1\n      sload\n      swap1\n      0x0100\n      exp\n      swap1\n      div\n      0xffffffffffffffffffffffffffffffffffffffff\n      and\n        /* \"contract/week15/AccessGame.sol\":276:295  msg.sender != owner */\n      0xffffffffffffffffffffffffffffffffffffffff\n      and\n        /* \"contract/week15/AccessGame.sol\":276:286  msg.sender */\n      caller\n        /* \"contract/week15/AccessGame.sol\":276:295  msg.sender != owner */\n      0xffffffffffffffffffffffffffffffffffffffff\n      and\n      eq\n        /* \"contract/week15/AccessGame.sol\":273:314  if(msg.sender != owner)... */\n      tag_22\n      jumpi\n        /* \"contract/week15/AccessGame.sol\":306:314  revert() */\n      0x00\n      dup1\n      revert\n        /* \"contract/week15/AccessGame.sol\":273:314  if(msg.sender != owner)... */\n    tag_22:\n        /* \"contract/week15/AccessGame.sol\":714:718  1000 */\n      0x03e8\n        /* \"contract/week15/AccessGame.sol\":696:704  balances */\n      0x02\n        /* \"contract/week15/AccessGame.sol\":696:711  balances[lucky] */\n      0x00\n        /* \"contract/week15/AccessGame.sol\":705:710  lucky */\n      dup6\n        /* \"contract/week15/AccessGame.sol\":696:711  balances[lucky] */\n      0xffffffffffffffffffffffffffffffffffffffff\n      and\n      0xffffffffffffffffffffffffffffffffffffffff\n      and\n      dup2\n      mstore\n      0x20\n      add\n      swap1\n      dup2\n      mstore\n      0x20\n      add\n      0x00\n      keccak256\n      sload\n        /* \"contract/week15/AccessGame.sol\":696:718  balances[lucky] < 1000 */\n      lt\n        /* \"contract/week15/AccessGame.sol\":688:719  require(balances[lucky] < 1000) */\n      tag_24\n      jumpi\n      0x00\n      dup1\n      revert\n    tag_24:\n        /* \"contract/week15/AccessGame.sol\":746:749  200 */\n      0xc8\n        /* \"contract/week15/AccessGame.sol\":738:743  bouns */\n      dup3\n        /* \"contract/week15/AccessGame.sol\":738:749  bouns < 200 */\n      lt\n        /* \"contract/week15/AccessGame.sol\":730:750  require(bouns < 200) */\n      tag_25\n      jumpi\n      0x00\n      dup1\n      revert\n    tag_25:\n        /* \"contract/week15/AccessGame.sol\":780:785  bouns */\n      dup2\n        /* \"contract/week15/AccessGame.sol\":761:769  balances */\n      0x02\n        /* \"contract/week15/AccessGame.sol\":761:776  balances[lucky] */\n      0x00\n        /* \"contract/week15/AccessGame.sol\":770:775  lucky */\n      dup6\n        /* \"contract/week15/AccessGame.sol\":761:776  balances[lucky] */\n      0xffffffffffffffffffffffffffffffffffffffff\n      and\n      0xffffffffffffffffffffffffffffffffffffffff\n      and\n      dup2\n      mstore\n      0x20\n      add\n      swap1\n      dup2\n      mstore\n      0x20\n      add\n      0x00\n      keccak256\n      0x00\n        /* \"contract/week15/AccessGame.sol\":761:785  balances[lucky] += bouns */\n      dup3\n      dup3\n      sload\n      tag_26\n      swap2\n      swap1\n      tag_27\n      jump\t// in\n    tag_26:\n      swap3\n      pop\n      pop\n      dup2\n      swap1\n      sstore\n      pop\n        /* \"contract/week15/AccessGame.sol\":811:816  bouns */\n      dup2\n        /* \"contract/week15/AccessGame.sol\":796:807  totalSupply */\n      0x00\n      dup1\n        /* \"contract/week15/AccessGame.sol\":796:816  totalSupply += bouns */\n      dup3\n      dup3\n      sload\n      tag_28\n      swap2\n      swap1\n      tag_27\n      jump\t// in\n    tag_28:\n      swap3\n      pop\n      pop\n      dup2\n      swap1\n      sstore\n      pop\n        /* \"contract/week15/AccessGame.sol\":832:855  SendBouns(lucky, bouns) */\n      0xaffa997c8174060fa272c161ef8607bf4ecdcc9f69ba6d2d2a203022a33bf8ad\n        /* \"contract/week15/AccessGame.sol\":842:847  lucky */\n      dup4\n        /* \"contract/week15/AccessGame.sol\":849:854  bouns */\n      dup4\n        /* \"contract/week15/AccessGame.sol\":832:855  SendBouns(lucky, bouns) */\n      mload(0x40)\n      tag_29\n      swap3\n      swap2\n      swap1\n      tag_30\n      jump\t// in\n    tag_29:\n      mload(0x40)\n      dup1\n      swap2\n      sub\n      swap1\n      log1\n        /* \"contract/week15/AccessGame.sol\":873:881  balances */\n      0x02\n        /* \"contract/week15/AccessGame.sol\":873:888  balances[lucky] */\n      0x00\n        /* \"contract/week15/AccessGame.sol\":882:887  lucky */\n      dup5\n        /* \"contract/week15/AccessGame.sol\":873:888  balances[lucky] */\n      0xffffffffffffffffffffffffffffffffffffffff\n      and\n      0xffffffffffffffffffffffffffffffffffffffff\n      and\n      dup2\n      mstore\n      0x20\n      add\n      swap1\n      dup2\n      mstore\n      0x20\n      add\n      0x00\n      keccak256\n      sload\n        /* \"contract/week15/AccessGame.sol\":866:888  return balances[lucky] */\n      swap1\n      pop\n        /* \"contract/week15/AccessGame.sol\":600:896  function BounsSend(address lucky, uint bouns) public onlyOwner returns(uint) {... */\n      swap3\n      swap2\n      pop\n      pop\n      jump\t// out\n        /* \"#utility.yul\":88:205   */\n    tag_32:\n        /* \"#utility.yul\":197:198   */\n      0x00\n        /* \"#utility.yul\":194:195   */\n      dup1\n        /* \"#utility.yul\":187:199   */\n      revert\n        /* \"#utility.yul\":334:460   */\n    tag_34:\n        /* \"#utility.yul\":371:378   */\n      0x00\n        /* \"#utility.yul\":411:453   */\n      0xffffffffffffffffffffffffffffffffffffffff\n        /* \"#utility.yul\":404:409   */\n      dup3\n        /* \"#utility.yul\":400:454   */\n      and\n        /* \"#utility.yul\":389:454   */\n      swap1\n      pop\n        /* \"#utility.yul\":334:460   */\n      swap2\n      swap1\n      pop\n      jump\t// out\n        /* \"#utility.yul\":466:562   */\n    tag_35:\n        /* \"#utility.yul\":503:510   */\n      0x00\n        /* \"#utility.yul\":532:556   */\n      tag_50\n        /* \"#utility.yul\":550:555   */\n      dup3\n        /* \"#utility.yul\":532:556   */\n      tag_34\n      jump\t// in\n    tag_50:\n        /* \"#utility.yul\":521:556   */\n      swap1\n      pop\n        /* \"#utility.yul\":466:562   */\n      swap2\n      swap1\n      pop\n      jump\t// out\n        /* \"#utility.yul\":568:690   */\n    tag_36:\n        /* \"#utility.yul\":641:665   */\n      tag_52\n        /* \"#utility.yul\":659:664   */\n      dup2\n        /* \"#utility.yul\":641:665   */\n      tag_35\n      jump\t// in\n    tag_52:\n        /* \"#utility.yul\":634:639   */\n      dup2\n        /* \"#utility.yul\":631:666   */\n      eq\n        /* \"#utility.yul\":621:684   */\n      tag_53\n      jumpi\n        /* \"#utility.yul\":680:681   */\n      0x00\n        /* \"#utility.yul\":677:678   */\n      dup1\n        /* \"#utility.yul\":670:682   */\n      revert\n        /* \"#utility.yul\":621:684   */\n    tag_53:\n        /* \"#utility.yul\":568:690   */\n      pop\n      jump\t// out\n        /* \"#utility.yul\":696:835   */\n    tag_37:\n        /* \"#utility.yul\":742:747   */\n      0x00\n        /* \"#utility.yul\":780:786   */\n      dup2\n        /* \"#utility.yul\":767:787   */\n      calldataload\n        /* \"#utility.yul\":758:787   */\n      swap1\n      pop\n        /* \"#utility.yul\":796:829   */\n      tag_55\n        /* \"#utility.yul\":823:828   */\n      dup2\n        /* \"#utility.yul\":796:829   */\n      tag_36\n      jump\t// in\n    tag_55:\n        /* \"#utility.yul\":696:835   */\n      swap3\n      swap2\n      pop\n      pop\n      jump\t// out\n        /* \"#utility.yul\":841:1170   */\n    tag_8:\n        /* \"#utility.yul\":900:906   */\n      0x00\n        /* \"#utility.yul\":949:951   */\n      0x20\n        /* \"#utility.yul\":937:946   */\n      dup3\n        /* \"#utility.yul\":928:935   */\n      dup5\n        /* \"#utility.yul\":924:947   */\n      sub\n        /* \"#utility.yul\":920:952   */\n      slt\n        /* \"#utility.yul\":917:1036   */\n      iszero\n      tag_57\n      jumpi\n        /* \"#utility.yul\":955:1034   */\n      tag_58\n      tag_32\n      jump\t// in\n    tag_58:\n        /* \"#utility.yul\":917:1036   */\n    tag_57:\n        /* \"#utility.yul\":1075:1076   */\n      0x00\n        /* \"#utility.yul\":1100:1153   */\n      tag_59\n        /* \"#utility.yul\":1145:1152   */\n      dup5\n        /* \"#utility.yul\":1136:1142   */\n      dup3\n        /* \"#utility.yul\":1125:1134   */\n      dup6\n        /* \"#utility.yul\":1121:1143   */\n      add\n        /* \"#utility.yul\":1100:1153   */\n      tag_37\n      jump\t// in\n    tag_59:\n        /* \"#utility.yul\":1090:1153   */\n      swap2\n      pop\n        /* \"#utility.yul\":1046:1163   */\n      pop\n        /* \"#utility.yul\":841:1170   */\n      swap3\n      swap2\n      pop\n      pop\n      jump\t// out\n        /* \"#utility.yul\":1176:1253   */\n    tag_38:\n        /* \"#utility.yul\":1213:1220   */\n      0x00\n        /* \"#utility.yul\":1242:1247   */\n      dup2\n        /* \"#utility.yul\":1231:1247   */\n      swap1\n      pop\n        /* \"#utility.yul\":1176:1253   */\n      swap2\n      swap1\n      pop\n      jump\t// out\n        /* \"#utility.yul\":1259:1377   */\n    tag_39:\n        /* \"#utility.yul\":1346:1370   */\n      tag_62\n        /* \"#utility.yul\":1364:1369   */\n      dup2\n        /* \"#utility.yul\":1346:1370   */\n      tag_38\n      jump\t// in\n    tag_62:\n        /* \"#utility.yul\":1341:1344   */\n      dup3\n        /* \"#utility.yul\":1334:1371   */\n      mstore\n        /* \"#utility.yul\":1259:1377   */\n      pop\n      pop\n      jump\t// out\n        /* \"#utility.yul\":1383:1605   */\n    tag_11:\n        /* \"#utility.yul\":1476:1480   */\n      0x00\n        /* \"#utility.yul\":1514:1516   */\n      0x20\n        /* \"#utility.yul\":1503:1512   */\n      dup3\n        /* \"#utility.yul\":1499:1517   */\n      add\n        /* \"#utility.yul\":1491:1517   */\n      swap1\n      pop\n        /* \"#utility.yul\":1527:1598   */\n      tag_64\n        /* \"#utility.yul\":1595:1596   */\n      0x00\n        /* \"#utility.yul\":1584:1593   */\n      dup4\n        /* \"#utility.yul\":1580:1597   */\n      add\n        /* \"#utility.yul\":1571:1577   */\n      dup5\n        /* \"#utility.yul\":1527:1598   */\n      tag_39\n      jump\t// in\n    tag_64:\n        /* \"#utility.yul\":1383:1605   */\n      swap3\n      swap2\n      pop\n      pop\n      jump\t// out\n        /* \"#utility.yul\":1611:1729   */\n    tag_40:\n        /* \"#utility.yul\":1698:1722   */\n      tag_66\n        /* \"#utility.yul\":1716:1721   */\n      dup2\n        /* \"#utility.yul\":1698:1722   */\n      tag_35\n      jump\t// in\n    tag_66:\n        /* \"#utility.yul\":1693:1696   */\n      dup3\n        /* \"#utility.yul\":1686:1723   */\n      mstore\n        /* \"#utility.yul\":1611:1729   */\n      pop\n      pop\n      jump\t// out\n        /* \"#utility.yul\":1735:1957   */\n    tag_15:\n        /* \"#utility.yul\":1828:1832   */\n      0x00\n        /* \"#utility.yul\":1866:1868   */\n      0x20\n        /* \"#utility.yul\":1855:1864   */\n      dup3\n        /* \"#utility.yul\":1851:1869   */\n      add\n        /* \"#utility.yul\":1843:1869   */\n      swap1\n      pop\n        /* \"#utility.yul\":1879:1950   */\n      tag_68\n        /* \"#utility.yul\":1947:1948   */\n      0x00\n        /* \"#utility.yul\":1936:1945   */\n      dup4\n        /* \"#utility.yul\":1932:1949   */\n      add\n        /* \"#utility.yul\":1923:1929   */\n      dup5\n        /* \"#utility.yul\":1879:1950   */\n      tag_40\n      jump\t// in\n    tag_68:\n        /* \"#utility.yul\":1735:1957   */\n      swap3\n      swap2\n      pop\n      pop\n      jump\t// out\n        /* \"#utility.yul\":1963:2085   */\n    tag_41:\n        /* \"#utility.yul\":2036:2060   */\n      tag_70\n        /* \"#utility.yul\":2054:2059   */\n      dup2\n        /* \"#utility.yul\":2036:2060   */\n      tag_38\n      jump\t// in\n    tag_70:\n        /* \"#utility.yul\":2029:2034   */\n      dup2\n        /* \"#utility.yul\":2026:2061   */\n      eq\n        /* \"#utility.yul\":2016:2079   */\n      tag_71\n      jumpi\n        /* \"#utility.yul\":2075:2076   */\n      0x00\n        /* \"#utility.yul\":2072:2073   */\n      dup1\n        /* \"#utility.yul\":2065:2077   */\n      revert\n        /* \"#utility.yul\":2016:2079   */\n    tag_71:\n        /* \"#utility.yul\":1963:2085   */\n      pop\n      jump\t// out\n        /* \"#utility.yul\":2091:2230   */\n    tag_42:\n        /* \"#utility.yul\":2137:2142   */\n      0x00\n        /* \"#utility.yul\":2175:2181   */\n      dup2\n        /* \"#utility.yul\":2162:2182   */\n      calldataload\n        /* \"#utility.yul\":2153:2182   */\n      swap1\n      pop\n        /* \"#utility.yul\":2191:2224   */\n      tag_73\n        /* \"#utility.yul\":2218:2223   */\n      dup2\n        /* \"#utility.yul\":2191:2224   */\n      tag_41\n      jump\t// in\n    tag_73:\n        /* \"#utility.yul\":2091:2230   */\n      swap3\n      swap2\n      pop\n      pop\n      jump\t// out\n        /* \"#utility.yul\":2236:2710   */\n    tag_18:\n        /* \"#utility.yul\":2304:2310   */\n      0x00\n        /* \"#utility.yul\":2312:2318   */\n      dup1\n        /* \"#utility.yul\":2361:2363   */\n      0x40\n        /* \"#utility.yul\":2349:2358   */\n      dup4\n        /* \"#utility.yul\":2340:2347   */\n      dup6\n        /* \"#utility.yul\":2336:2359   */\n      sub\n        /* \"#utility.yul\":2332:2364   */\n      slt\n        /* \"#utility.yul\":2329:2448   */\n      iszero\n      tag_75\n      jumpi\n        /* \"#utility.yul\":2367:2446   */\n      tag_76\n      tag_32\n      jump\t// in\n    tag_76:\n        /* \"#utility.yul\":2329:2448   */\n    tag_75:\n        /* \"#utility.yul\":2487:2488   */\n      0x00\n        /* \"#utility.yul\":2512:2565   */\n      tag_77\n        /* \"#utility.yul\":2557:2564   */\n      dup6\n        /* \"#utility.yul\":2548:2554   */\n      dup3\n        /* \"#utility.yul\":2537:2546   */\n      dup7\n        /* \"#utility.yul\":2533:2555   */\n      add\n        /* \"#utility.yul\":2512:2565   */\n      tag_37\n      jump\t// in\n    tag_77:\n        /* \"#utility.yul\":2502:2565   */\n      swap3\n      pop\n        /* \"#utility.yul\":2458:2575   */\n      pop\n        /* \"#utility.yul\":2614:2616   */\n      0x20\n        /* \"#utility.yul\":2640:2693   */\n      tag_78\n        /* \"#utility.yul\":2685:2692   */\n      dup6\n        /* \"#utility.yul\":2676:2682   */\n      dup3\n        /* \"#utility.yul\":2665:2674   */\n      dup7\n        /* \"#utility.yul\":2661:2683   */\n      add\n        /* \"#utility.yul\":2640:2693   */\n      tag_42\n      jump\t// in\n    tag_78:\n        /* \"#utility.yul\":2630:2693   */\n      swap2\n      pop\n        /* \"#utility.yul\":2585:2703   */\n      pop\n        /* \"#utility.yul\":2236:2710   */\n      swap3\n      pop\n      swap3\n      swap1\n      pop\n      jump\t// out\n        /* \"#utility.yul\":2716:2896   */\n    tag_43:\n        /* \"#utility.yul\":2764:2841   */\n      0x4e487b7100000000000000000000000000000000000000000000000000000000\n        /* \"#utility.yul\":2761:2762   */\n      0x00\n        /* \"#utility.yul\":2754:2842   */\n      mstore\n        /* \"#utility.yul\":2861:2865   */\n      0x11\n        /* \"#utility.yul\":2858:2859   */\n      0x04\n        /* \"#utility.yul\":2851:2866   */\n      mstore\n        /* \"#utility.yul\":2885:2889   */\n      0x24\n        /* \"#utility.yul\":2882:2883   */\n      0x00\n        /* \"#utility.yul\":2875:2890   */\n      revert\n        /* \"#utility.yul\":2902:3093   */\n    tag_27:\n        /* \"#utility.yul\":2942:2945   */\n      0x00\n        /* \"#utility.yul\":2961:2981   */\n      tag_81\n        /* \"#utility.yul\":2979:2980   */\n      dup3\n        /* \"#utility.yul\":2961:2981   */\n      tag_38\n      jump\t// in\n    tag_81:\n        /* \"#utility.yul\":2956:2981   */\n      swap2\n      pop\n        /* \"#utility.yul\":2995:3015   */\n      tag_82\n        /* \"#utility.yul\":3013:3014   */\n      dup4\n        /* \"#utility.yul\":2995:3015   */\n      tag_38\n      jump\t// in\n    tag_82:\n        /* \"#utility.yul\":2990:3015   */\n      swap3\n      pop\n        /* \"#utility.yul\":3038:3039   */\n      dup3\n        /* \"#utility.yul\":3035:3036   */\n      dup3\n        /* \"#utility.yul\":3031:3040   */\n      add\n        /* \"#utility.yul\":3024:3040   */\n      swap1\n      pop\n        /* \"#utility.yul\":3059:3062   */\n      dup1\n        /* \"#utility.yul\":3056:3057   */\n      dup3\n        /* \"#utility.yul\":3053:3063   */\n      gt\n        /* \"#utility.yul\":3050:3086   */\n      iszero\n      tag_83\n      jumpi\n        /* \"#utility.yul\":3066:3084   */\n      tag_84\n      tag_43\n      jump\t// in\n    tag_84:\n        /* \"#utility.yul\":3050:3086   */\n    tag_83:\n        /* \"#utility.yul\":2902:3093   */\n      swap3\n      swap2\n      pop\n      pop\n      jump\t// out\n        /* \"#utility.yul\":3099:3431   */\n    tag_30:\n        /* \"#utility.yul\":3220:3224   */\n      0x00\n        /* \"#utility.yul\":3258:3260   */\n      0x40\n        /* \"#utility.yul\":3247:3256   */\n      dup3\n        /* \"#utility.yul\":3243:3261   */\n      add\n        /* \"#utility.yul\":3235:3261   */\n      swap1\n      pop\n        /* \"#utility.yul\":3271:3342   */\n      tag_86\n        /* \"#utility.yul\":3339:3340   */\n      0x00\n        /* \"#utility.yul\":3328:3337   */\n      dup4\n        /* \"#utility.yul\":3324:3341   */\n      add\n        /* \"#utility.yul\":3315:3321   */\n      dup6\n        /* \"#utility.yul\":3271:3342   */\n      tag_40\n      jump\t// in\n    tag_86:\n        /* \"#utility.yul\":3352:3424   */\n      tag_87\n        /* \"#utility.yul\":3420:3422   */\n      0x20\n        /* \"#utility.yul\":3409:3418   */\n      dup4\n        /* \"#utility.yul\":3405:3423   */\n      add\n        /* \"#utility.yul\":3396:3402   */\n      dup5\n        /* \"#utility.yul\":3352:3424   */\n      tag_39\n      jump\t// in\n    tag_87:\n        /* \"#utility.yul\":3099:3431   */\n      swap4\n      swap3\n      pop\n      pop\n      pop\n      jump\t// out\n\n    auxdata: 0xa2646970667358221220758ecc134080e1c7dffac6b3b446ec7cc2c6c3a02d3d32a3b5e5977199699fa064736f6c634300081a0033\n}\n",
				"bytecode": {
					"linkReferences": {},
					"object": "60806040525f80553480156011575f80fd5b50601f33602360201b60201c565b6066565b8060015f6101000a81548173ffffffffffffffffffffffffffffffffffffffff021916908373ffffffffffffffffffffffffffffffffffffffff16021790555050565b61049a806100735f395ff3fe608060405234801561000f575f80fd5b506004361061003f575f3560e01c806327e235e3146100435780638da5cb5b14610073578063fa588c8e14610091575b5f80fd5b61005d600480360381019061005891906102f1565b6100c1565b60405161006a9190610334565b60405180910390f35b61007b6100d6565b604051610088919061035c565b60405180910390f35b6100ab60048036038101906100a6919061039f565b6100fb565b6040516100b89190610334565b60405180910390f35b6002602052805f5260405f205f915090505481565b60015f9054906101000a900473ffffffffffffffffffffffffffffffffffffffff1681565b5f60015f9054906101000a900473ffffffffffffffffffffffffffffffffffffffff1673ffffffffffffffffffffffffffffffffffffffff163373ffffffffffffffffffffffffffffffffffffffff1614610154575f80fd5b6103e860025f8573ffffffffffffffffffffffffffffffffffffffff1673ffffffffffffffffffffffffffffffffffffffff1681526020019081526020015f20541061019e575f80fd5b60c882106101aa575f80fd5b8160025f8573ffffffffffffffffffffffffffffffffffffffff1673ffffffffffffffffffffffffffffffffffffffff1681526020019081526020015f205f8282546101f6919061040a565b92505081905550815f8082825461020d919061040a565b925050819055507faffa997c8174060fa272c161ef8607bf4ecdcc9f69ba6d2d2a203022a33bf8ad838360405161024592919061043d565b60405180910390a160025f8473ffffffffffffffffffffffffffffffffffffffff1673ffffffffffffffffffffffffffffffffffffffff1681526020019081526020015f2054905092915050565b5f80fd5b5f73ffffffffffffffffffffffffffffffffffffffff82169050919050565b5f6102c082610297565b9050919050565b6102d0816102b6565b81146102da575f80fd5b50565b5f813590506102eb816102c7565b92915050565b5f6020828403121561030657610305610293565b5b5f610313848285016102dd565b91505092915050565b5f819050919050565b61032e8161031c565b82525050565b5f6020820190506103475f830184610325565b92915050565b610356816102b6565b82525050565b5f60208201905061036f5f83018461034d565b92915050565b61037e8161031c565b8114610388575f80fd5b50565b5f8135905061039981610375565b92915050565b5f80604083850312156103b5576103b4610293565b5b5f6103c2858286016102dd565b92505060206103d38582860161038b565b9150509250929050565b7f4e487b71000000000000000000000000000000000000000000000000000000005f52601160045260245ffd5b5f6104148261031c565b915061041f8361031c565b9250828201905080821115610437576104366103dd565b5b92915050565b5f6040820190506104505f83018561034d565b61045d6020830184610325565b939250505056fea2646970667358221220758ecc134080e1c7dffac6b3b446ec7cc2c6c3a02d3d32a3b5e5977199699fa064736f6c634300081a0033",
					"opcodes": "PUSH1 0x80 PUSH1 0x40 MSTORE PUSH0 DUP1 SSTORE CALLVALUE DUP1 ISZERO PUSH1 0x11 JUMPI PUSH0 DUP1 REVERT JUMPDEST POP PUSH1 0x1F CALLER PUSH1 0x23 PUSH1 0x20 SHL PUSH1 0x20 SHR JUMP JUMPDEST PUSH1 0x66 JUMP JUMPDEST DUP1 PUSH1 0x1 PUSH0 PUSH2 0x100 EXP DUP2 SLOAD DUP2 PUSH20 0xFFFFFFFFFFFFFFFFFFFFFFFFFFFFFFFFFFFFFFFF MUL NOT AND SWAP1 DUP4 PUSH20 0xFFFFFFFFFFFFFFFFFFFFFFFFFFFFFFFFFFFFFFFF AND MUL OR SWAP1 SSTORE POP POP JUMP JUMPDEST PUSH2 0x49A DUP1 PUSH2 0x73 PUSH0 CODECOPY PUSH0 RETURN INVALID PUSH1 0x80 PUSH1 0x40 MSTORE CALLVALUE DUP1 ISZERO PUSH2 0xF JUMPI PUSH0 DUP1 REVERT JUMPDEST POP PUSH1 0x4 CALLDATASIZE LT PUSH2 0x3F JUMPI PUSH0 CALLDATALOAD PUSH1 0xE0 SHR DUP1 PUSH4 0x27E235E3 EQ PUSH2 0x43 JUMPI DUP1 PUSH4 0x8DA5CB5B EQ PUSH2 0x73 JUMPI DUP1 PUSH4 0xFA588C8E EQ PUSH2 0x91 JUMPI JUMPDEST PUSH0 DUP1 REVERT JUMPDEST PUSH2 0x5D PUSH1 0x4 DUP1 CALLDATASIZE SUB DUP2 ADD SWAP1 PUSH2 0x58 SWAP2 SWAP1 PUSH2 0x2F1 JUMP JUMPDEST PUSH2 0xC1 JUMP JUMPDEST PUSH1 0x40 MLOAD PUSH2 0x6A SWAP2 SWAP1 PUSH2 0x334 JUMP JUMPDEST PUSH1 0x40 MLOAD DUP1 SWAP2 SUB SWAP1 RETURN JUMPDEST PUSH2 0x7B PUSH2 0xD6 JUMP JUMPDEST PUSH1 0x40 MLOAD PUSH2 0x88 SWAP2 SWAP1 PUSH2 0x35C JUMP JUMPDEST PUSH1 0x40 MLOAD DUP1 SWAP2 SUB SWAP1 RETURN JUMPDEST PUSH2 0xAB PUSH1 0x4 DUP1 CALLDATASIZE SUB DUP2 ADD SWAP1 PUSH2 0xA6 SWAP2 SWAP1 PUSH2 0x39F JUMP JUMPDEST PUSH2 0xFB JUMP JUMPDEST PUSH1 0x40 MLOAD PUSH2 0xB8 SWAP2 SWAP1 PUSH2 0x334 JUMP JUMPDEST PUSH1 0x40 MLOAD DUP1 SWAP2 SUB SWAP1 RETURN JUMPDEST PUSH1 0x2 PUSH1 0x20 MSTORE DUP1 PUSH0 MSTORE PUSH1 0x40 PUSH0 KECCAK256 PUSH0 SWAP2 POP SWAP1 POP SLOAD DUP2 JUMP JUMPDEST PUSH1 0x1 PUSH0 SWAP1 SLOAD SWAP1 PUSH2 0x100 EXP SWAP1 DIV PUSH20 0xFFFFFFFFFFFFFFFFFFFFFFFFFFFFFFFFFFFFFFFF AND DUP2 JUMP JUMPDEST PUSH0 PUSH1 0x1 PUSH0 SWAP1 SLOAD SWAP1 PUSH2 0x100 EXP SWAP1 DIV PUSH20 0xFFFFFFFFFFFFFFFFFFFFFFFFFFFFFFFFFFFFFFFF AND PUSH20 0xFFFFFFFFFFFFFFFFFFFFFFFFFFFFFFFFFFFFFFFF AND CALLER PUSH20 0xFFFFFFFFFFFFFFFFFFFFFFFFFFFFFFFFFFFFFFFF AND EQ PUSH2 0x154 JUMPI PUSH0 DUP1 REVERT JUMPDEST PUSH2 0x3E8 PUSH1 0x2 PUSH0 DUP6 PUSH20 0xFFFFFFFFFFFFFFFFFFFFFFFFFFFFFFFFFFFFFFFF AND PUSH20 0xFFFFFFFFFFFFFFFFFFFFFFFFFFFFFFFFFFFFFFFF AND DUP2 MSTORE PUSH1 0x20 ADD SWAP1 DUP2 MSTORE PUSH1 0x20 ADD PUSH0 KECCAK256 SLOAD LT PUSH2 0x19E JUMPI PUSH0 DUP1 REVERT JUMPDEST PUSH1 0xC8 DUP3 LT PUSH2 0x1AA JUMPI PUSH0 DUP1 REVERT JUMPDEST DUP2 PUSH1 0x2 PUSH0 DUP6 PUSH20 0xFFFFFFFFFFFFFFFFFFFFFFFFFFFFFFFFFFFFFFFF AND PUSH20 0xFFFFFFFFFFFFFFFFFFFFFFFFFFFFFFFFFFFFFFFF AND DUP2 MSTORE PUSH1 0x20 ADD SWAP1 DUP2 MSTORE PUSH1 0x20 ADD PUSH0 KECCAK256 PUSH0 DUP3 DUP3 SLOAD PUSH2 0x1F6 SWAP2 SWAP1 PUSH2 0x40A JUMP JUMPDEST SWAP3 POP POP DUP2 SWAP1 SSTORE POP DUP2 PUSH0 DUP1 DUP3 DUP3 SLOAD PUSH2 0x20D SWAP2 SWAP1 PUSH2 0x40A JUMP JUMPDEST SWAP3 POP POP DUP2 SWAP1 SSTORE POP PUSH32 0xAFFA997C8174060FA272C161EF8607BF4ECDCC9F69BA6D2D2A203022A33BF8AD DUP4 DUP4 PUSH1 0x40 MLOAD PUSH2 0x245 SWAP3 SWAP2 SWAP1 PUSH2 0x43D JUMP JUMPDEST PUSH1 0x40 MLOAD DUP1 SWAP2 SUB SWAP1 LOG1 PUSH1 0x2 PUSH0 DUP5 PUSH20 0xFFFFFFFFFFFFFFFFFFFFFFFFFFFFFFFFFFFFFFFF AND PUSH20 0xFFFFFFFFFFFFFFFFFFFFFFFFFFFFFFFFFFFFFFFF AND DUP2 MSTORE PUSH1 0x20 ADD SWAP1 DUP2 MSTORE PUSH1 0x20 ADD PUSH0 KECCAK256 SLOAD SWAP1 POP SWAP3 SWAP2 POP POP JUMP JUMPDEST PUSH0 DUP1 REVERT JUMPDEST PUSH0 PUSH20 0xFFFFFFFFFFFFFFFFFFFFFFFFFFFFFFFFFFFFFFFF DUP3 AND SWAP1 POP SWAP2 SWAP1 POP JUMP JUMPDEST PUSH0 PUSH2 0x2C0 DUP3 PUSH2 0x297 JUMP JUMPDEST SWAP1 POP SWAP2 SWAP1 POP JUMP JUMPDEST PUSH2 0x2D0 DUP2 PUSH2 0x2B6 JUMP JUMPDEST DUP2 EQ PUSH2 0x2DA JUMPI PUSH0 DUP1 REVERT JUMPDEST POP JUMP JUMPDEST PUSH0 DUP2 CALLDATALOAD SWAP1 POP PUSH2 0x2EB DUP2 PUSH2 0x2C7 JUMP JUMPDEST SWAP3 SWAP2 POP POP JUMP JUMPDEST PUSH0 PUSH1 0x20 DUP3 DUP5 SUB SLT ISZERO PUSH2 0x306 JUMPI PUSH2 0x305 PUSH2 0x293 JUMP JUMPDEST JUMPDEST PUSH0 PUSH2 0x313 DUP5 DUP3 DUP6 ADD PUSH2 0x2DD JUMP JUMPDEST SWAP2 POP POP SWAP3 SWAP2 POP POP JUMP JUMPDEST PUSH0 DUP2 SWAP1 POP SWAP2 SWAP1 POP JUMP JUMPDEST PUSH2 0x32E DUP2 PUSH2 0x31C JUMP JUMPDEST DUP3 MSTORE POP POP JUMP JUMPDEST PUSH0 PUSH1 0x20 DUP3 ADD SWAP1 POP PUSH2 0x347 PUSH0 DUP4 ADD DUP5 PUSH2 0x325 JUMP JUMPDEST SWAP3 SWAP2 POP POP JUMP JUMPDEST PUSH2 0x356 DUP2 PUSH2 0x2B6 JUMP JUMPDEST DUP3 MSTORE POP POP JUMP JUMPDEST PUSH0 PUSH1 0x20 DUP3 ADD SWAP1 POP PUSH2 0x36F PUSH0 DUP4 ADD DUP5 PUSH2 0x34D JUMP JUMPDEST SWAP3 SWAP2 POP POP JUMP JUMPDEST PUSH2 0x37E DUP2 PUSH2 0x31C JUMP JUMPDEST DUP2 EQ PUSH2 0x388 JUMPI PUSH0 DUP1 REVERT JUMPDEST POP JUMP JUMPDEST PUSH0 DUP2 CALLDATALOAD SWAP1 POP PUSH2 0x399 DUP2 PUSH2 0x375 JUMP JUMPDEST SWAP3 SWAP2 POP POP JUMP JUMPDEST PUSH0 DUP1 PUSH1 0x40 DUP4 DUP6 SUB SLT ISZERO PUSH2 0x3B5 JUMPI PUSH2 0x3B4 PUSH2 0x293 JUMP JUMPDEST JUMPDEST PUSH0 PUSH2 0x3C2 DUP6 DUP3 DUP7 ADD PUSH2 0x2DD JUMP JUMPDEST SWAP3 POP POP PUSH1 0x20 PUSH2 0x3D3 DUP6 DUP3 DUP7 ADD PUSH2 0x38B JUMP JUMPDEST SWAP2 POP POP SWAP3 POP SWAP3 SWAP1 POP JUMP JUMPDEST PUSH32 0x4E487B7100000000000000000000000000000000000000000000000000000000 PUSH0 MSTORE PUSH1 0x11 PUSH1 0x4 MSTORE PUSH1 0x24 PUSH0 REVERT JUMPDEST PUSH0 PUSH2 0x414 DUP3 PUSH2 0x31C JUMP JUMPDEST SWAP2 POP PUSH2 0x41F DUP4 PUSH2 0x31C JUMP JUMPDEST SWAP3 POP DUP3 DUP3 ADD SWAP1 POP DUP1 DUP3 GT ISZERO PUSH2 0x437 JUMPI PUSH2 0x436 PUSH2 0x3DD JUMP JUMPDEST JUMPDEST SWAP3 SWAP2 POP POP JUMP JUMPDEST PUSH0 PUSH1 0x40 DUP3 ADD SWAP1 POP PUSH2 0x450 PUSH0 DUP4 ADD DUP6 PUSH2 0x34D JUMP JUMPDEST PUSH2 0x45D PUSH1 0x20 DUP4 ADD DUP5 PUSH2 0x325 JUMP JUMPDEST SWAP4 SWAP3 POP POP POP JUMP INVALID LOG2 PUSH5 0x6970667358 0x22 SLT KECCAK256 PUSH22 0x8ECC134080E1C7DFFAC6B3B446EC7CC2C6C3A02D3D32 LOG3 0xB5 0xE5 SWAP8 PUSH18 0x99699FA064736F6C634300081A0033000000 "
				},
				"gasEstimates": {
					"creation": {
						"codeDepositCost": "235600",
						"executionCost": "infinite",
						"totalCost": "infinite"
					},
					"external": {
						"BounsSend(address,uint256)": "infinite",
						"balances(address)": "2780",
						"owner()": "2508"
					},
					"internal": {
						"initOwner(address)": "infinite"
					}
				},
				"methodIdentifiers": {
					"BounsSend(address,uint256)": "fa588c8e",
					"balances(address)": "27e235e3",
					"owner()": "8da5cb5b"
				}
			},
			"storageLayout": {
				"storage": [
					{
						"astId": 4,
						"contract": "contract/week15/AccessGame.sol:AccessGame",
						"label": "totalSupply",
						"offset": 0,
						"slot": "0",
						"type": "t_uint256"
					},
					{
						"astId": 6,
						"contract": "contract/week15/AccessGame.sol:AccessGame",
						"label": "owner",
						"offset": 0,
						"slot": "1",
						"type": "t_address"
					},
					{
						"astId": 10,
						"contract": "contract/week15/AccessGame.sol:AccessGame",
						"label": "balances",
						"offset": 0,
						"slot": "2",
						"type": "t_mapping(t_address,t_uint256)"
					}
				],
				"types": {
					"t_address": {
						"encoding": "inplace",
						"label": "address",
						"numberOfBytes": "20"
					},
					"t_mapping(t_address,t_uint256)": {
						"encoding": "mapping",
						"key": "t_address",
						"label": "mapping(address => uint256)",
						"numberOfBytes": "32",
						"value": "t_uint256"
					},
					"t_uint256": {
						"encoding": "inplace",
						"label": "uint256",
						"numberOfBytes": "32"
					}
				}
			},
			"userdoc": {
				"kind": "user",
				"methods": {},
				"version": 1
			}
		}
	}
}