{
	"contract/EtherStore.sol": {
		"EtherStore": {
			"abi": [
				{
					"inputs": [
						{
							"internalType": "address",
							"name": "",
							"type": "address"
						}
					],
					"name": "balance",
					"outputs": [
						{
							"internalType": "uint256",
							"name": "",
							"type": "uint256"
						}
					],
					"stateMutability": "view",
					"type": "function"
				},
				{
					"inputs": [],
					"name": "deposit",
					"outputs": [],
					"stateMutability": "payable",
					"type": "function"
				},
				{
					"inputs": [],
					"name": "getBalance",
					"outputs": [
						{
							"internalType": "uint256",
							"name": "",
							"type": "uint256"
						}
					],
					"stateMutability": "view",
					"type": "function"
				},
				{
					"inputs": [],
					"name": "withdraw",
					"outputs": [],
					"stateMutability": "nonpayable",
					"type": "function"
				}
			],
			"devdoc": {
				"kind": "dev",
				"methods": {},
				"version": 1
			},
			"evm": {
				"assembly": "    /* \"contract/EtherStore.sol\":60:594  contract EtherStore {... */\n  mstore(0x40, 0x80)\n  callvalue\n  dup1\n  iszero\n  tag_1\n  jumpi\n  0x00\n  dup1\n  revert\ntag_1:\n  pop\n  dataSize(sub_0)\n  dup1\n  dataOffset(sub_0)\n  0x00\n  codecopy\n  0x00\n  return\nstop\n\nsub_0: assembly {\n        /* \"contract/EtherStore.sol\":60:594  contract EtherStore {... */\n      mstore(0x40, 0x80)\n      jumpi(tag_1, lt(calldatasize, 0x04))\n      shr(0xe0, calldataload(0x00))\n      dup1\n      0x12065fe0\n      eq\n      tag_2\n      jumpi\n      dup1\n      0x3ccfd60b\n      eq\n      tag_3\n      jumpi\n      dup1\n      0xd0e30db0\n      eq\n      tag_4\n      jumpi\n      dup1\n      0xe3d670d7\n      eq\n      tag_5\n      jumpi\n    tag_1:\n      0x00\n      dup1\n      revert\n        /* \"contract/EtherStore.sol\":486:585  function getBalance() public view returns (uint256) {... */\n    tag_2:\n      callvalue\n      dup1\n      iszero\n      tag_6\n      jumpi\n      0x00\n      dup1\n      revert\n    tag_6:\n      pop\n      tag_7\n      tag_8\n      jump\t// in\n    tag_7:\n      mload(0x40)\n      tag_9\n      swap2\n      swap1\n      tag_10\n      jump\t// in\n    tag_9:\n      mload(0x40)\n      dup1\n      swap2\n      sub\n      swap1\n      return\n        /* \"contract/EtherStore.sol\":234:478  function withdraw() public {... */\n    tag_3:\n      callvalue\n      dup1\n      iszero\n      tag_11\n      jumpi\n      0x00\n      dup1\n      revert\n    tag_11:\n      pop\n      tag_12\n      tag_13\n      jump\t// in\n    tag_12:\n      stop\n        /* \"contract/EtherStore.sol\":141:226  function deposit() public payable {... */\n    tag_4:\n      tag_14\n      tag_15\n      jump\t// in\n    tag_14:\n      stop\n        /* \"contract/EtherStore.sol\":89:132  mapping (address => uint256) public balance */\n    tag_5:\n      callvalue\n      dup1\n      iszero\n      tag_16\n      jumpi\n      0x00\n      dup1\n      revert\n    tag_16:\n      pop\n      tag_17\n      0x04\n      dup1\n      calldatasize\n      sub\n      dup2\n      add\n      swap1\n      tag_18\n      swap2\n      swap1\n      tag_19\n      jump\t// in\n    tag_18:\n      tag_20\n      jump\t// in\n    tag_17:\n      mload(0x40)\n      tag_21\n      swap2\n      swap1\n      tag_10\n      jump\t// in\n    tag_21:\n      mload(0x40)\n      dup1\n      swap2\n      sub\n      swap1\n      return\n        /* \"contract/EtherStore.sol\":486:585  function getBalance() public view returns (uint256) {... */\n    tag_8:\n        /* \"contract/EtherStore.sol\":529:536  uint256 */\n      0x00\n        /* \"contract/EtherStore.sol\":556:577  address(this).balance */\n      selfbalance\n        /* \"contract/EtherStore.sol\":549:577  return address(this).balance */\n      swap1\n      pop\n        /* \"contract/EtherStore.sol\":486:585  function getBalance() public view returns (uint256) {... */\n      swap1\n      jump\t// out\n        /* \"contract/EtherStore.sol\":234:478  function withdraw() public {... */\n    tag_13:\n        /* \"contract/EtherStore.sol\":272:283  uint256 bal */\n      0x00\n        /* \"contract/EtherStore.sol\":286:293  balance */\n      dup1\n        /* \"contract/EtherStore.sol\":286:305  balance[msg.sender] */\n      0x00\n        /* \"contract/EtherStore.sol\":294:304  msg.sender */\n      caller\n        /* \"contract/EtherStore.sol\":286:305  balance[msg.sender] */\n      0xffffffffffffffffffffffffffffffffffffffff\n      and\n      0xffffffffffffffffffffffffffffffffffffffff\n      and\n      dup2\n      mstore\n      0x20\n      add\n      swap1\n      dup2\n      mstore\n      0x20\n      add\n      0x00\n      keccak256\n      sload\n        /* \"contract/EtherStore.sol\":272:305  uint256 bal = balance[msg.sender] */\n      swap1\n      pop\n        /* \"contract/EtherStore.sol\":330:331  0 */\n      0x00\n        /* \"contract/EtherStore.sol\":324:327  bal */\n      dup2\n        /* \"contract/EtherStore.sol\":324:331  bal > 0 */\n      gt\n        /* \"contract/EtherStore.sol\":316:332  require(bal > 0) */\n      tag_24\n      jumpi\n      0x00\n      dup1\n      revert\n    tag_24:\n        /* \"contract/EtherStore.sol\":344:353  bool sent */\n      0x00\n        /* \"contract/EtherStore.sol\":359:369  msg.sender */\n      caller\n        /* \"contract/EtherStore.sol\":359:374  msg.sender.call */\n      0xffffffffffffffffffffffffffffffffffffffff\n      and\n        /* \"contract/EtherStore.sol\":381:384  bal */\n      dup3\n        /* \"contract/EtherStore.sol\":359:390  msg.sender.call{value:bal}(\" \") */\n      mload(0x40)\n      tag_25\n      swap1\n      tag_26\n      jump\t// in\n    tag_25:\n      0x00\n      mload(0x40)\n      dup1\n      dup4\n      sub\n      dup2\n      dup6\n      dup8\n      gas\n      call\n      swap3\n      pop\n      pop\n      pop\n      returndatasize\n      dup1\n      0x00\n      dup2\n      eq\n      tag_29\n      jumpi\n      mload(0x40)\n      swap2\n      pop\n      and(add(returndatasize, 0x3f), not(0x1f))\n      dup3\n      add\n      0x40\n      mstore\n      returndatasize\n      dup3\n      mstore\n      returndatasize\n      0x00\n      0x20\n      dup5\n      add\n      returndatacopy\n      jump(tag_28)\n    tag_29:\n      0x60\n      swap2\n      pop\n    tag_28:\n      pop\n        /* \"contract/EtherStore.sol\":343:390  (bool sent, ) = msg.sender.call{value:bal}(\" \") */\n      pop\n      swap1\n      pop\n        /* \"contract/EtherStore.sol\":409:413  sent */\n      dup1\n        /* \"contract/EtherStore.sol\":401:436  require(sent, \"fail to send Ether\") */\n      tag_30\n      jumpi\n      mload(0x40)\n      0x08c379a000000000000000000000000000000000000000000000000000000000\n      dup2\n      mstore\n      0x04\n      add\n      tag_31\n      swap1\n      tag_32\n      jump\t// in\n    tag_31:\n      mload(0x40)\n      dup1\n      swap2\n      sub\n      swap1\n      revert\n    tag_30:\n        /* \"contract/EtherStore.sol\":469:470  0 */\n      0x00\n        /* \"contract/EtherStore.sol\":447:454  balance */\n      dup1\n        /* \"contract/EtherStore.sol\":447:466  balance[msg.sender] */\n      0x00\n        /* \"contract/EtherStore.sol\":455:465  msg.sender */\n      caller\n        /* \"contract/EtherStore.sol\":447:466  balance[msg.sender] */\n      0xffffffffffffffffffffffffffffffffffffffff\n      and\n      0xffffffffffffffffffffffffffffffffffffffff\n      and\n      dup2\n      mstore\n      0x20\n      add\n      swap1\n      dup2\n      mstore\n      0x20\n      add\n      0x00\n      keccak256\n        /* \"contract/EtherStore.sol\":447:470  balance[msg.sender] = 0 */\n      dup2\n      swap1\n      sstore\n      pop\n        /* \"contract/EtherStore.sol\":261:478  {... */\n      pop\n      pop\n        /* \"contract/EtherStore.sol\":234:478  function withdraw() public {... */\n      jump\t// out\n        /* \"contract/EtherStore.sol\":141:226  function deposit() public payable {... */\n    tag_15:\n        /* \"contract/EtherStore.sol\":209:218  msg.value */\n      callvalue\n        /* \"contract/EtherStore.sol\":186:193  balance */\n      0x00\n        /* \"contract/EtherStore.sol\":186:205  balance[msg.sender] */\n      dup1\n        /* \"contract/EtherStore.sol\":194:204  msg.sender */\n      caller\n        /* \"contract/EtherStore.sol\":186:205  balance[msg.sender] */\n      0xffffffffffffffffffffffffffffffffffffffff\n      and\n      0xffffffffffffffffffffffffffffffffffffffff\n      and\n      dup2\n      mstore\n      0x20\n      add\n      swap1\n      dup2\n      mstore\n      0x20\n      add\n      0x00\n      keccak256\n      0x00\n        /* \"contract/EtherStore.sol\":186:218  balance[msg.sender] += msg.value */\n      dup3\n      dup3\n      sload\n      tag_34\n      swap2\n      swap1\n      tag_35\n      jump\t// in\n    tag_34:\n      swap3\n      pop\n      pop\n      dup2\n      swap1\n      sstore\n      pop\n        /* \"contract/EtherStore.sol\":141:226  function deposit() public payable {... */\n      jump\t// out\n        /* \"contract/EtherStore.sol\":89:132  mapping (address => uint256) public balance */\n    tag_20:\n      mstore(0x20, 0x00)\n      dup1\n      0x00\n      mstore\n      keccak256(0x00, 0x40)\n      0x00\n      swap2\n      pop\n      swap1\n      pop\n      sload\n      dup2\n      jump\t// out\n        /* \"#utility.yul\":7:84   */\n    tag_36:\n        /* \"#utility.yul\":44:51   */\n      0x00\n        /* \"#utility.yul\":73:78   */\n      dup2\n        /* \"#utility.yul\":62:78   */\n      swap1\n      pop\n        /* \"#utility.yul\":7:84   */\n      swap2\n      swap1\n      pop\n      jump\t// out\n        /* \"#utility.yul\":90:208   */\n    tag_37:\n        /* \"#utility.yul\":177:201   */\n      tag_55\n        /* \"#utility.yul\":195:200   */\n      dup2\n        /* \"#utility.yul\":177:201   */\n      tag_36\n      jump\t// in\n    tag_55:\n        /* \"#utility.yul\":172:175   */\n      dup3\n        /* \"#utility.yul\":165:202   */\n      mstore\n        /* \"#utility.yul\":90:208   */\n      pop\n      pop\n      jump\t// out\n        /* \"#utility.yul\":214:436   */\n    tag_10:\n        /* \"#utility.yul\":307:311   */\n      0x00\n        /* \"#utility.yul\":345:347   */\n      0x20\n        /* \"#utility.yul\":334:343   */\n      dup3\n        /* \"#utility.yul\":330:348   */\n      add\n        /* \"#utility.yul\":322:348   */\n      swap1\n      pop\n        /* \"#utility.yul\":358:429   */\n      tag_57\n        /* \"#utility.yul\":426:427   */\n      0x00\n        /* \"#utility.yul\":415:424   */\n      dup4\n        /* \"#utility.yul\":411:428   */\n      add\n        /* \"#utility.yul\":402:408   */\n      dup5\n        /* \"#utility.yul\":358:429   */\n      tag_37\n      jump\t// in\n    tag_57:\n        /* \"#utility.yul\":214:436   */\n      swap3\n      swap2\n      pop\n      pop\n      jump\t// out\n        /* \"#utility.yul\":523:640   */\n    tag_39:\n        /* \"#utility.yul\":632:633   */\n      0x00\n        /* \"#utility.yul\":629:630   */\n      dup1\n        /* \"#utility.yul\":622:634   */\n      revert\n        /* \"#utility.yul\":769:895   */\n    tag_41:\n        /* \"#utility.yul\":806:813   */\n      0x00\n        /* \"#utility.yul\":846:888   */\n      0xffffffffffffffffffffffffffffffffffffffff\n        /* \"#utility.yul\":839:844   */\n      dup3\n        /* \"#utility.yul\":835:889   */\n      and\n        /* \"#utility.yul\":824:889   */\n      swap1\n      pop\n        /* \"#utility.yul\":769:895   */\n      swap2\n      swap1\n      pop\n      jump\t// out\n        /* \"#utility.yul\":901:997   */\n    tag_42:\n        /* \"#utility.yul\":938:945   */\n      0x00\n        /* \"#utility.yul\":967:991   */\n      tag_63\n        /* \"#utility.yul\":985:990   */\n      dup3\n        /* \"#utility.yul\":967:991   */\n      tag_41\n      jump\t// in\n    tag_63:\n        /* \"#utility.yul\":956:991   */\n      swap1\n      pop\n        /* \"#utility.yul\":901:997   */\n      swap2\n      swap1\n      pop\n      jump\t// out\n        /* \"#utility.yul\":1003:1125   */\n    tag_43:\n        /* \"#utility.yul\":1076:1100   */\n      tag_65\n        /* \"#utility.yul\":1094:1099   */\n      dup2\n        /* \"#utility.yul\":1076:1100   */\n      tag_42\n      jump\t// in\n    tag_65:\n        /* \"#utility.yul\":1069:1074   */\n      dup2\n        /* \"#utility.yul\":1066:1101   */\n      eq\n        /* \"#utility.yul\":1056:1119   */\n      tag_66\n      jumpi\n        /* \"#utility.yul\":1115:1116   */\n      0x00\n        /* \"#utility.yul\":1112:1113   */\n      dup1\n        /* \"#utility.yul\":1105:1117   */\n      revert\n        /* \"#utility.yul\":1056:1119   */\n    tag_66:\n        /* \"#utility.yul\":1003:1125   */\n      pop\n      jump\t// out\n        /* \"#utility.yul\":1131:1270   */\n    tag_44:\n        /* \"#utility.yul\":1177:1182   */\n      0x00\n        /* \"#utility.yul\":1215:1221   */\n      dup2\n        /* \"#utility.yul\":1202:1222   */\n      calldataload\n        /* \"#utility.yul\":1193:1222   */\n      swap1\n      pop\n        /* \"#utility.yul\":1231:1264   */\n      tag_68\n        /* \"#utility.yul\":1258:1263   */\n      dup2\n        /* \"#utility.yul\":1231:1264   */\n      tag_43\n      jump\t// in\n    tag_68:\n        /* \"#utility.yul\":1131:1270   */\n      swap3\n      swap2\n      pop\n      pop\n      jump\t// out\n        /* \"#utility.yul\":1276:1605   */\n    tag_19:\n        /* \"#utility.yul\":1335:1341   */\n      0x00\n        /* \"#utility.yul\":1384:1386   */\n      0x20\n        /* \"#utility.yul\":1372:1381   */\n      dup3\n        /* \"#utility.yul\":1363:1370   */\n      dup5\n        /* \"#utility.yul\":1359:1382   */\n      sub\n        /* \"#utility.yul\":1355:1387   */\n      slt\n        /* \"#utility.yul\":1352:1471   */\n      iszero\n      tag_70\n      jumpi\n        /* \"#utility.yul\":1390:1469   */\n      tag_71\n      tag_39\n      jump\t// in\n    tag_71:\n        /* \"#utility.yul\":1352:1471   */\n    tag_70:\n        /* \"#utility.yul\":1510:1511   */\n      0x00\n        /* \"#utility.yul\":1535:1588   */\n      tag_72\n        /* \"#utility.yul\":1580:1587   */\n      dup5\n        /* \"#utility.yul\":1571:1577   */\n      dup3\n        /* \"#utility.yul\":1560:1569   */\n      dup6\n        /* \"#utility.yul\":1556:1578   */\n      add\n        /* \"#utility.yul\":1535:1588   */\n      tag_44\n      jump\t// in\n    tag_72:\n        /* \"#utility.yul\":1525:1588   */\n      swap2\n      pop\n        /* \"#utility.yul\":1481:1598   */\n      pop\n        /* \"#utility.yul\":1276:1605   */\n      swap3\n      swap2\n      pop\n      pop\n      jump\t// out\n        /* \"#utility.yul\":1611:1758   */\n    tag_45:\n        /* \"#utility.yul\":1712:1723   */\n      0x00\n        /* \"#utility.yul\":1749:1752   */\n      dup2\n        /* \"#utility.yul\":1734:1752   */\n      swap1\n      pop\n        /* \"#utility.yul\":1611:1758   */\n      swap3\n      swap2\n      pop\n      pop\n      jump\t// out\n        /* \"#utility.yul\":1764:1915   */\n    tag_46:\n        /* \"#utility.yul\":1904:1907   */\n      0x2000000000000000000000000000000000000000000000000000000000000000\n        /* \"#utility.yul\":1900:1901   */\n      0x00\n        /* \"#utility.yul\":1892:1898   */\n      dup3\n        /* \"#utility.yul\":1888:1902   */\n      add\n        /* \"#utility.yul\":1881:1908   */\n      mstore\n        /* \"#utility.yul\":1764:1915   */\n      pop\n      jump\t// out\n        /* \"#utility.yul\":1921:2319   */\n    tag_47:\n        /* \"#utility.yul\":2080:2083   */\n      0x00\n        /* \"#utility.yul\":2101:2184   */\n      tag_76\n        /* \"#utility.yul\":2182:2183   */\n      0x01\n        /* \"#utility.yul\":2177:2180   */\n      dup4\n        /* \"#utility.yul\":2101:2184   */\n      tag_45\n      jump\t// in\n    tag_76:\n        /* \"#utility.yul\":2094:2184   */\n      swap2\n      pop\n        /* \"#utility.yul\":2193:2286   */\n      tag_77\n        /* \"#utility.yul\":2282:2285   */\n      dup3\n        /* \"#utility.yul\":2193:2286   */\n      tag_46\n      jump\t// in\n    tag_77:\n        /* \"#utility.yul\":2311:2312   */\n      0x01\n        /* \"#utility.yul\":2306:2309   */\n      dup3\n        /* \"#utility.yul\":2302:2313   */\n      add\n        /* \"#utility.yul\":2295:2313   */\n      swap1\n      pop\n        /* \"#utility.yul\":1921:2319   */\n      swap2\n      swap1\n      pop\n      jump\t// out\n        /* \"#utility.yul\":2325:2704   */\n    tag_26:\n        /* \"#utility.yul\":2509:2512   */\n      0x00\n        /* \"#utility.yul\":2531:2678   */\n      tag_79\n        /* \"#utility.yul\":2674:2677   */\n      dup3\n        /* \"#utility.yul\":2531:2678   */\n      tag_47\n      jump\t// in\n    tag_79:\n        /* \"#utility.yul\":2524:2678   */\n      swap2\n      pop\n        /* \"#utility.yul\":2695:2698   */\n      dup2\n        /* \"#utility.yul\":2688:2698   */\n      swap1\n      pop\n        /* \"#utility.yul\":2325:2704   */\n      swap2\n      swap1\n      pop\n      jump\t// out\n        /* \"#utility.yul\":2710:2879   */\n    tag_48:\n        /* \"#utility.yul\":2794:2805   */\n      0x00\n        /* \"#utility.yul\":2828:2834   */\n      dup3\n        /* \"#utility.yul\":2823:2826   */\n      dup3\n        /* \"#utility.yul\":2816:2835   */\n      mstore\n        /* \"#utility.yul\":2868:2872   */\n      0x20\n        /* \"#utility.yul\":2863:2866   */\n      dup3\n        /* \"#utility.yul\":2859:2873   */\n      add\n        /* \"#utility.yul\":2844:2873   */\n      swap1\n      pop\n        /* \"#utility.yul\":2710:2879   */\n      swap3\n      swap2\n      pop\n      pop\n      jump\t// out\n        /* \"#utility.yul\":2885:3053   */\n    tag_49:\n        /* \"#utility.yul\":3025:3045   */\n      0x6661696c20746f2073656e642045746865720000000000000000000000000000\n        /* \"#utility.yul\":3021:3022   */\n      0x00\n        /* \"#utility.yul\":3013:3019   */\n      dup3\n        /* \"#utility.yul\":3009:3023   */\n      add\n        /* \"#utility.yul\":3002:3046   */\n      mstore\n        /* \"#utility.yul\":2885:3053   */\n      pop\n      jump\t// out\n        /* \"#utility.yul\":3059:3425   */\n    tag_50:\n        /* \"#utility.yul\":3201:3204   */\n      0x00\n        /* \"#utility.yul\":3222:3289   */\n      tag_83\n        /* \"#utility.yul\":3286:3288   */\n      0x12\n        /* \"#utility.yul\":3281:3284   */\n      dup4\n        /* \"#utility.yul\":3222:3289   */\n      tag_48\n      jump\t// in\n    tag_83:\n        /* \"#utility.yul\":3215:3289   */\n      swap2\n      pop\n        /* \"#utility.yul\":3298:3391   */\n      tag_84\n        /* \"#utility.yul\":3387:3390   */\n      dup3\n        /* \"#utility.yul\":3298:3391   */\n      tag_49\n      jump\t// in\n    tag_84:\n        /* \"#utility.yul\":3416:3418   */\n      0x20\n        /* \"#utility.yul\":3411:3414   */\n      dup3\n        /* \"#utility.yul\":3407:3419   */\n      add\n        /* \"#utility.yul\":3400:3419   */\n      swap1\n      pop\n        /* \"#utility.yul\":3059:3425   */\n      swap2\n      swap1\n      pop\n      jump\t// out\n        /* \"#utility.yul\":3431:3850   */\n    tag_32:\n        /* \"#utility.yul\":3597:3601   */\n      0x00\n        /* \"#utility.yul\":3635:3637   */\n      0x20\n        /* \"#utility.yul\":3624:3633   */\n      dup3\n        /* \"#utility.yul\":3620:3638   */\n      add\n        /* \"#utility.yul\":3612:3638   */\n      swap1\n      pop\n        /* \"#utility.yul\":3684:3693   */\n      dup2\n        /* \"#utility.yul\":3678:3682   */\n      dup2\n        /* \"#utility.yul\":3674:3694   */\n      sub\n        /* \"#utility.yul\":3670:3671   */\n      0x00\n        /* \"#utility.yul\":3659:3668   */\n      dup4\n        /* \"#utility.yul\":3655:3672   */\n      add\n        /* \"#utility.yul\":3648:3695   */\n      mstore\n        /* \"#utility.yul\":3712:3843   */\n      tag_86\n        /* \"#utility.yul\":3838:3842   */\n      dup2\n        /* \"#utility.yul\":3712:3843   */\n      tag_50\n      jump\t// in\n    tag_86:\n        /* \"#utility.yul\":3704:3843   */\n      swap1\n      pop\n        /* \"#utility.yul\":3431:3850   */\n      swap2\n      swap1\n      pop\n      jump\t// out\n        /* \"#utility.yul\":3856:4036   */\n    tag_51:\n        /* \"#utility.yul\":3904:3981   */\n      0x4e487b7100000000000000000000000000000000000000000000000000000000\n        /* \"#utility.yul\":3901:3902   */\n      0x00\n        /* \"#utility.yul\":3894:3982   */\n      mstore\n        /* \"#utility.yul\":4001:4005   */\n      0x11\n        /* \"#utility.yul\":3998:3999   */\n      0x04\n        /* \"#utility.yul\":3991:4006   */\n      mstore\n        /* \"#utility.yul\":4025:4029   */\n      0x24\n        /* \"#utility.yul\":4022:4023   */\n      0x00\n        /* \"#utility.yul\":4015:4030   */\n      revert\n        /* \"#utility.yul\":4042:4233   */\n    tag_35:\n        /* \"#utility.yul\":4082:4085   */\n      0x00\n        /* \"#utility.yul\":4101:4121   */\n      tag_89\n        /* \"#utility.yul\":4119:4120   */\n      dup3\n        /* \"#utility.yul\":4101:4121   */\n      tag_36\n      jump\t// in\n    tag_89:\n        /* \"#utility.yul\":4096:4121   */\n      swap2\n      pop\n        /* \"#utility.yul\":4135:4155   */\n      tag_90\n        /* \"#utility.yul\":4153:4154   */\n      dup4\n        /* \"#utility.yul\":4135:4155   */\n      tag_36\n      jump\t// in\n    tag_90:\n        /* \"#utility.yul\":4130:4155   */\n      swap3\n      pop\n        /* \"#utility.yul\":4178:4179   */\n      dup3\n        /* \"#utility.yul\":4175:4176   */\n      dup3\n        /* \"#utility.yul\":4171:4180   */\n      add\n        /* \"#utility.yul\":4164:4180   */\n      swap1\n      pop\n        /* \"#utility.yul\":4199:4202   */\n      dup1\n        /* \"#utility.yul\":4196:4197   */\n      dup3\n        /* \"#utility.yul\":4193:4203   */\n      gt\n        /* \"#utility.yul\":4190:4226   */\n      iszero\n      tag_91\n      jumpi\n        /* \"#utility.yul\":4206:4224   */\n      tag_92\n      tag_51\n      jump\t// in\n    tag_92:\n        /* \"#utility.yul\":4190:4226   */\n    tag_91:\n        /* \"#utility.yul\":4042:4233   */\n      swap3\n      swap2\n      pop\n      pop\n      jump\t// out\n\n    auxdata: 0xa2646970667358221220724e6b8e78207179b3c5b5e549862eb39fd3a5df7b0b7889f2f7ef07d2f0193d64736f6c634300081a0033\n}\n",
				"bytecode": {
					"linkReferences": {},
					"object": "6080604052348015600e575f80fd5b5061049f8061001c5f395ff3fe60806040526004361061003e575f3560e01c806312065fe0146100425780633ccfd60b1461006c578063d0e30db014610082578063e3d670d71461008c575b5f80fd5b34801561004d575f80fd5b506100566100c8565b6040516100639190610287565b60405180910390f35b348015610077575f80fd5b506100806100cf565b005b61008a610207565b005b348015610097575f80fd5b506100b260048036038101906100ad91906102fe565b61025b565b6040516100bf9190610287565b60405180910390f35b5f47905090565b5f805f3373ffffffffffffffffffffffffffffffffffffffff1673ffffffffffffffffffffffffffffffffffffffff1681526020019081526020015f205490505f811161011a575f80fd5b5f3373ffffffffffffffffffffffffffffffffffffffff168260405161013f9061037d565b5f6040518083038185875af1925050503d805f8114610179576040519150601f19603f3d011682016040523d82523d5f602084013e61017e565b606091505b50509050806101c2576040517f08c379a00000000000000000000000000000000000000000000000000000000081526004016101b9906103eb565b60405180910390fd5b5f805f3373ffffffffffffffffffffffffffffffffffffffff1673ffffffffffffffffffffffffffffffffffffffff1681526020019081526020015f20819055505050565b345f803373ffffffffffffffffffffffffffffffffffffffff1673ffffffffffffffffffffffffffffffffffffffff1681526020019081526020015f205f8282546102529190610436565b92505081905550565b5f602052805f5260405f205f915090505481565b5f819050919050565b6102818161026f565b82525050565b5f60208201905061029a5f830184610278565b92915050565b5f80fd5b5f73ffffffffffffffffffffffffffffffffffffffff82169050919050565b5f6102cd826102a4565b9050919050565b6102dd816102c3565b81146102e7575f80fd5b50565b5f813590506102f8816102d4565b92915050565b5f60208284031215610313576103126102a0565b5b5f610320848285016102ea565b91505092915050565b5f81905092915050565b7f20000000000000000000000000000000000000000000000000000000000000005f82015250565b5f610367600183610329565b915061037282610333565b600182019050919050565b5f6103878261035b565b9150819050919050565b5f82825260208201905092915050565b7f6661696c20746f2073656e6420457468657200000000000000000000000000005f82015250565b5f6103d5601283610391565b91506103e0826103a1565b602082019050919050565b5f6020820190508181035f830152610402816103c9565b9050919050565b7f4e487b71000000000000000000000000000000000000000000000000000000005f52601160045260245ffd5b5f6104408261026f565b915061044b8361026f565b925082820190508082111561046357610462610409565b5b9291505056fea2646970667358221220724e6b8e78207179b3c5b5e549862eb39fd3a5df7b0b7889f2f7ef07d2f0193d64736f6c634300081a0033",
					"opcodes": "PUSH1 0x80 PUSH1 0x40 MSTORE CALLVALUE DUP1 ISZERO PUSH1 0xE JUMPI PUSH0 DUP1 REVERT JUMPDEST POP PUSH2 0x49F DUP1 PUSH2 0x1C PUSH0 CODECOPY PUSH0 RETURN INVALID PUSH1 0x80 PUSH1 0x40 MSTORE PUSH1 0x4 CALLDATASIZE LT PUSH2 0x3E JUMPI PUSH0 CALLDATALOAD PUSH1 0xE0 SHR DUP1 PUSH4 0x12065FE0 EQ PUSH2 0x42 JUMPI DUP1 PUSH4 0x3CCFD60B EQ PUSH2 0x6C JUMPI DUP1 PUSH4 0xD0E30DB0 EQ PUSH2 0x82 JUMPI DUP1 PUSH4 0xE3D670D7 EQ PUSH2 0x8C JUMPI JUMPDEST PUSH0 DUP1 REVERT JUMPDEST CALLVALUE DUP1 ISZERO PUSH2 0x4D JUMPI PUSH0 DUP1 REVERT JUMPDEST POP PUSH2 0x56 PUSH2 0xC8 JUMP JUMPDEST PUSH1 0x40 MLOAD PUSH2 0x63 SWAP2 SWAP1 PUSH2 0x287 JUMP JUMPDEST PUSH1 0x40 MLOAD DUP1 SWAP2 SUB SWAP1 RETURN JUMPDEST CALLVALUE DUP1 ISZERO PUSH2 0x77 JUMPI PUSH0 DUP1 REVERT JUMPDEST POP PUSH2 0x80 PUSH2 0xCF JUMP JUMPDEST STOP JUMPDEST PUSH2 0x8A PUSH2 0x207 JUMP JUMPDEST STOP JUMPDEST CALLVALUE DUP1 ISZERO PUSH2 0x97 JUMPI PUSH0 DUP1 REVERT JUMPDEST POP PUSH2 0xB2 PUSH1 0x4 DUP1 CALLDATASIZE SUB DUP2 ADD SWAP1 PUSH2 0xAD SWAP2 SWAP1 PUSH2 0x2FE JUMP JUMPDEST PUSH2 0x25B JUMP JUMPDEST PUSH1 0x40 MLOAD PUSH2 0xBF SWAP2 SWAP1 PUSH2 0x287 JUMP JUMPDEST PUSH1 0x40 MLOAD DUP1 SWAP2 SUB SWAP1 RETURN JUMPDEST PUSH0 SELFBALANCE SWAP1 POP SWAP1 JUMP JUMPDEST PUSH0 DUP1 PUSH0 CALLER PUSH20 0xFFFFFFFFFFFFFFFFFFFFFFFFFFFFFFFFFFFFFFFF AND PUSH20 0xFFFFFFFFFFFFFFFFFFFFFFFFFFFFFFFFFFFFFFFF AND DUP2 MSTORE PUSH1 0x20 ADD SWAP1 DUP2 MSTORE PUSH1 0x20 ADD PUSH0 KECCAK256 SLOAD SWAP1 POP PUSH0 DUP2 GT PUSH2 0x11A JUMPI PUSH0 DUP1 REVERT JUMPDEST PUSH0 CALLER PUSH20 0xFFFFFFFFFFFFFFFFFFFFFFFFFFFFFFFFFFFFFFFF AND DUP3 PUSH1 0x40 MLOAD PUSH2 0x13F SWAP1 PUSH2 0x37D JUMP JUMPDEST PUSH0 PUSH1 0x40 MLOAD DUP1 DUP4 SUB DUP2 DUP6 DUP8 GAS CALL SWAP3 POP POP POP RETURNDATASIZE DUP1 PUSH0 DUP2 EQ PUSH2 0x179 JUMPI PUSH1 0x40 MLOAD SWAP2 POP PUSH1 0x1F NOT PUSH1 0x3F RETURNDATASIZE ADD AND DUP3 ADD PUSH1 0x40 MSTORE RETURNDATASIZE DUP3 MSTORE RETURNDATASIZE PUSH0 PUSH1 0x20 DUP5 ADD RETURNDATACOPY PUSH2 0x17E JUMP JUMPDEST PUSH1 0x60 SWAP2 POP JUMPDEST POP POP SWAP1 POP DUP1 PUSH2 0x1C2 JUMPI PUSH1 0x40 MLOAD PUSH32 0x8C379A000000000000000000000000000000000000000000000000000000000 DUP2 MSTORE PUSH1 0x4 ADD PUSH2 0x1B9 SWAP1 PUSH2 0x3EB JUMP JUMPDEST PUSH1 0x40 MLOAD DUP1 SWAP2 SUB SWAP1 REVERT JUMPDEST PUSH0 DUP1 PUSH0 CALLER PUSH20 0xFFFFFFFFFFFFFFFFFFFFFFFFFFFFFFFFFFFFFFFF AND PUSH20 0xFFFFFFFFFFFFFFFFFFFFFFFFFFFFFFFFFFFFFFFF AND DUP2 MSTORE PUSH1 0x20 ADD SWAP1 DUP2 MSTORE PUSH1 0x20 ADD PUSH0 KECCAK256 DUP2 SWAP1 SSTORE POP POP POP JUMP JUMPDEST CALLVALUE PUSH0 DUP1 CALLER PUSH20 0xFFFFFFFFFFFFFFFFFFFFFFFFFFFFFFFFFFFFFFFF AND PUSH20 0xFFFFFFFFFFFFFFFFFFFFFFFFFFFFFFFFFFFFFFFF AND DUP2 MSTORE PUSH1 0x20 ADD SWAP1 DUP2 MSTORE PUSH1 0x20 ADD PUSH0 KECCAK256 PUSH0 DUP3 DUP3 SLOAD PUSH2 0x252 SWAP2 SWAP1 PUSH2 0x436 JUMP JUMPDEST SWAP3 POP POP DUP2 SWAP1 SSTORE POP JUMP JUMPDEST PUSH0 PUSH1 0x20 MSTORE DUP1 PUSH0 MSTORE PUSH1 0x40 PUSH0 KECCAK256 PUSH0 SWAP2 POP SWAP1 POP SLOAD DUP2 JUMP JUMPDEST PUSH0 DUP2 SWAP1 POP SWAP2 SWAP1 POP JUMP JUMPDEST PUSH2 0x281 DUP2 PUSH2 0x26F JUMP JUMPDEST DUP3 MSTORE POP POP JUMP JUMPDEST PUSH0 PUSH1 0x20 DUP3 ADD SWAP1 POP PUSH2 0x29A PUSH0 DUP4 ADD DUP5 PUSH2 0x278 JUMP JUMPDEST SWAP3 SWAP2 POP POP JUMP JUMPDEST PUSH0 DUP1 REVERT JUMPDEST PUSH0 PUSH20 0xFFFFFFFFFFFFFFFFFFFFFFFFFFFFFFFFFFFFFFFF DUP3 AND SWAP1 POP SWAP2 SWAP1 POP JUMP JUMPDEST PUSH0 PUSH2 0x2CD DUP3 PUSH2 0x2A4 JUMP JUMPDEST SWAP1 POP SWAP2 SWAP1 POP JUMP JUMPDEST PUSH2 0x2DD DUP2 PUSH2 0x2C3 JUMP JUMPDEST DUP2 EQ PUSH2 0x2E7 JUMPI PUSH0 DUP1 REVERT JUMPDEST POP JUMP JUMPDEST PUSH0 DUP2 CALLDATALOAD SWAP1 POP PUSH2 0x2F8 DUP2 PUSH2 0x2D4 JUMP JUMPDEST SWAP3 SWAP2 POP POP JUMP JUMPDEST PUSH0 PUSH1 0x20 DUP3 DUP5 SUB SLT ISZERO PUSH2 0x313 JUMPI PUSH2 0x312 PUSH2 0x2A0 JUMP JUMPDEST JUMPDEST PUSH0 PUSH2 0x320 DUP5 DUP3 DUP6 ADD PUSH2 0x2EA JUMP JUMPDEST SWAP2 POP POP SWAP3 SWAP2 POP POP JUMP JUMPDEST PUSH0 DUP2 SWAP1 POP SWAP3 SWAP2 POP POP JUMP JUMPDEST PUSH32 0x2000000000000000000000000000000000000000000000000000000000000000 PUSH0 DUP3 ADD MSTORE POP JUMP JUMPDEST PUSH0 PUSH2 0x367 PUSH1 0x1 DUP4 PUSH2 0x329 JUMP JUMPDEST SWAP2 POP PUSH2 0x372 DUP3 PUSH2 0x333 JUMP JUMPDEST PUSH1 0x1 DUP3 ADD SWAP1 POP SWAP2 SWAP1 POP JUMP JUMPDEST PUSH0 PUSH2 0x387 DUP3 PUSH2 0x35B JUMP JUMPDEST SWAP2 POP DUP2 SWAP1 POP SWAP2 SWAP1 POP JUMP JUMPDEST PUSH0 DUP3 DUP3 MSTORE PUSH1 0x20 DUP3 ADD SWAP1 POP SWAP3 SWAP2 POP POP JUMP JUMPDEST PUSH32 0x6661696C20746F2073656E642045746865720000000000000000000000000000 PUSH0 DUP3 ADD MSTORE POP JUMP JUMPDEST PUSH0 PUSH2 0x3D5 PUSH1 0x12 DUP4 PUSH2 0x391 JUMP JUMPDEST SWAP2 POP PUSH2 0x3E0 DUP3 PUSH2 0x3A1 JUMP JUMPDEST PUSH1 0x20 DUP3 ADD SWAP1 POP SWAP2 SWAP1 POP JUMP JUMPDEST PUSH0 PUSH1 0x20 DUP3 ADD SWAP1 POP DUP2 DUP2 SUB PUSH0 DUP4 ADD MSTORE PUSH2 0x402 DUP2 PUSH2 0x3C9 JUMP JUMPDEST SWAP1 POP SWAP2 SWAP1 POP JUMP JUMPDEST PUSH32 0x4E487B7100000000000000000000000000000000000000000000000000000000 PUSH0 MSTORE PUSH1 0x11 PUSH1 0x4 MSTORE PUSH1 0x24 PUSH0 REVERT JUMPDEST PUSH0 PUSH2 0x440 DUP3 PUSH2 0x26F JUMP JUMPDEST SWAP2 POP PUSH2 0x44B DUP4 PUSH2 0x26F JUMP JUMPDEST SWAP3 POP DUP3 DUP3 ADD SWAP1 POP DUP1 DUP3 GT ISZERO PUSH2 0x463 JUMPI PUSH2 0x462 PUSH2 0x409 JUMP JUMPDEST JUMPDEST SWAP3 SWAP2 POP POP JUMP INVALID LOG2 PUSH5 0x6970667358 0x22 SLT KECCAK256 PUSH19 0x4E6B8E78207179B3C5B5E549862EB39FD3A5DF PUSH28 0xB7889F2F7EF07D2F0193D64736F6C634300081A0033000000000000 "
				},
				"gasEstimates": {
					"creation": {
						"codeDepositCost": "236600",
						"executionCost": "273",
						"totalCost": "236873"
					},
					"external": {
						"balance(address)": "2845",
						"deposit()": "infinite",
						"getBalance()": "312",
						"withdraw()": "infinite"
					}
				},
				"methodIdentifiers": {
					"balance(address)": "e3d670d7",
					"deposit()": "d0e30db0",
					"getBalance()": "12065fe0",
					"withdraw()": "3ccfd60b"
				}
			},
			"storageLayout": {
				"storage": [
					{
						"astId": 5,
						"contract": "contract/EtherStore.sol:EtherStore",
						"label": "balance",
						"offset": 0,
						"slot": "0",
						"type": "t_mapping(t_address,t_uint256)"
					}
				],
				"types": {
					"t_address": {
						"encoding": "inplace",
						"label": "address",
						"numberOfBytes": "20"
					},
					"t_mapping(t_address,t_uint256)": {
						"encoding": "mapping",
						"key": "t_address",
						"label": "mapping(address => uint256)",
						"numberOfBytes": "32",
						"value": "t_uint256"
					},
					"t_uint256": {
						"encoding": "inplace",
						"label": "uint256",
						"numberOfBytes": "32"
					}
				}
			},
			"userdoc": {
				"kind": "user",
				"methods": {},
				"version": 1
			}
		}
	}
}